{
  "_format": "hh-sol-artifact-1",
  "contractName": "MyNFT",
  "sourceName": "contracts/erc721.sol",
  "abi": [
    {
      "inputs": [
        {
          "internalType": "uint256",
          "name": "_maxRoyality",
          "type": "uint256"
        }
      ],
      "stateMutability": "nonpayable",
      "type": "constructor"
    },
    {
      "anonymous": false,
      "inputs": [
        {
          "indexed": true,
          "internalType": "address",
          "name": "owner",
          "type": "address"
        },
        {
          "indexed": true,
          "internalType": "address",
          "name": "approved",
          "type": "address"
        },
        {
          "indexed": true,
          "internalType": "uint256",
          "name": "tokenId",
          "type": "uint256"
        }
      ],
      "name": "Approval",
      "type": "event"
    },
    {
      "anonymous": false,
      "inputs": [
        {
          "indexed": true,
          "internalType": "address",
          "name": "owner",
          "type": "address"
        },
        {
          "indexed": true,
          "internalType": "address",
          "name": "operator",
          "type": "address"
        },
        {
          "indexed": false,
          "internalType": "bool",
          "name": "approved",
          "type": "bool"
        }
      ],
      "name": "ApprovalForAll",
      "type": "event"
    },
    {
      "anonymous": false,
      "inputs": [
        {
          "indexed": true,
          "internalType": "address",
          "name": "from",
          "type": "address"
        },
        {
          "indexed": true,
          "internalType": "address",
          "name": "to",
          "type": "address"
        },
        {
          "indexed": true,
          "internalType": "uint256",
          "name": "tokenId",
          "type": "uint256"
        }
      ],
      "name": "Transfer",
      "type": "event"
    },
    {
      "inputs": [
        {
          "internalType": "address",
          "name": "to",
          "type": "address"
        },
        {
          "internalType": "uint256",
          "name": "tokenId",
          "type": "uint256"
        }
      ],
      "name": "approve",
      "outputs": [],
      "stateMutability": "nonpayable",
      "type": "function"
    },
    {
      "inputs": [
        {
          "internalType": "address",
          "name": "owner",
          "type": "address"
        }
      ],
      "name": "balanceOf",
      "outputs": [
        {
          "internalType": "uint256",
          "name": "",
          "type": "uint256"
        }
      ],
      "stateMutability": "view",
      "type": "function"
    },
    {
      "inputs": [
        {
          "internalType": "uint256",
          "name": "tokenId",
          "type": "uint256"
        }
      ],
      "name": "getApproved",
      "outputs": [
        {
          "internalType": "address",
          "name": "",
          "type": "address"
        }
      ],
      "stateMutability": "view",
      "type": "function"
    },
    {
      "inputs": [
        {
          "internalType": "address",
          "name": "owner",
          "type": "address"
        },
        {
          "internalType": "address",
          "name": "operator",
          "type": "address"
        }
      ],
      "name": "isApprovedForAll",
      "outputs": [
        {
          "internalType": "bool",
          "name": "",
          "type": "bool"
        }
      ],
      "stateMutability": "view",
      "type": "function"
    },
    {
      "inputs": [],
      "name": "maximumRoyality",
      "outputs": [
        {
          "internalType": "uint256",
          "name": "",
          "type": "uint256"
        }
      ],
      "stateMutability": "view",
      "type": "function"
    },
    {
      "inputs": [
        {
          "internalType": "address",
          "name": "to",
          "type": "address"
        },
        {
          "internalType": "string",
          "name": "tokenURI",
          "type": "string"
        },
        {
          "internalType": "uint256",
          "name": "_royality",
          "type": "uint256"
        }
      ],
      "name": "mint",
      "outputs": [
        {
          "internalType": "uint256",
          "name": "",
          "type": "uint256"
        }
      ],
      "stateMutability": "nonpayable",
      "type": "function"
    },
    {
      "inputs": [],
      "name": "name",
      "outputs": [
        {
          "internalType": "string",
          "name": "",
          "type": "string"
        }
      ],
      "stateMutability": "view",
      "type": "function"
    },
    {
      "inputs": [
        {
          "internalType": "uint256",
          "name": "tokenId",
          "type": "uint256"
        }
      ],
      "name": "ownerOf",
      "outputs": [
        {
          "internalType": "address",
          "name": "",
          "type": "address"
        }
      ],
      "stateMutability": "view",
      "type": "function"
    },
    {
      "inputs": [
        {
          "internalType": "uint256",
          "name": "",
          "type": "uint256"
        }
      ],
      "name": "royality",
      "outputs": [
        {
          "internalType": "uint256",
          "name": "",
          "type": "uint256"
        }
      ],
      "stateMutability": "view",
      "type": "function"
    },
    {
      "inputs": [
        {
          "internalType": "address",
          "name": "from",
          "type": "address"
        },
        {
          "internalType": "address",
          "name": "to",
          "type": "address"
        },
        {
          "internalType": "uint256",
          "name": "tokenId",
          "type": "uint256"
        }
      ],
      "name": "safeTransferFrom",
      "outputs": [],
      "stateMutability": "nonpayable",
      "type": "function"
    },
    {
      "inputs": [
        {
          "internalType": "address",
          "name": "from",
          "type": "address"
        },
        {
          "internalType": "address",
          "name": "to",
          "type": "address"
        },
        {
          "internalType": "uint256",
          "name": "tokenId",
          "type": "uint256"
        },
        {
          "internalType": "bytes",
          "name": "_data",
          "type": "bytes"
        }
      ],
      "name": "safeTransferFrom",
      "outputs": [],
      "stateMutability": "nonpayable",
      "type": "function"
    },
    {
      "inputs": [
        {
          "internalType": "address",
          "name": "operator",
          "type": "address"
        },
        {
          "internalType": "bool",
          "name": "approved",
          "type": "bool"
        }
      ],
      "name": "setApprovalForAll",
      "outputs": [],
      "stateMutability": "nonpayable",
      "type": "function"
    },
    {
      "inputs": [
        {
          "internalType": "bytes4",
          "name": "interfaceId",
          "type": "bytes4"
        }
      ],
      "name": "supportsInterface",
      "outputs": [
        {
          "internalType": "bool",
          "name": "",
          "type": "bool"
        }
      ],
      "stateMutability": "view",
      "type": "function"
    },
    {
      "inputs": [],
      "name": "symbol",
      "outputs": [
        {
          "internalType": "string",
          "name": "",
          "type": "string"
        }
      ],
      "stateMutability": "view",
      "type": "function"
    },
    {
      "inputs": [
        {
          "internalType": "uint256",
          "name": "tokenId",
          "type": "uint256"
        }
      ],
      "name": "tokenURI",
      "outputs": [
        {
          "internalType": "string",
          "name": "",
          "type": "string"
        }
      ],
      "stateMutability": "view",
      "type": "function"
    },
    {
      "inputs": [
        {
          "internalType": "address",
          "name": "from",
          "type": "address"
        },
        {
          "internalType": "address",
          "name": "to",
          "type": "address"
        },
        {
          "internalType": "uint256",
          "name": "tokenId",
          "type": "uint256"
        }
      ],
      "name": "transferFrom",
      "outputs": [],
      "stateMutability": "nonpayable",
      "type": "function"
    }
  ],
  "bytecode": "0x60806040523480156200001157600080fd5b5060405162002f1838038062002f18833981810160405281019062000037919062000202565b6040518060400160405280600481526020017f41626869000000000000000000000000000000000000000000000000000000008152506040518060400160405280600581526020017f5368616b650000000000000000000000000000000000000000000000000000008152508160009080519060200190620000bb92919062000112565b508060019080519060200190620000d492919062000112565b505050620000ee6007620000fc60201b62000bc41760201c565b806009819055505062000299565b6001816000016000828254019250508190555050565b828054620001209062000263565b90600052602060002090601f01602090048101928262000144576000855562000190565b82601f106200015f57805160ff191683800117855562000190565b8280016001018555821562000190579182015b828111156200018f57825182559160200191906001019062000172565b5b5090506200019f9190620001a3565b5090565b5b80821115620001be576000816000905550600101620001a4565b5090565b600080fd5b6000819050919050565b620001dc81620001c7565b8114620001e857600080fd5b50565b600081519050620001fc81620001d1565b92915050565b6000602082840312156200021b576200021a620001c2565b5b60006200022b84828501620001eb565b91505092915050565b7f4e487b7100000000000000000000000000000000000000000000000000000000600052602260045260246000fd5b600060028204905060018216806200027c57607f821691505b6020821081141562000293576200029262000234565b5b50919050565b612c6f80620002a96000396000f3fe608060405234801561001057600080fd5b50600436106101005760003560e01c806395d89b4111610097578063c87b56dd11610066578063c87b56dd146102bd578063d98a17ed146102ed578063ddb2126d1461030b578063e985e9c51461033b57610100565b806395d89b4114610237578063a22cb46514610255578063b88d4fde14610271578063ba7aef431461028d57610100565b806323b872dd116100d357806323b872dd1461019f57806342842e0e146101bb5780636352211e146101d757806370a082311461020757610100565b806301ffc9a71461010557806306fdde0314610135578063081812fc14610153578063095ea7b314610183575b600080fd5b61011f600480360381019061011a91906119be565b61036b565b60405161012c9190611a06565b60405180910390f35b61013d61044d565b60405161014a9190611aba565b60405180910390f35b61016d60048036038101906101689190611b12565b6104df565b60405161017a9190611b80565b60405180910390f35b61019d60048036038101906101989190611bc7565b610564565b005b6101b960048036038101906101b49190611c07565b61067c565b005b6101d560048036038101906101d09190611c07565b6106dc565b005b6101f160048036038101906101ec9190611b12565b6106fc565b6040516101fe9190611b80565b60405180910390f35b610221600480360381019061021c9190611c5a565b6107ae565b60405161022e9190611c96565b60405180910390f35b61023f610866565b60405161024c9190611aba565b60405180910390f35b61026f600480360381019061026a9190611cdd565b6108f8565b005b61028b60048036038101906102869190611e52565b61090e565b005b6102a760048036038101906102a29190611f76565b610970565b6040516102b49190611c96565b60405180910390f35b6102d760048036038101906102d29190611b12565b6109c0565b6040516102e49190611aba565b60405180910390f35b6102f5610b12565b6040516103029190611c96565b60405180910390f35b61032560048036038101906103209190611b12565b610b18565b6040516103329190611c96565b60405180910390f35b61035560048036038101906103509190611fe5565b610b30565b6040516103629190611a06565b60405180910390f35b60007f80ac58cd000000000000000000000000000000000000000000000000000000007bffffffffffffffffffffffffffffffffffffffffffffffffffffffff1916827bffffffffffffffffffffffffffffffffffffffffffffffffffffffff1916148061043657507f5b5e139f000000000000000000000000000000000000000000000000000000007bffffffffffffffffffffffffffffffffffffffffffffffffffffffff1916827bffffffffffffffffffffffffffffffffffffffffffffffffffffffff1916145b80610446575061044582610bda565b5b9050919050565b60606000805461045c90612054565b80601f016020809104026020016040519081016040528092919081815260200182805461048890612054565b80156104d55780601f106104aa576101008083540402835291602001916104d5565b820191906000526020600020905b8154815290600101906020018083116104b857829003601f168201915b5050505050905090565b60006104ea82610c44565b610529576040517f08c379a0000000000000000000000000000000000000000000000000000000008152600401610520906120f8565b60405180910390fd5b6004600083815260200190815260200160002060009054906101000a900473ffffffffffffffffffffffffffffffffffffffff169050919050565b600061056f826106fc565b90508073ffffffffffffffffffffffffffffffffffffffff168373ffffffffffffffffffffffffffffffffffffffff1614156105e0576040517f08c379a00000000000000000000000000000000000000000000000000000000081526004016105d79061218a565b60405180910390fd5b8073ffffffffffffffffffffffffffffffffffffffff166105ff610cb0565b73ffffffffffffffffffffffffffffffffffffffff16148061062e575061062d81610628610cb0565b610b30565b5b61066d576040517f08c379a00000000000000000000000000000000000000000000000000000000081526004016106649061221c565b60405180910390fd5b6106778383610cb8565b505050565b61068d610687610cb0565b82610d71565b6106cc576040517f08c379a00000000000000000000000000000000000000000000000000000000081526004016106c3906122ae565b60405180910390fd5b6106d7838383610e4f565b505050565b6106f78383836040518060200160405280600081525061090e565b505050565b6000806002600084815260200190815260200160002060009054906101000a900473ffffffffffffffffffffffffffffffffffffffff169050600073ffffffffffffffffffffffffffffffffffffffff168173ffffffffffffffffffffffffffffffffffffffff1614156107a5576040517f08c379a000000000000000000000000000000000000000000000000000000000815260040161079c90612340565b60405180910390fd5b80915050919050565b60008073ffffffffffffffffffffffffffffffffffffffff168273ffffffffffffffffffffffffffffffffffffffff16141561081f576040517f08c379a0000000000000000000000000000000000000000000000000000000008152600401610816906123d2565b60405180910390fd5b600360008373ffffffffffffffffffffffffffffffffffffffff1673ffffffffffffffffffffffffffffffffffffffff168152602001908152602001600020549050919050565b60606001805461087590612054565b80601f01602080910402602001604051908101604052809291908181526020018280546108a190612054565b80156108ee5780601f106108c3576101008083540402835291602001916108ee565b820191906000526020600020905b8154815290600101906020018083116108d157829003601f168201915b5050505050905090565b61090a610903610cb0565b83836110b6565b5050565b61091f610919610cb0565b83610d71565b61095e576040517f08c379a0000000000000000000000000000000000000000000000000000000008152600401610955906122ae565b60405180910390fd5b61096a84848484611223565b50505050565b60008061097d600761127f565b9050610989858261128d565b6109938185611467565b61099d6007610bc4565b826008600083815260200190815260200160002081905550809150509392505050565b60606109cb82610c44565b610a0a576040517f08c379a0000000000000000000000000000000000000000000000000000000008152600401610a0190612464565b60405180910390fd5b6000600660008481526020019081526020016000208054610a2a90612054565b80601f0160208091040260200160405190810160405280929190818152602001828054610a5690612054565b8015610aa35780601f10610a7857610100808354040283529160200191610aa3565b820191906000526020600020905b815481529060010190602001808311610a8657829003601f168201915b505050505090506000610ab46114db565b9050600081511415610aca578192505050610b0d565b600082511115610aff578082604051602001610ae79291906124c0565b60405160208183030381529060405292505050610b0d565b610b08846114f2565b925050505b919050565b60095481565b60086020528060005260406000206000915090505481565b6000600560008473ffffffffffffffffffffffffffffffffffffffff1673ffffffffffffffffffffffffffffffffffffffff16815260200190815260200160002060008373ffffffffffffffffffffffffffffffffffffffff1673ffffffffffffffffffffffffffffffffffffffff16815260200190815260200160002060009054906101000a900460ff16905092915050565b6001816000016000828254019250508190555050565b60007f01ffc9a7000000000000000000000000000000000000000000000000000000007bffffffffffffffffffffffffffffffffffffffffffffffffffffffff1916827bffffffffffffffffffffffffffffffffffffffffffffffffffffffff1916149050919050565b60008073ffffffffffffffffffffffffffffffffffffffff166002600084815260200190815260200160002060009054906101000a900473ffffffffffffffffffffffffffffffffffffffff1673ffffffffffffffffffffffffffffffffffffffff1614159050919050565b600033905090565b816004600083815260200190815260200160002060006101000a81548173ffffffffffffffffffffffffffffffffffffffff021916908373ffffffffffffffffffffffffffffffffffffffff160217905550808273ffffffffffffffffffffffffffffffffffffffff16610d2b836106fc565b73ffffffffffffffffffffffffffffffffffffffff167f8c5be1e5ebec7d5bd14f71427d1e84f3dd0314c0f7b2291e5b200ac8c7c3b92560405160405180910390a45050565b6000610d7c82610c44565b610dbb576040517f08c379a0000000000000000000000000000000000000000000000000000000008152600401610db290612556565b60405180910390fd5b6000610dc6836106fc565b90508073ffffffffffffffffffffffffffffffffffffffff168473ffffffffffffffffffffffffffffffffffffffff161480610e085750610e078185610b30565b5b80610e4657508373ffffffffffffffffffffffffffffffffffffffff16610e2e846104df565b73ffffffffffffffffffffffffffffffffffffffff16145b91505092915050565b8273ffffffffffffffffffffffffffffffffffffffff16610e6f826106fc565b73ffffffffffffffffffffffffffffffffffffffff1614610ec5576040517f08c379a0000000000000000000000000000000000000000000000000000000008152600401610ebc906125e8565b60405180910390fd5b600073ffffffffffffffffffffffffffffffffffffffff168273ffffffffffffffffffffffffffffffffffffffff161415610f35576040517f08c379a0000000000000000000000000000000000000000000000000000000008152600401610f2c9061267a565b60405180910390fd5b610f40838383611599565b610f4b600082610cb8565b6001600360008573ffffffffffffffffffffffffffffffffffffffff1673ffffffffffffffffffffffffffffffffffffffff1681526020019081526020016000206000828254610f9b91906126c9565b925050819055506001600360008473ffffffffffffffffffffffffffffffffffffffff1673ffffffffffffffffffffffffffffffffffffffff1681526020019081526020016000206000828254610ff291906126fd565b92505081905550816002600083815260200190815260200160002060006101000a81548173ffffffffffffffffffffffffffffffffffffffff021916908373ffffffffffffffffffffffffffffffffffffffff160217905550808273ffffffffffffffffffffffffffffffffffffffff168473ffffffffffffffffffffffffffffffffffffffff167fddf252ad1be2c89b69c2b068fc378daa952ba7f163c4a11628f55a4df523b3ef60405160405180910390a46110b183838361159e565b505050565b8173ffffffffffffffffffffffffffffffffffffffff168373ffffffffffffffffffffffffffffffffffffffff161415611125576040517f08c379a000000000000000000000000000000000000000000000000000000000815260040161111c9061279f565b60405180910390fd5b80600560008573ffffffffffffffffffffffffffffffffffffffff1673ffffffffffffffffffffffffffffffffffffffff16815260200190815260200160002060008473ffffffffffffffffffffffffffffffffffffffff1673ffffffffffffffffffffffffffffffffffffffff16815260200190815260200160002060006101000a81548160ff0219169083151502179055508173ffffffffffffffffffffffffffffffffffffffff168373ffffffffffffffffffffffffffffffffffffffff167f17307eab39ab6107e8899845ad3d59bd9653f200f220920489ca2b5937696c31836040516112169190611a06565b60405180910390a3505050565b61122e848484610e4f565b61123a848484846115a3565b611279576040517f08c379a000000000000000000000000000000000000000000000000000000000815260040161127090612831565b60405180910390fd5b50505050565b600081600001549050919050565b600073ffffffffffffffffffffffffffffffffffffffff168273ffffffffffffffffffffffffffffffffffffffff1614156112fd576040517f08c379a00000000000000000000000000000000000000000000000000000000081526004016112f49061289d565b60405180910390fd5b61130681610c44565b15611346576040517f08c379a000000000000000000000000000000000000000000000000000000000815260040161133d90612909565b60405180910390fd5b61135260008383611599565b6001600360008473ffffffffffffffffffffffffffffffffffffffff1673ffffffffffffffffffffffffffffffffffffffff16815260200190815260200160002060008282546113a291906126fd565b92505081905550816002600083815260200190815260200160002060006101000a81548173ffffffffffffffffffffffffffffffffffffffff021916908373ffffffffffffffffffffffffffffffffffffffff160217905550808273ffffffffffffffffffffffffffffffffffffffff16600073ffffffffffffffffffffffffffffffffffffffff167fddf252ad1be2c89b69c2b068fc378daa952ba7f163c4a11628f55a4df523b3ef60405160405180910390a46114636000838361159e565b5050565b61147082610c44565b6114af576040517f08c379a00000000000000000000000000000000000000000000000000000000081526004016114a69061299b565b60405180910390fd5b806006600084815260200190815260200160002090805190602001906114d69291906118af565b505050565b606060405180602001604052806000815250905090565b60606114fd82610c44565b61153c576040517f08c379a000000000000000000000000000000000000000000000000000000000815260040161153390612a2d565b60405180910390fd5b60006115466114db565b905060008151116115665760405180602001604052806000815250611591565b806115708461172b565b6040516020016115819291906124c0565b6040516020818303038152906040525b915050919050565b505050565b505050565b60006115c48473ffffffffffffffffffffffffffffffffffffffff1661188c565b1561171e578373ffffffffffffffffffffffffffffffffffffffff1663150b7a026115ed610cb0565b8786866040518563ffffffff1660e01b815260040161160f9493929190612aa2565b6020604051808303816000875af192505050801561164b57506040513d601f19601f820116820180604052508101906116489190612b03565b60015b6116ce573d806000811461167b576040519150601f19603f3d011682016040523d82523d6000602084013e611680565b606091505b506000815114156116c6576040517f08c379a00000000000000000000000000000000000000000000000000000000081526004016116bd90612831565b60405180910390fd5b805181602001fd5b63150b7a0260e01b7bffffffffffffffffffffffffffffffffffffffffffffffffffffffff1916817bffffffffffffffffffffffffffffffffffffffffffffffffffffffff191614915050611723565b600190505b949350505050565b60606000821415611773576040518060400160405280600181526020017f30000000000000000000000000000000000000000000000000000000000000008152509050611887565b600082905060005b600082146117a557808061178e90612b30565b915050600a8261179e9190612ba8565b915061177b565b60008167ffffffffffffffff8111156117c1576117c0611d27565b5b6040519080825280601f01601f1916602001820160405280156117f35781602001600182028036833780820191505090505b5090505b600085146118805760018261180c91906126c9565b9150600a8561181b9190612bd9565b603061182791906126fd565b60f81b81838151811061183d5761183c612c0a565b5b60200101907effffffffffffffffffffffffffffffffffffffffffffffffffffffffffffff1916908160001a905350600a856118799190612ba8565b94506117f7565b8093505050505b919050565b6000808273ffffffffffffffffffffffffffffffffffffffff163b119050919050565b8280546118bb90612054565b90600052602060002090601f0160209004810192826118dd5760008555611924565b82601f106118f657805160ff1916838001178555611924565b82800160010185558215611924579182015b82811115611923578251825591602001919060010190611908565b5b5090506119319190611935565b5090565b5b8082111561194e576000816000905550600101611936565b5090565b6000604051905090565b600080fd5b600080fd5b60007fffffffff0000000000000000000000000000000000000000000000000000000082169050919050565b61199b81611966565b81146119a657600080fd5b50565b6000813590506119b881611992565b92915050565b6000602082840312156119d4576119d361195c565b5b60006119e2848285016119a9565b91505092915050565b60008115159050919050565b611a00816119eb565b82525050565b6000602082019050611a1b60008301846119f7565b92915050565b600081519050919050565b600082825260208201905092915050565b60005b83811015611a5b578082015181840152602081019050611a40565b83811115611a6a576000848401525b50505050565b6000601f19601f8301169050919050565b6000611a8c82611a21565b611a968185611a2c565b9350611aa6818560208601611a3d565b611aaf81611a70565b840191505092915050565b60006020820190508181036000830152611ad48184611a81565b905092915050565b6000819050919050565b611aef81611adc565b8114611afa57600080fd5b50565b600081359050611b0c81611ae6565b92915050565b600060208284031215611b2857611b2761195c565b5b6000611b3684828501611afd565b91505092915050565b600073ffffffffffffffffffffffffffffffffffffffff82169050919050565b6000611b6a82611b3f565b9050919050565b611b7a81611b5f565b82525050565b6000602082019050611b956000830184611b71565b92915050565b611ba481611b5f565b8114611baf57600080fd5b50565b600081359050611bc181611b9b565b92915050565b60008060408385031215611bde57611bdd61195c565b5b6000611bec85828601611bb2565b9250506020611bfd85828601611afd565b9150509250929050565b600080600060608486031215611c2057611c1f61195c565b5b6000611c2e86828701611bb2565b9350506020611c3f86828701611bb2565b9250506040611c5086828701611afd565b9150509250925092565b600060208284031215611c7057611c6f61195c565b5b6000611c7e84828501611bb2565b91505092915050565b611c9081611adc565b82525050565b6000602082019050611cab6000830184611c87565b92915050565b611cba816119eb565b8114611cc557600080fd5b50565b600081359050611cd781611cb1565b92915050565b60008060408385031215611cf457611cf361195c565b5b6000611d0285828601611bb2565b9250506020611d1385828601611cc8565b9150509250929050565b600080fd5b600080fd5b7f4e487b7100000000000000000000000000000000000000000000000000000000600052604160045260246000fd5b611d5f82611a70565b810181811067ffffffffffffffff82111715611d7e57611d7d611d27565b5b80604052505050565b6000611d91611952565b9050611d9d8282611d56565b919050565b600067ffffffffffffffff821115611dbd57611dbc611d27565b5b611dc682611a70565b9050602081019050919050565b82818337600083830152505050565b6000611df5611df084611da2565b611d87565b905082815260208101848484011115611e1157611e10611d22565b5b611e1c848285611dd3565b509392505050565b600082601f830112611e3957611e38611d1d565b5b8135611e49848260208601611de2565b91505092915050565b60008060008060808587031215611e6c57611e6b61195c565b5b6000611e7a87828801611bb2565b9450506020611e8b87828801611bb2565b9350506040611e9c87828801611afd565b925050606085013567ffffffffffffffff811115611ebd57611ebc611961565b5b611ec987828801611e24565b91505092959194509250565b600067ffffffffffffffff821115611ef057611eef611d27565b5b611ef982611a70565b9050602081019050919050565b6000611f19611f1484611ed5565b611d87565b905082815260208101848484011115611f3557611f34611d22565b5b611f40848285611dd3565b509392505050565b600082601f830112611f5d57611f5c611d1d565b5b8135611f6d848260208601611f06565b91505092915050565b600080600060608486031215611f8f57611f8e61195c565b5b6000611f9d86828701611bb2565b935050602084013567ffffffffffffffff811115611fbe57611fbd611961565b5b611fca86828701611f48565b9250506040611fdb86828701611afd565b9150509250925092565b60008060408385031215611ffc57611ffb61195c565b5b600061200a85828601611bb2565b925050602061201b85828601611bb2565b9150509250929050565b7f4e487b7100000000000000000000000000000000000000000000000000000000600052602260045260246000fd5b6000600282049050600182168061206c57607f821691505b602082108114156120805761207f612025565b5b50919050565b7f4552433732313a20617070726f76656420717565727920666f72206e6f6e657860008201527f697374656e7420746f6b656e0000000000000000000000000000000000000000602082015250565b60006120e2602c83611a2c565b91506120ed82612086565b604082019050919050565b60006020820190508181036000830152612111816120d5565b9050919050565b7f4552433732313a20617070726f76616c20746f2063757272656e74206f776e6560008201527f7200000000000000000000000000000000000000000000000000000000000000602082015250565b6000612174602183611a2c565b915061217f82612118565b604082019050919050565b600060208201905081810360008301526121a381612167565b9050919050565b7f4552433732313a20617070726f76652063616c6c6572206973206e6f74206f7760008201527f6e6572206e6f7220617070726f76656420666f7220616c6c0000000000000000602082015250565b6000612206603883611a2c565b9150612211826121aa565b604082019050919050565b60006020820190508181036000830152612235816121f9565b9050919050565b7f4552433732313a207472616e736665722063616c6c6572206973206e6f74206f60008201527f776e6572206e6f7220617070726f766564000000000000000000000000000000602082015250565b6000612298603183611a2c565b91506122a38261223c565b604082019050919050565b600060208201905081810360008301526122c78161228b565b9050919050565b7f4552433732313a206f776e657220717565727920666f72206e6f6e657869737460008201527f656e7420746f6b656e0000000000000000000000000000000000000000000000602082015250565b600061232a602983611a2c565b9150612335826122ce565b604082019050919050565b600060208201905081810360008301526123598161231d565b9050919050565b7f4552433732313a2062616c616e636520717565727920666f7220746865207a6560008201527f726f206164647265737300000000000000000000000000000000000000000000602082015250565b60006123bc602a83611a2c565b91506123c782612360565b604082019050919050565b600060208201905081810360008301526123eb816123af565b9050919050565b7f45524337323155524953746f726167653a2055524920717565727920666f722060008201527f6e6f6e6578697374656e7420746f6b656e000000000000000000000000000000602082015250565b600061244e603183611a2c565b9150612459826123f2565b604082019050919050565b6000602082019050818103600083015261247d81612441565b9050919050565b600081905092915050565b600061249a82611a21565b6124a48185612484565b93506124b4818560208601611a3d565b80840191505092915050565b60006124cc828561248f565b91506124d8828461248f565b91508190509392505050565b7f4552433732313a206f70657261746f7220717565727920666f72206e6f6e657860008201527f697374656e7420746f6b656e0000000000000000000000000000000000000000602082015250565b6000612540602c83611a2c565b915061254b826124e4565b604082019050919050565b6000602082019050818103600083015261256f81612533565b9050919050565b7f4552433732313a207472616e736665722066726f6d20696e636f72726563742060008201527f6f776e6572000000000000000000000000000000000000000000000000000000602082015250565b60006125d2602583611a2c565b91506125dd82612576565b604082019050919050565b60006020820190508181036000830152612601816125c5565b9050919050565b7f4552433732313a207472616e7366657220746f20746865207a65726f2061646460008201527f7265737300000000000000000000000000000000000000000000000000000000602082015250565b6000612664602483611a2c565b915061266f82612608565b604082019050919050565b6000602082019050818103600083015261269381612657565b9050919050565b7f4e487b7100000000000000000000000000000000000000000000000000000000600052601160045260246000fd5b60006126d482611adc565b91506126df83611adc565b9250828210156126f2576126f161269a565b5b828203905092915050565b600061270882611adc565b915061271383611adc565b9250827fffffffffffffffffffffffffffffffffffffffffffffffffffffffffffffffff038211156127485761274761269a565b5b828201905092915050565b7f4552433732313a20617070726f766520746f2063616c6c657200000000000000600082015250565b6000612789601983611a2c565b915061279482612753565b602082019050919050565b600060208201905081810360008301526127b88161277c565b9050919050565b7f4552433732313a207472616e7366657220746f206e6f6e20455243373231526560008201527f63656976657220696d706c656d656e7465720000000000000000000000000000602082015250565b600061281b603283611a2c565b9150612826826127bf565b604082019050919050565b6000602082019050818103600083015261284a8161280e565b9050919050565b7f4552433732313a206d696e7420746f20746865207a65726f2061646472657373600082015250565b6000612887602083611a2c565b915061289282612851565b602082019050919050565b600060208201905081810360008301526128b68161287a565b9050919050565b7f4552433732313a20746f6b656e20616c7265616479206d696e74656400000000600082015250565b60006128f3601c83611a2c565b91506128fe826128bd565b602082019050919050565b60006020820190508181036000830152612922816128e6565b9050919050565b7f45524337323155524953746f726167653a2055524920736574206f66206e6f6e60008201527f6578697374656e7420746f6b656e000000000000000000000000000000000000602082015250565b6000612985602e83611a2c565b915061299082612929565b604082019050919050565b600060208201905081810360008301526129b481612978565b9050919050565b7f4552433732314d657461646174613a2055524920717565727920666f72206e6f60008201527f6e6578697374656e7420746f6b656e0000000000000000000000000000000000602082015250565b6000612a17602f83611a2c565b9150612a22826129bb565b604082019050919050565b60006020820190508181036000830152612a4681612a0a565b9050919050565b600081519050919050565b600082825260208201905092915050565b6000612a7482612a4d565b612a7e8185612a58565b9350612a8e818560208601611a3d565b612a9781611a70565b840191505092915050565b6000608082019050612ab76000830187611b71565b612ac46020830186611b71565b612ad16040830185611c87565b8181036060830152612ae38184612a69565b905095945050505050565b600081519050612afd81611992565b92915050565b600060208284031215612b1957612b1861195c565b5b6000612b2784828501612aee565b91505092915050565b6000612b3b82611adc565b91507fffffffffffffffffffffffffffffffffffffffffffffffffffffffffffffffff821415612b6e57612b6d61269a565b5b600182019050919050565b7f4e487b7100000000000000000000000000000000000000000000000000000000600052601260045260246000fd5b6000612bb382611adc565b9150612bbe83611adc565b925082612bce57612bcd612b79565b5b828204905092915050565b6000612be482611adc565b9150612bef83611adc565b925082612bff57612bfe612b79565b5b828206905092915050565b7f4e487b7100000000000000000000000000000000000000000000000000000000600052603260045260246000fdfea2646970667358221220dacc891cf29be55133069e26f85ed0e0ae2fb1a7886470f1a84d867299700e8f64736f6c634300080c0033",
  "linkReferences": {},
  "deployedLinkReferences": {}
}