{
  "contracts/mocks/ERC20Token.sol": {
    "erc20Token": {
      "abi": [
        {
          "constant": true,
          "inputs": [],
          "name": "name",
          "outputs": [
            {
              "name": "",
              "type": "string"
            }
          ],
          "payable": false,
          "stateMutability": "view",
          "type": "function"
        },
        {
          "constant": false,
          "inputs": [
            {
              "name": "guy",
              "type": "address"
            },
            {
              "name": "wad",
              "type": "uint256"
            }
          ],
          "name": "approve",
          "outputs": [
            {
              "name": "",
              "type": "bool"
            }
          ],
          "payable": false,
          "stateMutability": "nonpayable",
          "type": "function"
        },
        {
          "constant": true,
          "inputs": [],
          "name": "totalSupply",
          "outputs": [
            {
              "name": "",
              "type": "uint256"
            }
          ],
          "payable": false,
          "stateMutability": "view",
          "type": "function"
        },
        {
          "constant": false,
          "inputs": [
            {
              "name": "src",
              "type": "address"
            },
            {
              "name": "dst",
              "type": "address"
            },
            {
              "name": "wad",
              "type": "uint256"
            }
          ],
          "name": "transferFrom",
          "outputs": [
            {
              "name": "",
              "type": "bool"
            }
          ],
          "payable": false,
          "stateMutability": "nonpayable",
          "type": "function"
        },
        {
          "constant": false,
          "inputs": [
            {
              "name": "wad",
              "type": "uint256"
            }
          ],
          "name": "withdraw",
          "outputs": [],
          "payable": false,
          "stateMutability": "nonpayable",
          "type": "function"
        },
        {
          "constant": true,
          "inputs": [],
          "name": "decimals",
          "outputs": [
            {
              "name": "",
              "type": "uint8"
            }
          ],
          "payable": false,
          "stateMutability": "view",
          "type": "function"
        },
        {
          "constant": true,
          "inputs": [
            {
              "name": "",
              "type": "address"
            }
          ],
          "name": "balanceOf",
          "outputs": [
            {
              "name": "",
              "type": "uint256"
            }
          ],
          "payable": false,
          "stateMutability": "view",
          "type": "function"
        },
        {
          "constant": true,
          "inputs": [],
          "name": "symbol",
          "outputs": [
            {
              "name": "",
              "type": "string"
            }
          ],
          "payable": false,
          "stateMutability": "view",
          "type": "function"
        },
        {
          "constant": false,
          "inputs": [
            {
              "name": "dst",
              "type": "address"
            },
            {
              "name": "wad",
              "type": "uint256"
            }
          ],
          "name": "transfer",
          "outputs": [
            {
              "name": "",
              "type": "bool"
            }
          ],
          "payable": false,
          "stateMutability": "nonpayable",
          "type": "function"
        },
        {
          "constant": false,
          "inputs": [],
          "name": "deposit",
          "outputs": [],
          "payable": true,
          "stateMutability": "payable",
          "type": "function"
        },
        {
          "constant": true,
          "inputs": [
            {
              "name": "",
              "type": "address"
            },
            {
              "name": "",
              "type": "address"
            }
          ],
          "name": "allowance",
          "outputs": [
            {
              "name": "",
              "type": "uint256"
            }
          ],
          "payable": false,
          "stateMutability": "view",
          "type": "function"
        },
        {
          "payable": true,
          "stateMutability": "payable",
          "type": "fallback"
        },
        {
          "anonymous": false,
          "inputs": [
            {
              "indexed": true,
              "name": "src",
              "type": "address"
            },
            {
              "indexed": true,
              "name": "guy",
              "type": "address"
            },
            {
              "indexed": false,
              "name": "wad",
              "type": "uint256"
            }
          ],
          "name": "Approval",
          "type": "event"
        },
        {
          "anonymous": false,
          "inputs": [
            {
              "indexed": true,
              "name": "src",
              "type": "address"
            },
            {
              "indexed": true,
              "name": "dst",
              "type": "address"
            },
            {
              "indexed": false,
              "name": "wad",
              "type": "uint256"
            }
          ],
          "name": "Transfer",
          "type": "event"
        },
        {
          "anonymous": false,
          "inputs": [
            {
              "indexed": true,
              "name": "dst",
              "type": "address"
            },
            {
              "indexed": false,
              "name": "wad",
              "type": "uint256"
            }
          ],
          "name": "Deposit",
          "type": "event"
        },
        {
          "anonymous": false,
          "inputs": [
            {
              "indexed": true,
              "name": "src",
              "type": "address"
            },
            {
              "indexed": false,
              "name": "wad",
              "type": "uint256"
            }
          ],
          "name": "Withdrawal",
          "type": "event"
        }
      ],
      "devdoc": {
        "methods": {}
      },
      "evm": {
        "assembly": "    /* \"contracts/mocks/ERC20Token.sol\":779:2566  contract erc20Token{... */\n  mstore(0x40, 0x60)\n    /* \"contracts/mocks/ERC20Token.sol\":804:844  string public name     = \"Wrapped First\" */\n  0x40\n  dup1\n  mload\n  swap1\n  dup2\n  add\n  0x40\n  mstore\n  dup1\n  0xd\n  dup2\n  mstore\n  0x20\n  add\n  0x5772617070656420466972737400000000000000000000000000000000000000\n  dup2\n  mstore\n  pop\n  0x0\n  swap1\n  dup1\n  mload\n  swap1\n  0x20\n  add\n  swap1\n  tag_1\n  swap3\n  swap2\n  swap1\n  jump\t// in(tag_2)\ntag_1:\n  pop\n    /* \"contracts/mocks/ERC20Token.sol\":850:882  string public symbol   = \"FIRST\" */\n  0x40\n  dup1\n  mload\n  swap1\n  dup2\n  add\n  0x40\n  mstore\n  dup1\n  0x5\n  dup2\n  mstore\n  0x20\n  add\n  0x4649525354000000000000000000000000000000000000000000000000000000\n  dup2\n  mstore\n  pop\n  0x1\n  swap1\n  dup1\n  mload\n  swap1\n  0x20\n  add\n  swap1\n  tag_3\n  swap3\n  swap2\n  swap1\n  jump\t// in(tag_2)\ntag_3:\n  pop\n    /* \"contracts/mocks/ERC20Token.sol\":913:915  18 */\n  0x12\n    /* \"contracts/mocks/ERC20Token.sol\":888:915  uint8  public decimals = 18 */\n  0x2\n  exp(0x100, 0x0)\n  dup2\n  sload\n  dup2\n  0xff\n  mul\n  not\n  and\n  swap1\n  dup4\n  0xff\n  and\n  mul\n  or\n  swap1\n  sstore\n  pop\n    /* \"contracts/mocks/ERC20Token.sol\":779:2566  contract erc20Token{... */\n  jumpi(tag_4, iszero(callvalue))\n  0x0\n  dup1\n  revert\ntag_4:\n  jump(tag_5)\ntag_2:\n  dup3\n  dup1\n  sload\n  0x1\n  dup2\n  0x1\n  and\n  iszero\n  0x100\n  mul\n  sub\n  and\n  0x2\n  swap1\n  div\n  swap1\n  0x0\n  mstore\n  keccak256(0x0, 0x20)\n  swap1\n  0x1f\n  add\n  0x20\n  swap1\n  div\n  dup2\n  add\n  swap3\n  dup3\n  0x1f\n  lt\n  tag_7\n  jumpi\n  dup1\n  mload\n  not(0xff)\n  and\n  dup4\n  dup1\n  add\n  or\n  dup6\n  sstore\n  jump(tag_6)\ntag_7:\n  dup3\n  dup1\n  add\n  0x1\n  add\n  dup6\n  sstore\n  dup3\n  iszero\n  tag_6\n  jumpi\n  swap2\n  dup3\n  add\ntag_8:\n  dup3\n  dup2\n  gt\n  iszero\n  tag_9\n  jumpi\n  dup3\n  mload\n  dup3\n  sstore\n  swap2\n  0x20\n  add\n  swap2\n  swap1\n  0x1\n  add\n  swap1\n  jump(tag_8)\ntag_9:\ntag_6:\n  pop\n  swap1\n  pop\n  tag_10\n  swap2\n  swap1\n  jump\t// in(tag_11)\ntag_10:\n  pop\n  swap1\n  jump\t// out\ntag_11:\n  tag_12\n  swap2\n  swap1\ntag_13:\n  dup1\n  dup3\n  gt\n  iszero\n  tag_14\n  jumpi\n  0x0\n  dup2\n  0x0\n  swap1\n  sstore\n  pop\n  0x1\n  add\n  jump(tag_13)\ntag_14:\n  pop\n  swap1\n  jump\ntag_12:\n  swap1\n  jump\t// out\ntag_5:\n  dataSize(sub_0)\n  dup1\n  dataOffset(sub_0)\n  0x0\n  codecopy\n  0x0\n  return\nstop\n\nsub_0: assembly {\n        /* \"contracts/mocks/ERC20Token.sol\":779:2566  contract erc20Token{... */\n      mstore(0x40, 0x60)\n      jumpi(tag_1, lt(calldatasize, 0x4))\n      calldataload(0x0)\n      0x100000000000000000000000000000000000000000000000000000000\n      swap1\n      div\n      0xffffffff\n      and\n      dup1\n      0x6fdde03\n      eq\n      tag_2\n      jumpi\n      dup1\n      0x95ea7b3\n      eq\n      tag_3\n      jumpi\n      dup1\n      0x18160ddd\n      eq\n      tag_4\n      jumpi\n      dup1\n      0x23b872dd\n      eq\n      tag_5\n      jumpi\n      dup1\n      0x2e1a7d4d\n      eq\n      tag_6\n      jumpi\n      dup1\n      0x313ce567\n      eq\n      tag_7\n      jumpi\n      dup1\n      0x70a08231\n      eq\n      tag_8\n      jumpi\n      dup1\n      0x95d89b41\n      eq\n      tag_9\n      jumpi\n      dup1\n      0xa9059cbb\n      eq\n      tag_10\n      jumpi\n      dup1\n      0xd0e30db0\n      eq\n      tag_11\n      jumpi\n      dup1\n      0xdd62ed3e\n      eq\n      tag_12\n      jumpi\n    tag_1:\n        /* \"contracts/mocks/ERC20Token.sol\":1354:1363  deposit() */\n      tag_15\n        /* \"contracts/mocks/ERC20Token.sol\":1354:1361  deposit */\n      tag_16\n        /* \"contracts/mocks/ERC20Token.sol\":1354:1363  deposit() */\n      jump\t// in\n    tag_15:\n        /* \"contracts/mocks/ERC20Token.sol\":779:2566  contract erc20Token{... */\n      stop\n        /* \"contracts/mocks/ERC20Token.sol\":804:844  string public name     = \"Wrapped First\" */\n    tag_2:\n      jumpi(tag_17, iszero(callvalue))\n      0x0\n      dup1\n      revert\n    tag_17:\n      tag_18\n      jump(tag_19)\n    tag_18:\n      mload(0x40)\n      dup1\n      dup1\n      0x20\n      add\n      dup3\n      dup2\n      sub\n      dup3\n      mstore\n      dup4\n      dup2\n      dup2\n      mload\n      dup2\n      mstore\n      0x20\n      add\n      swap2\n      pop\n      dup1\n      mload\n      swap1\n      0x20\n      add\n      swap1\n      dup1\n      dup4\n      dup4\n        /* \"--CODEGEN--\":23:24   */\n      0x0\n        /* \"--CODEGEN--\":8:108   */\n    tag_20:\n        /* \"--CODEGEN--\":33:36   */\n      dup4\n        /* \"--CODEGEN--\":30:31   */\n      dup2\n        /* \"--CODEGEN--\":27:29   */\n      lt\n        /* \"--CODEGEN--\":8:108   */\n      iszero\n      tag_21\n      jumpi\n        /* \"--CODEGEN--\":99:100   */\n      dup1\n        /* \"--CODEGEN--\":94:97   */\n      dup3\n        /* \"--CODEGEN--\":90:93   */\n      add\n        /* \"--CODEGEN--\":84:89   */\n      mload\n        /* \"--CODEGEN--\":80:81   */\n      dup2\n        /* \"--CODEGEN--\":75:78   */\n      dup5\n        /* \"--CODEGEN--\":71:74   */\n      add\n        /* \"--CODEGEN--\":64:70   */\n      mstore\n        /* \"--CODEGEN--\":52:54   */\n      0x20\n        /* \"--CODEGEN--\":49:50   */\n      dup2\n        /* \"--CODEGEN--\":45:48   */\n      add\n        /* \"--CODEGEN--\":40:55   */\n      swap1\n      pop\n        /* \"--CODEGEN--\":8:108   */\n      jump(tag_20)\n    tag_21:\n        /* \"--CODEGEN--\":12:26   */\n      pop\n        /* \"--CODEGEN--\":3:112   */\n      pop\n      pop\n      pop\n      swap1\n      pop\n      swap1\n      dup2\n      add\n      swap1\n      0x1f\n      and\n      dup1\n      iszero\n      tag_23\n      jumpi\n      dup1\n      dup3\n      sub\n      dup1\n      mload\n      0x1\n      dup4\n      0x20\n      sub\n      0x100\n      exp\n      sub\n      not\n      and\n      dup2\n      mstore\n      0x20\n      add\n      swap2\n      pop\n    tag_23:\n      pop\n      swap3\n      pop\n      pop\n      pop\n      mload(0x40)\n      dup1\n      swap2\n      sub\n      swap1\n      return\n        /* \"contracts/mocks/ERC20Token.sol\":1802:1974  function approve(address guy, uint wad) public returns (bool) {... */\n    tag_3:\n      jumpi(tag_24, iszero(callvalue))\n      0x0\n      dup1\n      revert\n    tag_24:\n      tag_25\n      0x4\n      dup1\n      dup1\n      calldataload\n      0xffffffffffffffffffffffffffffffffffffffff\n      and\n      swap1\n      0x20\n      add\n      swap1\n      swap2\n      swap1\n      dup1\n      calldataload\n      swap1\n      0x20\n      add\n      swap1\n      swap2\n      swap1\n      pop\n      pop\n      jump(tag_26)\n    tag_25:\n      mload(0x40)\n      dup1\n      dup3\n      iszero\n      iszero\n      iszero\n      iszero\n      dup2\n      mstore\n      0x20\n      add\n      swap2\n      pop\n      pop\n      mload(0x40)\n      dup1\n      swap2\n      sub\n      swap1\n      return\n        /* \"contracts/mocks/ERC20Token.sol\":1710:1796  function totalSupply() public view returns (uint) {... */\n    tag_4:\n      jumpi(tag_27, iszero(callvalue))\n      0x0\n      dup1\n      revert\n    tag_27:\n      tag_28\n      jump(tag_29)\n    tag_28:\n      mload(0x40)\n      dup1\n      dup3\n      dup2\n      mstore\n      0x20\n      add\n      swap2\n      pop\n      pop\n      mload(0x40)\n      dup1\n      swap2\n      sub\n      swap1\n      return\n        /* \"contracts/mocks/ERC20Token.sol\":2107:2562  function transferFrom(address src, address dst, uint wad)... */\n    tag_5:\n      jumpi(tag_30, iszero(callvalue))\n      0x0\n      dup1\n      revert\n    tag_30:\n      tag_31\n      0x4\n      dup1\n      dup1\n      calldataload\n      0xffffffffffffffffffffffffffffffffffffffff\n      and\n      swap1\n      0x20\n      add\n      swap1\n      swap2\n      swap1\n      dup1\n      calldataload\n      0xffffffffffffffffffffffffffffffffffffffff\n      and\n      swap1\n      0x20\n      add\n      swap1\n      swap2\n      swap1\n      dup1\n      calldataload\n      swap1\n      0x20\n      add\n      swap1\n      swap2\n      swap1\n      pop\n      pop\n      jump(tag_32)\n    tag_31:\n      mload(0x40)\n      dup1\n      dup3\n      iszero\n      iszero\n      iszero\n      iszero\n      dup2\n      mstore\n      0x20\n      add\n      swap2\n      pop\n      pop\n      mload(0x40)\n      dup1\n      swap2\n      sub\n      swap1\n      return\n        /* \"contracts/mocks/ERC20Token.sol\":1506:1704  function withdraw(uint wad) public {... */\n    tag_6:\n      jumpi(tag_33, iszero(callvalue))\n      0x0\n      dup1\n      revert\n    tag_33:\n      tag_34\n      0x4\n      dup1\n      dup1\n      calldataload\n      swap1\n      0x20\n      add\n      swap1\n      swap2\n      swap1\n      pop\n      pop\n      jump(tag_35)\n    tag_34:\n      stop\n        /* \"contracts/mocks/ERC20Token.sol\":888:915  uint8  public decimals = 18 */\n    tag_7:\n      jumpi(tag_36, iszero(callvalue))\n      0x0\n      dup1\n      revert\n    tag_36:\n      tag_37\n      jump(tag_38)\n    tag_37:\n      mload(0x40)\n      dup1\n      dup3\n      0xff\n      and\n      0xff\n      and\n      dup2\n      mstore\n      0x20\n      add\n      swap2\n      pop\n      pop\n      mload(0x40)\n      dup1\n      swap2\n      sub\n      swap1\n      return\n        /* \"contracts/mocks/ERC20Token.sol\":1174:1239  mapping (address => uint)                       public  balanceOf */\n    tag_8:\n      jumpi(tag_39, iszero(callvalue))\n      0x0\n      dup1\n      revert\n    tag_39:\n      tag_40\n      0x4\n      dup1\n      dup1\n      calldataload\n      0xffffffffffffffffffffffffffffffffffffffff\n      and\n      swap1\n      0x20\n      add\n      swap1\n      swap2\n      swap1\n      pop\n      pop\n      jump(tag_41)\n    tag_40:\n      mload(0x40)\n      dup1\n      dup3\n      dup2\n      mstore\n      0x20\n      add\n      swap2\n      pop\n      pop\n      mload(0x40)\n      dup1\n      swap2\n      sub\n      swap1\n      return\n        /* \"contracts/mocks/ERC20Token.sol\":850:882  string public symbol   = \"FIRST\" */\n    tag_9:\n      jumpi(tag_42, iszero(callvalue))\n      0x0\n      dup1\n      revert\n    tag_42:\n      tag_43\n      jump(tag_44)\n    tag_43:\n      mload(0x40)\n      dup1\n      dup1\n      0x20\n      add\n      dup3\n      dup2\n      sub\n      dup3\n      mstore\n      dup4\n      dup2\n      dup2\n      mload\n      dup2\n      mstore\n      0x20\n      add\n      swap2\n      pop\n      dup1\n      mload\n      swap1\n      0x20\n      add\n      swap1\n      dup1\n      dup4\n      dup4\n        /* \"--CODEGEN--\":23:24   */\n      0x0\n        /* \"--CODEGEN--\":8:108   */\n    tag_45:\n        /* \"--CODEGEN--\":33:36   */\n      dup4\n        /* \"--CODEGEN--\":30:31   */\n      dup2\n        /* \"--CODEGEN--\":27:29   */\n      lt\n        /* \"--CODEGEN--\":8:108   */\n      iszero\n      tag_46\n      jumpi\n        /* \"--CODEGEN--\":99:100   */\n      dup1\n        /* \"--CODEGEN--\":94:97   */\n      dup3\n        /* \"--CODEGEN--\":90:93   */\n      add\n        /* \"--CODEGEN--\":84:89   */\n      mload\n        /* \"--CODEGEN--\":80:81   */\n      dup2\n        /* \"--CODEGEN--\":75:78   */\n      dup5\n        /* \"--CODEGEN--\":71:74   */\n      add\n        /* \"--CODEGEN--\":64:70   */\n      mstore\n        /* \"--CODEGEN--\":52:54   */\n      0x20\n        /* \"--CODEGEN--\":49:50   */\n      dup2\n        /* \"--CODEGEN--\":45:48   */\n      add\n        /* \"--CODEGEN--\":40:55   */\n      swap1\n      pop\n        /* \"--CODEGEN--\":8:108   */\n      jump(tag_45)\n    tag_46:\n        /* \"--CODEGEN--\":12:26   */\n      pop\n        /* \"--CODEGEN--\":3:112   */\n      pop\n      pop\n      pop\n      swap1\n      pop\n      swap1\n      dup2\n      add\n      swap1\n      0x1f\n      and\n      dup1\n      iszero\n      tag_48\n      jumpi\n      dup1\n      dup3\n      sub\n      dup1\n      mload\n      0x1\n      dup4\n      0x20\n      sub\n      0x100\n      exp\n      sub\n      not\n      and\n      dup2\n      mstore\n      0x20\n      add\n      swap2\n      pop\n    tag_48:\n      pop\n      swap3\n      pop\n      pop\n      pop\n      mload(0x40)\n      dup1\n      swap2\n      sub\n      swap1\n      return\n        /* \"contracts/mocks/ERC20Token.sol\":1980:2101  function transfer(address dst, uint wad) public returns (bool) {... */\n    tag_10:\n      jumpi(tag_49, iszero(callvalue))\n      0x0\n      dup1\n      revert\n    tag_49:\n      tag_50\n      0x4\n      dup1\n      dup1\n      calldataload\n      0xffffffffffffffffffffffffffffffffffffffff\n      and\n      swap1\n      0x20\n      add\n      swap1\n      swap2\n      swap1\n      dup1\n      calldataload\n      swap1\n      0x20\n      add\n      swap1\n      swap2\n      swap1\n      pop\n      pop\n      jump(tag_51)\n    tag_50:\n      mload(0x40)\n      dup1\n      dup3\n      iszero\n      iszero\n      iszero\n      iszero\n      dup2\n      mstore\n      0x20\n      add\n      swap2\n      pop\n      pop\n      mload(0x40)\n      dup1\n      swap2\n      sub\n      swap1\n      return\n        /* \"contracts/mocks/ERC20Token.sol\":1376:1501  function deposit() public payable {... */\n    tag_11:\n      tag_52\n      jump(tag_16)\n    tag_52:\n      stop\n        /* \"contracts/mocks/ERC20Token.sol\":1245:1310  mapping (address => mapping (address => uint))  public  allowance */\n    tag_12:\n      jumpi(tag_53, iszero(callvalue))\n      0x0\n      dup1\n      revert\n    tag_53:\n      tag_54\n      0x4\n      dup1\n      dup1\n      calldataload\n      0xffffffffffffffffffffffffffffffffffffffff\n      and\n      swap1\n      0x20\n      add\n      swap1\n      swap2\n      swap1\n      dup1\n      calldataload\n      0xffffffffffffffffffffffffffffffffffffffff\n      and\n      swap1\n      0x20\n      add\n      swap1\n      swap2\n      swap1\n      pop\n      pop\n      jump(tag_55)\n    tag_54:\n      mload(0x40)\n      dup1\n      dup3\n      dup2\n      mstore\n      0x20\n      add\n      swap2\n      pop\n      pop\n      mload(0x40)\n      dup1\n      swap2\n      sub\n      swap1\n      return\n        /* \"contracts/mocks/ERC20Token.sol\":1376:1501  function deposit() public payable {... */\n    tag_16:\n        /* \"contracts/mocks/ERC20Token.sol\":1445:1454  msg.value */\n      callvalue\n        /* \"contracts/mocks/ERC20Token.sol\":1420:1429  balanceOf */\n      0x3\n        /* \"contracts/mocks/ERC20Token.sol\":1420:1441  balanceOf[msg.sender] */\n      0x0\n        /* \"contracts/mocks/ERC20Token.sol\":1430:1440  msg.sender */\n      caller\n        /* \"contracts/mocks/ERC20Token.sol\":1420:1441  balanceOf[msg.sender] */\n      0xffffffffffffffffffffffffffffffffffffffff\n      and\n      0xffffffffffffffffffffffffffffffffffffffff\n      and\n      dup2\n      mstore\n      0x20\n      add\n      swap1\n      dup2\n      mstore\n      0x20\n      add\n      0x0\n      keccak256\n      0x0\n        /* \"contracts/mocks/ERC20Token.sol\":1420:1454  balanceOf[msg.sender] += msg.value */\n      dup3\n      dup3\n      sload\n      add\n      swap3\n      pop\n      pop\n      dup2\n      swap1\n      sstore\n      pop\n        /* \"contracts/mocks/ERC20Token.sol\":1472:1482  msg.sender */\n      caller\n        /* \"contracts/mocks/ERC20Token.sol\":1464:1494  Deposit(msg.sender, msg.value) */\n      0xffffffffffffffffffffffffffffffffffffffff\n      and\n      0xe1fffcc4923d04b559f4d29a8bfc6cda04eb5b0d3c460751c2402c5c5cc9109c\n        /* \"contracts/mocks/ERC20Token.sol\":1484:1493  msg.value */\n      callvalue\n        /* \"contracts/mocks/ERC20Token.sol\":1464:1494  Deposit(msg.sender, msg.value) */\n      mload(0x40)\n      dup1\n      dup3\n      dup2\n      mstore\n      0x20\n      add\n      swap2\n      pop\n      pop\n      mload(0x40)\n      dup1\n      swap2\n      sub\n      swap1\n      log2\n        /* \"contracts/mocks/ERC20Token.sol\":1376:1501  function deposit() public payable {... */\n      jump\t// out\n        /* \"contracts/mocks/ERC20Token.sol\":804:844  string public name     = \"Wrapped First\" */\n    tag_19:\n      0x0\n      dup1\n      sload\n      0x1\n      dup2\n      0x1\n      and\n      iszero\n      0x100\n      mul\n      sub\n      and\n      0x2\n      swap1\n      div\n      dup1\n      0x1f\n      add\n      0x20\n      dup1\n      swap2\n      div\n      mul\n      0x20\n      add\n      mload(0x40)\n      swap1\n      dup2\n      add\n      0x40\n      mstore\n      dup1\n      swap3\n      swap2\n      swap1\n      dup2\n      dup2\n      mstore\n      0x20\n      add\n      dup3\n      dup1\n      sload\n      0x1\n      dup2\n      0x1\n      and\n      iszero\n      0x100\n      mul\n      sub\n      and\n      0x2\n      swap1\n      div\n      dup1\n      iszero\n      tag_57\n      jumpi\n      dup1\n      0x1f\n      lt\n      tag_58\n      jumpi\n      0x100\n      dup1\n      dup4\n      sload\n      div\n      mul\n      dup4\n      mstore\n      swap2\n      0x20\n      add\n      swap2\n      jump(tag_57)\n    tag_58:\n      dup3\n      add\n      swap2\n      swap1\n      0x0\n      mstore\n      keccak256(0x0, 0x20)\n      swap1\n    tag_59:\n      dup2\n      sload\n      dup2\n      mstore\n      swap1\n      0x1\n      add\n      swap1\n      0x20\n      add\n      dup1\n      dup4\n      gt\n      tag_59\n      jumpi\n      dup3\n      swap1\n      sub\n      0x1f\n      and\n      dup3\n      add\n      swap2\n    tag_57:\n      pop\n      pop\n      pop\n      pop\n      pop\n      dup2\n      jump\t// out\n        /* \"contracts/mocks/ERC20Token.sol\":1802:1974  function approve(address guy, uint wad) public returns (bool) {... */\n    tag_26:\n        /* \"contracts/mocks/ERC20Token.sol\":1858:1862  bool */\n      0x0\n        /* \"contracts/mocks/ERC20Token.sol\":1903:1906  wad */\n      dup2\n        /* \"contracts/mocks/ERC20Token.sol\":1874:1883  allowance */\n      0x4\n        /* \"contracts/mocks/ERC20Token.sol\":1874:1895  allowance[msg.sender] */\n      0x0\n        /* \"contracts/mocks/ERC20Token.sol\":1884:1894  msg.sender */\n      caller\n        /* \"contracts/mocks/ERC20Token.sol\":1874:1895  allowance[msg.sender] */\n      0xffffffffffffffffffffffffffffffffffffffff\n      and\n      0xffffffffffffffffffffffffffffffffffffffff\n      and\n      dup2\n      mstore\n      0x20\n      add\n      swap1\n      dup2\n      mstore\n      0x20\n      add\n      0x0\n      keccak256\n        /* \"contracts/mocks/ERC20Token.sol\":1874:1900  allowance[msg.sender][guy] */\n      0x0\n        /* \"contracts/mocks/ERC20Token.sol\":1896:1899  guy */\n      dup6\n        /* \"contracts/mocks/ERC20Token.sol\":1874:1900  allowance[msg.sender][guy] */\n      0xffffffffffffffffffffffffffffffffffffffff\n      and\n      0xffffffffffffffffffffffffffffffffffffffff\n      and\n      dup2\n      mstore\n      0x20\n      add\n      swap1\n      dup2\n      mstore\n      0x20\n      add\n      0x0\n      keccak256\n        /* \"contracts/mocks/ERC20Token.sol\":1874:1906  allowance[msg.sender][guy] = wad */\n      dup2\n      swap1\n      sstore\n      pop\n        /* \"contracts/mocks/ERC20Token.sol\":1937:1940  guy */\n      dup3\n        /* \"contracts/mocks/ERC20Token.sol\":1916:1946  Approval(msg.sender, guy, wad) */\n      0xffffffffffffffffffffffffffffffffffffffff\n      and\n        /* \"contracts/mocks/ERC20Token.sol\":1925:1935  msg.sender */\n      caller\n        /* \"contracts/mocks/ERC20Token.sol\":1916:1946  Approval(msg.sender, guy, wad) */\n      0xffffffffffffffffffffffffffffffffffffffff\n      and\n      0x8c5be1e5ebec7d5bd14f71427d1e84f3dd0314c0f7b2291e5b200ac8c7c3b925\n        /* \"contracts/mocks/ERC20Token.sol\":1942:1945  wad */\n      dup5\n        /* \"contracts/mocks/ERC20Token.sol\":1916:1946  Approval(msg.sender, guy, wad) */\n      mload(0x40)\n      dup1\n      dup3\n      dup2\n      mstore\n      0x20\n      add\n      swap2\n      pop\n      pop\n      mload(0x40)\n      dup1\n      swap2\n      sub\n      swap1\n      log3\n        /* \"contracts/mocks/ERC20Token.sol\":1963:1967  true */\n      0x1\n        /* \"contracts/mocks/ERC20Token.sol\":1956:1967  return true */\n      swap1\n      pop\n        /* \"contracts/mocks/ERC20Token.sol\":1802:1974  function approve(address guy, uint wad) public returns (bool) {... */\n      swap3\n      swap2\n      pop\n      pop\n      jump\t// out\n        /* \"contracts/mocks/ERC20Token.sol\":1710:1796  function totalSupply() public view returns (uint) {... */\n    tag_29:\n        /* \"contracts/mocks/ERC20Token.sol\":1754:1758  uint */\n      0x0\n        /* \"contracts/mocks/ERC20Token.sol\":1777:1781  this */\n      address\n        /* \"contracts/mocks/ERC20Token.sol\":1777:1789  this.balance */\n      0xffffffffffffffffffffffffffffffffffffffff\n      and\n      balance\n        /* \"contracts/mocks/ERC20Token.sol\":1770:1789  return this.balance */\n      swap1\n      pop\n        /* \"contracts/mocks/ERC20Token.sol\":1710:1796  function totalSupply() public view returns (uint) {... */\n      swap1\n      jump\t// out\n        /* \"contracts/mocks/ERC20Token.sol\":2107:2562  function transferFrom(address src, address dst, uint wad)... */\n    tag_32:\n        /* \"contracts/mocks/ERC20Token.sol\":2197:2201  bool */\n      0x0\n        /* \"contracts/mocks/ERC20Token.sol\":2243:2246  wad */\n      dup2\n        /* \"contracts/mocks/ERC20Token.sol\":2225:2234  balanceOf */\n      0x3\n        /* \"contracts/mocks/ERC20Token.sol\":2225:2239  balanceOf[src] */\n      0x0\n        /* \"contracts/mocks/ERC20Token.sol\":2235:2238  src */\n      dup7\n        /* \"contracts/mocks/ERC20Token.sol\":2225:2239  balanceOf[src] */\n      0xffffffffffffffffffffffffffffffffffffffff\n      and\n      0xffffffffffffffffffffffffffffffffffffffff\n      and\n      dup2\n      mstore\n      0x20\n      add\n      swap1\n      dup2\n      mstore\n      0x20\n      add\n      0x0\n      keccak256\n      sload\n        /* \"contracts/mocks/ERC20Token.sol\":2225:2246  balanceOf[src] >= wad */\n      lt\n      iszero\n        /* \"contracts/mocks/ERC20Token.sol\":2217:2247  require(balanceOf[src] >= wad) */\n      iszero\n      iszero\n      tag_63\n      jumpi\n      0x0\n      dup1\n      revert\n    tag_63:\n        /* \"contracts/mocks/ERC20Token.sol\":2269:2279  msg.sender */\n      caller\n        /* \"contracts/mocks/ERC20Token.sol\":2262:2279  src != msg.sender */\n      0xffffffffffffffffffffffffffffffffffffffff\n      and\n        /* \"contracts/mocks/ERC20Token.sol\":2262:2265  src */\n      dup5\n        /* \"contracts/mocks/ERC20Token.sol\":2262:2279  src != msg.sender */\n      0xffffffffffffffffffffffffffffffffffffffff\n      and\n      eq\n      iszero\n        /* \"contracts/mocks/ERC20Token.sol\":2262:2321  src != msg.sender && allowance[src][msg.sender] != uint(-1) */\n      dup1\n      iszero\n      tag_64\n      jumpi\n      pop\n        /* \"contracts/mocks/ERC20Token.sol\":2318:2320  -1 */\n      0xffffffffffffffffffffffffffffffffffffffffffffffffffffffffffffffff\n        /* \"contracts/mocks/ERC20Token.sol\":2283:2292  allowance */\n      0x4\n        /* \"contracts/mocks/ERC20Token.sol\":2283:2297  allowance[src] */\n      0x0\n        /* \"contracts/mocks/ERC20Token.sol\":2293:2296  src */\n      dup7\n        /* \"contracts/mocks/ERC20Token.sol\":2283:2297  allowance[src] */\n      0xffffffffffffffffffffffffffffffffffffffff\n      and\n      0xffffffffffffffffffffffffffffffffffffffff\n      and\n      dup2\n      mstore\n      0x20\n      add\n      swap1\n      dup2\n      mstore\n      0x20\n      add\n      0x0\n      keccak256\n        /* \"contracts/mocks/ERC20Token.sol\":2283:2309  allowance[src][msg.sender] */\n      0x0\n        /* \"contracts/mocks/ERC20Token.sol\":2298:2308  msg.sender */\n      caller\n        /* \"contracts/mocks/ERC20Token.sol\":2283:2309  allowance[src][msg.sender] */\n      0xffffffffffffffffffffffffffffffffffffffff\n      and\n      0xffffffffffffffffffffffffffffffffffffffff\n      and\n      dup2\n      mstore\n      0x20\n      add\n      swap1\n      dup2\n      mstore\n      0x20\n      add\n      0x0\n      keccak256\n      sload\n        /* \"contracts/mocks/ERC20Token.sol\":2283:2321  allowance[src][msg.sender] != uint(-1) */\n      eq\n      iszero\n        /* \"contracts/mocks/ERC20Token.sol\":2262:2321  src != msg.sender && allowance[src][msg.sender] != uint(-1) */\n    tag_64:\n        /* \"contracts/mocks/ERC20Token.sol\":2258:2437  if (src != msg.sender && allowance[src][msg.sender] != uint(-1)) {... */\n      iszero\n      tag_65\n      jumpi\n        /* \"contracts/mocks/ERC20Token.sol\":2375:2378  wad */\n      dup2\n        /* \"contracts/mocks/ERC20Token.sol\":2345:2354  allowance */\n      0x4\n        /* \"contracts/mocks/ERC20Token.sol\":2345:2359  allowance[src] */\n      0x0\n        /* \"contracts/mocks/ERC20Token.sol\":2355:2358  src */\n      dup7\n        /* \"contracts/mocks/ERC20Token.sol\":2345:2359  allowance[src] */\n      0xffffffffffffffffffffffffffffffffffffffff\n      and\n      0xffffffffffffffffffffffffffffffffffffffff\n      and\n      dup2\n      mstore\n      0x20\n      add\n      swap1\n      dup2\n      mstore\n      0x20\n      add\n      0x0\n      keccak256\n        /* \"contracts/mocks/ERC20Token.sol\":2345:2371  allowance[src][msg.sender] */\n      0x0\n        /* \"contracts/mocks/ERC20Token.sol\":2360:2370  msg.sender */\n      caller\n        /* \"contracts/mocks/ERC20Token.sol\":2345:2371  allowance[src][msg.sender] */\n      0xffffffffffffffffffffffffffffffffffffffff\n      and\n      0xffffffffffffffffffffffffffffffffffffffff\n      and\n      dup2\n      mstore\n      0x20\n      add\n      swap1\n      dup2\n      mstore\n      0x20\n      add\n      0x0\n      keccak256\n      sload\n        /* \"contracts/mocks/ERC20Token.sol\":2345:2378  allowance[src][msg.sender] >= wad */\n      lt\n      iszero\n        /* \"contracts/mocks/ERC20Token.sol\":2337:2379  require(allowance[src][msg.sender] >= wad) */\n      iszero\n      iszero\n      tag_66\n      jumpi\n      0x0\n      dup1\n      revert\n    tag_66:\n        /* \"contracts/mocks/ERC20Token.sol\":2423:2426  wad */\n      dup2\n        /* \"contracts/mocks/ERC20Token.sol\":2393:2402  allowance */\n      0x4\n        /* \"contracts/mocks/ERC20Token.sol\":2393:2407  allowance[src] */\n      0x0\n        /* \"contracts/mocks/ERC20Token.sol\":2403:2406  src */\n      dup7\n        /* \"contracts/mocks/ERC20Token.sol\":2393:2407  allowance[src] */\n      0xffffffffffffffffffffffffffffffffffffffff\n      and\n      0xffffffffffffffffffffffffffffffffffffffff\n      and\n      dup2\n      mstore\n      0x20\n      add\n      swap1\n      dup2\n      mstore\n      0x20\n      add\n      0x0\n      keccak256\n        /* \"contracts/mocks/ERC20Token.sol\":2393:2419  allowance[src][msg.sender] */\n      0x0\n        /* \"contracts/mocks/ERC20Token.sol\":2408:2418  msg.sender */\n      caller\n        /* \"contracts/mocks/ERC20Token.sol\":2393:2419  allowance[src][msg.sender] */\n      0xffffffffffffffffffffffffffffffffffffffff\n      and\n      0xffffffffffffffffffffffffffffffffffffffff\n      and\n      dup2\n      mstore\n      0x20\n      add\n      swap1\n      dup2\n      mstore\n      0x20\n      add\n      0x0\n      keccak256\n      0x0\n        /* \"contracts/mocks/ERC20Token.sol\":2393:2426  allowance[src][msg.sender] -= wad */\n      dup3\n      dup3\n      sload\n      sub\n      swap3\n      pop\n      pop\n      dup2\n      swap1\n      sstore\n      pop\n        /* \"contracts/mocks/ERC20Token.sol\":2258:2437  if (src != msg.sender && allowance[src][msg.sender] != uint(-1)) {... */\n    tag_65:\n        /* \"contracts/mocks/ERC20Token.sol\":2465:2468  wad */\n      dup2\n        /* \"contracts/mocks/ERC20Token.sol\":2447:2456  balanceOf */\n      0x3\n        /* \"contracts/mocks/ERC20Token.sol\":2447:2461  balanceOf[src] */\n      0x0\n        /* \"contracts/mocks/ERC20Token.sol\":2457:2460  src */\n      dup7\n        /* \"contracts/mocks/ERC20Token.sol\":2447:2461  balanceOf[src] */\n      0xffffffffffffffffffffffffffffffffffffffff\n      and\n      0xffffffffffffffffffffffffffffffffffffffff\n      and\n      dup2\n      mstore\n      0x20\n      add\n      swap1\n      dup2\n      mstore\n      0x20\n      add\n      0x0\n      keccak256\n      0x0\n        /* \"contracts/mocks/ERC20Token.sol\":2447:2468  balanceOf[src] -= wad */\n      dup3\n      dup3\n      sload\n      sub\n      swap3\n      pop\n      pop\n      dup2\n      swap1\n      sstore\n      pop\n        /* \"contracts/mocks/ERC20Token.sol\":2496:2499  wad */\n      dup2\n        /* \"contracts/mocks/ERC20Token.sol\":2478:2487  balanceOf */\n      0x3\n        /* \"contracts/mocks/ERC20Token.sol\":2478:2492  balanceOf[dst] */\n      0x0\n        /* \"contracts/mocks/ERC20Token.sol\":2488:2491  dst */\n      dup6\n        /* \"contracts/mocks/ERC20Token.sol\":2478:2492  balanceOf[dst] */\n      0xffffffffffffffffffffffffffffffffffffffff\n      and\n      0xffffffffffffffffffffffffffffffffffffffff\n      and\n      dup2\n      mstore\n      0x20\n      add\n      swap1\n      dup2\n      mstore\n      0x20\n      add\n      0x0\n      keccak256\n      0x0\n        /* \"contracts/mocks/ERC20Token.sol\":2478:2499  balanceOf[dst] += wad */\n      dup3\n      dup3\n      sload\n      add\n      swap3\n      pop\n      pop\n      dup2\n      swap1\n      sstore\n      pop\n        /* \"contracts/mocks/ERC20Token.sol\":2524:2527  dst */\n      dup3\n        /* \"contracts/mocks/ERC20Token.sol\":2510:2533  Transfer(src, dst, wad) */\n      0xffffffffffffffffffffffffffffffffffffffff\n      and\n        /* \"contracts/mocks/ERC20Token.sol\":2519:2522  src */\n      dup5\n        /* \"contracts/mocks/ERC20Token.sol\":2510:2533  Transfer(src, dst, wad) */\n      0xffffffffffffffffffffffffffffffffffffffff\n      and\n      0xddf252ad1be2c89b69c2b068fc378daa952ba7f163c4a11628f55a4df523b3ef\n        /* \"contracts/mocks/ERC20Token.sol\":2529:2532  wad */\n      dup5\n        /* \"contracts/mocks/ERC20Token.sol\":2510:2533  Transfer(src, dst, wad) */\n      mload(0x40)\n      dup1\n      dup3\n      dup2\n      mstore\n      0x20\n      add\n      swap2\n      pop\n      pop\n      mload(0x40)\n      dup1\n      swap2\n      sub\n      swap1\n      log3\n        /* \"contracts/mocks/ERC20Token.sol\":2551:2555  true */\n      0x1\n        /* \"contracts/mocks/ERC20Token.sol\":2544:2555  return true */\n      swap1\n      pop\n        /* \"contracts/mocks/ERC20Token.sol\":2107:2562  function transferFrom(address src, address dst, uint wad)... */\n      swap4\n      swap3\n      pop\n      pop\n      pop\n      jump\t// out\n        /* \"contracts/mocks/ERC20Token.sol\":1506:1704  function withdraw(uint wad) public {... */\n    tag_35:\n        /* \"contracts/mocks/ERC20Token.sol\":1584:1587  wad */\n      dup1\n        /* \"contracts/mocks/ERC20Token.sol\":1559:1568  balanceOf */\n      0x3\n        /* \"contracts/mocks/ERC20Token.sol\":1559:1580  balanceOf[msg.sender] */\n      0x0\n        /* \"contracts/mocks/ERC20Token.sol\":1569:1579  msg.sender */\n      caller\n        /* \"contracts/mocks/ERC20Token.sol\":1559:1580  balanceOf[msg.sender] */\n      0xffffffffffffffffffffffffffffffffffffffff\n      and\n      0xffffffffffffffffffffffffffffffffffffffff\n      and\n      dup2\n      mstore\n      0x20\n      add\n      swap1\n      dup2\n      mstore\n      0x20\n      add\n      0x0\n      keccak256\n      sload\n        /* \"contracts/mocks/ERC20Token.sol\":1559:1587  balanceOf[msg.sender] >= wad */\n      lt\n      iszero\n        /* \"contracts/mocks/ERC20Token.sol\":1551:1588  require(balanceOf[msg.sender] >= wad) */\n      iszero\n      iszero\n      tag_68\n      jumpi\n      0x0\n      dup1\n      revert\n    tag_68:\n        /* \"contracts/mocks/ERC20Token.sol\":1623:1626  wad */\n      dup1\n        /* \"contracts/mocks/ERC20Token.sol\":1598:1607  balanceOf */\n      0x3\n        /* \"contracts/mocks/ERC20Token.sol\":1598:1619  balanceOf[msg.sender] */\n      0x0\n        /* \"contracts/mocks/ERC20Token.sol\":1608:1618  msg.sender */\n      caller\n        /* \"contracts/mocks/ERC20Token.sol\":1598:1619  balanceOf[msg.sender] */\n      0xffffffffffffffffffffffffffffffffffffffff\n      and\n      0xffffffffffffffffffffffffffffffffffffffff\n      and\n      dup2\n      mstore\n      0x20\n      add\n      swap1\n      dup2\n      mstore\n      0x20\n      add\n      0x0\n      keccak256\n      0x0\n        /* \"contracts/mocks/ERC20Token.sol\":1598:1626  balanceOf[msg.sender] -= wad */\n      dup3\n      dup3\n      sload\n      sub\n      swap3\n      pop\n      pop\n      dup2\n      swap1\n      sstore\n      pop\n        /* \"contracts/mocks/ERC20Token.sol\":1636:1646  msg.sender */\n      caller\n        /* \"contracts/mocks/ERC20Token.sol\":1636:1655  msg.sender.transfer */\n      0xffffffffffffffffffffffffffffffffffffffff\n      and\n        /* \"contracts/mocks/ERC20Token.sol\":1636:1660  msg.sender.transfer(wad) */\n      0x8fc\n        /* \"contracts/mocks/ERC20Token.sol\":1656:1659  wad */\n      dup3\n        /* \"contracts/mocks/ERC20Token.sol\":1636:1660  msg.sender.transfer(wad) */\n      swap1\n      dup2\n      iszero\n      mul\n      swap1\n      mload(0x40)\n      0x0\n      mload(0x40)\n      dup1\n      dup4\n      sub\n      dup2\n      dup6\n      dup9\n      dup9\n      call\n      swap4\n      pop\n      pop\n      pop\n      pop\n      iszero\n      iszero\n      tag_69\n      jumpi\n      0x0\n      dup1\n      revert\n    tag_69:\n        /* \"contracts/mocks/ERC20Token.sol\":1681:1691  msg.sender */\n      caller\n        /* \"contracts/mocks/ERC20Token.sol\":1670:1697  Withdrawal(msg.sender, wad) */\n      0xffffffffffffffffffffffffffffffffffffffff\n      and\n      0x7fcf532c15f0a6db0bd6d0e038bea71d30d808c7d98cb3bf7268a95bf5081b65\n        /* \"contracts/mocks/ERC20Token.sol\":1693:1696  wad */\n      dup3\n        /* \"contracts/mocks/ERC20Token.sol\":1670:1697  Withdrawal(msg.sender, wad) */\n      mload(0x40)\n      dup1\n      dup3\n      dup2\n      mstore\n      0x20\n      add\n      swap2\n      pop\n      pop\n      mload(0x40)\n      dup1\n      swap2\n      sub\n      swap1\n      log2\n        /* \"contracts/mocks/ERC20Token.sol\":1506:1704  function withdraw(uint wad) public {... */\n      pop\n      jump\t// out\n        /* \"contracts/mocks/ERC20Token.sol\":888:915  uint8  public decimals = 18 */\n    tag_38:\n      0x2\n      0x0\n      swap1\n      sload\n      swap1\n      0x100\n      exp\n      swap1\n      div\n      0xff\n      and\n      dup2\n      jump\t// out\n        /* \"contracts/mocks/ERC20Token.sol\":1174:1239  mapping (address => uint)                       public  balanceOf */\n    tag_41:\n      mstore(0x20, 0x3)\n      dup1\n      0x0\n      mstore\n      keccak256(0x0, 0x40)\n      0x0\n      swap2\n      pop\n      swap1\n      pop\n      sload\n      dup2\n      jump\t// out\n        /* \"contracts/mocks/ERC20Token.sol\":850:882  string public symbol   = \"FIRST\" */\n    tag_44:\n      0x1\n      dup1\n      sload\n      0x1\n      dup2\n      0x1\n      and\n      iszero\n      0x100\n      mul\n      sub\n      and\n      0x2\n      swap1\n      div\n      dup1\n      0x1f\n      add\n      0x20\n      dup1\n      swap2\n      div\n      mul\n      0x20\n      add\n      mload(0x40)\n      swap1\n      dup2\n      add\n      0x40\n      mstore\n      dup1\n      swap3\n      swap2\n      swap1\n      dup2\n      dup2\n      mstore\n      0x20\n      add\n      dup3\n      dup1\n      sload\n      0x1\n      dup2\n      0x1\n      and\n      iszero\n      0x100\n      mul\n      sub\n      and\n      0x2\n      swap1\n      div\n      dup1\n      iszero\n      tag_70\n      jumpi\n      dup1\n      0x1f\n      lt\n      tag_71\n      jumpi\n      0x100\n      dup1\n      dup4\n      sload\n      div\n      mul\n      dup4\n      mstore\n      swap2\n      0x20\n      add\n      swap2\n      jump(tag_70)\n    tag_71:\n      dup3\n      add\n      swap2\n      swap1\n      0x0\n      mstore\n      keccak256(0x0, 0x20)\n      swap1\n    tag_72:\n      dup2\n      sload\n      dup2\n      mstore\n      swap1\n      0x1\n      add\n      swap1\n      0x20\n      add\n      dup1\n      dup4\n      gt\n      tag_72\n      jumpi\n      dup3\n      swap1\n      sub\n      0x1f\n      and\n      dup3\n      add\n      swap2\n    tag_70:\n      pop\n      pop\n      pop\n      pop\n      pop\n      dup2\n      jump\t// out\n        /* \"contracts/mocks/ERC20Token.sol\":1980:2101  function transfer(address dst, uint wad) public returns (bool) {... */\n    tag_51:\n        /* \"contracts/mocks/ERC20Token.sol\":2037:2041  bool */\n      0x0\n        /* \"contracts/mocks/ERC20Token.sol\":2060:2094  transferFrom(msg.sender, dst, wad) */\n      tag_74\n        /* \"contracts/mocks/ERC20Token.sol\":2073:2083  msg.sender */\n      caller\n        /* \"contracts/mocks/ERC20Token.sol\":2085:2088  dst */\n      dup5\n        /* \"contracts/mocks/ERC20Token.sol\":2090:2093  wad */\n      dup5\n        /* \"contracts/mocks/ERC20Token.sol\":2060:2072  transferFrom */\n      tag_32\n        /* \"contracts/mocks/ERC20Token.sol\":2060:2094  transferFrom(msg.sender, dst, wad) */\n      jump\t// in\n    tag_74:\n        /* \"contracts/mocks/ERC20Token.sol\":2053:2094  return transferFrom(msg.sender, dst, wad) */\n      swap1\n      pop\n        /* \"contracts/mocks/ERC20Token.sol\":1980:2101  function transfer(address dst, uint wad) public returns (bool) {... */\n      swap3\n      swap2\n      pop\n      pop\n      jump\t// out\n        /* \"contracts/mocks/ERC20Token.sol\":1245:1310  mapping (address => mapping (address => uint))  public  allowance */\n    tag_55:\n      mstore(0x20, 0x4)\n      dup2\n      0x0\n      mstore\n      mstore(0x20, keccak256(0x0, 0x40))\n      dup1\n      0x0\n      mstore\n      keccak256(0x0, 0x40)\n      0x0\n      swap2\n      pop\n      swap2\n      pop\n      pop\n      sload\n      dup2\n      jump\t// out\n\n    auxdata: 0xa165627a7a723058206d5c745b174a3f132fd798ec903a0d756539e7209827eb2daa97ab056b688fa60029\n}\n",
        "bytecode": {
          "linkReferences": {},
          "object": "60606040526040805190810160405280600d81526020017f57726170706564204669727374000000000000000000000000000000000000008152506000908051906020019061004f9291906100c8565b506040805190810160405280600581526020017f46495253540000000000000000000000000000000000000000000000000000008152506001908051906020019061009b9291906100c8565b506012600260006101000a81548160ff021916908360ff16021790555034156100c357600080fd5b61016d565b828054600181600116156101000203166002900490600052602060002090601f016020900481019282601f1061010957805160ff1916838001178555610137565b82800160010185558215610137579182015b8281111561013657825182559160200191906001019061011b565b5b5090506101449190610148565b5090565b61016a91905b8082111561016657600081600090555060010161014e565b5090565b90565b610c348061017c6000396000f3006060604052600436106100af576000357c0100000000000000000000000000000000000000000000000000000000900463ffffffff16806306fdde03146100b9578063095ea7b31461014757806318160ddd146101a157806323b872dd146101ca5780632e1a7d4d14610243578063313ce5671461026657806370a082311461029557806395d89b41146102e2578063a9059cbb14610370578063d0e30db0146103ca578063dd62ed3e146103d4575b6100b7610440565b005b34156100c457600080fd5b6100cc6104dd565b6040518080602001828103825283818151815260200191508051906020019080838360005b8381101561010c5780820151818401526020810190506100f1565b50505050905090810190601f1680156101395780820380516001836020036101000a031916815260200191505b509250505060405180910390f35b341561015257600080fd5b610187600480803573ffffffffffffffffffffffffffffffffffffffff1690602001909190803590602001909190505061057b565b604051808215151515815260200191505060405180910390f35b34156101ac57600080fd5b6101b461066d565b6040518082815260200191505060405180910390f35b34156101d557600080fd5b610229600480803573ffffffffffffffffffffffffffffffffffffffff1690602001909190803573ffffffffffffffffffffffffffffffffffffffff1690602001909190803590602001909190505061068c565b604051808215151515815260200191505060405180910390f35b341561024e57600080fd5b61026460048080359060200190919050506109d9565b005b341561027157600080fd5b610279610b05565b604051808260ff1660ff16815260200191505060405180910390f35b34156102a057600080fd5b6102cc600480803573ffffffffffffffffffffffffffffffffffffffff16906020019091905050610b18565b6040518082815260200191505060405180910390f35b34156102ed57600080fd5b6102f5610b30565b6040518080602001828103825283818151815260200191508051906020019080838360005b8381101561033557808201518184015260208101905061031a565b50505050905090810190601f1680156103625780820380516001836020036101000a031916815260200191505b509250505060405180910390f35b341561037b57600080fd5b6103b0600480803573ffffffffffffffffffffffffffffffffffffffff16906020019091908035906020019091905050610bce565b604051808215151515815260200191505060405180910390f35b6103d2610440565b005b34156103df57600080fd5b61042a600480803573ffffffffffffffffffffffffffffffffffffffff1690602001909190803573ffffffffffffffffffffffffffffffffffffffff16906020019091905050610be3565b6040518082815260200191505060405180910390f35b34600360003373ffffffffffffffffffffffffffffffffffffffff1673ffffffffffffffffffffffffffffffffffffffff168152602001908152602001600020600082825401925050819055503373ffffffffffffffffffffffffffffffffffffffff167fe1fffcc4923d04b559f4d29a8bfc6cda04eb5b0d3c460751c2402c5c5cc9109c346040518082815260200191505060405180910390a2565b60008054600181600116156101000203166002900480601f0160208091040260200160405190810160405280929190818152602001828054600181600116156101000203166002900480156105735780601f1061054857610100808354040283529160200191610573565b820191906000526020600020905b81548152906001019060200180831161055657829003601f168201915b505050505081565b600081600460003373ffffffffffffffffffffffffffffffffffffffff1673ffffffffffffffffffffffffffffffffffffffff16815260200190815260200160002060008573ffffffffffffffffffffffffffffffffffffffff1673ffffffffffffffffffffffffffffffffffffffff168152602001908152602001600020819055508273ffffffffffffffffffffffffffffffffffffffff163373ffffffffffffffffffffffffffffffffffffffff167f8c5be1e5ebec7d5bd14f71427d1e84f3dd0314c0f7b2291e5b200ac8c7c3b925846040518082815260200191505060405180910390a36001905092915050565b60003073ffffffffffffffffffffffffffffffffffffffff1631905090565b600081600360008673ffffffffffffffffffffffffffffffffffffffff1673ffffffffffffffffffffffffffffffffffffffff16815260200190815260200160002054101515156106dc57600080fd5b3373ffffffffffffffffffffffffffffffffffffffff168473ffffffffffffffffffffffffffffffffffffffff16141580156107b457507fffffffffffffffffffffffffffffffffffffffffffffffffffffffffffffffff600460008673ffffffffffffffffffffffffffffffffffffffff1673ffffffffffffffffffffffffffffffffffffffff16815260200190815260200160002060003373ffffffffffffffffffffffffffffffffffffffff1673ffffffffffffffffffffffffffffffffffffffff1681526020019081526020016000205414155b156108cf5781600460008673ffffffffffffffffffffffffffffffffffffffff1673ffffffffffffffffffffffffffffffffffffffff16815260200190815260200160002060003373ffffffffffffffffffffffffffffffffffffffff1673ffffffffffffffffffffffffffffffffffffffff168152602001908152602001600020541015151561084457600080fd5b81600460008673ffffffffffffffffffffffffffffffffffffffff1673ffffffffffffffffffffffffffffffffffffffff16815260200190815260200160002060003373ffffffffffffffffffffffffffffffffffffffff1673ffffffffffffffffffffffffffffffffffffffff168152602001908152602001600020600082825403925050819055505b81600360008673ffffffffffffffffffffffffffffffffffffffff1673ffffffffffffffffffffffffffffffffffffffff1681526020019081526020016000206000828254039250508190555081600360008573ffffffffffffffffffffffffffffffffffffffff1673ffffffffffffffffffffffffffffffffffffffff168152602001908152602001600020600082825401925050819055508273ffffffffffffffffffffffffffffffffffffffff168473ffffffffffffffffffffffffffffffffffffffff167fddf252ad1be2c89b69c2b068fc378daa952ba7f163c4a11628f55a4df523b3ef846040518082815260200191505060405180910390a3600190509392505050565b80600360003373ffffffffffffffffffffffffffffffffffffffff1673ffffffffffffffffffffffffffffffffffffffff1681526020019081526020016000205410151515610a2757600080fd5b80600360003373ffffffffffffffffffffffffffffffffffffffff1673ffffffffffffffffffffffffffffffffffffffff168152602001908152602001600020600082825403925050819055503373ffffffffffffffffffffffffffffffffffffffff166108fc829081150290604051600060405180830381858888f193505050501515610ab457600080fd5b3373ffffffffffffffffffffffffffffffffffffffff167f7fcf532c15f0a6db0bd6d0e038bea71d30d808c7d98cb3bf7268a95bf5081b65826040518082815260200191505060405180910390a250565b600260009054906101000a900460ff1681565b60036020528060005260406000206000915090505481565b60018054600181600116156101000203166002900480601f016020809104026020016040519081016040528092919081815260200182805460018160011615610100020316600290048015610bc65780601f10610b9b57610100808354040283529160200191610bc6565b820191906000526020600020905b815481529060010190602001808311610ba957829003601f168201915b505050505081565b6000610bdb33848461068c565b905092915050565b60046020528160005260406000206020528060005260406000206000915091505054815600a165627a7a723058206d5c745b174a3f132fd798ec903a0d756539e7209827eb2daa97ab056b688fa60029",
          "opcodes": "PUSH1 0x60 PUSH1 0x40 MSTORE PUSH1 0x40 DUP1 MLOAD SWAP1 DUP2 ADD PUSH1 0x40 MSTORE DUP1 PUSH1 0xD DUP2 MSTORE PUSH1 0x20 ADD PUSH32 0x5772617070656420466972737400000000000000000000000000000000000000 DUP2 MSTORE POP PUSH1 0x0 SWAP1 DUP1 MLOAD SWAP1 PUSH1 0x20 ADD SWAP1 PUSH2 0x4F SWAP3 SWAP2 SWAP1 PUSH2 0xC8 JUMP JUMPDEST POP PUSH1 0x40 DUP1 MLOAD SWAP1 DUP2 ADD PUSH1 0x40 MSTORE DUP1 PUSH1 0x5 DUP2 MSTORE PUSH1 0x20 ADD PUSH32 0x4649525354000000000000000000000000000000000000000000000000000000 DUP2 MSTORE POP PUSH1 0x1 SWAP1 DUP1 MLOAD SWAP1 PUSH1 0x20 ADD SWAP1 PUSH2 0x9B SWAP3 SWAP2 SWAP1 PUSH2 0xC8 JUMP JUMPDEST POP PUSH1 0x12 PUSH1 0x2 PUSH1 0x0 PUSH2 0x100 EXP DUP2 SLOAD DUP2 PUSH1 0xFF MUL NOT AND SWAP1 DUP4 PUSH1 0xFF AND MUL OR SWAP1 SSTORE POP CALLVALUE ISZERO PUSH2 0xC3 JUMPI PUSH1 0x0 DUP1 REVERT JUMPDEST PUSH2 0x16D JUMP JUMPDEST DUP3 DUP1 SLOAD PUSH1 0x1 DUP2 PUSH1 0x1 AND ISZERO PUSH2 0x100 MUL SUB AND PUSH1 0x2 SWAP1 DIV SWAP1 PUSH1 0x0 MSTORE PUSH1 0x20 PUSH1 0x0 KECCAK256 SWAP1 PUSH1 0x1F ADD PUSH1 0x20 SWAP1 DIV DUP2 ADD SWAP3 DUP3 PUSH1 0x1F LT PUSH2 0x109 JUMPI DUP1 MLOAD PUSH1 0xFF NOT AND DUP4 DUP1 ADD OR DUP6 SSTORE PUSH2 0x137 JUMP JUMPDEST DUP3 DUP1 ADD PUSH1 0x1 ADD DUP6 SSTORE DUP3 ISZERO PUSH2 0x137 JUMPI SWAP2 DUP3 ADD JUMPDEST DUP3 DUP2 GT ISZERO PUSH2 0x136 JUMPI DUP3 MLOAD DUP3 SSTORE SWAP2 PUSH1 0x20 ADD SWAP2 SWAP1 PUSH1 0x1 ADD SWAP1 PUSH2 0x11B JUMP JUMPDEST JUMPDEST POP SWAP1 POP PUSH2 0x144 SWAP2 SWAP1 PUSH2 0x148 JUMP JUMPDEST POP SWAP1 JUMP JUMPDEST PUSH2 0x16A SWAP2 SWAP1 JUMPDEST DUP1 DUP3 GT ISZERO PUSH2 0x166 JUMPI PUSH1 0x0 DUP2 PUSH1 0x0 SWAP1 SSTORE POP PUSH1 0x1 ADD PUSH2 0x14E JUMP JUMPDEST POP SWAP1 JUMP JUMPDEST SWAP1 JUMP JUMPDEST PUSH2 0xC34 DUP1 PUSH2 0x17C PUSH1 0x0 CODECOPY PUSH1 0x0 RETURN STOP PUSH1 0x60 PUSH1 0x40 MSTORE PUSH1 0x4 CALLDATASIZE LT PUSH2 0xAF JUMPI PUSH1 0x0 CALLDATALOAD PUSH29 0x100000000000000000000000000000000000000000000000000000000 SWAP1 DIV PUSH4 0xFFFFFFFF AND DUP1 PUSH4 0x6FDDE03 EQ PUSH2 0xB9 JUMPI DUP1 PUSH4 0x95EA7B3 EQ PUSH2 0x147 JUMPI DUP1 PUSH4 0x18160DDD EQ PUSH2 0x1A1 JUMPI DUP1 PUSH4 0x23B872DD EQ PUSH2 0x1CA JUMPI DUP1 PUSH4 0x2E1A7D4D EQ PUSH2 0x243 JUMPI DUP1 PUSH4 0x313CE567 EQ PUSH2 0x266 JUMPI DUP1 PUSH4 0x70A08231 EQ PUSH2 0x295 JUMPI DUP1 PUSH4 0x95D89B41 EQ PUSH2 0x2E2 JUMPI DUP1 PUSH4 0xA9059CBB EQ PUSH2 0x370 JUMPI DUP1 PUSH4 0xD0E30DB0 EQ PUSH2 0x3CA JUMPI DUP1 PUSH4 0xDD62ED3E EQ PUSH2 0x3D4 JUMPI JUMPDEST PUSH2 0xB7 PUSH2 0x440 JUMP JUMPDEST STOP JUMPDEST CALLVALUE ISZERO PUSH2 0xC4 JUMPI PUSH1 0x0 DUP1 REVERT JUMPDEST PUSH2 0xCC PUSH2 0x4DD JUMP JUMPDEST PUSH1 0x40 MLOAD DUP1 DUP1 PUSH1 0x20 ADD DUP3 DUP2 SUB DUP3 MSTORE DUP4 DUP2 DUP2 MLOAD DUP2 MSTORE PUSH1 0x20 ADD SWAP2 POP DUP1 MLOAD SWAP1 PUSH1 0x20 ADD SWAP1 DUP1 DUP4 DUP4 PUSH1 0x0 JUMPDEST DUP4 DUP2 LT ISZERO PUSH2 0x10C JUMPI DUP1 DUP3 ADD MLOAD DUP2 DUP5 ADD MSTORE PUSH1 0x20 DUP2 ADD SWAP1 POP PUSH2 0xF1 JUMP JUMPDEST POP POP POP POP SWAP1 POP SWAP1 DUP2 ADD SWAP1 PUSH1 0x1F AND DUP1 ISZERO PUSH2 0x139 JUMPI DUP1 DUP3 SUB DUP1 MLOAD PUSH1 0x1 DUP4 PUSH1 0x20 SUB PUSH2 0x100 EXP SUB NOT AND DUP2 MSTORE PUSH1 0x20 ADD SWAP2 POP JUMPDEST POP SWAP3 POP POP POP PUSH1 0x40 MLOAD DUP1 SWAP2 SUB SWAP1 RETURN JUMPDEST CALLVALUE ISZERO PUSH2 0x152 JUMPI PUSH1 0x0 DUP1 REVERT JUMPDEST PUSH2 0x187 PUSH1 0x4 DUP1 DUP1 CALLDATALOAD PUSH20 0xFFFFFFFFFFFFFFFFFFFFFFFFFFFFFFFFFFFFFFFF AND SWAP1 PUSH1 0x20 ADD SWAP1 SWAP2 SWAP1 DUP1 CALLDATALOAD SWAP1 PUSH1 0x20 ADD SWAP1 SWAP2 SWAP1 POP POP PUSH2 0x57B JUMP JUMPDEST PUSH1 0x40 MLOAD DUP1 DUP3 ISZERO ISZERO ISZERO ISZERO DUP2 MSTORE PUSH1 0x20 ADD SWAP2 POP POP PUSH1 0x40 MLOAD DUP1 SWAP2 SUB SWAP1 RETURN JUMPDEST CALLVALUE ISZERO PUSH2 0x1AC JUMPI PUSH1 0x0 DUP1 REVERT JUMPDEST PUSH2 0x1B4 PUSH2 0x66D JUMP JUMPDEST PUSH1 0x40 MLOAD DUP1 DUP3 DUP2 MSTORE PUSH1 0x20 ADD SWAP2 POP POP PUSH1 0x40 MLOAD DUP1 SWAP2 SUB SWAP1 RETURN JUMPDEST CALLVALUE ISZERO PUSH2 0x1D5 JUMPI PUSH1 0x0 DUP1 REVERT JUMPDEST PUSH2 0x229 PUSH1 0x4 DUP1 DUP1 CALLDATALOAD PUSH20 0xFFFFFFFFFFFFFFFFFFFFFFFFFFFFFFFFFFFFFFFF AND SWAP1 PUSH1 0x20 ADD SWAP1 SWAP2 SWAP1 DUP1 CALLDATALOAD PUSH20 0xFFFFFFFFFFFFFFFFFFFFFFFFFFFFFFFFFFFFFFFF AND SWAP1 PUSH1 0x20 ADD SWAP1 SWAP2 SWAP1 DUP1 CALLDATALOAD SWAP1 PUSH1 0x20 ADD SWAP1 SWAP2 SWAP1 POP POP PUSH2 0x68C JUMP JUMPDEST PUSH1 0x40 MLOAD DUP1 DUP3 ISZERO ISZERO ISZERO ISZERO DUP2 MSTORE PUSH1 0x20 ADD SWAP2 POP POP PUSH1 0x40 MLOAD DUP1 SWAP2 SUB SWAP1 RETURN JUMPDEST CALLVALUE ISZERO PUSH2 0x24E JUMPI PUSH1 0x0 DUP1 REVERT JUMPDEST PUSH2 0x264 PUSH1 0x4 DUP1 DUP1 CALLDATALOAD SWAP1 PUSH1 0x20 ADD SWAP1 SWAP2 SWAP1 POP POP PUSH2 0x9D9 JUMP JUMPDEST STOP JUMPDEST CALLVALUE ISZERO PUSH2 0x271 JUMPI PUSH1 0x0 DUP1 REVERT JUMPDEST PUSH2 0x279 PUSH2 0xB05 JUMP JUMPDEST PUSH1 0x40 MLOAD DUP1 DUP3 PUSH1 0xFF AND PUSH1 0xFF AND DUP2 MSTORE PUSH1 0x20 ADD SWAP2 POP POP PUSH1 0x40 MLOAD DUP1 SWAP2 SUB SWAP1 RETURN JUMPDEST CALLVALUE ISZERO PUSH2 0x2A0 JUMPI PUSH1 0x0 DUP1 REVERT JUMPDEST PUSH2 0x2CC PUSH1 0x4 DUP1 DUP1 CALLDATALOAD PUSH20 0xFFFFFFFFFFFFFFFFFFFFFFFFFFFFFFFFFFFFFFFF AND SWAP1 PUSH1 0x20 ADD SWAP1 SWAP2 SWAP1 POP POP PUSH2 0xB18 JUMP JUMPDEST PUSH1 0x40 MLOAD DUP1 DUP3 DUP2 MSTORE PUSH1 0x20 ADD SWAP2 POP POP PUSH1 0x40 MLOAD DUP1 SWAP2 SUB SWAP1 RETURN JUMPDEST CALLVALUE ISZERO PUSH2 0x2ED JUMPI PUSH1 0x0 DUP1 REVERT JUMPDEST PUSH2 0x2F5 PUSH2 0xB30 JUMP JUMPDEST PUSH1 0x40 MLOAD DUP1 DUP1 PUSH1 0x20 ADD DUP3 DUP2 SUB DUP3 MSTORE DUP4 DUP2 DUP2 MLOAD DUP2 MSTORE PUSH1 0x20 ADD SWAP2 POP DUP1 MLOAD SWAP1 PUSH1 0x20 ADD SWAP1 DUP1 DUP4 DUP4 PUSH1 0x0 JUMPDEST DUP4 DUP2 LT ISZERO PUSH2 0x335 JUMPI DUP1 DUP3 ADD MLOAD DUP2 DUP5 ADD MSTORE PUSH1 0x20 DUP2 ADD SWAP1 POP PUSH2 0x31A JUMP JUMPDEST POP POP POP POP SWAP1 POP SWAP1 DUP2 ADD SWAP1 PUSH1 0x1F AND DUP1 ISZERO PUSH2 0x362 JUMPI DUP1 DUP3 SUB DUP1 MLOAD PUSH1 0x1 DUP4 PUSH1 0x20 SUB PUSH2 0x100 EXP SUB NOT AND DUP2 MSTORE PUSH1 0x20 ADD SWAP2 POP JUMPDEST POP SWAP3 POP POP POP PUSH1 0x40 MLOAD DUP1 SWAP2 SUB SWAP1 RETURN JUMPDEST CALLVALUE ISZERO PUSH2 0x37B JUMPI PUSH1 0x0 DUP1 REVERT JUMPDEST PUSH2 0x3B0 PUSH1 0x4 DUP1 DUP1 CALLDATALOAD PUSH20 0xFFFFFFFFFFFFFFFFFFFFFFFFFFFFFFFFFFFFFFFF AND SWAP1 PUSH1 0x20 ADD SWAP1 SWAP2 SWAP1 DUP1 CALLDATALOAD SWAP1 PUSH1 0x20 ADD SWAP1 SWAP2 SWAP1 POP POP PUSH2 0xBCE JUMP JUMPDEST PUSH1 0x40 MLOAD DUP1 DUP3 ISZERO ISZERO ISZERO ISZERO DUP2 MSTORE PUSH1 0x20 ADD SWAP2 POP POP PUSH1 0x40 MLOAD DUP1 SWAP2 SUB SWAP1 RETURN JUMPDEST PUSH2 0x3D2 PUSH2 0x440 JUMP JUMPDEST STOP JUMPDEST CALLVALUE ISZERO PUSH2 0x3DF JUMPI PUSH1 0x0 DUP1 REVERT JUMPDEST PUSH2 0x42A PUSH1 0x4 DUP1 DUP1 CALLDATALOAD PUSH20 0xFFFFFFFFFFFFFFFFFFFFFFFFFFFFFFFFFFFFFFFF AND SWAP1 PUSH1 0x20 ADD SWAP1 SWAP2 SWAP1 DUP1 CALLDATALOAD PUSH20 0xFFFFFFFFFFFFFFFFFFFFFFFFFFFFFFFFFFFFFFFF AND SWAP1 PUSH1 0x20 ADD SWAP1 SWAP2 SWAP1 POP POP PUSH2 0xBE3 JUMP JUMPDEST PUSH1 0x40 MLOAD DUP1 DUP3 DUP2 MSTORE PUSH1 0x20 ADD SWAP2 POP POP PUSH1 0x40 MLOAD DUP1 SWAP2 SUB SWAP1 RETURN JUMPDEST CALLVALUE PUSH1 0x3 PUSH1 0x0 CALLER PUSH20 0xFFFFFFFFFFFFFFFFFFFFFFFFFFFFFFFFFFFFFFFF AND PUSH20 0xFFFFFFFFFFFFFFFFFFFFFFFFFFFFFFFFFFFFFFFF AND DUP2 MSTORE PUSH1 0x20 ADD SWAP1 DUP2 MSTORE PUSH1 0x20 ADD PUSH1 0x0 KECCAK256 PUSH1 0x0 DUP3 DUP3 SLOAD ADD SWAP3 POP POP DUP2 SWAP1 SSTORE POP CALLER PUSH20 0xFFFFFFFFFFFFFFFFFFFFFFFFFFFFFFFFFFFFFFFF AND PUSH32 0xE1FFFCC4923D04B559F4D29A8BFC6CDA04EB5B0D3C460751C2402C5C5CC9109C CALLVALUE PUSH1 0x40 MLOAD DUP1 DUP3 DUP2 MSTORE PUSH1 0x20 ADD SWAP2 POP POP PUSH1 0x40 MLOAD DUP1 SWAP2 SUB SWAP1 LOG2 JUMP JUMPDEST PUSH1 0x0 DUP1 SLOAD PUSH1 0x1 DUP2 PUSH1 0x1 AND ISZERO PUSH2 0x100 MUL SUB AND PUSH1 0x2 SWAP1 DIV DUP1 PUSH1 0x1F ADD PUSH1 0x20 DUP1 SWAP2 DIV MUL PUSH1 0x20 ADD PUSH1 0x40 MLOAD SWAP1 DUP2 ADD PUSH1 0x40 MSTORE DUP1 SWAP3 SWAP2 SWAP1 DUP2 DUP2 MSTORE PUSH1 0x20 ADD DUP3 DUP1 SLOAD PUSH1 0x1 DUP2 PUSH1 0x1 AND ISZERO PUSH2 0x100 MUL SUB AND PUSH1 0x2 SWAP1 DIV DUP1 ISZERO PUSH2 0x573 JUMPI DUP1 PUSH1 0x1F LT PUSH2 0x548 JUMPI PUSH2 0x100 DUP1 DUP4 SLOAD DIV MUL DUP4 MSTORE SWAP2 PUSH1 0x20 ADD SWAP2 PUSH2 0x573 JUMP JUMPDEST DUP3 ADD SWAP2 SWAP1 PUSH1 0x0 MSTORE PUSH1 0x20 PUSH1 0x0 KECCAK256 SWAP1 JUMPDEST DUP2 SLOAD DUP2 MSTORE SWAP1 PUSH1 0x1 ADD SWAP1 PUSH1 0x20 ADD DUP1 DUP4 GT PUSH2 0x556 JUMPI DUP3 SWAP1 SUB PUSH1 0x1F AND DUP3 ADD SWAP2 JUMPDEST POP POP POP POP POP DUP2 JUMP JUMPDEST PUSH1 0x0 DUP2 PUSH1 0x4 PUSH1 0x0 CALLER PUSH20 0xFFFFFFFFFFFFFFFFFFFFFFFFFFFFFFFFFFFFFFFF AND PUSH20 0xFFFFFFFFFFFFFFFFFFFFFFFFFFFFFFFFFFFFFFFF AND DUP2 MSTORE PUSH1 0x20 ADD SWAP1 DUP2 MSTORE PUSH1 0x20 ADD PUSH1 0x0 KECCAK256 PUSH1 0x0 DUP6 PUSH20 0xFFFFFFFFFFFFFFFFFFFFFFFFFFFFFFFFFFFFFFFF AND PUSH20 0xFFFFFFFFFFFFFFFFFFFFFFFFFFFFFFFFFFFFFFFF AND DUP2 MSTORE PUSH1 0x20 ADD SWAP1 DUP2 MSTORE PUSH1 0x20 ADD PUSH1 0x0 KECCAK256 DUP2 SWAP1 SSTORE POP DUP3 PUSH20 0xFFFFFFFFFFFFFFFFFFFFFFFFFFFFFFFFFFFFFFFF AND CALLER PUSH20 0xFFFFFFFFFFFFFFFFFFFFFFFFFFFFFFFFFFFFFFFF AND PUSH32 0x8C5BE1E5EBEC7D5BD14F71427D1E84F3DD0314C0F7B2291E5B200AC8C7C3B925 DUP5 PUSH1 0x40 MLOAD DUP1 DUP3 DUP2 MSTORE PUSH1 0x20 ADD SWAP2 POP POP PUSH1 0x40 MLOAD DUP1 SWAP2 SUB SWAP1 LOG3 PUSH1 0x1 SWAP1 POP SWAP3 SWAP2 POP POP JUMP JUMPDEST PUSH1 0x0 ADDRESS PUSH20 0xFFFFFFFFFFFFFFFFFFFFFFFFFFFFFFFFFFFFFFFF AND BALANCE SWAP1 POP SWAP1 JUMP JUMPDEST PUSH1 0x0 DUP2 PUSH1 0x3 PUSH1 0x0 DUP7 PUSH20 0xFFFFFFFFFFFFFFFFFFFFFFFFFFFFFFFFFFFFFFFF AND PUSH20 0xFFFFFFFFFFFFFFFFFFFFFFFFFFFFFFFFFFFFFFFF AND DUP2 MSTORE PUSH1 0x20 ADD SWAP1 DUP2 MSTORE PUSH1 0x20 ADD PUSH1 0x0 KECCAK256 SLOAD LT ISZERO ISZERO ISZERO PUSH2 0x6DC JUMPI PUSH1 0x0 DUP1 REVERT JUMPDEST CALLER PUSH20 0xFFFFFFFFFFFFFFFFFFFFFFFFFFFFFFFFFFFFFFFF AND DUP5 PUSH20 0xFFFFFFFFFFFFFFFFFFFFFFFFFFFFFFFFFFFFFFFF AND EQ ISZERO DUP1 ISZERO PUSH2 0x7B4 JUMPI POP PUSH32 0xFFFFFFFFFFFFFFFFFFFFFFFFFFFFFFFFFFFFFFFFFFFFFFFFFFFFFFFFFFFFFFFF PUSH1 0x4 PUSH1 0x0 DUP7 PUSH20 0xFFFFFFFFFFFFFFFFFFFFFFFFFFFFFFFFFFFFFFFF AND PUSH20 0xFFFFFFFFFFFFFFFFFFFFFFFFFFFFFFFFFFFFFFFF AND DUP2 MSTORE PUSH1 0x20 ADD SWAP1 DUP2 MSTORE PUSH1 0x20 ADD PUSH1 0x0 KECCAK256 PUSH1 0x0 CALLER PUSH20 0xFFFFFFFFFFFFFFFFFFFFFFFFFFFFFFFFFFFFFFFF AND PUSH20 0xFFFFFFFFFFFFFFFFFFFFFFFFFFFFFFFFFFFFFFFF AND DUP2 MSTORE PUSH1 0x20 ADD SWAP1 DUP2 MSTORE PUSH1 0x20 ADD PUSH1 0x0 KECCAK256 SLOAD EQ ISZERO JUMPDEST ISZERO PUSH2 0x8CF JUMPI DUP2 PUSH1 0x4 PUSH1 0x0 DUP7 PUSH20 0xFFFFFFFFFFFFFFFFFFFFFFFFFFFFFFFFFFFFFFFF AND PUSH20 0xFFFFFFFFFFFFFFFFFFFFFFFFFFFFFFFFFFFFFFFF AND DUP2 MSTORE PUSH1 0x20 ADD SWAP1 DUP2 MSTORE PUSH1 0x20 ADD PUSH1 0x0 KECCAK256 PUSH1 0x0 CALLER PUSH20 0xFFFFFFFFFFFFFFFFFFFFFFFFFFFFFFFFFFFFFFFF AND PUSH20 0xFFFFFFFFFFFFFFFFFFFFFFFFFFFFFFFFFFFFFFFF AND DUP2 MSTORE PUSH1 0x20 ADD SWAP1 DUP2 MSTORE PUSH1 0x20 ADD PUSH1 0x0 KECCAK256 SLOAD LT ISZERO ISZERO ISZERO PUSH2 0x844 JUMPI PUSH1 0x0 DUP1 REVERT JUMPDEST DUP2 PUSH1 0x4 PUSH1 0x0 DUP7 PUSH20 0xFFFFFFFFFFFFFFFFFFFFFFFFFFFFFFFFFFFFFFFF AND PUSH20 0xFFFFFFFFFFFFFFFFFFFFFFFFFFFFFFFFFFFFFFFF AND DUP2 MSTORE PUSH1 0x20 ADD SWAP1 DUP2 MSTORE PUSH1 0x20 ADD PUSH1 0x0 KECCAK256 PUSH1 0x0 CALLER PUSH20 0xFFFFFFFFFFFFFFFFFFFFFFFFFFFFFFFFFFFFFFFF AND PUSH20 0xFFFFFFFFFFFFFFFFFFFFFFFFFFFFFFFFFFFFFFFF AND DUP2 MSTORE PUSH1 0x20 ADD SWAP1 DUP2 MSTORE PUSH1 0x20 ADD PUSH1 0x0 KECCAK256 PUSH1 0x0 DUP3 DUP3 SLOAD SUB SWAP3 POP POP DUP2 SWAP1 SSTORE POP JUMPDEST DUP2 PUSH1 0x3 PUSH1 0x0 DUP7 PUSH20 0xFFFFFFFFFFFFFFFFFFFFFFFFFFFFFFFFFFFFFFFF AND PUSH20 0xFFFFFFFFFFFFFFFFFFFFFFFFFFFFFFFFFFFFFFFF AND DUP2 MSTORE PUSH1 0x20 ADD SWAP1 DUP2 MSTORE PUSH1 0x20 ADD PUSH1 0x0 KECCAK256 PUSH1 0x0 DUP3 DUP3 SLOAD SUB SWAP3 POP POP DUP2 SWAP1 SSTORE POP DUP2 PUSH1 0x3 PUSH1 0x0 DUP6 PUSH20 0xFFFFFFFFFFFFFFFFFFFFFFFFFFFFFFFFFFFFFFFF AND PUSH20 0xFFFFFFFFFFFFFFFFFFFFFFFFFFFFFFFFFFFFFFFF AND DUP2 MSTORE PUSH1 0x20 ADD SWAP1 DUP2 MSTORE PUSH1 0x20 ADD PUSH1 0x0 KECCAK256 PUSH1 0x0 DUP3 DUP3 SLOAD ADD SWAP3 POP POP DUP2 SWAP1 SSTORE POP DUP3 PUSH20 0xFFFFFFFFFFFFFFFFFFFFFFFFFFFFFFFFFFFFFFFF AND DUP5 PUSH20 0xFFFFFFFFFFFFFFFFFFFFFFFFFFFFFFFFFFFFFFFF AND PUSH32 0xDDF252AD1BE2C89B69C2B068FC378DAA952BA7F163C4A11628F55A4DF523B3EF DUP5 PUSH1 0x40 MLOAD DUP1 DUP3 DUP2 MSTORE PUSH1 0x20 ADD SWAP2 POP POP PUSH1 0x40 MLOAD DUP1 SWAP2 SUB SWAP1 LOG3 PUSH1 0x1 SWAP1 POP SWAP4 SWAP3 POP POP POP JUMP JUMPDEST DUP1 PUSH1 0x3 PUSH1 0x0 CALLER PUSH20 0xFFFFFFFFFFFFFFFFFFFFFFFFFFFFFFFFFFFFFFFF AND PUSH20 0xFFFFFFFFFFFFFFFFFFFFFFFFFFFFFFFFFFFFFFFF AND DUP2 MSTORE PUSH1 0x20 ADD SWAP1 DUP2 MSTORE PUSH1 0x20 ADD PUSH1 0x0 KECCAK256 SLOAD LT ISZERO ISZERO ISZERO PUSH2 0xA27 JUMPI PUSH1 0x0 DUP1 REVERT JUMPDEST DUP1 PUSH1 0x3 PUSH1 0x0 CALLER PUSH20 0xFFFFFFFFFFFFFFFFFFFFFFFFFFFFFFFFFFFFFFFF AND PUSH20 0xFFFFFFFFFFFFFFFFFFFFFFFFFFFFFFFFFFFFFFFF AND DUP2 MSTORE PUSH1 0x20 ADD SWAP1 DUP2 MSTORE PUSH1 0x20 ADD PUSH1 0x0 KECCAK256 PUSH1 0x0 DUP3 DUP3 SLOAD SUB SWAP3 POP POP DUP2 SWAP1 SSTORE POP CALLER PUSH20 0xFFFFFFFFFFFFFFFFFFFFFFFFFFFFFFFFFFFFFFFF AND PUSH2 0x8FC DUP3 SWAP1 DUP2 ISZERO MUL SWAP1 PUSH1 0x40 MLOAD PUSH1 0x0 PUSH1 0x40 MLOAD DUP1 DUP4 SUB DUP2 DUP6 DUP9 DUP9 CALL SWAP4 POP POP POP POP ISZERO ISZERO PUSH2 0xAB4 JUMPI PUSH1 0x0 DUP1 REVERT JUMPDEST CALLER PUSH20 0xFFFFFFFFFFFFFFFFFFFFFFFFFFFFFFFFFFFFFFFF AND PUSH32 0x7FCF532C15F0A6DB0BD6D0E038BEA71D30D808C7D98CB3BF7268A95BF5081B65 DUP3 PUSH1 0x40 MLOAD DUP1 DUP3 DUP2 MSTORE PUSH1 0x20 ADD SWAP2 POP POP PUSH1 0x40 MLOAD DUP1 SWAP2 SUB SWAP1 LOG2 POP JUMP JUMPDEST PUSH1 0x2 PUSH1 0x0 SWAP1 SLOAD SWAP1 PUSH2 0x100 EXP SWAP1 DIV PUSH1 0xFF AND DUP2 JUMP JUMPDEST PUSH1 0x3 PUSH1 0x20 MSTORE DUP1 PUSH1 0x0 MSTORE PUSH1 0x40 PUSH1 0x0 KECCAK256 PUSH1 0x0 SWAP2 POP SWAP1 POP SLOAD DUP2 JUMP JUMPDEST PUSH1 0x1 DUP1 SLOAD PUSH1 0x1 DUP2 PUSH1 0x1 AND ISZERO PUSH2 0x100 MUL SUB AND PUSH1 0x2 SWAP1 DIV DUP1 PUSH1 0x1F ADD PUSH1 0x20 DUP1 SWAP2 DIV MUL PUSH1 0x20 ADD PUSH1 0x40 MLOAD SWAP1 DUP2 ADD PUSH1 0x40 MSTORE DUP1 SWAP3 SWAP2 SWAP1 DUP2 DUP2 MSTORE PUSH1 0x20 ADD DUP3 DUP1 SLOAD PUSH1 0x1 DUP2 PUSH1 0x1 AND ISZERO PUSH2 0x100 MUL SUB AND PUSH1 0x2 SWAP1 DIV DUP1 ISZERO PUSH2 0xBC6 JUMPI DUP1 PUSH1 0x1F LT PUSH2 0xB9B JUMPI PUSH2 0x100 DUP1 DUP4 SLOAD DIV MUL DUP4 MSTORE SWAP2 PUSH1 0x20 ADD SWAP2 PUSH2 0xBC6 JUMP JUMPDEST DUP3 ADD SWAP2 SWAP1 PUSH1 0x0 MSTORE PUSH1 0x20 PUSH1 0x0 KECCAK256 SWAP1 JUMPDEST DUP2 SLOAD DUP2 MSTORE SWAP1 PUSH1 0x1 ADD SWAP1 PUSH1 0x20 ADD DUP1 DUP4 GT PUSH2 0xBA9 JUMPI DUP3 SWAP1 SUB PUSH1 0x1F AND DUP3 ADD SWAP2 JUMPDEST POP POP POP POP POP DUP2 JUMP JUMPDEST PUSH1 0x0 PUSH2 0xBDB CALLER DUP5 DUP5 PUSH2 0x68C JUMP JUMPDEST SWAP1 POP SWAP3 SWAP2 POP POP JUMP JUMPDEST PUSH1 0x4 PUSH1 0x20 MSTORE DUP2 PUSH1 0x0 MSTORE PUSH1 0x40 PUSH1 0x0 KECCAK256 PUSH1 0x20 MSTORE DUP1 PUSH1 0x0 MSTORE PUSH1 0x40 PUSH1 0x0 KECCAK256 PUSH1 0x0 SWAP2 POP SWAP2 POP POP SLOAD DUP2 JUMP STOP LOG1 PUSH6 0x627A7A723058 KECCAK256 PUSH14 0x5C745B174A3F132FD798EC903A0D PUSH22 0x6539E7209827EB2DAA97AB056B688FA6002900000000 "
        },
        "gasEstimates": {
          "creation": {
            "codeDepositCost": "624800",
            "executionCost": "infinite",
            "totalCost": "infinite"
          },
          "external": {
            "": "22096",
            "allowance(address,address)": "21831",
            "approve(address,uint256)": "22320",
            "balanceOf(address)": "21831",
            "decimals()": "21831",
            "deposit()": "22074",
            "name()": "infinite",
            "symbol()": "infinite",
            "totalSupply()": "21831",
            "transfer(address,uint256)": "43362",
            "transferFrom(address,address,uint256)": "64448",
            "withdraw(uint256)": "infinite"
          }
        },
        "methodIdentifiers": {
          "allowance(address,address)": "dd62ed3e",
          "approve(address,uint256)": "095ea7b3",
          "balanceOf(address)": "70a08231",
          "decimals()": "313ce567",
          "deposit()": "d0e30db0",
          "name()": "06fdde03",
          "symbol()": "95d89b41",
          "totalSupply()": "18160ddd",
          "transfer(address,uint256)": "a9059cbb",
          "transferFrom(address,address,uint256)": "23b872dd",
          "withdraw(uint256)": "2e1a7d4d"
        }
      },
      "userdoc": {
        "methods": {}
      }
    }
  }
}