{
  "contracts/mocks/WETH.sol": {
    "WETH": {
      "abi": [
        {
          "constant": true,
          "inputs": [],
          "name": "name",
          "outputs": [
            {
              "name": "",
              "type": "string"
            }
          ],
          "payable": false,
          "stateMutability": "view",
          "type": "function"
        },
        {
          "constant": false,
          "inputs": [
            {
              "name": "guy",
              "type": "address"
            },
            {
              "name": "wad",
              "type": "uint256"
            }
          ],
          "name": "approve",
          "outputs": [
            {
              "name": "",
              "type": "bool"
            }
          ],
          "payable": false,
          "stateMutability": "nonpayable",
          "type": "function"
        },
        {
          "constant": true,
          "inputs": [],
          "name": "totalSupply",
          "outputs": [
            {
              "name": "",
              "type": "uint256"
            }
          ],
          "payable": false,
          "stateMutability": "view",
          "type": "function"
        },
        {
          "constant": false,
          "inputs": [
            {
              "name": "src",
              "type": "address"
            },
            {
              "name": "dst",
              "type": "address"
            },
            {
              "name": "wad",
              "type": "uint256"
            }
          ],
          "name": "transferFrom",
          "outputs": [
            {
              "name": "",
              "type": "bool"
            }
          ],
          "payable": false,
          "stateMutability": "nonpayable",
          "type": "function"
        },
        {
          "constant": false,
          "inputs": [
            {
              "name": "wad",
              "type": "uint256"
            }
          ],
          "name": "withdraw",
          "outputs": [],
          "payable": false,
          "stateMutability": "nonpayable",
          "type": "function"
        },
        {
          "constant": true,
          "inputs": [],
          "name": "decimals",
          "outputs": [
            {
              "name": "",
              "type": "uint8"
            }
          ],
          "payable": false,
          "stateMutability": "view",
          "type": "function"
        },
        {
          "constant": true,
          "inputs": [
            {
              "name": "",
              "type": "address"
            }
          ],
          "name": "balanceOf",
          "outputs": [
            {
              "name": "",
              "type": "uint256"
            }
          ],
          "payable": false,
          "stateMutability": "view",
          "type": "function"
        },
        {
          "constant": true,
          "inputs": [],
          "name": "symbol",
          "outputs": [
            {
              "name": "",
              "type": "string"
            }
          ],
          "payable": false,
          "stateMutability": "view",
          "type": "function"
        },
        {
          "constant": false,
          "inputs": [
            {
              "name": "dst",
              "type": "address"
            },
            {
              "name": "wad",
              "type": "uint256"
            }
          ],
          "name": "transfer",
          "outputs": [
            {
              "name": "",
              "type": "bool"
            }
          ],
          "payable": false,
          "stateMutability": "nonpayable",
          "type": "function"
        },
        {
          "constant": false,
          "inputs": [],
          "name": "deposit",
          "outputs": [],
          "payable": true,
          "stateMutability": "payable",
          "type": "function"
        },
        {
          "constant": true,
          "inputs": [
            {
              "name": "",
              "type": "address"
            },
            {
              "name": "",
              "type": "address"
            }
          ],
          "name": "allowance",
          "outputs": [
            {
              "name": "",
              "type": "uint256"
            }
          ],
          "payable": false,
          "stateMutability": "view",
          "type": "function"
        },
        {
          "payable": true,
          "stateMutability": "payable",
          "type": "fallback"
        },
        {
          "anonymous": false,
          "inputs": [
            {
              "indexed": true,
              "name": "src",
              "type": "address"
            },
            {
              "indexed": true,
              "name": "guy",
              "type": "address"
            },
            {
              "indexed": false,
              "name": "wad",
              "type": "uint256"
            }
          ],
          "name": "Approval",
          "type": "event"
        },
        {
          "anonymous": false,
          "inputs": [
            {
              "indexed": true,
              "name": "src",
              "type": "address"
            },
            {
              "indexed": true,
              "name": "dst",
              "type": "address"
            },
            {
              "indexed": false,
              "name": "wad",
              "type": "uint256"
            }
          ],
          "name": "Transfer",
          "type": "event"
        },
        {
          "anonymous": false,
          "inputs": [
            {
              "indexed": true,
              "name": "dst",
              "type": "address"
            },
            {
              "indexed": false,
              "name": "wad",
              "type": "uint256"
            }
          ],
          "name": "Deposit",
          "type": "event"
        },
        {
          "anonymous": false,
          "inputs": [
            {
              "indexed": true,
              "name": "src",
              "type": "address"
            },
            {
              "indexed": false,
              "name": "wad",
              "type": "uint256"
            }
          ],
          "name": "Withdrawal",
          "type": "event"
        }
      ],
      "devdoc": {
        "methods": {}
      },
      "evm": {
        "assembly": "    /* \"contracts/mocks/WETH.sol\":779:2556  contract WETH{... */\n  mstore(0x40, 0x60)\n    /* \"contracts/mocks/WETH.sol\":798:838  string public name     = \"Wrapped Ether\" */\n  0x40\n  dup1\n  mload\n  swap1\n  dup2\n  add\n  0x40\n  mstore\n  0xd\n  dup2\n  mstore\n  0x5772617070656420457468657200000000000000000000000000000000000000\n  0x20\n  dup3\n  add\n  mstore\n  0x0\n  swap1\n  dup1\n  mload\n  tag_1\n  swap3\n  swap2\n  0x20\n  add\n  swap1\n  jump\t// in(tag_2)\ntag_1:\n  pop\n    /* \"contracts/mocks/WETH.sol\":844:875  string public symbol   = \"WETH\" */\n  0x40\n  dup1\n  mload\n  swap1\n  dup2\n  add\n  0x40\n  mstore\n  0x4\n  dup2\n  mstore\n  0x5745544800000000000000000000000000000000000000000000000000000000\n  0x20\n  dup3\n  add\n  mstore\n  0x1\n  swap1\n  dup1\n  mload\n  tag_3\n  swap3\n  swap2\n  0x20\n  add\n  swap1\n  jump\t// in(tag_2)\ntag_3:\n  pop\n    /* \"contracts/mocks/WETH.sol\":881:908  uint8  public decimals = 18 */\n  0x2\n  dup1\n  sload\n  not(0xff)\n  and\n    /* \"contracts/mocks/WETH.sol\":906:908  18 */\n  0x12\n    /* \"contracts/mocks/WETH.sol\":881:908  uint8  public decimals = 18 */\n  or\n  swap1\n  sstore\n    /* \"contracts/mocks/WETH.sol\":779:2556  contract WETH{... */\n  jumpi(tag_4, iszero(callvalue))\n  0x0\n  dup1\n  revert\ntag_4:\n  jump(tag_5)\ntag_2:\n  dup3\n  dup1\n  sload\n  0x1\n  dup2\n  0x1\n  and\n  iszero\n  0x100\n  mul\n  sub\n  and\n  0x2\n  swap1\n  div\n  swap1\n  0x0\n  mstore\n  keccak256(0x0, 0x20)\n  swap1\n  0x1f\n  add\n  0x20\n  swap1\n  div\n  dup2\n  add\n  swap3\n  dup3\n  0x1f\n  lt\n  tag_7\n  jumpi\n  dup1\n  mload\n  not(0xff)\n  and\n  dup4\n  dup1\n  add\n  or\n  dup6\n  sstore\n  jump(tag_9)\ntag_7:\n  dup3\n  dup1\n  add\n  0x1\n  add\n  dup6\n  sstore\n  dup3\n  iszero\n  tag_9\n  jumpi\n  swap2\n  dup3\n  add\ntag_8:\n  dup3\n  dup2\n  gt\n  iszero\n  tag_9\n  jumpi\n  dup3\n  mload\n  dup3\n  sstore\n  swap2\n  0x20\n  add\n  swap2\n  swap1\n  0x1\n  add\n  swap1\n  jump(tag_8)\ntag_9:\n  pop\n  tag_10\n  swap3\n  swap2\n  pop\n  jump\t// in(tag_11)\ntag_10:\n  pop\n  swap1\n  jump\t// out\ntag_11:\n  tag_12\n  swap2\n  swap1\ntag_13:\n  dup1\n  dup3\n  gt\n  iszero\n  tag_10\n  jumpi\n  0x0\n  dup2\n  sstore\n  0x1\n  add\n  jump(tag_13)\ntag_12:\n  swap1\n  jump\t// out\ntag_5:\n  dataSize(sub_0)\n  dup1\n  dataOffset(sub_0)\n  0x0\n  codecopy\n  0x0\n  return\nstop\n\nsub_0: assembly {\n        /* \"contracts/mocks/WETH.sol\":779:2556  contract WETH{... */\n      mstore(0x40, 0x60)\n      jumpi(tag_1, lt(calldatasize, 0x4))\n      and(div(calldataload(0x0), 0x100000000000000000000000000000000000000000000000000000000), 0xffffffff)\n      0x6fdde03\n      dup2\n      eq\n      tag_2\n      jumpi\n      dup1\n      0x95ea7b3\n      eq\n      tag_3\n      jumpi\n      dup1\n      0x18160ddd\n      eq\n      tag_4\n      jumpi\n      dup1\n      0x23b872dd\n      eq\n      tag_5\n      jumpi\n      dup1\n      0x2e1a7d4d\n      eq\n      tag_6\n      jumpi\n      dup1\n      0x313ce567\n      eq\n      tag_7\n      jumpi\n      dup1\n      0x70a08231\n      eq\n      tag_8\n      jumpi\n      dup1\n      0x95d89b41\n      eq\n      tag_9\n      jumpi\n      dup1\n      0xa9059cbb\n      eq\n      tag_10\n      jumpi\n      dup1\n      0xd0e30db0\n      eq\n      tag_1\n      jumpi\n      dup1\n      0xdd62ed3e\n      eq\n      tag_12\n      jumpi\n    tag_1:\n        /* \"contracts/mocks/WETH.sol\":1346:1355  deposit() */\n      tag_15\n        /* \"contracts/mocks/WETH.sol\":1346:1353  deposit */\n      tag_16\n        /* \"contracts/mocks/WETH.sol\":1346:1355  deposit() */\n      jump\t// in\n    tag_15:\n        /* \"contracts/mocks/WETH.sol\":779:2556  contract WETH{... */\n      stop\n        /* \"contracts/mocks/WETH.sol\":798:838  string public name     = \"Wrapped Ether\" */\n    tag_2:\n      jumpi(tag_17, iszero(callvalue))\n      0x0\n      dup1\n      revert\n    tag_17:\n      tag_18\n      jump(tag_19)\n    tag_18:\n      mload(0x40)\n      0x20\n      dup1\n      dup3\n      mstore\n      dup2\n      swap1\n      dup2\n      add\n      dup4\n      dup2\n      dup2\n      mload\n      dup2\n      mstore\n      0x20\n      add\n      swap2\n      pop\n      dup1\n      mload\n      swap1\n      0x20\n      add\n      swap1\n      dup1\n      dup4\n      dup4\n        /* \"--CODEGEN--\":23:24   */\n      0x0\n        /* \"--CODEGEN--\":8:108   */\n    tag_20:\n        /* \"--CODEGEN--\":33:36   */\n      dup4\n        /* \"--CODEGEN--\":30:31   */\n      dup2\n        /* \"--CODEGEN--\":27:29   */\n      lt\n        /* \"--CODEGEN--\":8:108   */\n      iszero\n      tag_21\n      jumpi\n        /* \"--CODEGEN--\":99:100   */\n      dup1\n        /* \"--CODEGEN--\":94:97   */\n      dup3\n        /* \"--CODEGEN--\":90:93   */\n      add\n        /* \"--CODEGEN--\":84:89   */\n      mload\n        /* \"--CODEGEN--\":71:74   */\n      dup4\n      dup3\n      add\n        /* \"--CODEGEN--\":64:70   */\n      mstore\n        /* \"--CODEGEN--\":52:54   */\n      0x20\n        /* \"--CODEGEN--\":45:48   */\n      add\n        /* \"--CODEGEN--\":8:108   */\n      jump(tag_20)\n    tag_21:\n        /* \"--CODEGEN--\":12:26   */\n      pop\n        /* \"--CODEGEN--\":3:112   */\n      pop\n      pop\n      pop\n      swap1\n      pop\n      swap1\n      dup2\n      add\n      swap1\n      0x1f\n      and\n      dup1\n      iszero\n      tag_23\n      jumpi\n      dup1\n      dup3\n      sub\n      dup1\n      mload\n      0x1\n      dup4\n      0x20\n      sub\n      0x100\n      exp\n      sub\n      not\n      and\n      dup2\n      mstore\n      0x20\n      add\n      swap2\n      pop\n    tag_23:\n      pop\n      swap3\n      pop\n      pop\n      pop\n      mload(0x40)\n      dup1\n      swap2\n      sub\n      swap1\n      return\n        /* \"contracts/mocks/WETH.sol\":1794:1966  function approve(address guy, uint wad) public returns (bool) {... */\n    tag_3:\n      jumpi(tag_24, iszero(callvalue))\n      0x0\n      dup1\n      revert\n    tag_24:\n      tag_25\n      and(calldataload(0x4), sub(exp(0x2, 0xa0), 0x1))\n      calldataload(0x24)\n      jump(tag_26)\n    tag_25:\n      mload(0x40)\n      swap1\n      iszero\n      iszero\n      dup2\n      mstore\n      0x20\n      add\n      mload(0x40)\n      dup1\n      swap2\n      sub\n      swap1\n      return\n        /* \"contracts/mocks/WETH.sol\":1702:1788  function totalSupply() public view returns (uint) {... */\n    tag_4:\n      jumpi(tag_27, iszero(callvalue))\n      0x0\n      dup1\n      revert\n    tag_27:\n      tag_28\n      jump(tag_29)\n    tag_28:\n      mload(0x40)\n      swap1\n      dup2\n      mstore\n      0x20\n      add\n      mload(0x40)\n      dup1\n      swap2\n      sub\n      swap1\n      return\n        /* \"contracts/mocks/WETH.sol\":2099:2554  function transferFrom(address src, address dst, uint wad)... */\n    tag_5:\n      jumpi(tag_30, iszero(callvalue))\n      0x0\n      dup1\n      revert\n    tag_30:\n      tag_25\n      sub(exp(0x2, 0xa0), 0x1)\n      calldataload(0x4)\n      dup2\n      and\n      swap1\n      calldataload(0x24)\n      and\n      calldataload(0x44)\n      jump(tag_32)\n        /* \"contracts/mocks/WETH.sol\":1498:1696  function withdraw(uint wad) public {... */\n    tag_6:\n      jumpi(tag_33, iszero(callvalue))\n      0x0\n      dup1\n      revert\n    tag_33:\n      tag_15\n      calldataload(0x4)\n      jump(tag_35)\n        /* \"contracts/mocks/WETH.sol\":881:908  uint8  public decimals = 18 */\n    tag_7:\n      jumpi(tag_36, iszero(callvalue))\n      0x0\n      dup1\n      revert\n    tag_36:\n      tag_37\n      jump(tag_38)\n    tag_37:\n      mload(0x40)\n      0xff\n      swap1\n      swap2\n      and\n      dup2\n      mstore\n      0x20\n      add\n      mload(0x40)\n      dup1\n      swap2\n      sub\n      swap1\n      return\n        /* \"contracts/mocks/WETH.sol\":1167:1232  mapping (address => uint)                       public  balanceOf */\n    tag_8:\n      jumpi(tag_39, iszero(callvalue))\n      0x0\n      dup1\n      revert\n    tag_39:\n      tag_28\n      and(calldataload(0x4), sub(exp(0x2, 0xa0), 0x1))\n      jump(tag_41)\n        /* \"contracts/mocks/WETH.sol\":844:875  string public symbol   = \"WETH\" */\n    tag_9:\n      jumpi(tag_42, iszero(callvalue))\n      0x0\n      dup1\n      revert\n    tag_42:\n      tag_18\n      jump(tag_44)\n        /* \"contracts/mocks/WETH.sol\":1972:2093  function transfer(address dst, uint wad) public returns (bool) {... */\n    tag_10:\n      jumpi(tag_49, iszero(callvalue))\n      0x0\n      dup1\n      revert\n    tag_49:\n      tag_25\n      and(calldataload(0x4), sub(exp(0x2, 0xa0), 0x1))\n      calldataload(0x24)\n      jump(tag_51)\n        /* \"contracts/mocks/WETH.sol\":1238:1303  mapping (address => mapping (address => uint))  public  allowance */\n    tag_12:\n      jumpi(tag_53, iszero(callvalue))\n      0x0\n      dup1\n      revert\n    tag_53:\n      tag_28\n      sub(exp(0x2, 0xa0), 0x1)\n      calldataload(0x4)\n      dup2\n      and\n      swap1\n      calldataload(0x24)\n      and\n      jump(tag_55)\n        /* \"contracts/mocks/WETH.sol\":1368:1493  function deposit() public payable {... */\n    tag_16:\n      sub(exp(0x2, 0xa0), 0x1)\n        /* \"contracts/mocks/WETH.sol\":1422:1432  msg.sender */\n      caller\n        /* \"contracts/mocks/WETH.sol\":1412:1433  balanceOf[msg.sender] */\n      and\n      0x0\n      dup2\n      dup2\n      mstore\n        /* \"contracts/mocks/WETH.sol\":1412:1421  balanceOf */\n      0x3\n        /* \"contracts/mocks/WETH.sol\":1412:1433  balanceOf[msg.sender] */\n      0x20\n      mstore\n      0x40\n      swap1\n      dup2\n      swap1\n      keccak256\n        /* \"contracts/mocks/WETH.sol\":1412:1446  balanceOf[msg.sender] += msg.value */\n      dup1\n      sload\n        /* \"contracts/mocks/WETH.sol\":1437:1446  msg.value */\n      callvalue\n        /* \"contracts/mocks/WETH.sol\":1412:1446  balanceOf[msg.sender] += msg.value */\n      swap1\n      dup2\n      add\n      swap1\n      swap2\n      sstore\n        /* \"contracts/mocks/WETH.sol\":1456:1486  Deposit(msg.sender, msg.value) */\n      0xe1fffcc4923d04b559f4d29a8bfc6cda04eb5b0d3c460751c2402c5c5cc9109c\n      swap2\n      mload\n      swap1\n      dup2\n      mstore\n      0x20\n      add\n      mload(0x40)\n      dup1\n      swap2\n      sub\n      swap1\n      log2\n        /* \"contracts/mocks/WETH.sol\":1368:1493  function deposit() public payable {... */\n      jump\t// out\n        /* \"contracts/mocks/WETH.sol\":798:838  string public name     = \"Wrapped Ether\" */\n    tag_19:\n      0x0\n      dup1\n      sload\n      0x1\n      dup2\n      0x1\n      and\n      iszero\n      0x100\n      mul\n      sub\n      and\n      0x2\n      swap1\n      div\n      dup1\n      0x1f\n      add\n      0x20\n      dup1\n      swap2\n      div\n      mul\n      0x20\n      add\n      mload(0x40)\n      swap1\n      dup2\n      add\n      0x40\n      mstore\n      dup1\n      swap3\n      swap2\n      swap1\n      dup2\n      dup2\n      mstore\n      0x20\n      add\n      dup3\n      dup1\n      sload\n      0x1\n      dup2\n      0x1\n      and\n      iszero\n      0x100\n      mul\n      sub\n      and\n      0x2\n      swap1\n      div\n      dup1\n      iszero\n      tag_57\n      jumpi\n      dup1\n      0x1f\n      lt\n      tag_58\n      jumpi\n      0x100\n      dup1\n      dup4\n      sload\n      div\n      mul\n      dup4\n      mstore\n      swap2\n      0x20\n      add\n      swap2\n      jump(tag_57)\n    tag_58:\n      dup3\n      add\n      swap2\n      swap1\n      0x0\n      mstore\n      keccak256(0x0, 0x20)\n      swap1\n    tag_59:\n      dup2\n      sload\n      dup2\n      mstore\n      swap1\n      0x1\n      add\n      swap1\n      0x20\n      add\n      dup1\n      dup4\n      gt\n      tag_59\n      jumpi\n      dup3\n      swap1\n      sub\n      0x1f\n      and\n      dup3\n      add\n      swap2\n    tag_57:\n      pop\n      pop\n      pop\n      pop\n      pop\n      dup2\n      jump\t// out\n        /* \"contracts/mocks/WETH.sol\":1794:1966  function approve(address guy, uint wad) public returns (bool) {... */\n    tag_26:\n      sub(exp(0x2, 0xa0), 0x1)\n        /* \"contracts/mocks/WETH.sol\":1876:1886  msg.sender */\n      caller\n        /* \"contracts/mocks/WETH.sol\":1866:1887  allowance[msg.sender] */\n      dup2\n      and\n        /* \"contracts/mocks/WETH.sol\":1850:1854  bool */\n      0x0\n        /* \"contracts/mocks/WETH.sol\":1866:1887  allowance[msg.sender] */\n      dup2\n      dup2\n      mstore\n        /* \"contracts/mocks/WETH.sol\":1866:1875  allowance */\n      0x4\n        /* \"contracts/mocks/WETH.sol\":1866:1887  allowance[msg.sender] */\n      0x20\n      swap1\n      dup2\n      mstore\n      0x40\n      dup1\n      dup4\n      keccak256\n        /* \"contracts/mocks/WETH.sol\":1866:1892  allowance[msg.sender][guy] */\n      swap5\n      dup8\n      and\n      dup1\n      dup5\n      mstore\n      swap5\n      swap1\n      swap2\n      mstore\n      dup1\n      dup3\n      keccak256\n        /* \"contracts/mocks/WETH.sol\":1866:1898  allowance[msg.sender][guy] = wad */\n      dup6\n      swap1\n      sstore\n        /* \"contracts/mocks/WETH.sol\":1850:1854  bool */\n      swap1\n      swap3\n        /* \"contracts/mocks/WETH.sol\":1866:1892  allowance[msg.sender][guy] */\n      swap2\n        /* \"contracts/mocks/WETH.sol\":1866:1887  allowance[msg.sender] */\n      swap1\n        /* \"contracts/mocks/WETH.sol\":1908:1938  Approval(msg.sender, guy, wad) */\n      0x8c5be1e5ebec7d5bd14f71427d1e84f3dd0314c0f7b2291e5b200ac8c7c3b925\n      swap1\n        /* \"contracts/mocks/WETH.sol\":1895:1898  wad */\n      dup6\n      swap1\n        /* \"contracts/mocks/WETH.sol\":1908:1938  Approval(msg.sender, guy, wad) */\n      mload\n      swap1\n      dup2\n      mstore\n      0x20\n      add\n      mload(0x40)\n      dup1\n      swap2\n      sub\n      swap1\n      log3\n      pop\n        /* \"contracts/mocks/WETH.sol\":1955:1959  true */\n      0x1\n        /* \"contracts/mocks/WETH.sol\":1794:1966  function approve(address guy, uint wad) public returns (bool) {... */\n      swap3\n      swap2\n      pop\n      pop\n      jump\t// out\n        /* \"contracts/mocks/WETH.sol\":1702:1788  function totalSupply() public view returns (uint) {... */\n    tag_29:\n      sub(exp(0x2, 0xa0), 0x1)\n        /* \"contracts/mocks/WETH.sol\":1769:1773  this */\n      address\n        /* \"contracts/mocks/WETH.sol\":1769:1781  this.balance */\n      and\n      balance\n        /* \"contracts/mocks/WETH.sol\":1702:1788  function totalSupply() public view returns (uint) {... */\n      swap1\n      jump\t// out\n        /* \"contracts/mocks/WETH.sol\":2099:2554  function transferFrom(address src, address dst, uint wad)... */\n    tag_32:\n      sub(exp(0x2, 0xa0), 0x1)\n        /* \"contracts/mocks/WETH.sol\":2217:2231  balanceOf[src] */\n      dup4\n      and\n        /* \"contracts/mocks/WETH.sol\":2189:2193  bool */\n      0x0\n        /* \"contracts/mocks/WETH.sol\":2217:2231  balanceOf[src] */\n      swap1\n      dup2\n      mstore\n        /* \"contracts/mocks/WETH.sol\":2217:2226  balanceOf */\n      0x3\n        /* \"contracts/mocks/WETH.sol\":2217:2231  balanceOf[src] */\n      0x20\n      mstore\n      0x40\n      dup2\n      keccak256\n      sload\n        /* \"contracts/mocks/WETH.sol\":2217:2238  balanceOf[src] >= wad */\n      dup3\n      swap1\n      lt\n      iszero\n        /* \"contracts/mocks/WETH.sol\":2209:2239  require(balanceOf[src] >= wad) */\n      tag_63\n      jumpi\n      0x0\n      dup1\n      revert\n    tag_63:\n        /* \"contracts/mocks/WETH.sol\":2261:2271  msg.sender */\n      caller\n      sub(exp(0x2, 0xa0), 0x1)\n        /* \"contracts/mocks/WETH.sol\":2254:2271  src != msg.sender */\n      and\n        /* \"contracts/mocks/WETH.sol\":2254:2257  src */\n      dup5\n      sub(exp(0x2, 0xa0), 0x1)\n        /* \"contracts/mocks/WETH.sol\":2254:2271  src != msg.sender */\n      and\n      eq\n      iszero\n        /* \"contracts/mocks/WETH.sol\":2254:2313  src != msg.sender && allowance[src][msg.sender] != uint(-1) */\n      dup1\n      iszero\n      tag_64\n      jumpi\n      pop\n      sub(exp(0x2, 0xa0), 0x1)\n        /* \"contracts/mocks/WETH.sol\":2275:2289  allowance[src] */\n      dup1\n      dup6\n      and\n      0x0\n      swap1\n      dup2\n      mstore\n        /* \"contracts/mocks/WETH.sol\":2275:2284  allowance */\n      0x4\n        /* \"contracts/mocks/WETH.sol\":2275:2289  allowance[src] */\n      0x20\n      swap1\n      dup2\n      mstore\n      0x40\n      dup1\n      dup4\n      keccak256\n        /* \"contracts/mocks/WETH.sol\":2290:2300  msg.sender */\n      caller\n        /* \"contracts/mocks/WETH.sol\":2275:2301  allowance[src][msg.sender] */\n      swap1\n      swap5\n      and\n      dup4\n      mstore\n      swap3\n      swap1\n      mstore\n      keccak256\n      sload\n      not(0x0)\n        /* \"contracts/mocks/WETH.sol\":2275:2313  allowance[src][msg.sender] != uint(-1) */\n      eq\n      iszero\n        /* \"contracts/mocks/WETH.sol\":2254:2313  src != msg.sender && allowance[src][msg.sender] != uint(-1) */\n    tag_64:\n        /* \"contracts/mocks/WETH.sol\":2250:2429  if (src != msg.sender && allowance[src][msg.sender] != uint(-1)) {... */\n      iszero\n      tag_65\n      jumpi\n      sub(exp(0x2, 0xa0), 0x1)\n        /* \"contracts/mocks/WETH.sol\":2337:2351  allowance[src] */\n      dup1\n      dup6\n      and\n      0x0\n      swap1\n      dup2\n      mstore\n        /* \"contracts/mocks/WETH.sol\":2337:2346  allowance */\n      0x4\n        /* \"contracts/mocks/WETH.sol\":2337:2351  allowance[src] */\n      0x20\n      swap1\n      dup2\n      mstore\n      0x40\n      dup1\n      dup4\n      keccak256\n        /* \"contracts/mocks/WETH.sol\":2352:2362  msg.sender */\n      caller\n        /* \"contracts/mocks/WETH.sol\":2337:2363  allowance[src][msg.sender] */\n      swap1\n      swap5\n      and\n      dup4\n      mstore\n      swap3\n      swap1\n      mstore\n      keccak256\n      sload\n        /* \"contracts/mocks/WETH.sol\":2337:2370  allowance[src][msg.sender] >= wad */\n      dup3\n      swap1\n      lt\n      iszero\n        /* \"contracts/mocks/WETH.sol\":2329:2371  require(allowance[src][msg.sender] >= wad) */\n      tag_66\n      jumpi\n      0x0\n      dup1\n      revert\n    tag_66:\n      sub(exp(0x2, 0xa0), 0x1)\n        /* \"contracts/mocks/WETH.sol\":2385:2399  allowance[src] */\n      dup1\n      dup6\n      and\n      0x0\n      swap1\n      dup2\n      mstore\n        /* \"contracts/mocks/WETH.sol\":2385:2394  allowance */\n      0x4\n        /* \"contracts/mocks/WETH.sol\":2385:2399  allowance[src] */\n      0x20\n      swap1\n      dup2\n      mstore\n      0x40\n      dup1\n      dup4\n      keccak256\n        /* \"contracts/mocks/WETH.sol\":2400:2410  msg.sender */\n      caller\n        /* \"contracts/mocks/WETH.sol\":2385:2411  allowance[src][msg.sender] */\n      swap1\n      swap5\n      and\n      dup4\n      mstore\n      swap3\n      swap1\n      mstore\n      keccak256\n        /* \"contracts/mocks/WETH.sol\":2385:2418  allowance[src][msg.sender] -= wad */\n      dup1\n      sload\n      dup4\n      swap1\n      sub\n      swap1\n      sstore\n        /* \"contracts/mocks/WETH.sol\":2250:2429  if (src != msg.sender && allowance[src][msg.sender] != uint(-1)) {... */\n    tag_65:\n      sub(exp(0x2, 0xa0), 0x1)\n        /* \"contracts/mocks/WETH.sol\":2439:2453  balanceOf[src] */\n      dup1\n      dup6\n      and\n      0x0\n      dup2\n      dup2\n      mstore\n        /* \"contracts/mocks/WETH.sol\":2439:2448  balanceOf */\n      0x3\n        /* \"contracts/mocks/WETH.sol\":2439:2453  balanceOf[src] */\n      0x20\n      mstore\n      0x40\n      dup1\n      dup3\n      keccak256\n        /* \"contracts/mocks/WETH.sol\":2439:2460  balanceOf[src] -= wad */\n      dup1\n      sload\n      dup8\n      swap1\n      sub\n      swap1\n      sstore\n        /* \"contracts/mocks/WETH.sol\":2470:2484  balanceOf[dst] */\n      swap3\n      dup7\n      and\n      dup1\n      dup3\n      mstore\n      swap1\n      dup4\n      swap1\n      keccak256\n        /* \"contracts/mocks/WETH.sol\":2470:2491  balanceOf[dst] += wad */\n      dup1\n      sload\n      dup7\n      add\n      swap1\n      sstore\n        /* \"contracts/mocks/WETH.sol\":2470:2484  balanceOf[dst] */\n      swap2\n        /* \"contracts/mocks/WETH.sol\":2502:2525  Transfer(src, dst, wad) */\n      0xddf252ad1be2c89b69c2b068fc378daa952ba7f163c4a11628f55a4df523b3ef\n      swap1\n        /* \"contracts/mocks/WETH.sol\":2457:2460  wad */\n      dup6\n      swap1\n        /* \"contracts/mocks/WETH.sol\":2502:2525  Transfer(src, dst, wad) */\n      mload\n      swap1\n      dup2\n      mstore\n      0x20\n      add\n      mload(0x40)\n      dup1\n      swap2\n      sub\n      swap1\n      log3\n      pop\n        /* \"contracts/mocks/WETH.sol\":2543:2547  true */\n      0x1\n        /* \"contracts/mocks/WETH.sol\":2099:2554  function transferFrom(address src, address dst, uint wad)... */\n      swap4\n      swap3\n      pop\n      pop\n      pop\n      jump\t// out\n        /* \"contracts/mocks/WETH.sol\":1498:1696  function withdraw(uint wad) public {... */\n    tag_35:\n      sub(exp(0x2, 0xa0), 0x1)\n        /* \"contracts/mocks/WETH.sol\":1561:1571  msg.sender */\n      caller\n        /* \"contracts/mocks/WETH.sol\":1551:1572  balanceOf[msg.sender] */\n      and\n      0x0\n      swap1\n      dup2\n      mstore\n        /* \"contracts/mocks/WETH.sol\":1551:1560  balanceOf */\n      0x3\n        /* \"contracts/mocks/WETH.sol\":1551:1572  balanceOf[msg.sender] */\n      0x20\n      mstore\n      0x40\n      swap1\n      keccak256\n      sload\n        /* \"contracts/mocks/WETH.sol\":1551:1579  balanceOf[msg.sender] >= wad */\n      dup2\n      swap1\n      lt\n      iszero\n        /* \"contracts/mocks/WETH.sol\":1543:1580  require(balanceOf[msg.sender] >= wad) */\n      tag_68\n      jumpi\n      0x0\n      dup1\n      revert\n    tag_68:\n      sub(exp(0x2, 0xa0), 0x1)\n        /* \"contracts/mocks/WETH.sol\":1600:1610  msg.sender */\n      caller\n        /* \"contracts/mocks/WETH.sol\":1590:1611  balanceOf[msg.sender] */\n      and\n      0x0\n      dup2\n      dup2\n      mstore\n        /* \"contracts/mocks/WETH.sol\":1590:1599  balanceOf */\n      0x3\n        /* \"contracts/mocks/WETH.sol\":1590:1611  balanceOf[msg.sender] */\n      0x20\n      mstore\n      0x40\n      swap1\n      dup2\n      swap1\n      keccak256\n        /* \"contracts/mocks/WETH.sol\":1590:1618  balanceOf[msg.sender] -= wad */\n      dup1\n      sload\n      dup5\n      swap1\n      sub\n      swap1\n      sstore\n        /* \"contracts/mocks/WETH.sol\":1628:1652  msg.sender.transfer(wad) */\n      dup3\n      iszero\n      0x8fc\n      mul\n      swap1\n        /* \"contracts/mocks/WETH.sol\":1615:1618  wad */\n      dup4\n      swap1\n        /* \"contracts/mocks/WETH.sol\":1628:1652  msg.sender.transfer(wad) */\n      mload\n      0x0\n      mload(0x40)\n      dup1\n      dup4\n      sub\n      dup2\n      dup6\n      dup9\n      dup9\n      call\n      swap4\n      pop\n      pop\n      pop\n      pop\n      iszero\n      iszero\n      tag_69\n      jumpi\n      0x0\n      dup1\n      revert\n    tag_69:\n        /* \"contracts/mocks/WETH.sol\":1673:1683  msg.sender */\n      caller\n      sub(exp(0x2, 0xa0), 0x1)\n        /* \"contracts/mocks/WETH.sol\":1662:1689  Withdrawal(msg.sender, wad) */\n      and\n      0x7fcf532c15f0a6db0bd6d0e038bea71d30d808c7d98cb3bf7268a95bf5081b65\n        /* \"contracts/mocks/WETH.sol\":1685:1688  wad */\n      dup3\n        /* \"contracts/mocks/WETH.sol\":1662:1689  Withdrawal(msg.sender, wad) */\n      mload(0x40)\n      swap1\n      dup2\n      mstore\n      0x20\n      add\n      mload(0x40)\n      dup1\n      swap2\n      sub\n      swap1\n      log2\n        /* \"contracts/mocks/WETH.sol\":1498:1696  function withdraw(uint wad) public {... */\n      pop\n      jump\t// out\n        /* \"contracts/mocks/WETH.sol\":881:908  uint8  public decimals = 18 */\n    tag_38:\n      and(0xff, sload(0x2))\n      dup2\n      jump\t// out\n        /* \"contracts/mocks/WETH.sol\":1167:1232  mapping (address => uint)                       public  balanceOf */\n    tag_41:\n      mstore(0x20, 0x3)\n      0x0\n      swap1\n      dup2\n      mstore\n      0x40\n      swap1\n      keccak256\n      sload\n      dup2\n      jump\t// out\n        /* \"contracts/mocks/WETH.sol\":844:875  string public symbol   = \"WETH\" */\n    tag_44:\n      0x1\n      dup1\n      sload\n      0x1\n      dup2\n      0x1\n      and\n      iszero\n      0x100\n      mul\n      sub\n      and\n      0x2\n      swap1\n      div\n      dup1\n      0x1f\n      add\n      0x20\n      dup1\n      swap2\n      div\n      mul\n      0x20\n      add\n      mload(0x40)\n      swap1\n      dup2\n      add\n      0x40\n      mstore\n      dup1\n      swap3\n      swap2\n      swap1\n      dup2\n      dup2\n      mstore\n      0x20\n      add\n      dup3\n      dup1\n      sload\n      0x1\n      dup2\n      0x1\n      and\n      iszero\n      0x100\n      mul\n      sub\n      and\n      0x2\n      swap1\n      div\n      dup1\n      iszero\n      tag_57\n      jumpi\n      dup1\n      0x1f\n      lt\n      tag_58\n      jumpi\n      0x100\n      dup1\n      dup4\n      sload\n      div\n      mul\n      dup4\n      mstore\n      swap2\n      0x20\n      add\n      swap2\n      jump(tag_57)\n        /* \"contracts/mocks/WETH.sol\":1972:2093  function transfer(address dst, uint wad) public returns (bool) {... */\n    tag_51:\n        /* \"contracts/mocks/WETH.sol\":2029:2033  bool */\n      0x0\n        /* \"contracts/mocks/WETH.sol\":2052:2086  transferFrom(msg.sender, dst, wad) */\n      tag_74\n        /* \"contracts/mocks/WETH.sol\":2065:2075  msg.sender */\n      caller\n        /* \"contracts/mocks/WETH.sol\":2077:2080  dst */\n      dup5\n        /* \"contracts/mocks/WETH.sol\":2082:2085  wad */\n      dup5\n        /* \"contracts/mocks/WETH.sol\":2052:2064  transferFrom */\n      tag_32\n        /* \"contracts/mocks/WETH.sol\":2052:2086  transferFrom(msg.sender, dst, wad) */\n      jump\t// in\n    tag_74:\n        /* \"contracts/mocks/WETH.sol\":2045:2086  return transferFrom(msg.sender, dst, wad) */\n      swap4\n        /* \"contracts/mocks/WETH.sol\":1972:2093  function transfer(address dst, uint wad) public returns (bool) {... */\n      swap3\n      pop\n      pop\n      pop\n      jump\t// out\n        /* \"contracts/mocks/WETH.sol\":1238:1303  mapping (address => mapping (address => uint))  public  allowance */\n    tag_55:\n      0x4\n      0x20\n      swap1\n      dup2\n      mstore\n      0x0\n      swap3\n      dup4\n      mstore\n      0x40\n      dup1\n      dup5\n      keccak256\n      swap1\n      swap2\n      mstore\n      swap1\n      dup3\n      mstore\n      swap1\n      keccak256\n      sload\n      dup2\n      jump\t// out\n\n    auxdata: 0xa165627a7a72305820de18443bb14b9d0a753059c0957db1618af42ade5d13fa9bf158668a6ced3d150029\n}\n",
        "bytecode": {
          "linkReferences": {},
          "object": "606060405260408051908101604052600d81527f57726170706564204574686572000000000000000000000000000000000000006020820152600090805161004b9291602001906100b1565b5060408051908101604052600481527f5745544800000000000000000000000000000000000000000000000000000000602082015260019080516100939291602001906100b1565b506002805460ff1916601217905534156100ac57600080fd5b61014c565b828054600181600116156101000203166002900490600052602060002090601f016020900481019282601f106100f257805160ff191683800117855561011f565b8280016001018555821561011f579182015b8281111561011f578251825591602001919060010190610104565b5061012b92915061012f565b5090565b61014991905b8082111561012b5760008155600101610135565b90565b6106c28061015b6000396000f3006060604052600436106100ae5763ffffffff7c010000000000000000000000000000000000000000000000000000000060003504166306fdde0381146100b8578063095ea7b31461014257806318160ddd1461017857806323b872dd1461019d5780632e1a7d4d146101c5578063313ce567146101db57806370a082311461020457806395d89b4114610223578063a9059cbb14610236578063d0e30db0146100ae578063dd62ed3e14610258575b6100b661027d565b005b34156100c357600080fd5b6100cb6102d3565b60405160208082528190810183818151815260200191508051906020019080838360005b838110156101075780820151838201526020016100ef565b50505050905090810190601f1680156101345780820380516001836020036101000a031916815260200191505b509250505060405180910390f35b341561014d57600080fd5b610164600160a060020a0360043516602435610371565b604051901515815260200160405180910390f35b341561018357600080fd5b61018b6103dd565b60405190815260200160405180910390f35b34156101a857600080fd5b610164600160a060020a03600435811690602435166044356103eb565b34156101d057600080fd5b6100b6600435610531565b34156101e657600080fd5b6101ee6105df565b60405160ff909116815260200160405180910390f35b341561020f57600080fd5b61018b600160a060020a03600435166105e8565b341561022e57600080fd5b6100cb6105fa565b341561024157600080fd5b610164600160a060020a0360043516602435610665565b341561026357600080fd5b61018b600160a060020a0360043581169060243516610679565b600160a060020a033316600081815260036020526040908190208054349081019091557fe1fffcc4923d04b559f4d29a8bfc6cda04eb5b0d3c460751c2402c5c5cc9109c915190815260200160405180910390a2565b60008054600181600116156101000203166002900480601f0160208091040260200160405190810160405280929190818152602001828054600181600116156101000203166002900480156103695780601f1061033e57610100808354040283529160200191610369565b820191906000526020600020905b81548152906001019060200180831161034c57829003601f168201915b505050505081565b600160a060020a03338116600081815260046020908152604080832094871680845294909152808220859055909291907f8c5be1e5ebec7d5bd14f71427d1e84f3dd0314c0f7b2291e5b200ac8c7c3b9259085905190815260200160405180910390a350600192915050565b600160a060020a0330163190565b600160a060020a0383166000908152600360205260408120548290101561041157600080fd5b33600160a060020a031684600160a060020a03161415801561045b5750600160a060020a038085166000908152600460209081526040808320339094168352929052205460001914155b156104c257600160a060020a03808516600090815260046020908152604080832033909416835292905220548290101561049457600080fd5b600160a060020a03808516600090815260046020908152604080832033909416835292905220805483900390555b600160a060020a038085166000818152600360205260408082208054879003905592861680825290839020805486019055917fddf252ad1be2c89b69c2b068fc378daa952ba7f163c4a11628f55a4df523b3ef9085905190815260200160405180910390a35060019392505050565b600160a060020a0333166000908152600360205260409020548190101561055757600080fd5b600160a060020a033316600081815260036020526040908190208054849003905582156108fc0290839051600060405180830381858888f19350505050151561059f57600080fd5b33600160a060020a03167f7fcf532c15f0a6db0bd6d0e038bea71d30d808c7d98cb3bf7268a95bf5081b658260405190815260200160405180910390a250565b60025460ff1681565b60036020526000908152604090205481565b60018054600181600116156101000203166002900480601f0160208091040260200160405190810160405280929190818152602001828054600181600116156101000203166002900480156103695780601f1061033e57610100808354040283529160200191610369565b60006106723384846103eb565b9392505050565b6004602090815260009283526040808420909152908252902054815600a165627a7a72305820de18443bb14b9d0a753059c0957db1618af42ade5d13fa9bf158668a6ced3d150029",
          "opcodes": "PUSH1 0x60 PUSH1 0x40 MSTORE PUSH1 0x40 DUP1 MLOAD SWAP1 DUP2 ADD PUSH1 0x40 MSTORE PUSH1 0xD DUP2 MSTORE PUSH32 0x5772617070656420457468657200000000000000000000000000000000000000 PUSH1 0x20 DUP3 ADD MSTORE PUSH1 0x0 SWAP1 DUP1 MLOAD PUSH2 0x4B SWAP3 SWAP2 PUSH1 0x20 ADD SWAP1 PUSH2 0xB1 JUMP JUMPDEST POP PUSH1 0x40 DUP1 MLOAD SWAP1 DUP2 ADD PUSH1 0x40 MSTORE PUSH1 0x4 DUP2 MSTORE PUSH32 0x5745544800000000000000000000000000000000000000000000000000000000 PUSH1 0x20 DUP3 ADD MSTORE PUSH1 0x1 SWAP1 DUP1 MLOAD PUSH2 0x93 SWAP3 SWAP2 PUSH1 0x20 ADD SWAP1 PUSH2 0xB1 JUMP JUMPDEST POP PUSH1 0x2 DUP1 SLOAD PUSH1 0xFF NOT AND PUSH1 0x12 OR SWAP1 SSTORE CALLVALUE ISZERO PUSH2 0xAC JUMPI PUSH1 0x0 DUP1 REVERT JUMPDEST PUSH2 0x14C JUMP JUMPDEST DUP3 DUP1 SLOAD PUSH1 0x1 DUP2 PUSH1 0x1 AND ISZERO PUSH2 0x100 MUL SUB AND PUSH1 0x2 SWAP1 DIV SWAP1 PUSH1 0x0 MSTORE PUSH1 0x20 PUSH1 0x0 KECCAK256 SWAP1 PUSH1 0x1F ADD PUSH1 0x20 SWAP1 DIV DUP2 ADD SWAP3 DUP3 PUSH1 0x1F LT PUSH2 0xF2 JUMPI DUP1 MLOAD PUSH1 0xFF NOT AND DUP4 DUP1 ADD OR DUP6 SSTORE PUSH2 0x11F JUMP JUMPDEST DUP3 DUP1 ADD PUSH1 0x1 ADD DUP6 SSTORE DUP3 ISZERO PUSH2 0x11F JUMPI SWAP2 DUP3 ADD JUMPDEST DUP3 DUP2 GT ISZERO PUSH2 0x11F JUMPI DUP3 MLOAD DUP3 SSTORE SWAP2 PUSH1 0x20 ADD SWAP2 SWAP1 PUSH1 0x1 ADD SWAP1 PUSH2 0x104 JUMP JUMPDEST POP PUSH2 0x12B SWAP3 SWAP2 POP PUSH2 0x12F JUMP JUMPDEST POP SWAP1 JUMP JUMPDEST PUSH2 0x149 SWAP2 SWAP1 JUMPDEST DUP1 DUP3 GT ISZERO PUSH2 0x12B JUMPI PUSH1 0x0 DUP2 SSTORE PUSH1 0x1 ADD PUSH2 0x135 JUMP JUMPDEST SWAP1 JUMP JUMPDEST PUSH2 0x6C2 DUP1 PUSH2 0x15B PUSH1 0x0 CODECOPY PUSH1 0x0 RETURN STOP PUSH1 0x60 PUSH1 0x40 MSTORE PUSH1 0x4 CALLDATASIZE LT PUSH2 0xAE JUMPI PUSH4 0xFFFFFFFF PUSH29 0x100000000000000000000000000000000000000000000000000000000 PUSH1 0x0 CALLDATALOAD DIV AND PUSH4 0x6FDDE03 DUP2 EQ PUSH2 0xB8 JUMPI DUP1 PUSH4 0x95EA7B3 EQ PUSH2 0x142 JUMPI DUP1 PUSH4 0x18160DDD EQ PUSH2 0x178 JUMPI DUP1 PUSH4 0x23B872DD EQ PUSH2 0x19D JUMPI DUP1 PUSH4 0x2E1A7D4D EQ PUSH2 0x1C5 JUMPI DUP1 PUSH4 0x313CE567 EQ PUSH2 0x1DB JUMPI DUP1 PUSH4 0x70A08231 EQ PUSH2 0x204 JUMPI DUP1 PUSH4 0x95D89B41 EQ PUSH2 0x223 JUMPI DUP1 PUSH4 0xA9059CBB EQ PUSH2 0x236 JUMPI DUP1 PUSH4 0xD0E30DB0 EQ PUSH2 0xAE JUMPI DUP1 PUSH4 0xDD62ED3E EQ PUSH2 0x258 JUMPI JUMPDEST PUSH2 0xB6 PUSH2 0x27D JUMP JUMPDEST STOP JUMPDEST CALLVALUE ISZERO PUSH2 0xC3 JUMPI PUSH1 0x0 DUP1 REVERT JUMPDEST PUSH2 0xCB PUSH2 0x2D3 JUMP JUMPDEST PUSH1 0x40 MLOAD PUSH1 0x20 DUP1 DUP3 MSTORE DUP2 SWAP1 DUP2 ADD DUP4 DUP2 DUP2 MLOAD DUP2 MSTORE PUSH1 0x20 ADD SWAP2 POP DUP1 MLOAD SWAP1 PUSH1 0x20 ADD SWAP1 DUP1 DUP4 DUP4 PUSH1 0x0 JUMPDEST DUP4 DUP2 LT ISZERO PUSH2 0x107 JUMPI DUP1 DUP3 ADD MLOAD DUP4 DUP3 ADD MSTORE PUSH1 0x20 ADD PUSH2 0xEF JUMP JUMPDEST POP POP POP POP SWAP1 POP SWAP1 DUP2 ADD SWAP1 PUSH1 0x1F AND DUP1 ISZERO PUSH2 0x134 JUMPI DUP1 DUP3 SUB DUP1 MLOAD PUSH1 0x1 DUP4 PUSH1 0x20 SUB PUSH2 0x100 EXP SUB NOT AND DUP2 MSTORE PUSH1 0x20 ADD SWAP2 POP JUMPDEST POP SWAP3 POP POP POP PUSH1 0x40 MLOAD DUP1 SWAP2 SUB SWAP1 RETURN JUMPDEST CALLVALUE ISZERO PUSH2 0x14D JUMPI PUSH1 0x0 DUP1 REVERT JUMPDEST PUSH2 0x164 PUSH1 0x1 PUSH1 0xA0 PUSH1 0x2 EXP SUB PUSH1 0x4 CALLDATALOAD AND PUSH1 0x24 CALLDATALOAD PUSH2 0x371 JUMP JUMPDEST PUSH1 0x40 MLOAD SWAP1 ISZERO ISZERO DUP2 MSTORE PUSH1 0x20 ADD PUSH1 0x40 MLOAD DUP1 SWAP2 SUB SWAP1 RETURN JUMPDEST CALLVALUE ISZERO PUSH2 0x183 JUMPI PUSH1 0x0 DUP1 REVERT JUMPDEST PUSH2 0x18B PUSH2 0x3DD JUMP JUMPDEST PUSH1 0x40 MLOAD SWAP1 DUP2 MSTORE PUSH1 0x20 ADD PUSH1 0x40 MLOAD DUP1 SWAP2 SUB SWAP1 RETURN JUMPDEST CALLVALUE ISZERO PUSH2 0x1A8 JUMPI PUSH1 0x0 DUP1 REVERT JUMPDEST PUSH2 0x164 PUSH1 0x1 PUSH1 0xA0 PUSH1 0x2 EXP SUB PUSH1 0x4 CALLDATALOAD DUP2 AND SWAP1 PUSH1 0x24 CALLDATALOAD AND PUSH1 0x44 CALLDATALOAD PUSH2 0x3EB JUMP JUMPDEST CALLVALUE ISZERO PUSH2 0x1D0 JUMPI PUSH1 0x0 DUP1 REVERT JUMPDEST PUSH2 0xB6 PUSH1 0x4 CALLDATALOAD PUSH2 0x531 JUMP JUMPDEST CALLVALUE ISZERO PUSH2 0x1E6 JUMPI PUSH1 0x0 DUP1 REVERT JUMPDEST PUSH2 0x1EE PUSH2 0x5DF JUMP JUMPDEST PUSH1 0x40 MLOAD PUSH1 0xFF SWAP1 SWAP2 AND DUP2 MSTORE PUSH1 0x20 ADD PUSH1 0x40 MLOAD DUP1 SWAP2 SUB SWAP1 RETURN JUMPDEST CALLVALUE ISZERO PUSH2 0x20F JUMPI PUSH1 0x0 DUP1 REVERT JUMPDEST PUSH2 0x18B PUSH1 0x1 PUSH1 0xA0 PUSH1 0x2 EXP SUB PUSH1 0x4 CALLDATALOAD AND PUSH2 0x5E8 JUMP JUMPDEST CALLVALUE ISZERO PUSH2 0x22E JUMPI PUSH1 0x0 DUP1 REVERT JUMPDEST PUSH2 0xCB PUSH2 0x5FA JUMP JUMPDEST CALLVALUE ISZERO PUSH2 0x241 JUMPI PUSH1 0x0 DUP1 REVERT JUMPDEST PUSH2 0x164 PUSH1 0x1 PUSH1 0xA0 PUSH1 0x2 EXP SUB PUSH1 0x4 CALLDATALOAD AND PUSH1 0x24 CALLDATALOAD PUSH2 0x665 JUMP JUMPDEST CALLVALUE ISZERO PUSH2 0x263 JUMPI PUSH1 0x0 DUP1 REVERT JUMPDEST PUSH2 0x18B PUSH1 0x1 PUSH1 0xA0 PUSH1 0x2 EXP SUB PUSH1 0x4 CALLDATALOAD DUP2 AND SWAP1 PUSH1 0x24 CALLDATALOAD AND PUSH2 0x679 JUMP JUMPDEST PUSH1 0x1 PUSH1 0xA0 PUSH1 0x2 EXP SUB CALLER AND PUSH1 0x0 DUP2 DUP2 MSTORE PUSH1 0x3 PUSH1 0x20 MSTORE PUSH1 0x40 SWAP1 DUP2 SWAP1 KECCAK256 DUP1 SLOAD CALLVALUE SWAP1 DUP2 ADD SWAP1 SWAP2 SSTORE PUSH32 0xE1FFFCC4923D04B559F4D29A8BFC6CDA04EB5B0D3C460751C2402C5C5CC9109C SWAP2 MLOAD SWAP1 DUP2 MSTORE PUSH1 0x20 ADD PUSH1 0x40 MLOAD DUP1 SWAP2 SUB SWAP1 LOG2 JUMP JUMPDEST PUSH1 0x0 DUP1 SLOAD PUSH1 0x1 DUP2 PUSH1 0x1 AND ISZERO PUSH2 0x100 MUL SUB AND PUSH1 0x2 SWAP1 DIV DUP1 PUSH1 0x1F ADD PUSH1 0x20 DUP1 SWAP2 DIV MUL PUSH1 0x20 ADD PUSH1 0x40 MLOAD SWAP1 DUP2 ADD PUSH1 0x40 MSTORE DUP1 SWAP3 SWAP2 SWAP1 DUP2 DUP2 MSTORE PUSH1 0x20 ADD DUP3 DUP1 SLOAD PUSH1 0x1 DUP2 PUSH1 0x1 AND ISZERO PUSH2 0x100 MUL SUB AND PUSH1 0x2 SWAP1 DIV DUP1 ISZERO PUSH2 0x369 JUMPI DUP1 PUSH1 0x1F LT PUSH2 0x33E JUMPI PUSH2 0x100 DUP1 DUP4 SLOAD DIV MUL DUP4 MSTORE SWAP2 PUSH1 0x20 ADD SWAP2 PUSH2 0x369 JUMP JUMPDEST DUP3 ADD SWAP2 SWAP1 PUSH1 0x0 MSTORE PUSH1 0x20 PUSH1 0x0 KECCAK256 SWAP1 JUMPDEST DUP2 SLOAD DUP2 MSTORE SWAP1 PUSH1 0x1 ADD SWAP1 PUSH1 0x20 ADD DUP1 DUP4 GT PUSH2 0x34C JUMPI DUP3 SWAP1 SUB PUSH1 0x1F AND DUP3 ADD SWAP2 JUMPDEST POP POP POP POP POP DUP2 JUMP JUMPDEST PUSH1 0x1 PUSH1 0xA0 PUSH1 0x2 EXP SUB CALLER DUP2 AND PUSH1 0x0 DUP2 DUP2 MSTORE PUSH1 0x4 PUSH1 0x20 SWAP1 DUP2 MSTORE PUSH1 0x40 DUP1 DUP4 KECCAK256 SWAP5 DUP8 AND DUP1 DUP5 MSTORE SWAP5 SWAP1 SWAP2 MSTORE DUP1 DUP3 KECCAK256 DUP6 SWAP1 SSTORE SWAP1 SWAP3 SWAP2 SWAP1 PUSH32 0x8C5BE1E5EBEC7D5BD14F71427D1E84F3DD0314C0F7B2291E5B200AC8C7C3B925 SWAP1 DUP6 SWAP1 MLOAD SWAP1 DUP2 MSTORE PUSH1 0x20 ADD PUSH1 0x40 MLOAD DUP1 SWAP2 SUB SWAP1 LOG3 POP PUSH1 0x1 SWAP3 SWAP2 POP POP JUMP JUMPDEST PUSH1 0x1 PUSH1 0xA0 PUSH1 0x2 EXP SUB ADDRESS AND BALANCE SWAP1 JUMP JUMPDEST PUSH1 0x1 PUSH1 0xA0 PUSH1 0x2 EXP SUB DUP4 AND PUSH1 0x0 SWAP1 DUP2 MSTORE PUSH1 0x3 PUSH1 0x20 MSTORE PUSH1 0x40 DUP2 KECCAK256 SLOAD DUP3 SWAP1 LT ISZERO PUSH2 0x411 JUMPI PUSH1 0x0 DUP1 REVERT JUMPDEST CALLER PUSH1 0x1 PUSH1 0xA0 PUSH1 0x2 EXP SUB AND DUP5 PUSH1 0x1 PUSH1 0xA0 PUSH1 0x2 EXP SUB AND EQ ISZERO DUP1 ISZERO PUSH2 0x45B JUMPI POP PUSH1 0x1 PUSH1 0xA0 PUSH1 0x2 EXP SUB DUP1 DUP6 AND PUSH1 0x0 SWAP1 DUP2 MSTORE PUSH1 0x4 PUSH1 0x20 SWAP1 DUP2 MSTORE PUSH1 0x40 DUP1 DUP4 KECCAK256 CALLER SWAP1 SWAP5 AND DUP4 MSTORE SWAP3 SWAP1 MSTORE KECCAK256 SLOAD PUSH1 0x0 NOT EQ ISZERO JUMPDEST ISZERO PUSH2 0x4C2 JUMPI PUSH1 0x1 PUSH1 0xA0 PUSH1 0x2 EXP SUB DUP1 DUP6 AND PUSH1 0x0 SWAP1 DUP2 MSTORE PUSH1 0x4 PUSH1 0x20 SWAP1 DUP2 MSTORE PUSH1 0x40 DUP1 DUP4 KECCAK256 CALLER SWAP1 SWAP5 AND DUP4 MSTORE SWAP3 SWAP1 MSTORE KECCAK256 SLOAD DUP3 SWAP1 LT ISZERO PUSH2 0x494 JUMPI PUSH1 0x0 DUP1 REVERT JUMPDEST PUSH1 0x1 PUSH1 0xA0 PUSH1 0x2 EXP SUB DUP1 DUP6 AND PUSH1 0x0 SWAP1 DUP2 MSTORE PUSH1 0x4 PUSH1 0x20 SWAP1 DUP2 MSTORE PUSH1 0x40 DUP1 DUP4 KECCAK256 CALLER SWAP1 SWAP5 AND DUP4 MSTORE SWAP3 SWAP1 MSTORE KECCAK256 DUP1 SLOAD DUP4 SWAP1 SUB SWAP1 SSTORE JUMPDEST PUSH1 0x1 PUSH1 0xA0 PUSH1 0x2 EXP SUB DUP1 DUP6 AND PUSH1 0x0 DUP2 DUP2 MSTORE PUSH1 0x3 PUSH1 0x20 MSTORE PUSH1 0x40 DUP1 DUP3 KECCAK256 DUP1 SLOAD DUP8 SWAP1 SUB SWAP1 SSTORE SWAP3 DUP7 AND DUP1 DUP3 MSTORE SWAP1 DUP4 SWAP1 KECCAK256 DUP1 SLOAD DUP7 ADD SWAP1 SSTORE SWAP2 PUSH32 0xDDF252AD1BE2C89B69C2B068FC378DAA952BA7F163C4A11628F55A4DF523B3EF SWAP1 DUP6 SWAP1 MLOAD SWAP1 DUP2 MSTORE PUSH1 0x20 ADD PUSH1 0x40 MLOAD DUP1 SWAP2 SUB SWAP1 LOG3 POP PUSH1 0x1 SWAP4 SWAP3 POP POP POP JUMP JUMPDEST PUSH1 0x1 PUSH1 0xA0 PUSH1 0x2 EXP SUB CALLER AND PUSH1 0x0 SWAP1 DUP2 MSTORE PUSH1 0x3 PUSH1 0x20 MSTORE PUSH1 0x40 SWAP1 KECCAK256 SLOAD DUP2 SWAP1 LT ISZERO PUSH2 0x557 JUMPI PUSH1 0x0 DUP1 REVERT JUMPDEST PUSH1 0x1 PUSH1 0xA0 PUSH1 0x2 EXP SUB CALLER AND PUSH1 0x0 DUP2 DUP2 MSTORE PUSH1 0x3 PUSH1 0x20 MSTORE PUSH1 0x40 SWAP1 DUP2 SWAP1 KECCAK256 DUP1 SLOAD DUP5 SWAP1 SUB SWAP1 SSTORE DUP3 ISZERO PUSH2 0x8FC MUL SWAP1 DUP4 SWAP1 MLOAD PUSH1 0x0 PUSH1 0x40 MLOAD DUP1 DUP4 SUB DUP2 DUP6 DUP9 DUP9 CALL SWAP4 POP POP POP POP ISZERO ISZERO PUSH2 0x59F JUMPI PUSH1 0x0 DUP1 REVERT JUMPDEST CALLER PUSH1 0x1 PUSH1 0xA0 PUSH1 0x2 EXP SUB AND PUSH32 0x7FCF532C15F0A6DB0BD6D0E038BEA71D30D808C7D98CB3BF7268A95BF5081B65 DUP3 PUSH1 0x40 MLOAD SWAP1 DUP2 MSTORE PUSH1 0x20 ADD PUSH1 0x40 MLOAD DUP1 SWAP2 SUB SWAP1 LOG2 POP JUMP JUMPDEST PUSH1 0x2 SLOAD PUSH1 0xFF AND DUP2 JUMP JUMPDEST PUSH1 0x3 PUSH1 0x20 MSTORE PUSH1 0x0 SWAP1 DUP2 MSTORE PUSH1 0x40 SWAP1 KECCAK256 SLOAD DUP2 JUMP JUMPDEST PUSH1 0x1 DUP1 SLOAD PUSH1 0x1 DUP2 PUSH1 0x1 AND ISZERO PUSH2 0x100 MUL SUB AND PUSH1 0x2 SWAP1 DIV DUP1 PUSH1 0x1F ADD PUSH1 0x20 DUP1 SWAP2 DIV MUL PUSH1 0x20 ADD PUSH1 0x40 MLOAD SWAP1 DUP2 ADD PUSH1 0x40 MSTORE DUP1 SWAP3 SWAP2 SWAP1 DUP2 DUP2 MSTORE PUSH1 0x20 ADD DUP3 DUP1 SLOAD PUSH1 0x1 DUP2 PUSH1 0x1 AND ISZERO PUSH2 0x100 MUL SUB AND PUSH1 0x2 SWAP1 DIV DUP1 ISZERO PUSH2 0x369 JUMPI DUP1 PUSH1 0x1F LT PUSH2 0x33E JUMPI PUSH2 0x100 DUP1 DUP4 SLOAD DIV MUL DUP4 MSTORE SWAP2 PUSH1 0x20 ADD SWAP2 PUSH2 0x369 JUMP JUMPDEST PUSH1 0x0 PUSH2 0x672 CALLER DUP5 DUP5 PUSH2 0x3EB JUMP JUMPDEST SWAP4 SWAP3 POP POP POP JUMP JUMPDEST PUSH1 0x4 PUSH1 0x20 SWAP1 DUP2 MSTORE PUSH1 0x0 SWAP3 DUP4 MSTORE PUSH1 0x40 DUP1 DUP5 KECCAK256 SWAP1 SWAP2 MSTORE SWAP1 DUP3 MSTORE SWAP1 KECCAK256 SLOAD DUP2 JUMP STOP LOG1 PUSH6 0x627A7A723058 KECCAK256 0xde XOR DIFFICULTY EXTCODESIZE 0xb1 0x4b SWAP14 EXP PUSH22 0x3059C0957DB1618AF42ADE5D13FA9BF158668A6CED3D ISZERO STOP 0x29 "
        },
        "gasEstimates": {
          "creation": {
            "codeDepositCost": "346000",
            "executionCost": "infinite",
            "totalCost": "infinite"
          },
          "external": {
            "": "22124",
            "allowance(address,address)": "21862",
            "approve(address,uint256)": "22355",
            "balanceOf(address)": "21862",
            "decimals()": "21862",
            "deposit()": "22102",
            "name()": "infinite",
            "symbol()": "infinite",
            "totalSupply()": "21862",
            "transfer(address,uint256)": "43527",
            "transferFrom(address,address,uint256)": "64721",
            "withdraw(uint256)": "infinite"
          }
        },
        "methodIdentifiers": {
          "allowance(address,address)": "dd62ed3e",
          "approve(address,uint256)": "095ea7b3",
          "balanceOf(address)": "70a08231",
          "decimals()": "313ce567",
          "deposit()": "d0e30db0",
          "name()": "06fdde03",
          "symbol()": "95d89b41",
          "totalSupply()": "18160ddd",
          "transfer(address,uint256)": "a9059cbb",
          "transferFrom(address,address,uint256)": "23b872dd",
          "withdraw(uint256)": "2e1a7d4d"
        }
      },
      "userdoc": {
        "methods": {}
      }
    }
  }
}