{
  "contracts/ERC721Token.sol": {
    "MyNFT": {
      "abi": [
        {
          "anonymous": false,
          "inputs": [
            {
              "indexed": true,
              "internalType": "address",
              "name": "owner",
              "type": "address"
            },
            {
              "indexed": true,
              "internalType": "address",
              "name": "approved",
              "type": "address"
            },
            {
              "indexed": true,
              "internalType": "uint256",
              "name": "tokenId",
              "type": "uint256"
            }
          ],
          "name": "Approval",
          "type": "event"
        },
        {
          "anonymous": false,
          "inputs": [
            {
              "indexed": true,
              "internalType": "address",
              "name": "owner",
              "type": "address"
            },
            {
              "indexed": true,
              "internalType": "address",
              "name": "operator",
              "type": "address"
            },
            {
              "indexed": false,
              "internalType": "bool",
              "name": "approved",
              "type": "bool"
            }
          ],
          "name": "ApprovalForAll",
          "type": "event"
        },
        {
          "anonymous": false,
          "inputs": [
            {
              "indexed": false,
              "internalType": "uint8",
              "name": "version",
              "type": "uint8"
            }
          ],
          "name": "Initialized",
          "type": "event"
        },
        {
          "anonymous": false,
          "inputs": [
            {
              "indexed": true,
              "internalType": "address",
              "name": "from",
              "type": "address"
            },
            {
              "indexed": true,
              "internalType": "address",
              "name": "to",
              "type": "address"
            },
            {
              "indexed": true,
              "internalType": "uint256",
              "name": "tokenId",
              "type": "uint256"
            }
          ],
          "name": "Transfer",
          "type": "event"
        },
        {
          "inputs": [
            {
              "internalType": "address",
              "name": "to",
              "type": "address"
            },
            {
              "internalType": "uint256",
              "name": "tokenId",
              "type": "uint256"
            }
          ],
          "name": "approve",
          "outputs": [],
          "stateMutability": "nonpayable",
          "type": "function"
        },
        {
          "inputs": [
            {
              "internalType": "address",
              "name": "owner",
              "type": "address"
            }
          ],
          "name": "balanceOf",
          "outputs": [
            {
              "internalType": "uint256",
              "name": "",
              "type": "uint256"
            }
          ],
          "stateMutability": "view",
          "type": "function"
        },
        {
          "inputs": [
            {
              "internalType": "uint256",
              "name": "",
              "type": "uint256"
            }
          ],
          "name": "creator",
          "outputs": [
            {
              "internalType": "address",
              "name": "",
              "type": "address"
            }
          ],
          "stateMutability": "view",
          "type": "function"
        },
        {
          "inputs": [
            {
              "internalType": "uint256",
              "name": "tokenId",
              "type": "uint256"
            }
          ],
          "name": "getApproved",
          "outputs": [
            {
              "internalType": "address",
              "name": "",
              "type": "address"
            }
          ],
          "stateMutability": "view",
          "type": "function"
        },
        {
          "inputs": [
            {
              "internalType": "uint256",
              "name": "_maxRoyality",
              "type": "uint256"
            }
          ],
          "name": "initialize",
          "outputs": [],
          "stateMutability": "nonpayable",
          "type": "function"
        },
        {
          "inputs": [
            {
              "internalType": "address",
              "name": "owner",
              "type": "address"
            },
            {
              "internalType": "address",
              "name": "operator",
              "type": "address"
            }
          ],
          "name": "isApprovedForAll",
          "outputs": [
            {
              "internalType": "bool",
              "name": "",
              "type": "bool"
            }
          ],
          "stateMutability": "view",
          "type": "function"
        },
        {
          "inputs": [],
          "name": "maximumRoyality",
          "outputs": [
            {
              "internalType": "uint256",
              "name": "",
              "type": "uint256"
            }
          ],
          "stateMutability": "view",
          "type": "function"
        },
        {
          "inputs": [
            {
              "internalType": "address",
              "name": "to",
              "type": "address"
            },
            {
              "internalType": "address",
              "name": "_creator",
              "type": "address"
            },
            {
              "internalType": "string",
              "name": "tokenURI",
              "type": "string"
            },
            {
              "internalType": "uint256",
              "name": "_royality",
              "type": "uint256"
            }
          ],
          "name": "mint",
          "outputs": [
            {
              "internalType": "uint256",
              "name": "",
              "type": "uint256"
            }
          ],
          "stateMutability": "nonpayable",
          "type": "function"
        },
        {
          "inputs": [],
          "name": "name",
          "outputs": [
            {
              "internalType": "string",
              "name": "",
              "type": "string"
            }
          ],
          "stateMutability": "view",
          "type": "function"
        },
        {
          "inputs": [
            {
              "internalType": "uint256",
              "name": "tokenId",
              "type": "uint256"
            }
          ],
          "name": "ownerOf",
          "outputs": [
            {
              "internalType": "address",
              "name": "",
              "type": "address"
            }
          ],
          "stateMutability": "view",
          "type": "function"
        },
        {
          "inputs": [
            {
              "internalType": "uint256",
              "name": "",
              "type": "uint256"
            }
          ],
          "name": "royality",
          "outputs": [
            {
              "internalType": "uint256",
              "name": "",
              "type": "uint256"
            }
          ],
          "stateMutability": "view",
          "type": "function"
        },
        {
          "inputs": [
            {
              "internalType": "address",
              "name": "from",
              "type": "address"
            },
            {
              "internalType": "address",
              "name": "to",
              "type": "address"
            },
            {
              "internalType": "uint256",
              "name": "tokenId",
              "type": "uint256"
            }
          ],
          "name": "safeTransferFrom",
          "outputs": [],
          "stateMutability": "nonpayable",
          "type": "function"
        },
        {
          "inputs": [
            {
              "internalType": "address",
              "name": "from",
              "type": "address"
            },
            {
              "internalType": "address",
              "name": "to",
              "type": "address"
            },
            {
              "internalType": "uint256",
              "name": "tokenId",
              "type": "uint256"
            },
            {
              "internalType": "bytes",
              "name": "_data",
              "type": "bytes"
            }
          ],
          "name": "safeTransferFrom",
          "outputs": [],
          "stateMutability": "nonpayable",
          "type": "function"
        },
        {
          "inputs": [
            {
              "internalType": "address",
              "name": "operator",
              "type": "address"
            },
            {
              "internalType": "bool",
              "name": "approved",
              "type": "bool"
            }
          ],
          "name": "setApprovalForAll",
          "outputs": [],
          "stateMutability": "nonpayable",
          "type": "function"
        },
        {
          "inputs": [
            {
              "internalType": "bytes4",
              "name": "interfaceId",
              "type": "bytes4"
            }
          ],
          "name": "supportsInterface",
          "outputs": [
            {
              "internalType": "bool",
              "name": "",
              "type": "bool"
            }
          ],
          "stateMutability": "view",
          "type": "function"
        },
        {
          "inputs": [],
          "name": "symbol",
          "outputs": [
            {
              "internalType": "string",
              "name": "",
              "type": "string"
            }
          ],
          "stateMutability": "view",
          "type": "function"
        },
        {
          "inputs": [
            {
              "internalType": "uint256",
              "name": "tokenId",
              "type": "uint256"
            }
          ],
          "name": "tokenURI",
          "outputs": [
            {
              "internalType": "string",
              "name": "",
              "type": "string"
            }
          ],
          "stateMutability": "view",
          "type": "function"
        },
        {
          "inputs": [
            {
              "internalType": "address",
              "name": "from",
              "type": "address"
            },
            {
              "internalType": "address",
              "name": "to",
              "type": "address"
            },
            {
              "internalType": "uint256",
              "name": "tokenId",
              "type": "uint256"
            }
          ],
          "name": "transferFrom",
          "outputs": [],
          "stateMutability": "nonpayable",
          "type": "function"
        }
      ],
      "evm": {
        "bytecode": {
          "linkReferences": {},
          "object": "608060405234801561001057600080fd5b50613352806100206000396000f3fe608060405234801561001057600080fd5b50600436106101165760003560e01c806395d89b41116100a2578063c87b56dd11610071578063c87b56dd14610303578063d98a17ed14610333578063ddb2126d14610351578063e985e9c514610381578063fe4b84df146103b157610116565b806395d89b411461027d578063a22cb4651461029b578063b88d4fde146102b7578063c640da3e146102d357610116565b806323b872dd116100e957806323b872dd146101b557806342842e0e146101d1578063510b5158146101ed5780636352211e1461021d57806370a082311461024d57610116565b806301ffc9a71461011b57806306fdde031461014b578063081812fc14610169578063095ea7b314610199575b600080fd5b61013560048036038101906101309190612194565b6103cd565b6040516101429190612635565b60405180910390f35b6101536104af565b604051610160919061266b565b60405180910390f35b610183600480360381019061017e91906121e6565b610541565b60405161019091906125ce565b60405180910390f35b6101b360048036038101906101ae9190612158565b6105c6565b005b6101cf60048036038101906101ca9190612052565b6106de565b005b6101eb60048036038101906101e69190612052565b61073e565b005b610207600480360381019061020291906121e6565b61075e565b60405161021491906125ce565b60405180910390f35b610237600480360381019061023291906121e6565b610791565b60405161024491906125ce565b60405180910390f35b61026760048036038101906102629190611f72565b610843565b604051610274919061290d565b60405180910390f35b6102856108fb565b604051610292919061266b565b60405180910390f35b6102b560048036038101906102b0919061211c565b61098d565b005b6102d160048036038101906102cc91906120a1565b6109a3565b005b6102ed60048036038101906102e89190611fd7565b610a05565b6040516102fa919061290d565b60405180910390f35b61031d600480360381019061031891906121e6565b610b16565b60405161032a919061266b565b60405180910390f35b61033b610c68565b604051610348919061290d565b60405180910390f35b61036b600480360381019061036691906121e6565b610c6e565b604051610378919061290d565b60405180910390f35b61039b60048036038101906103969190611f9b565b610c86565b6040516103a89190612635565b60405180910390f35b6103cb60048036038101906103c691906121e6565b610d1a565b005b60007f80ac58cd000000000000000000000000000000000000000000000000000000007bffffffffffffffffffffffffffffffffffffffffffffffffffffffff1916827bffffffffffffffffffffffffffffffffffffffffffffffffffffffff1916148061049857507f5b5e139f000000000000000000000000000000000000000000000000000000007bffffffffffffffffffffffffffffffffffffffffffffffffffffffff1916827bffffffffffffffffffffffffffffffffffffffffffffffffffffffff1916145b806104a857506104a782610e2c565b5b9050919050565b6060606580546104be90612b82565b80601f01602080910402602001604051908101604052809291908181526020018280546104ea90612b82565b80156105375780601f1061050c57610100808354040283529160200191610537565b820191906000526020600020905b81548152906001019060200180831161051a57829003601f168201915b5050505050905090565b600061054c82610e96565b61058b576040517f08c379a00000000000000000000000000000000000000000000000000000000081526004016105829061286d565b60405180910390fd5b6069600083815260200190815260200160002060009054906101000a900473ffffffffffffffffffffffffffffffffffffffff169050919050565b60006105d182610791565b90508073ffffffffffffffffffffffffffffffffffffffff168373ffffffffffffffffffffffffffffffffffffffff161415610642576040517f08c379a0000000000000000000000000000000000000000000000000000000008152600401610639906128ad565b60405180910390fd5b8073ffffffffffffffffffffffffffffffffffffffff16610661610f02565b73ffffffffffffffffffffffffffffffffffffffff161480610690575061068f8161068a610f02565b610c86565b5b6106cf576040517f08c379a00000000000000000000000000000000000000000000000000000000081526004016106c69061278d565b60405180910390fd5b6106d98383610f0a565b505050565b6106ef6106e9610f02565b82610fc3565b61072e576040517f08c379a0000000000000000000000000000000000000000000000000000000008152600401610725906128cd565b60405180910390fd5b6107398383836110a1565b505050565b610759838383604051806020016040528060008152506109a3565b505050565b60cb6020528060005260406000206000915054906101000a900473ffffffffffffffffffffffffffffffffffffffff1681565b6000806067600084815260200190815260200160002060009054906101000a900473ffffffffffffffffffffffffffffffffffffffff169050600073ffffffffffffffffffffffffffffffffffffffff168173ffffffffffffffffffffffffffffffffffffffff16141561083a576040517f08c379a0000000000000000000000000000000000000000000000000000000008152600401610831906127cd565b60405180910390fd5b80915050919050565b60008073ffffffffffffffffffffffffffffffffffffffff168273ffffffffffffffffffffffffffffffffffffffff1614156108b4576040517f08c379a00000000000000000000000000000000000000000000000000000000081526004016108ab906127ad565b60405180910390fd5b606860008373ffffffffffffffffffffffffffffffffffffffff1673ffffffffffffffffffffffffffffffffffffffff168152602001908152602001600020549050919050565b60606066805461090a90612b82565b80601f016020809104026020016040519081016040528092919081815260200182805461093690612b82565b80156109835780601f1061095857610100808354040283529160200191610983565b820191906000526020600020905b81548152906001019060200180831161096657829003601f168201915b5050505050905090565b61099f610998610f02565b8383611308565b5050565b6109b46109ae610f02565b83610fc3565b6109f3576040517f08c379a00000000000000000000000000000000000000000000000000000000081526004016109ea906128cd565b60405180910390fd5b6109ff84848484611475565b50505050565b600060cc54821115610a4c576040517f08c379a0000000000000000000000000000000000000000000000000000000008152600401610a43906126ed565b60405180910390fd5b600073ffffffffffffffffffffffffffffffffffffffff168573ffffffffffffffffffffffffffffffffffffffff161415610abc576040517f08c379a0000000000000000000000000000000000000000000000000000000008152600401610ab39061276d565b60405180910390fd5b6000610ac860c96114d1565b9050610ad486826114df565b610ade81856116b9565b610ae8858261172d565b610af260c9611783565b8260ca60008381526020019081526020016000208190555080915050949350505050565b6060610b2182610e96565b610b60576040517f08c379a0000000000000000000000000000000000000000000000000000000008152600401610b579061284d565b60405180910390fd5b6000609760008481526020019081526020016000208054610b8090612b82565b80601f0160208091040260200160405190810160405280929190818152602001828054610bac90612b82565b8015610bf95780601f10610bce57610100808354040283529160200191610bf9565b820191906000526020600020905b815481529060010190602001808311610bdc57829003601f168201915b505050505090506000610c0a611799565b9050600081511415610c20578192505050610c63565b600082511115610c55578082604051602001610c3d9291906125aa565b60405160208183030381529060405292505050610c63565b610c5e846117b0565b925050505b919050565b60cc5481565b60ca6020528060005260406000206000915090505481565b6000606a60008473ffffffffffffffffffffffffffffffffffffffff1673ffffffffffffffffffffffffffffffffffffffff16815260200190815260200160002060008373ffffffffffffffffffffffffffffffffffffffff1673ffffffffffffffffffffffffffffffffffffffff16815260200190815260200160002060009054906101000a900460ff16905092915050565b6000610d266001611857565b90508015610d4a576001600060016101000a81548160ff0219169083151502179055505b610dbe6040518060400160405280600481526020017f41626869000000000000000000000000000000000000000000000000000000008152506040518060400160405280600581526020017f5368616b65000000000000000000000000000000000000000000000000000000815250611947565b610dc860c9611783565b8160cc819055508015610e285760008060016101000a81548160ff0219169083151502179055507f7f26b83ff96e1f2b6a682f133852f6798a09c465da95921460cefb38474024986001604051610e1f9190612650565b60405180910390a15b5050565b60007f01ffc9a7000000000000000000000000000000000000000000000000000000007bffffffffffffffffffffffffffffffffffffffffffffffffffffffff1916827bffffffffffffffffffffffffffffffffffffffffffffffffffffffff1916149050919050565b60008073ffffffffffffffffffffffffffffffffffffffff166067600084815260200190815260200160002060009054906101000a900473ffffffffffffffffffffffffffffffffffffffff1673ffffffffffffffffffffffffffffffffffffffff1614159050919050565b600033905090565b816069600083815260200190815260200160002060006101000a81548173ffffffffffffffffffffffffffffffffffffffff021916908373ffffffffffffffffffffffffffffffffffffffff160217905550808273ffffffffffffffffffffffffffffffffffffffff16610f7d83610791565b73ffffffffffffffffffffffffffffffffffffffff167f8c5be1e5ebec7d5bd14f71427d1e84f3dd0314c0f7b2291e5b200ac8c7c3b92560405160405180910390a45050565b6000610fce82610e96565b61100d576040517f08c379a00000000000000000000000000000000000000000000000000000000081526004016110049061274d565b60405180910390fd5b600061101883610791565b90508073ffffffffffffffffffffffffffffffffffffffff168473ffffffffffffffffffffffffffffffffffffffff16148061105a57506110598185610c86565b5b8061109857508373ffffffffffffffffffffffffffffffffffffffff1661108084610541565b73ffffffffffffffffffffffffffffffffffffffff16145b91505092915050565b8273ffffffffffffffffffffffffffffffffffffffff166110c182610791565b73ffffffffffffffffffffffffffffffffffffffff1614611117576040517f08c379a000000000000000000000000000000000000000000000000000000000815260040161110e906126ad565b60405180910390fd5b600073ffffffffffffffffffffffffffffffffffffffff168273ffffffffffffffffffffffffffffffffffffffff161415611187576040517f08c379a000000000000000000000000000000000000000000000000000000000815260040161117e9061270d565b60405180910390fd5b6111928383836119a4565b61119d600082610f0a565b6001606860008573ffffffffffffffffffffffffffffffffffffffff1673ffffffffffffffffffffffffffffffffffffffff16815260200190815260200160002060008282546111ed9190612a79565b925050819055506001606860008473ffffffffffffffffffffffffffffffffffffffff1673ffffffffffffffffffffffffffffffffffffffff168152602001908152602001600020600082825461124491906129f2565b92505081905550816067600083815260200190815260200160002060006101000a81548173ffffffffffffffffffffffffffffffffffffffff021916908373ffffffffffffffffffffffffffffffffffffffff160217905550808273ffffffffffffffffffffffffffffffffffffffff168473ffffffffffffffffffffffffffffffffffffffff167fddf252ad1be2c89b69c2b068fc378daa952ba7f163c4a11628f55a4df523b3ef60405160405180910390a46113038383836119a9565b505050565b8173ffffffffffffffffffffffffffffffffffffffff168373ffffffffffffffffffffffffffffffffffffffff161415611377576040517f08c379a000000000000000000000000000000000000000000000000000000000815260040161136e9061272d565b60405180910390fd5b80606a60008573ffffffffffffffffffffffffffffffffffffffff1673ffffffffffffffffffffffffffffffffffffffff16815260200190815260200160002060008473ffffffffffffffffffffffffffffffffffffffff1673ffffffffffffffffffffffffffffffffffffffff16815260200190815260200160002060006101000a81548160ff0219169083151502179055508173ffffffffffffffffffffffffffffffffffffffff168373ffffffffffffffffffffffffffffffffffffffff167f17307eab39ab6107e8899845ad3d59bd9653f200f220920489ca2b5937696c31836040516114689190612635565b60405180910390a3505050565b6114808484846110a1565b61148c848484846119ae565b6114cb576040517f08c379a00000000000000000000000000000000000000000000000000000000081526004016114c29061268d565b60405180910390fd5b50505050565b600081600001549050919050565b600073ffffffffffffffffffffffffffffffffffffffff168273ffffffffffffffffffffffffffffffffffffffff16141561154f576040517f08c379a00000000000000000000000000000000000000000000000000000000081526004016115469061282d565b60405180910390fd5b61155881610e96565b15611598576040517f08c379a000000000000000000000000000000000000000000000000000000000815260040161158f906126cd565b60405180910390fd5b6115a4600083836119a4565b6001606860008473ffffffffffffffffffffffffffffffffffffffff1673ffffffffffffffffffffffffffffffffffffffff16815260200190815260200160002060008282546115f491906129f2565b92505081905550816067600083815260200190815260200160002060006101000a81548173ffffffffffffffffffffffffffffffffffffffff021916908373ffffffffffffffffffffffffffffffffffffffff160217905550808273ffffffffffffffffffffffffffffffffffffffff16600073ffffffffffffffffffffffffffffffffffffffff167fddf252ad1be2c89b69c2b068fc378daa952ba7f163c4a11628f55a4df523b3ef60405160405180910390a46116b5600083836119a9565b5050565b6116c282610e96565b611701576040517f08c379a00000000000000000000000000000000000000000000000000000000081526004016116f8906127ed565b60405180910390fd5b80609760008481526020019081526020016000209080519060200190611728929190611d96565b505050565b8160cb600083815260200190815260200160002060006101000a81548173ffffffffffffffffffffffffffffffffffffffff021916908373ffffffffffffffffffffffffffffffffffffffff1602179055505050565b6001816000016000828254019250508190555050565b606060405180602001604052806000815250905090565b60606117bb82610e96565b6117fa576040517f08c379a00000000000000000000000000000000000000000000000000000000081526004016117f19061288d565b60405180910390fd5b6000611804611799565b90506000815111611824576040518060200160405280600081525061184f565b8061182e84611b45565b60405160200161183f9291906125aa565b6040516020818303038152906040525b915050919050565b60008060019054906101000a900460ff16156118ce5760018260ff16148015611886575061188430611cf2565b155b6118c5576040517f08c379a00000000000000000000000000000000000000000000000000000000081526004016118bc9061280d565b60405180910390fd5b60009050611942565b8160ff1660008054906101000a900460ff1660ff1610611923576040517f08c379a000000000000000000000000000000000000000000000000000000000815260040161191a9061280d565b60405180910390fd5b816000806101000a81548160ff021916908360ff160217905550600190505b919050565b600060019054906101000a900460ff16611996576040517f08c379a000000000000000000000000000000000000000000000000000000000815260040161198d906128ed565b60405180910390fd5b6119a08282611d15565b5050565b505050565b505050565b60006119cf8473ffffffffffffffffffffffffffffffffffffffff16611cf2565b15611b38578373ffffffffffffffffffffffffffffffffffffffff1663150b7a026119f8610f02565b8786866040518563ffffffff1660e01b8152600401611a1a94939291906125e9565b602060405180830381600087803b158015611a3457600080fd5b505af1925050508015611a6557506040513d601f19601f82011682018060405250810190611a6291906121bd565b60015b611ae8573d8060008114611a95576040519150601f19603f3d011682016040523d82523d6000602084013e611a9a565b606091505b50600081511415611ae0576040517f08c379a0000000000000000000000000000000000000000000000000000000008152600401611ad79061268d565b60405180910390fd5b805181602001fd5b63150b7a0260e01b7bffffffffffffffffffffffffffffffffffffffffffffffffffffffff1916817bffffffffffffffffffffffffffffffffffffffffffffffffffffffff191614915050611b3d565b600190505b949350505050565b60606000821415611b8d576040518060400160405280600181526020017f30000000000000000000000000000000000000000000000000000000000000008152509050611ced565b600082905060005b60008214611bbf578080611ba890612be5565b915050600a82611bb89190612a48565b9150611b95565b60008167ffffffffffffffff811115611c01577f4e487b7100000000000000000000000000000000000000000000000000000000600052604160045260246000fd5b6040519080825280601f01601f191660200182016040528015611c335781602001600182028036833780820191505090505b5090505b60008514611ce657600182611c4c9190612a79565b9150600a85611c5b9190612c2e565b6030611c6791906129f2565b60f81b818381518110611ca3577f4e487b7100000000000000000000000000000000000000000000000000000000600052603260045260246000fd5b60200101907effffffffffffffffffffffffffffffffffffffffffffffffffffffffffffff1916908160001a905350600a85611cdf9190612a48565b9450611c37565b8093505050505b919050565b6000808273ffffffffffffffffffffffffffffffffffffffff163b119050919050565b600060019054906101000a900460ff16611d64576040517f08c379a0000000000000000000000000000000000000000000000000000000008152600401611d5b906128ed565b60405180910390fd5b8160659080519060200190611d7a929190611d96565b508060669080519060200190611d91929190611d96565b505050565b828054611da290612b82565b90600052602060002090601f016020900481019282611dc45760008555611e0b565b82601f10611ddd57805160ff1916838001178555611e0b565b82800160010185558215611e0b579182015b82811115611e0a578251825591602001919060010190611def565b5b509050611e189190611e1c565b5090565b5b80821115611e35576000816000905550600101611e1d565b5090565b6000611e4c611e478461294d565b612928565b905082815260208101848484011115611e6457600080fd5b611e6f848285612b40565b509392505050565b6000611e8a611e858461297e565b612928565b905082815260208101848484011115611ea257600080fd5b611ead848285612b40565b509392505050565b600081359050611ec4816132c0565b92915050565b600081359050611ed9816132d7565b92915050565b600081359050611eee816132ee565b92915050565b600081519050611f03816132ee565b92915050565b600082601f830112611f1a57600080fd5b8135611f2a848260208601611e39565b91505092915050565b600082601f830112611f4457600080fd5b8135611f54848260208601611e77565b91505092915050565b600081359050611f6c81613305565b92915050565b600060208284031215611f8457600080fd5b6000611f9284828501611eb5565b91505092915050565b60008060408385031215611fae57600080fd5b6000611fbc85828601611eb5565b9250506020611fcd85828601611eb5565b9150509250929050565b60008060008060808587031215611fed57600080fd5b6000611ffb87828801611eb5565b945050602061200c87828801611eb5565b935050604085013567ffffffffffffffff81111561202957600080fd5b61203587828801611f33565b925050606061204687828801611f5d565b91505092959194509250565b60008060006060848603121561206757600080fd5b600061207586828701611eb5565b935050602061208686828701611eb5565b925050604061209786828701611f5d565b9150509250925092565b600080600080608085870312156120b757600080fd5b60006120c587828801611eb5565b94505060206120d687828801611eb5565b93505060406120e787828801611f5d565b925050606085013567ffffffffffffffff81111561210457600080fd5b61211087828801611f09565b91505092959194509250565b6000806040838503121561212f57600080fd5b600061213d85828601611eb5565b925050602061214e85828601611eca565b9150509250929050565b6000806040838503121561216b57600080fd5b600061217985828601611eb5565b925050602061218a85828601611f5d565b9150509250929050565b6000602082840312156121a657600080fd5b60006121b484828501611edf565b91505092915050565b6000602082840312156121cf57600080fd5b60006121dd84828501611ef4565b91505092915050565b6000602082840312156121f857600080fd5b600061220684828501611f5d565b91505092915050565b61221881612aad565b82525050565b61222781612abf565b82525050565b6000612238826129af565b61224281856129c5565b9350612252818560208601612b4f565b61225b81612d1b565b840191505092915050565b61226f81612b2e565b82525050565b6000612280826129ba565b61228a81856129d6565b935061229a818560208601612b4f565b6122a381612d1b565b840191505092915050565b60006122b9826129ba565b6122c381856129e7565b93506122d3818560208601612b4f565b80840191505092915050565b60006122ec6032836129d6565b91506122f782612d2c565b604082019050919050565b600061230f6025836129d6565b915061231a82612d7b565b604082019050919050565b6000612332601c836129d6565b915061233d82612dca565b602082019050919050565b60006123556017836129d6565b915061236082612df3565b602082019050919050565b60006123786024836129d6565b915061238382612e1c565b604082019050919050565b600061239b6019836129d6565b91506123a682612e6b565b602082019050919050565b60006123be602c836129d6565b91506123c982612e94565b604082019050919050565b60006123e16027836129d6565b91506123ec82612ee3565b604082019050919050565b60006124046038836129d6565b915061240f82612f32565b604082019050919050565b6000612427602a836129d6565b915061243282612f81565b604082019050919050565b600061244a6029836129d6565b915061245582612fd0565b604082019050919050565b600061246d602e836129d6565b91506124788261301f565b604082019050919050565b6000612490602e836129d6565b915061249b8261306e565b604082019050919050565b60006124b36020836129d6565b91506124be826130bd565b602082019050919050565b60006124d66031836129d6565b91506124e1826130e6565b604082019050919050565b60006124f9602c836129d6565b915061250482613135565b604082019050919050565b600061251c602f836129d6565b915061252782613184565b604082019050919050565b600061253f6021836129d6565b915061254a826131d3565b604082019050919050565b60006125626031836129d6565b915061256d82613222565b604082019050919050565b6000612585602b836129d6565b915061259082613271565b604082019050919050565b6125a481612b17565b82525050565b60006125b682856122ae565b91506125c282846122ae565b91508190509392505050565b60006020820190506125e3600083018461220f565b92915050565b60006080820190506125fe600083018761220f565b61260b602083018661220f565b612618604083018561259b565b818103606083015261262a818461222d565b905095945050505050565b600060208201905061264a600083018461221e565b92915050565b60006020820190506126656000830184612266565b92915050565b600060208201905081810360008301526126858184612275565b905092915050565b600060208201905081810360008301526126a6816122df565b9050919050565b600060208201905081810360008301526126c681612302565b9050919050565b600060208201905081810360008301526126e681612325565b9050919050565b6000602082019050818103600083015261270681612348565b9050919050565b600060208201905081810360008301526127268161236b565b9050919050565b600060208201905081810360008301526127468161238e565b9050919050565b60006020820190508181036000830152612766816123b1565b9050919050565b60006020820190508181036000830152612786816123d4565b9050919050565b600060208201905081810360008301526127a6816123f7565b9050919050565b600060208201905081810360008301526127c68161241a565b9050919050565b600060208201905081810360008301526127e68161243d565b9050919050565b6000602082019050818103600083015261280681612460565b9050919050565b6000602082019050818103600083015261282681612483565b9050919050565b60006020820190508181036000830152612846816124a6565b9050919050565b60006020820190508181036000830152612866816124c9565b9050919050565b60006020820190508181036000830152612886816124ec565b9050919050565b600060208201905081810360008301526128a68161250f565b9050919050565b600060208201905081810360008301526128c681612532565b9050919050565b600060208201905081810360008301526128e681612555565b9050919050565b6000602082019050818103600083015261290681612578565b9050919050565b6000602082019050612922600083018461259b565b92915050565b6000612932612943565b905061293e8282612bb4565b919050565b6000604051905090565b600067ffffffffffffffff82111561296857612967612cec565b5b61297182612d1b565b9050602081019050919050565b600067ffffffffffffffff82111561299957612998612cec565b5b6129a282612d1b565b9050602081019050919050565b600081519050919050565b600081519050919050565b600082825260208201905092915050565b600082825260208201905092915050565b600081905092915050565b60006129fd82612b17565b9150612a0883612b17565b9250827fffffffffffffffffffffffffffffffffffffffffffffffffffffffffffffffff03821115612a3d57612a3c612c5f565b5b828201905092915050565b6000612a5382612b17565b9150612a5e83612b17565b925082612a6e57612a6d612c8e565b5b828204905092915050565b6000612a8482612b17565b9150612a8f83612b17565b925082821015612aa257612aa1612c5f565b5b828203905092915050565b6000612ab882612af7565b9050919050565b60008115159050919050565b60007fffffffff0000000000000000000000000000000000000000000000000000000082169050919050565b600073ffffffffffffffffffffffffffffffffffffffff82169050919050565b6000819050919050565b600060ff82169050919050565b6000612b3982612b21565b9050919050565b82818337600083830152505050565b60005b83811015612b6d578082015181840152602081019050612b52565b83811115612b7c576000848401525b50505050565b60006002820490506001821680612b9a57607f821691505b60208210811415612bae57612bad612cbd565b5b50919050565b612bbd82612d1b565b810181811067ffffffffffffffff82111715612bdc57612bdb612cec565b5b80604052505050565b6000612bf082612b17565b91507fffffffffffffffffffffffffffffffffffffffffffffffffffffffffffffffff821415612c2357612c22612c5f565b5b600182019050919050565b6000612c3982612b17565b9150612c4483612b17565b925082612c5457612c53612c8e565b5b828206905092915050565b7f4e487b7100000000000000000000000000000000000000000000000000000000600052601160045260246000fd5b7f4e487b7100000000000000000000000000000000000000000000000000000000600052601260045260246000fd5b7f4e487b7100000000000000000000000000000000000000000000000000000000600052602260045260246000fd5b7f4e487b7100000000000000000000000000000000000000000000000000000000600052604160045260246000fd5b6000601f19601f8301169050919050565b7f4552433732313a207472616e7366657220746f206e6f6e20455243373231526560008201527f63656976657220696d706c656d656e7465720000000000000000000000000000602082015250565b7f4552433732313a207472616e736665722066726f6d20696e636f72726563742060008201527f6f776e6572000000000000000000000000000000000000000000000000000000602082015250565b7f4552433732313a20746f6b656e20616c7265616479206d696e74656400000000600082015250565b7f526f79616c6974792073686f756c64206265206c657373000000000000000000600082015250565b7f4552433732313a207472616e7366657220746f20746865207a65726f2061646460008201527f7265737300000000000000000000000000000000000000000000000000000000602082015250565b7f4552433732313a20617070726f766520746f2063616c6c657200000000000000600082015250565b7f4552433732313a206f70657261746f7220717565727920666f72206e6f6e657860008201527f697374656e7420746f6b656e0000000000000000000000000000000000000000602082015250565b7f546f6b656e20636f6e74726163743a20746f20616464726573732063616e277460008201527f2062652030783000000000000000000000000000000000000000000000000000602082015250565b7f4552433732313a20617070726f76652063616c6c6572206973206e6f74206f7760008201527f6e6572206e6f7220617070726f76656420666f7220616c6c0000000000000000602082015250565b7f4552433732313a2062616c616e636520717565727920666f7220746865207a6560008201527f726f206164647265737300000000000000000000000000000000000000000000602082015250565b7f4552433732313a206f776e657220717565727920666f72206e6f6e657869737460008201527f656e7420746f6b656e0000000000000000000000000000000000000000000000602082015250565b7f45524337323155524953746f726167653a2055524920736574206f66206e6f6e60008201527f6578697374656e7420746f6b656e000000000000000000000000000000000000602082015250565b7f496e697469616c697a61626c653a20636f6e747261637420697320616c72656160008201527f647920696e697469616c697a6564000000000000000000000000000000000000602082015250565b7f4552433732313a206d696e7420746f20746865207a65726f2061646472657373600082015250565b7f45524337323155524953746f726167653a2055524920717565727920666f722060008201527f6e6f6e6578697374656e7420746f6b656e000000000000000000000000000000602082015250565b7f4552433732313a20617070726f76656420717565727920666f72206e6f6e657860008201527f697374656e7420746f6b656e0000000000000000000000000000000000000000602082015250565b7f4552433732314d657461646174613a2055524920717565727920666f72206e6f60008201527f6e6578697374656e7420746f6b656e0000000000000000000000000000000000602082015250565b7f4552433732313a20617070726f76616c20746f2063757272656e74206f776e6560008201527f7200000000000000000000000000000000000000000000000000000000000000602082015250565b7f4552433732313a207472616e736665722063616c6c6572206973206e6f74206f60008201527f776e6572206e6f7220617070726f766564000000000000000000000000000000602082015250565b7f496e697469616c697a61626c653a20636f6e7472616374206973206e6f74206960008201527f6e697469616c697a696e67000000000000000000000000000000000000000000602082015250565b6132c981612aad565b81146132d457600080fd5b50565b6132e081612abf565b81146132eb57600080fd5b50565b6132f781612acb565b811461330257600080fd5b50565b61330e81612b17565b811461331957600080fd5b5056fea26469706673582212209e07de6fb7ec9b2e3f40e2b31673c1c13ac32256e446429a3413ab2c7d5ae32b64736f6c63430008040033",
          "opcodes": "PUSH1 0x80 PUSH1 0x40 MSTORE CALLVALUE DUP1 ISZERO PUSH2 0x10 JUMPI PUSH1 0x0 DUP1 REVERT JUMPDEST POP PUSH2 0x3352 DUP1 PUSH2 0x20 PUSH1 0x0 CODECOPY PUSH1 0x0 RETURN INVALID PUSH1 0x80 PUSH1 0x40 MSTORE CALLVALUE DUP1 ISZERO PUSH2 0x10 JUMPI PUSH1 0x0 DUP1 REVERT JUMPDEST POP PUSH1 0x4 CALLDATASIZE LT PUSH2 0x116 JUMPI PUSH1 0x0 CALLDATALOAD PUSH1 0xE0 SHR DUP1 PUSH4 0x95D89B41 GT PUSH2 0xA2 JUMPI DUP1 PUSH4 0xC87B56DD GT PUSH2 0x71 JUMPI DUP1 PUSH4 0xC87B56DD EQ PUSH2 0x303 JUMPI DUP1 PUSH4 0xD98A17ED EQ PUSH2 0x333 JUMPI DUP1 PUSH4 0xDDB2126D EQ PUSH2 0x351 JUMPI DUP1 PUSH4 0xE985E9C5 EQ PUSH2 0x381 JUMPI DUP1 PUSH4 0xFE4B84DF EQ PUSH2 0x3B1 JUMPI PUSH2 0x116 JUMP JUMPDEST DUP1 PUSH4 0x95D89B41 EQ PUSH2 0x27D JUMPI DUP1 PUSH4 0xA22CB465 EQ PUSH2 0x29B JUMPI DUP1 PUSH4 0xB88D4FDE EQ PUSH2 0x2B7 JUMPI DUP1 PUSH4 0xC640DA3E EQ PUSH2 0x2D3 JUMPI PUSH2 0x116 JUMP JUMPDEST DUP1 PUSH4 0x23B872DD GT PUSH2 0xE9 JUMPI DUP1 PUSH4 0x23B872DD EQ PUSH2 0x1B5 JUMPI DUP1 PUSH4 0x42842E0E EQ PUSH2 0x1D1 JUMPI DUP1 PUSH4 0x510B5158 EQ PUSH2 0x1ED JUMPI DUP1 PUSH4 0x6352211E EQ PUSH2 0x21D JUMPI DUP1 PUSH4 0x70A08231 EQ PUSH2 0x24D JUMPI PUSH2 0x116 JUMP JUMPDEST DUP1 PUSH4 0x1FFC9A7 EQ PUSH2 0x11B JUMPI DUP1 PUSH4 0x6FDDE03 EQ PUSH2 0x14B JUMPI DUP1 PUSH4 0x81812FC EQ PUSH2 0x169 JUMPI DUP1 PUSH4 0x95EA7B3 EQ PUSH2 0x199 JUMPI JUMPDEST PUSH1 0x0 DUP1 REVERT JUMPDEST PUSH2 0x135 PUSH1 0x4 DUP1 CALLDATASIZE SUB DUP2 ADD SWAP1 PUSH2 0x130 SWAP2 SWAP1 PUSH2 0x2194 JUMP JUMPDEST PUSH2 0x3CD JUMP JUMPDEST PUSH1 0x40 MLOAD PUSH2 0x142 SWAP2 SWAP1 PUSH2 0x2635 JUMP JUMPDEST PUSH1 0x40 MLOAD DUP1 SWAP2 SUB SWAP1 RETURN JUMPDEST PUSH2 0x153 PUSH2 0x4AF JUMP JUMPDEST PUSH1 0x40 MLOAD PUSH2 0x160 SWAP2 SWAP1 PUSH2 0x266B JUMP JUMPDEST PUSH1 0x40 MLOAD DUP1 SWAP2 SUB SWAP1 RETURN JUMPDEST PUSH2 0x183 PUSH1 0x4 DUP1 CALLDATASIZE SUB DUP2 ADD SWAP1 PUSH2 0x17E SWAP2 SWAP1 PUSH2 0x21E6 JUMP JUMPDEST PUSH2 0x541 JUMP JUMPDEST PUSH1 0x40 MLOAD PUSH2 0x190 SWAP2 SWAP1 PUSH2 0x25CE JUMP JUMPDEST PUSH1 0x40 MLOAD DUP1 SWAP2 SUB SWAP1 RETURN JUMPDEST PUSH2 0x1B3 PUSH1 0x4 DUP1 CALLDATASIZE SUB DUP2 ADD SWAP1 PUSH2 0x1AE SWAP2 SWAP1 PUSH2 0x2158 JUMP JUMPDEST PUSH2 0x5C6 JUMP JUMPDEST STOP JUMPDEST PUSH2 0x1CF PUSH1 0x4 DUP1 CALLDATASIZE SUB DUP2 ADD SWAP1 PUSH2 0x1CA SWAP2 SWAP1 PUSH2 0x2052 JUMP JUMPDEST PUSH2 0x6DE JUMP JUMPDEST STOP JUMPDEST PUSH2 0x1EB PUSH1 0x4 DUP1 CALLDATASIZE SUB DUP2 ADD SWAP1 PUSH2 0x1E6 SWAP2 SWAP1 PUSH2 0x2052 JUMP JUMPDEST PUSH2 0x73E JUMP JUMPDEST STOP JUMPDEST PUSH2 0x207 PUSH1 0x4 DUP1 CALLDATASIZE SUB DUP2 ADD SWAP1 PUSH2 0x202 SWAP2 SWAP1 PUSH2 0x21E6 JUMP JUMPDEST PUSH2 0x75E JUMP JUMPDEST PUSH1 0x40 MLOAD PUSH2 0x214 SWAP2 SWAP1 PUSH2 0x25CE JUMP JUMPDEST PUSH1 0x40 MLOAD DUP1 SWAP2 SUB SWAP1 RETURN JUMPDEST PUSH2 0x237 PUSH1 0x4 DUP1 CALLDATASIZE SUB DUP2 ADD SWAP1 PUSH2 0x232 SWAP2 SWAP1 PUSH2 0x21E6 JUMP JUMPDEST PUSH2 0x791 JUMP JUMPDEST PUSH1 0x40 MLOAD PUSH2 0x244 SWAP2 SWAP1 PUSH2 0x25CE JUMP JUMPDEST PUSH1 0x40 MLOAD DUP1 SWAP2 SUB SWAP1 RETURN JUMPDEST PUSH2 0x267 PUSH1 0x4 DUP1 CALLDATASIZE SUB DUP2 ADD SWAP1 PUSH2 0x262 SWAP2 SWAP1 PUSH2 0x1F72 JUMP JUMPDEST PUSH2 0x843 JUMP JUMPDEST PUSH1 0x40 MLOAD PUSH2 0x274 SWAP2 SWAP1 PUSH2 0x290D JUMP JUMPDEST PUSH1 0x40 MLOAD DUP1 SWAP2 SUB SWAP1 RETURN JUMPDEST PUSH2 0x285 PUSH2 0x8FB JUMP JUMPDEST PUSH1 0x40 MLOAD PUSH2 0x292 SWAP2 SWAP1 PUSH2 0x266B JUMP JUMPDEST PUSH1 0x40 MLOAD DUP1 SWAP2 SUB SWAP1 RETURN JUMPDEST PUSH2 0x2B5 PUSH1 0x4 DUP1 CALLDATASIZE SUB DUP2 ADD SWAP1 PUSH2 0x2B0 SWAP2 SWAP1 PUSH2 0x211C JUMP JUMPDEST PUSH2 0x98D JUMP JUMPDEST STOP JUMPDEST PUSH2 0x2D1 PUSH1 0x4 DUP1 CALLDATASIZE SUB DUP2 ADD SWAP1 PUSH2 0x2CC SWAP2 SWAP1 PUSH2 0x20A1 JUMP JUMPDEST PUSH2 0x9A3 JUMP JUMPDEST STOP JUMPDEST PUSH2 0x2ED PUSH1 0x4 DUP1 CALLDATASIZE SUB DUP2 ADD SWAP1 PUSH2 0x2E8 SWAP2 SWAP1 PUSH2 0x1FD7 JUMP JUMPDEST PUSH2 0xA05 JUMP JUMPDEST PUSH1 0x40 MLOAD PUSH2 0x2FA SWAP2 SWAP1 PUSH2 0x290D JUMP JUMPDEST PUSH1 0x40 MLOAD DUP1 SWAP2 SUB SWAP1 RETURN JUMPDEST PUSH2 0x31D PUSH1 0x4 DUP1 CALLDATASIZE SUB DUP2 ADD SWAP1 PUSH2 0x318 SWAP2 SWAP1 PUSH2 0x21E6 JUMP JUMPDEST PUSH2 0xB16 JUMP JUMPDEST PUSH1 0x40 MLOAD PUSH2 0x32A SWAP2 SWAP1 PUSH2 0x266B JUMP JUMPDEST PUSH1 0x40 MLOAD DUP1 SWAP2 SUB SWAP1 RETURN JUMPDEST PUSH2 0x33B PUSH2 0xC68 JUMP JUMPDEST PUSH1 0x40 MLOAD PUSH2 0x348 SWAP2 SWAP1 PUSH2 0x290D JUMP JUMPDEST PUSH1 0x40 MLOAD DUP1 SWAP2 SUB SWAP1 RETURN JUMPDEST PUSH2 0x36B PUSH1 0x4 DUP1 CALLDATASIZE SUB DUP2 ADD SWAP1 PUSH2 0x366 SWAP2 SWAP1 PUSH2 0x21E6 JUMP JUMPDEST PUSH2 0xC6E JUMP JUMPDEST PUSH1 0x40 MLOAD PUSH2 0x378 SWAP2 SWAP1 PUSH2 0x290D JUMP JUMPDEST PUSH1 0x40 MLOAD DUP1 SWAP2 SUB SWAP1 RETURN JUMPDEST PUSH2 0x39B PUSH1 0x4 DUP1 CALLDATASIZE SUB DUP2 ADD SWAP1 PUSH2 0x396 SWAP2 SWAP1 PUSH2 0x1F9B JUMP JUMPDEST PUSH2 0xC86 JUMP JUMPDEST PUSH1 0x40 MLOAD PUSH2 0x3A8 SWAP2 SWAP1 PUSH2 0x2635 JUMP JUMPDEST PUSH1 0x40 MLOAD DUP1 SWAP2 SUB SWAP1 RETURN JUMPDEST PUSH2 0x3CB PUSH1 0x4 DUP1 CALLDATASIZE SUB DUP2 ADD SWAP1 PUSH2 0x3C6 SWAP2 SWAP1 PUSH2 0x21E6 JUMP JUMPDEST PUSH2 0xD1A JUMP JUMPDEST STOP JUMPDEST PUSH1 0x0 PUSH32 0x80AC58CD00000000000000000000000000000000000000000000000000000000 PUSH28 0xFFFFFFFFFFFFFFFFFFFFFFFFFFFFFFFFFFFFFFFFFFFFFFFFFFFFFFFF NOT AND DUP3 PUSH28 0xFFFFFFFFFFFFFFFFFFFFFFFFFFFFFFFFFFFFFFFFFFFFFFFFFFFFFFFF NOT AND EQ DUP1 PUSH2 0x498 JUMPI POP PUSH32 0x5B5E139F00000000000000000000000000000000000000000000000000000000 PUSH28 0xFFFFFFFFFFFFFFFFFFFFFFFFFFFFFFFFFFFFFFFFFFFFFFFFFFFFFFFF NOT AND DUP3 PUSH28 0xFFFFFFFFFFFFFFFFFFFFFFFFFFFFFFFFFFFFFFFFFFFFFFFFFFFFFFFF NOT AND EQ JUMPDEST DUP1 PUSH2 0x4A8 JUMPI POP PUSH2 0x4A7 DUP3 PUSH2 0xE2C JUMP JUMPDEST JUMPDEST SWAP1 POP SWAP2 SWAP1 POP JUMP JUMPDEST PUSH1 0x60 PUSH1 0x65 DUP1 SLOAD PUSH2 0x4BE SWAP1 PUSH2 0x2B82 JUMP JUMPDEST DUP1 PUSH1 0x1F ADD PUSH1 0x20 DUP1 SWAP2 DIV MUL PUSH1 0x20 ADD PUSH1 0x40 MLOAD SWAP1 DUP2 ADD PUSH1 0x40 MSTORE DUP1 SWAP3 SWAP2 SWAP1 DUP2 DUP2 MSTORE PUSH1 0x20 ADD DUP3 DUP1 SLOAD PUSH2 0x4EA SWAP1 PUSH2 0x2B82 JUMP JUMPDEST DUP1 ISZERO PUSH2 0x537 JUMPI DUP1 PUSH1 0x1F LT PUSH2 0x50C JUMPI PUSH2 0x100 DUP1 DUP4 SLOAD DIV MUL DUP4 MSTORE SWAP2 PUSH1 0x20 ADD SWAP2 PUSH2 0x537 JUMP JUMPDEST DUP3 ADD SWAP2 SWAP1 PUSH1 0x0 MSTORE PUSH1 0x20 PUSH1 0x0 KECCAK256 SWAP1 JUMPDEST DUP2 SLOAD DUP2 MSTORE SWAP1 PUSH1 0x1 ADD SWAP1 PUSH1 0x20 ADD DUP1 DUP4 GT PUSH2 0x51A JUMPI DUP3 SWAP1 SUB PUSH1 0x1F AND DUP3 ADD SWAP2 JUMPDEST POP POP POP POP POP SWAP1 POP SWAP1 JUMP JUMPDEST PUSH1 0x0 PUSH2 0x54C DUP3 PUSH2 0xE96 JUMP JUMPDEST PUSH2 0x58B JUMPI PUSH1 0x40 MLOAD PUSH32 0x8C379A000000000000000000000000000000000000000000000000000000000 DUP2 MSTORE PUSH1 0x4 ADD PUSH2 0x582 SWAP1 PUSH2 0x286D JUMP JUMPDEST PUSH1 0x40 MLOAD DUP1 SWAP2 SUB SWAP1 REVERT JUMPDEST PUSH1 0x69 PUSH1 0x0 DUP4 DUP2 MSTORE PUSH1 0x20 ADD SWAP1 DUP2 MSTORE PUSH1 0x20 ADD PUSH1 0x0 KECCAK256 PUSH1 0x0 SWAP1 SLOAD SWAP1 PUSH2 0x100 EXP SWAP1 DIV PUSH20 0xFFFFFFFFFFFFFFFFFFFFFFFFFFFFFFFFFFFFFFFF AND SWAP1 POP SWAP2 SWAP1 POP JUMP JUMPDEST PUSH1 0x0 PUSH2 0x5D1 DUP3 PUSH2 0x791 JUMP JUMPDEST SWAP1 POP DUP1 PUSH20 0xFFFFFFFFFFFFFFFFFFFFFFFFFFFFFFFFFFFFFFFF AND DUP4 PUSH20 0xFFFFFFFFFFFFFFFFFFFFFFFFFFFFFFFFFFFFFFFF AND EQ ISZERO PUSH2 0x642 JUMPI PUSH1 0x40 MLOAD PUSH32 0x8C379A000000000000000000000000000000000000000000000000000000000 DUP2 MSTORE PUSH1 0x4 ADD PUSH2 0x639 SWAP1 PUSH2 0x28AD JUMP JUMPDEST PUSH1 0x40 MLOAD DUP1 SWAP2 SUB SWAP1 REVERT JUMPDEST DUP1 PUSH20 0xFFFFFFFFFFFFFFFFFFFFFFFFFFFFFFFFFFFFFFFF AND PUSH2 0x661 PUSH2 0xF02 JUMP JUMPDEST PUSH20 0xFFFFFFFFFFFFFFFFFFFFFFFFFFFFFFFFFFFFFFFF AND EQ DUP1 PUSH2 0x690 JUMPI POP PUSH2 0x68F DUP2 PUSH2 0x68A PUSH2 0xF02 JUMP JUMPDEST PUSH2 0xC86 JUMP JUMPDEST JUMPDEST PUSH2 0x6CF JUMPI PUSH1 0x40 MLOAD PUSH32 0x8C379A000000000000000000000000000000000000000000000000000000000 DUP2 MSTORE PUSH1 0x4 ADD PUSH2 0x6C6 SWAP1 PUSH2 0x278D JUMP JUMPDEST PUSH1 0x40 MLOAD DUP1 SWAP2 SUB SWAP1 REVERT JUMPDEST PUSH2 0x6D9 DUP4 DUP4 PUSH2 0xF0A JUMP JUMPDEST POP POP POP JUMP JUMPDEST PUSH2 0x6EF PUSH2 0x6E9 PUSH2 0xF02 JUMP JUMPDEST DUP3 PUSH2 0xFC3 JUMP JUMPDEST PUSH2 0x72E JUMPI PUSH1 0x40 MLOAD PUSH32 0x8C379A000000000000000000000000000000000000000000000000000000000 DUP2 MSTORE PUSH1 0x4 ADD PUSH2 0x725 SWAP1 PUSH2 0x28CD JUMP JUMPDEST PUSH1 0x40 MLOAD DUP1 SWAP2 SUB SWAP1 REVERT JUMPDEST PUSH2 0x739 DUP4 DUP4 DUP4 PUSH2 0x10A1 JUMP JUMPDEST POP POP POP JUMP JUMPDEST PUSH2 0x759 DUP4 DUP4 DUP4 PUSH1 0x40 MLOAD DUP1 PUSH1 0x20 ADD PUSH1 0x40 MSTORE DUP1 PUSH1 0x0 DUP2 MSTORE POP PUSH2 0x9A3 JUMP JUMPDEST POP POP POP JUMP JUMPDEST PUSH1 0xCB PUSH1 0x20 MSTORE DUP1 PUSH1 0x0 MSTORE PUSH1 0x40 PUSH1 0x0 KECCAK256 PUSH1 0x0 SWAP2 POP SLOAD SWAP1 PUSH2 0x100 EXP SWAP1 DIV PUSH20 0xFFFFFFFFFFFFFFFFFFFFFFFFFFFFFFFFFFFFFFFF AND DUP2 JUMP JUMPDEST PUSH1 0x0 DUP1 PUSH1 0x67 PUSH1 0x0 DUP5 DUP2 MSTORE PUSH1 0x20 ADD SWAP1 DUP2 MSTORE PUSH1 0x20 ADD PUSH1 0x0 KECCAK256 PUSH1 0x0 SWAP1 SLOAD SWAP1 PUSH2 0x100 EXP SWAP1 DIV PUSH20 0xFFFFFFFFFFFFFFFFFFFFFFFFFFFFFFFFFFFFFFFF AND SWAP1 POP PUSH1 0x0 PUSH20 0xFFFFFFFFFFFFFFFFFFFFFFFFFFFFFFFFFFFFFFFF AND DUP2 PUSH20 0xFFFFFFFFFFFFFFFFFFFFFFFFFFFFFFFFFFFFFFFF AND EQ ISZERO PUSH2 0x83A JUMPI PUSH1 0x40 MLOAD PUSH32 0x8C379A000000000000000000000000000000000000000000000000000000000 DUP2 MSTORE PUSH1 0x4 ADD PUSH2 0x831 SWAP1 PUSH2 0x27CD JUMP JUMPDEST PUSH1 0x40 MLOAD DUP1 SWAP2 SUB SWAP1 REVERT JUMPDEST DUP1 SWAP2 POP POP SWAP2 SWAP1 POP JUMP JUMPDEST PUSH1 0x0 DUP1 PUSH20 0xFFFFFFFFFFFFFFFFFFFFFFFFFFFFFFFFFFFFFFFF AND DUP3 PUSH20 0xFFFFFFFFFFFFFFFFFFFFFFFFFFFFFFFFFFFFFFFF AND EQ ISZERO PUSH2 0x8B4 JUMPI PUSH1 0x40 MLOAD PUSH32 0x8C379A000000000000000000000000000000000000000000000000000000000 DUP2 MSTORE PUSH1 0x4 ADD PUSH2 0x8AB SWAP1 PUSH2 0x27AD JUMP JUMPDEST PUSH1 0x40 MLOAD DUP1 SWAP2 SUB SWAP1 REVERT JUMPDEST PUSH1 0x68 PUSH1 0x0 DUP4 PUSH20 0xFFFFFFFFFFFFFFFFFFFFFFFFFFFFFFFFFFFFFFFF AND PUSH20 0xFFFFFFFFFFFFFFFFFFFFFFFFFFFFFFFFFFFFFFFF AND DUP2 MSTORE PUSH1 0x20 ADD SWAP1 DUP2 MSTORE PUSH1 0x20 ADD PUSH1 0x0 KECCAK256 SLOAD SWAP1 POP SWAP2 SWAP1 POP JUMP JUMPDEST PUSH1 0x60 PUSH1 0x66 DUP1 SLOAD PUSH2 0x90A SWAP1 PUSH2 0x2B82 JUMP JUMPDEST DUP1 PUSH1 0x1F ADD PUSH1 0x20 DUP1 SWAP2 DIV MUL PUSH1 0x20 ADD PUSH1 0x40 MLOAD SWAP1 DUP2 ADD PUSH1 0x40 MSTORE DUP1 SWAP3 SWAP2 SWAP1 DUP2 DUP2 MSTORE PUSH1 0x20 ADD DUP3 DUP1 SLOAD PUSH2 0x936 SWAP1 PUSH2 0x2B82 JUMP JUMPDEST DUP1 ISZERO PUSH2 0x983 JUMPI DUP1 PUSH1 0x1F LT PUSH2 0x958 JUMPI PUSH2 0x100 DUP1 DUP4 SLOAD DIV MUL DUP4 MSTORE SWAP2 PUSH1 0x20 ADD SWAP2 PUSH2 0x983 JUMP JUMPDEST DUP3 ADD SWAP2 SWAP1 PUSH1 0x0 MSTORE PUSH1 0x20 PUSH1 0x0 KECCAK256 SWAP1 JUMPDEST DUP2 SLOAD DUP2 MSTORE SWAP1 PUSH1 0x1 ADD SWAP1 PUSH1 0x20 ADD DUP1 DUP4 GT PUSH2 0x966 JUMPI DUP3 SWAP1 SUB PUSH1 0x1F AND DUP3 ADD SWAP2 JUMPDEST POP POP POP POP POP SWAP1 POP SWAP1 JUMP JUMPDEST PUSH2 0x99F PUSH2 0x998 PUSH2 0xF02 JUMP JUMPDEST DUP4 DUP4 PUSH2 0x1308 JUMP JUMPDEST POP POP JUMP JUMPDEST PUSH2 0x9B4 PUSH2 0x9AE PUSH2 0xF02 JUMP JUMPDEST DUP4 PUSH2 0xFC3 JUMP JUMPDEST PUSH2 0x9F3 JUMPI PUSH1 0x40 MLOAD PUSH32 0x8C379A000000000000000000000000000000000000000000000000000000000 DUP2 MSTORE PUSH1 0x4 ADD PUSH2 0x9EA SWAP1 PUSH2 0x28CD JUMP JUMPDEST PUSH1 0x40 MLOAD DUP1 SWAP2 SUB SWAP1 REVERT JUMPDEST PUSH2 0x9FF DUP5 DUP5 DUP5 DUP5 PUSH2 0x1475 JUMP JUMPDEST POP POP POP POP JUMP JUMPDEST PUSH1 0x0 PUSH1 0xCC SLOAD DUP3 GT ISZERO PUSH2 0xA4C JUMPI PUSH1 0x40 MLOAD PUSH32 0x8C379A000000000000000000000000000000000000000000000000000000000 DUP2 MSTORE PUSH1 0x4 ADD PUSH2 0xA43 SWAP1 PUSH2 0x26ED JUMP JUMPDEST PUSH1 0x40 MLOAD DUP1 SWAP2 SUB SWAP1 REVERT JUMPDEST PUSH1 0x0 PUSH20 0xFFFFFFFFFFFFFFFFFFFFFFFFFFFFFFFFFFFFFFFF AND DUP6 PUSH20 0xFFFFFFFFFFFFFFFFFFFFFFFFFFFFFFFFFFFFFFFF AND EQ ISZERO PUSH2 0xABC JUMPI PUSH1 0x40 MLOAD PUSH32 0x8C379A000000000000000000000000000000000000000000000000000000000 DUP2 MSTORE PUSH1 0x4 ADD PUSH2 0xAB3 SWAP1 PUSH2 0x276D JUMP JUMPDEST PUSH1 0x40 MLOAD DUP1 SWAP2 SUB SWAP1 REVERT JUMPDEST PUSH1 0x0 PUSH2 0xAC8 PUSH1 0xC9 PUSH2 0x14D1 JUMP JUMPDEST SWAP1 POP PUSH2 0xAD4 DUP7 DUP3 PUSH2 0x14DF JUMP JUMPDEST PUSH2 0xADE DUP2 DUP6 PUSH2 0x16B9 JUMP JUMPDEST PUSH2 0xAE8 DUP6 DUP3 PUSH2 0x172D JUMP JUMPDEST PUSH2 0xAF2 PUSH1 0xC9 PUSH2 0x1783 JUMP JUMPDEST DUP3 PUSH1 0xCA PUSH1 0x0 DUP4 DUP2 MSTORE PUSH1 0x20 ADD SWAP1 DUP2 MSTORE PUSH1 0x20 ADD PUSH1 0x0 KECCAK256 DUP2 SWAP1 SSTORE POP DUP1 SWAP2 POP POP SWAP5 SWAP4 POP POP POP POP JUMP JUMPDEST PUSH1 0x60 PUSH2 0xB21 DUP3 PUSH2 0xE96 JUMP JUMPDEST PUSH2 0xB60 JUMPI PUSH1 0x40 MLOAD PUSH32 0x8C379A000000000000000000000000000000000000000000000000000000000 DUP2 MSTORE PUSH1 0x4 ADD PUSH2 0xB57 SWAP1 PUSH2 0x284D JUMP JUMPDEST PUSH1 0x40 MLOAD DUP1 SWAP2 SUB SWAP1 REVERT JUMPDEST PUSH1 0x0 PUSH1 0x97 PUSH1 0x0 DUP5 DUP2 MSTORE PUSH1 0x20 ADD SWAP1 DUP2 MSTORE PUSH1 0x20 ADD PUSH1 0x0 KECCAK256 DUP1 SLOAD PUSH2 0xB80 SWAP1 PUSH2 0x2B82 JUMP JUMPDEST DUP1 PUSH1 0x1F ADD PUSH1 0x20 DUP1 SWAP2 DIV MUL PUSH1 0x20 ADD PUSH1 0x40 MLOAD SWAP1 DUP2 ADD PUSH1 0x40 MSTORE DUP1 SWAP3 SWAP2 SWAP1 DUP2 DUP2 MSTORE PUSH1 0x20 ADD DUP3 DUP1 SLOAD PUSH2 0xBAC SWAP1 PUSH2 0x2B82 JUMP JUMPDEST DUP1 ISZERO PUSH2 0xBF9 JUMPI DUP1 PUSH1 0x1F LT PUSH2 0xBCE JUMPI PUSH2 0x100 DUP1 DUP4 SLOAD DIV MUL DUP4 MSTORE SWAP2 PUSH1 0x20 ADD SWAP2 PUSH2 0xBF9 JUMP JUMPDEST DUP3 ADD SWAP2 SWAP1 PUSH1 0x0 MSTORE PUSH1 0x20 PUSH1 0x0 KECCAK256 SWAP1 JUMPDEST DUP2 SLOAD DUP2 MSTORE SWAP1 PUSH1 0x1 ADD SWAP1 PUSH1 0x20 ADD DUP1 DUP4 GT PUSH2 0xBDC JUMPI DUP3 SWAP1 SUB PUSH1 0x1F AND DUP3 ADD SWAP2 JUMPDEST POP POP POP POP POP SWAP1 POP PUSH1 0x0 PUSH2 0xC0A PUSH2 0x1799 JUMP JUMPDEST SWAP1 POP PUSH1 0x0 DUP2 MLOAD EQ ISZERO PUSH2 0xC20 JUMPI DUP2 SWAP3 POP POP POP PUSH2 0xC63 JUMP JUMPDEST PUSH1 0x0 DUP3 MLOAD GT ISZERO PUSH2 0xC55 JUMPI DUP1 DUP3 PUSH1 0x40 MLOAD PUSH1 0x20 ADD PUSH2 0xC3D SWAP3 SWAP2 SWAP1 PUSH2 0x25AA JUMP JUMPDEST PUSH1 0x40 MLOAD PUSH1 0x20 DUP2 DUP4 SUB SUB DUP2 MSTORE SWAP1 PUSH1 0x40 MSTORE SWAP3 POP POP POP PUSH2 0xC63 JUMP JUMPDEST PUSH2 0xC5E DUP5 PUSH2 0x17B0 JUMP JUMPDEST SWAP3 POP POP POP JUMPDEST SWAP2 SWAP1 POP JUMP JUMPDEST PUSH1 0xCC SLOAD DUP2 JUMP JUMPDEST PUSH1 0xCA PUSH1 0x20 MSTORE DUP1 PUSH1 0x0 MSTORE PUSH1 0x40 PUSH1 0x0 KECCAK256 PUSH1 0x0 SWAP2 POP SWAP1 POP SLOAD DUP2 JUMP JUMPDEST PUSH1 0x0 PUSH1 0x6A PUSH1 0x0 DUP5 PUSH20 0xFFFFFFFFFFFFFFFFFFFFFFFFFFFFFFFFFFFFFFFF AND PUSH20 0xFFFFFFFFFFFFFFFFFFFFFFFFFFFFFFFFFFFFFFFF AND DUP2 MSTORE PUSH1 0x20 ADD SWAP1 DUP2 MSTORE PUSH1 0x20 ADD PUSH1 0x0 KECCAK256 PUSH1 0x0 DUP4 PUSH20 0xFFFFFFFFFFFFFFFFFFFFFFFFFFFFFFFFFFFFFFFF AND PUSH20 0xFFFFFFFFFFFFFFFFFFFFFFFFFFFFFFFFFFFFFFFF AND DUP2 MSTORE PUSH1 0x20 ADD SWAP1 DUP2 MSTORE PUSH1 0x20 ADD PUSH1 0x0 KECCAK256 PUSH1 0x0 SWAP1 SLOAD SWAP1 PUSH2 0x100 EXP SWAP1 DIV PUSH1 0xFF AND SWAP1 POP SWAP3 SWAP2 POP POP JUMP JUMPDEST PUSH1 0x0 PUSH2 0xD26 PUSH1 0x1 PUSH2 0x1857 JUMP JUMPDEST SWAP1 POP DUP1 ISZERO PUSH2 0xD4A JUMPI PUSH1 0x1 PUSH1 0x0 PUSH1 0x1 PUSH2 0x100 EXP DUP2 SLOAD DUP2 PUSH1 0xFF MUL NOT AND SWAP1 DUP4 ISZERO ISZERO MUL OR SWAP1 SSTORE POP JUMPDEST PUSH2 0xDBE PUSH1 0x40 MLOAD DUP1 PUSH1 0x40 ADD PUSH1 0x40 MSTORE DUP1 PUSH1 0x4 DUP2 MSTORE PUSH1 0x20 ADD PUSH32 0x4162686900000000000000000000000000000000000000000000000000000000 DUP2 MSTORE POP PUSH1 0x40 MLOAD DUP1 PUSH1 0x40 ADD PUSH1 0x40 MSTORE DUP1 PUSH1 0x5 DUP2 MSTORE PUSH1 0x20 ADD PUSH32 0x5368616B65000000000000000000000000000000000000000000000000000000 DUP2 MSTORE POP PUSH2 0x1947 JUMP JUMPDEST PUSH2 0xDC8 PUSH1 0xC9 PUSH2 0x1783 JUMP JUMPDEST DUP2 PUSH1 0xCC DUP2 SWAP1 SSTORE POP DUP1 ISZERO PUSH2 0xE28 JUMPI PUSH1 0x0 DUP1 PUSH1 0x1 PUSH2 0x100 EXP DUP2 SLOAD DUP2 PUSH1 0xFF MUL NOT AND SWAP1 DUP4 ISZERO ISZERO MUL OR SWAP1 SSTORE POP PUSH32 0x7F26B83FF96E1F2B6A682F133852F6798A09C465DA95921460CEFB3847402498 PUSH1 0x1 PUSH1 0x40 MLOAD PUSH2 0xE1F SWAP2 SWAP1 PUSH2 0x2650 JUMP JUMPDEST PUSH1 0x40 MLOAD DUP1 SWAP2 SUB SWAP1 LOG1 JUMPDEST POP POP JUMP JUMPDEST PUSH1 0x0 PUSH32 0x1FFC9A700000000000000000000000000000000000000000000000000000000 PUSH28 0xFFFFFFFFFFFFFFFFFFFFFFFFFFFFFFFFFFFFFFFFFFFFFFFFFFFFFFFF NOT AND DUP3 PUSH28 0xFFFFFFFFFFFFFFFFFFFFFFFFFFFFFFFFFFFFFFFFFFFFFFFFFFFFFFFF NOT AND EQ SWAP1 POP SWAP2 SWAP1 POP JUMP JUMPDEST PUSH1 0x0 DUP1 PUSH20 0xFFFFFFFFFFFFFFFFFFFFFFFFFFFFFFFFFFFFFFFF AND PUSH1 0x67 PUSH1 0x0 DUP5 DUP2 MSTORE PUSH1 0x20 ADD SWAP1 DUP2 MSTORE PUSH1 0x20 ADD PUSH1 0x0 KECCAK256 PUSH1 0x0 SWAP1 SLOAD SWAP1 PUSH2 0x100 EXP SWAP1 DIV PUSH20 0xFFFFFFFFFFFFFFFFFFFFFFFFFFFFFFFFFFFFFFFF AND PUSH20 0xFFFFFFFFFFFFFFFFFFFFFFFFFFFFFFFFFFFFFFFF AND EQ ISZERO SWAP1 POP SWAP2 SWAP1 POP JUMP JUMPDEST PUSH1 0x0 CALLER SWAP1 POP SWAP1 JUMP JUMPDEST DUP2 PUSH1 0x69 PUSH1 0x0 DUP4 DUP2 MSTORE PUSH1 0x20 ADD SWAP1 DUP2 MSTORE PUSH1 0x20 ADD PUSH1 0x0 KECCAK256 PUSH1 0x0 PUSH2 0x100 EXP DUP2 SLOAD DUP2 PUSH20 0xFFFFFFFFFFFFFFFFFFFFFFFFFFFFFFFFFFFFFFFF MUL NOT AND SWAP1 DUP4 PUSH20 0xFFFFFFFFFFFFFFFFFFFFFFFFFFFFFFFFFFFFFFFF AND MUL OR SWAP1 SSTORE POP DUP1 DUP3 PUSH20 0xFFFFFFFFFFFFFFFFFFFFFFFFFFFFFFFFFFFFFFFF AND PUSH2 0xF7D DUP4 PUSH2 0x791 JUMP JUMPDEST PUSH20 0xFFFFFFFFFFFFFFFFFFFFFFFFFFFFFFFFFFFFFFFF AND PUSH32 0x8C5BE1E5EBEC7D5BD14F71427D1E84F3DD0314C0F7B2291E5B200AC8C7C3B925 PUSH1 0x40 MLOAD PUSH1 0x40 MLOAD DUP1 SWAP2 SUB SWAP1 LOG4 POP POP JUMP JUMPDEST PUSH1 0x0 PUSH2 0xFCE DUP3 PUSH2 0xE96 JUMP JUMPDEST PUSH2 0x100D JUMPI PUSH1 0x40 MLOAD PUSH32 0x8C379A000000000000000000000000000000000000000000000000000000000 DUP2 MSTORE PUSH1 0x4 ADD PUSH2 0x1004 SWAP1 PUSH2 0x274D JUMP JUMPDEST PUSH1 0x40 MLOAD DUP1 SWAP2 SUB SWAP1 REVERT JUMPDEST PUSH1 0x0 PUSH2 0x1018 DUP4 PUSH2 0x791 JUMP JUMPDEST SWAP1 POP DUP1 PUSH20 0xFFFFFFFFFFFFFFFFFFFFFFFFFFFFFFFFFFFFFFFF AND DUP5 PUSH20 0xFFFFFFFFFFFFFFFFFFFFFFFFFFFFFFFFFFFFFFFF AND EQ DUP1 PUSH2 0x105A JUMPI POP PUSH2 0x1059 DUP2 DUP6 PUSH2 0xC86 JUMP JUMPDEST JUMPDEST DUP1 PUSH2 0x1098 JUMPI POP DUP4 PUSH20 0xFFFFFFFFFFFFFFFFFFFFFFFFFFFFFFFFFFFFFFFF AND PUSH2 0x1080 DUP5 PUSH2 0x541 JUMP JUMPDEST PUSH20 0xFFFFFFFFFFFFFFFFFFFFFFFFFFFFFFFFFFFFFFFF AND EQ JUMPDEST SWAP2 POP POP SWAP3 SWAP2 POP POP JUMP JUMPDEST DUP3 PUSH20 0xFFFFFFFFFFFFFFFFFFFFFFFFFFFFFFFFFFFFFFFF AND PUSH2 0x10C1 DUP3 PUSH2 0x791 JUMP JUMPDEST PUSH20 0xFFFFFFFFFFFFFFFFFFFFFFFFFFFFFFFFFFFFFFFF AND EQ PUSH2 0x1117 JUMPI PUSH1 0x40 MLOAD PUSH32 0x8C379A000000000000000000000000000000000000000000000000000000000 DUP2 MSTORE PUSH1 0x4 ADD PUSH2 0x110E SWAP1 PUSH2 0x26AD JUMP JUMPDEST PUSH1 0x40 MLOAD DUP1 SWAP2 SUB SWAP1 REVERT JUMPDEST PUSH1 0x0 PUSH20 0xFFFFFFFFFFFFFFFFFFFFFFFFFFFFFFFFFFFFFFFF AND DUP3 PUSH20 0xFFFFFFFFFFFFFFFFFFFFFFFFFFFFFFFFFFFFFFFF AND EQ ISZERO PUSH2 0x1187 JUMPI PUSH1 0x40 MLOAD PUSH32 0x8C379A000000000000000000000000000000000000000000000000000000000 DUP2 MSTORE PUSH1 0x4 ADD PUSH2 0x117E SWAP1 PUSH2 0x270D JUMP JUMPDEST PUSH1 0x40 MLOAD DUP1 SWAP2 SUB SWAP1 REVERT JUMPDEST PUSH2 0x1192 DUP4 DUP4 DUP4 PUSH2 0x19A4 JUMP JUMPDEST PUSH2 0x119D PUSH1 0x0 DUP3 PUSH2 0xF0A JUMP JUMPDEST PUSH1 0x1 PUSH1 0x68 PUSH1 0x0 DUP6 PUSH20 0xFFFFFFFFFFFFFFFFFFFFFFFFFFFFFFFFFFFFFFFF AND PUSH20 0xFFFFFFFFFFFFFFFFFFFFFFFFFFFFFFFFFFFFFFFF AND DUP2 MSTORE PUSH1 0x20 ADD SWAP1 DUP2 MSTORE PUSH1 0x20 ADD PUSH1 0x0 KECCAK256 PUSH1 0x0 DUP3 DUP3 SLOAD PUSH2 0x11ED SWAP2 SWAP1 PUSH2 0x2A79 JUMP JUMPDEST SWAP3 POP POP DUP2 SWAP1 SSTORE POP PUSH1 0x1 PUSH1 0x68 PUSH1 0x0 DUP5 PUSH20 0xFFFFFFFFFFFFFFFFFFFFFFFFFFFFFFFFFFFFFFFF AND PUSH20 0xFFFFFFFFFFFFFFFFFFFFFFFFFFFFFFFFFFFFFFFF AND DUP2 MSTORE PUSH1 0x20 ADD SWAP1 DUP2 MSTORE PUSH1 0x20 ADD PUSH1 0x0 KECCAK256 PUSH1 0x0 DUP3 DUP3 SLOAD PUSH2 0x1244 SWAP2 SWAP1 PUSH2 0x29F2 JUMP JUMPDEST SWAP3 POP POP DUP2 SWAP1 SSTORE POP DUP2 PUSH1 0x67 PUSH1 0x0 DUP4 DUP2 MSTORE PUSH1 0x20 ADD SWAP1 DUP2 MSTORE PUSH1 0x20 ADD PUSH1 0x0 KECCAK256 PUSH1 0x0 PUSH2 0x100 EXP DUP2 SLOAD DUP2 PUSH20 0xFFFFFFFFFFFFFFFFFFFFFFFFFFFFFFFFFFFFFFFF MUL NOT AND SWAP1 DUP4 PUSH20 0xFFFFFFFFFFFFFFFFFFFFFFFFFFFFFFFFFFFFFFFF AND MUL OR SWAP1 SSTORE POP DUP1 DUP3 PUSH20 0xFFFFFFFFFFFFFFFFFFFFFFFFFFFFFFFFFFFFFFFF AND DUP5 PUSH20 0xFFFFFFFFFFFFFFFFFFFFFFFFFFFFFFFFFFFFFFFF AND PUSH32 0xDDF252AD1BE2C89B69C2B068FC378DAA952BA7F163C4A11628F55A4DF523B3EF PUSH1 0x40 MLOAD PUSH1 0x40 MLOAD DUP1 SWAP2 SUB SWAP1 LOG4 PUSH2 0x1303 DUP4 DUP4 DUP4 PUSH2 0x19A9 JUMP JUMPDEST POP POP POP JUMP JUMPDEST DUP2 PUSH20 0xFFFFFFFFFFFFFFFFFFFFFFFFFFFFFFFFFFFFFFFF AND DUP4 PUSH20 0xFFFFFFFFFFFFFFFFFFFFFFFFFFFFFFFFFFFFFFFF AND EQ ISZERO PUSH2 0x1377 JUMPI PUSH1 0x40 MLOAD PUSH32 0x8C379A000000000000000000000000000000000000000000000000000000000 DUP2 MSTORE PUSH1 0x4 ADD PUSH2 0x136E SWAP1 PUSH2 0x272D JUMP JUMPDEST PUSH1 0x40 MLOAD DUP1 SWAP2 SUB SWAP1 REVERT JUMPDEST DUP1 PUSH1 0x6A PUSH1 0x0 DUP6 PUSH20 0xFFFFFFFFFFFFFFFFFFFFFFFFFFFFFFFFFFFFFFFF AND PUSH20 0xFFFFFFFFFFFFFFFFFFFFFFFFFFFFFFFFFFFFFFFF AND DUP2 MSTORE PUSH1 0x20 ADD SWAP1 DUP2 MSTORE PUSH1 0x20 ADD PUSH1 0x0 KECCAK256 PUSH1 0x0 DUP5 PUSH20 0xFFFFFFFFFFFFFFFFFFFFFFFFFFFFFFFFFFFFFFFF AND PUSH20 0xFFFFFFFFFFFFFFFFFFFFFFFFFFFFFFFFFFFFFFFF AND DUP2 MSTORE PUSH1 0x20 ADD SWAP1 DUP2 MSTORE PUSH1 0x20 ADD PUSH1 0x0 KECCAK256 PUSH1 0x0 PUSH2 0x100 EXP DUP2 SLOAD DUP2 PUSH1 0xFF MUL NOT AND SWAP1 DUP4 ISZERO ISZERO MUL OR SWAP1 SSTORE POP DUP2 PUSH20 0xFFFFFFFFFFFFFFFFFFFFFFFFFFFFFFFFFFFFFFFF AND DUP4 PUSH20 0xFFFFFFFFFFFFFFFFFFFFFFFFFFFFFFFFFFFFFFFF AND PUSH32 0x17307EAB39AB6107E8899845AD3D59BD9653F200F220920489CA2B5937696C31 DUP4 PUSH1 0x40 MLOAD PUSH2 0x1468 SWAP2 SWAP1 PUSH2 0x2635 JUMP JUMPDEST PUSH1 0x40 MLOAD DUP1 SWAP2 SUB SWAP1 LOG3 POP POP POP JUMP JUMPDEST PUSH2 0x1480 DUP5 DUP5 DUP5 PUSH2 0x10A1 JUMP JUMPDEST PUSH2 0x148C DUP5 DUP5 DUP5 DUP5 PUSH2 0x19AE JUMP JUMPDEST PUSH2 0x14CB JUMPI PUSH1 0x40 MLOAD PUSH32 0x8C379A000000000000000000000000000000000000000000000000000000000 DUP2 MSTORE PUSH1 0x4 ADD PUSH2 0x14C2 SWAP1 PUSH2 0x268D JUMP JUMPDEST PUSH1 0x40 MLOAD DUP1 SWAP2 SUB SWAP1 REVERT JUMPDEST POP POP POP POP JUMP JUMPDEST PUSH1 0x0 DUP2 PUSH1 0x0 ADD SLOAD SWAP1 POP SWAP2 SWAP1 POP JUMP JUMPDEST PUSH1 0x0 PUSH20 0xFFFFFFFFFFFFFFFFFFFFFFFFFFFFFFFFFFFFFFFF AND DUP3 PUSH20 0xFFFFFFFFFFFFFFFFFFFFFFFFFFFFFFFFFFFFFFFF AND EQ ISZERO PUSH2 0x154F JUMPI PUSH1 0x40 MLOAD PUSH32 0x8C379A000000000000000000000000000000000000000000000000000000000 DUP2 MSTORE PUSH1 0x4 ADD PUSH2 0x1546 SWAP1 PUSH2 0x282D JUMP JUMPDEST PUSH1 0x40 MLOAD DUP1 SWAP2 SUB SWAP1 REVERT JUMPDEST PUSH2 0x1558 DUP2 PUSH2 0xE96 JUMP JUMPDEST ISZERO PUSH2 0x1598 JUMPI PUSH1 0x40 MLOAD PUSH32 0x8C379A000000000000000000000000000000000000000000000000000000000 DUP2 MSTORE PUSH1 0x4 ADD PUSH2 0x158F SWAP1 PUSH2 0x26CD JUMP JUMPDEST PUSH1 0x40 MLOAD DUP1 SWAP2 SUB SWAP1 REVERT JUMPDEST PUSH2 0x15A4 PUSH1 0x0 DUP4 DUP4 PUSH2 0x19A4 JUMP JUMPDEST PUSH1 0x1 PUSH1 0x68 PUSH1 0x0 DUP5 PUSH20 0xFFFFFFFFFFFFFFFFFFFFFFFFFFFFFFFFFFFFFFFF AND PUSH20 0xFFFFFFFFFFFFFFFFFFFFFFFFFFFFFFFFFFFFFFFF AND DUP2 MSTORE PUSH1 0x20 ADD SWAP1 DUP2 MSTORE PUSH1 0x20 ADD PUSH1 0x0 KECCAK256 PUSH1 0x0 DUP3 DUP3 SLOAD PUSH2 0x15F4 SWAP2 SWAP1 PUSH2 0x29F2 JUMP JUMPDEST SWAP3 POP POP DUP2 SWAP1 SSTORE POP DUP2 PUSH1 0x67 PUSH1 0x0 DUP4 DUP2 MSTORE PUSH1 0x20 ADD SWAP1 DUP2 MSTORE PUSH1 0x20 ADD PUSH1 0x0 KECCAK256 PUSH1 0x0 PUSH2 0x100 EXP DUP2 SLOAD DUP2 PUSH20 0xFFFFFFFFFFFFFFFFFFFFFFFFFFFFFFFFFFFFFFFF MUL NOT AND SWAP1 DUP4 PUSH20 0xFFFFFFFFFFFFFFFFFFFFFFFFFFFFFFFFFFFFFFFF AND MUL OR SWAP1 SSTORE POP DUP1 DUP3 PUSH20 0xFFFFFFFFFFFFFFFFFFFFFFFFFFFFFFFFFFFFFFFF AND PUSH1 0x0 PUSH20 0xFFFFFFFFFFFFFFFFFFFFFFFFFFFFFFFFFFFFFFFF AND PUSH32 0xDDF252AD1BE2C89B69C2B068FC378DAA952BA7F163C4A11628F55A4DF523B3EF PUSH1 0x40 MLOAD PUSH1 0x40 MLOAD DUP1 SWAP2 SUB SWAP1 LOG4 PUSH2 0x16B5 PUSH1 0x0 DUP4 DUP4 PUSH2 0x19A9 JUMP JUMPDEST POP POP JUMP JUMPDEST PUSH2 0x16C2 DUP3 PUSH2 0xE96 JUMP JUMPDEST PUSH2 0x1701 JUMPI PUSH1 0x40 MLOAD PUSH32 0x8C379A000000000000000000000000000000000000000000000000000000000 DUP2 MSTORE PUSH1 0x4 ADD PUSH2 0x16F8 SWAP1 PUSH2 0x27ED JUMP JUMPDEST PUSH1 0x40 MLOAD DUP1 SWAP2 SUB SWAP1 REVERT JUMPDEST DUP1 PUSH1 0x97 PUSH1 0x0 DUP5 DUP2 MSTORE PUSH1 0x20 ADD SWAP1 DUP2 MSTORE PUSH1 0x20 ADD PUSH1 0x0 KECCAK256 SWAP1 DUP1 MLOAD SWAP1 PUSH1 0x20 ADD SWAP1 PUSH2 0x1728 SWAP3 SWAP2 SWAP1 PUSH2 0x1D96 JUMP JUMPDEST POP POP POP JUMP JUMPDEST DUP2 PUSH1 0xCB PUSH1 0x0 DUP4 DUP2 MSTORE PUSH1 0x20 ADD SWAP1 DUP2 MSTORE PUSH1 0x20 ADD PUSH1 0x0 KECCAK256 PUSH1 0x0 PUSH2 0x100 EXP DUP2 SLOAD DUP2 PUSH20 0xFFFFFFFFFFFFFFFFFFFFFFFFFFFFFFFFFFFFFFFF MUL NOT AND SWAP1 DUP4 PUSH20 0xFFFFFFFFFFFFFFFFFFFFFFFFFFFFFFFFFFFFFFFF AND MUL OR SWAP1 SSTORE POP POP POP JUMP JUMPDEST PUSH1 0x1 DUP2 PUSH1 0x0 ADD PUSH1 0x0 DUP3 DUP3 SLOAD ADD SWAP3 POP POP DUP2 SWAP1 SSTORE POP POP JUMP JUMPDEST PUSH1 0x60 PUSH1 0x40 MLOAD DUP1 PUSH1 0x20 ADD PUSH1 0x40 MSTORE DUP1 PUSH1 0x0 DUP2 MSTORE POP SWAP1 POP SWAP1 JUMP JUMPDEST PUSH1 0x60 PUSH2 0x17BB DUP3 PUSH2 0xE96 JUMP JUMPDEST PUSH2 0x17FA JUMPI PUSH1 0x40 MLOAD PUSH32 0x8C379A000000000000000000000000000000000000000000000000000000000 DUP2 MSTORE PUSH1 0x4 ADD PUSH2 0x17F1 SWAP1 PUSH2 0x288D JUMP JUMPDEST PUSH1 0x40 MLOAD DUP1 SWAP2 SUB SWAP1 REVERT JUMPDEST PUSH1 0x0 PUSH2 0x1804 PUSH2 0x1799 JUMP JUMPDEST SWAP1 POP PUSH1 0x0 DUP2 MLOAD GT PUSH2 0x1824 JUMPI PUSH1 0x40 MLOAD DUP1 PUSH1 0x20 ADD PUSH1 0x40 MSTORE DUP1 PUSH1 0x0 DUP2 MSTORE POP PUSH2 0x184F JUMP JUMPDEST DUP1 PUSH2 0x182E DUP5 PUSH2 0x1B45 JUMP JUMPDEST PUSH1 0x40 MLOAD PUSH1 0x20 ADD PUSH2 0x183F SWAP3 SWAP2 SWAP1 PUSH2 0x25AA JUMP JUMPDEST PUSH1 0x40 MLOAD PUSH1 0x20 DUP2 DUP4 SUB SUB DUP2 MSTORE SWAP1 PUSH1 0x40 MSTORE JUMPDEST SWAP2 POP POP SWAP2 SWAP1 POP JUMP JUMPDEST PUSH1 0x0 DUP1 PUSH1 0x1 SWAP1 SLOAD SWAP1 PUSH2 0x100 EXP SWAP1 DIV PUSH1 0xFF AND ISZERO PUSH2 0x18CE JUMPI PUSH1 0x1 DUP3 PUSH1 0xFF AND EQ DUP1 ISZERO PUSH2 0x1886 JUMPI POP PUSH2 0x1884 ADDRESS PUSH2 0x1CF2 JUMP JUMPDEST ISZERO JUMPDEST PUSH2 0x18C5 JUMPI PUSH1 0x40 MLOAD PUSH32 0x8C379A000000000000000000000000000000000000000000000000000000000 DUP2 MSTORE PUSH1 0x4 ADD PUSH2 0x18BC SWAP1 PUSH2 0x280D JUMP JUMPDEST PUSH1 0x40 MLOAD DUP1 SWAP2 SUB SWAP1 REVERT JUMPDEST PUSH1 0x0 SWAP1 POP PUSH2 0x1942 JUMP JUMPDEST DUP2 PUSH1 0xFF AND PUSH1 0x0 DUP1 SLOAD SWAP1 PUSH2 0x100 EXP SWAP1 DIV PUSH1 0xFF AND PUSH1 0xFF AND LT PUSH2 0x1923 JUMPI PUSH1 0x40 MLOAD PUSH32 0x8C379A000000000000000000000000000000000000000000000000000000000 DUP2 MSTORE PUSH1 0x4 ADD PUSH2 0x191A SWAP1 PUSH2 0x280D JUMP JUMPDEST PUSH1 0x40 MLOAD DUP1 SWAP2 SUB SWAP1 REVERT JUMPDEST DUP2 PUSH1 0x0 DUP1 PUSH2 0x100 EXP DUP2 SLOAD DUP2 PUSH1 0xFF MUL NOT AND SWAP1 DUP4 PUSH1 0xFF AND MUL OR SWAP1 SSTORE POP PUSH1 0x1 SWAP1 POP JUMPDEST SWAP2 SWAP1 POP JUMP JUMPDEST PUSH1 0x0 PUSH1 0x1 SWAP1 SLOAD SWAP1 PUSH2 0x100 EXP SWAP1 DIV PUSH1 0xFF AND PUSH2 0x1996 JUMPI PUSH1 0x40 MLOAD PUSH32 0x8C379A000000000000000000000000000000000000000000000000000000000 DUP2 MSTORE PUSH1 0x4 ADD PUSH2 0x198D SWAP1 PUSH2 0x28ED JUMP JUMPDEST PUSH1 0x40 MLOAD DUP1 SWAP2 SUB SWAP1 REVERT JUMPDEST PUSH2 0x19A0 DUP3 DUP3 PUSH2 0x1D15 JUMP JUMPDEST POP POP JUMP JUMPDEST POP POP POP JUMP JUMPDEST POP POP POP JUMP JUMPDEST PUSH1 0x0 PUSH2 0x19CF DUP5 PUSH20 0xFFFFFFFFFFFFFFFFFFFFFFFFFFFFFFFFFFFFFFFF AND PUSH2 0x1CF2 JUMP JUMPDEST ISZERO PUSH2 0x1B38 JUMPI DUP4 PUSH20 0xFFFFFFFFFFFFFFFFFFFFFFFFFFFFFFFFFFFFFFFF AND PUSH4 0x150B7A02 PUSH2 0x19F8 PUSH2 0xF02 JUMP JUMPDEST DUP8 DUP7 DUP7 PUSH1 0x40 MLOAD DUP6 PUSH4 0xFFFFFFFF AND PUSH1 0xE0 SHL DUP2 MSTORE PUSH1 0x4 ADD PUSH2 0x1A1A SWAP5 SWAP4 SWAP3 SWAP2 SWAP1 PUSH2 0x25E9 JUMP JUMPDEST PUSH1 0x20 PUSH1 0x40 MLOAD DUP1 DUP4 SUB DUP2 PUSH1 0x0 DUP8 DUP1 EXTCODESIZE ISZERO DUP1 ISZERO PUSH2 0x1A34 JUMPI PUSH1 0x0 DUP1 REVERT JUMPDEST POP GAS CALL SWAP3 POP POP POP DUP1 ISZERO PUSH2 0x1A65 JUMPI POP PUSH1 0x40 MLOAD RETURNDATASIZE PUSH1 0x1F NOT PUSH1 0x1F DUP3 ADD AND DUP3 ADD DUP1 PUSH1 0x40 MSTORE POP DUP2 ADD SWAP1 PUSH2 0x1A62 SWAP2 SWAP1 PUSH2 0x21BD JUMP JUMPDEST PUSH1 0x1 JUMPDEST PUSH2 0x1AE8 JUMPI RETURNDATASIZE DUP1 PUSH1 0x0 DUP2 EQ PUSH2 0x1A95 JUMPI PUSH1 0x40 MLOAD SWAP2 POP PUSH1 0x1F NOT PUSH1 0x3F RETURNDATASIZE ADD AND DUP3 ADD PUSH1 0x40 MSTORE RETURNDATASIZE DUP3 MSTORE RETURNDATASIZE PUSH1 0x0 PUSH1 0x20 DUP5 ADD RETURNDATACOPY PUSH2 0x1A9A JUMP JUMPDEST PUSH1 0x60 SWAP2 POP JUMPDEST POP PUSH1 0x0 DUP2 MLOAD EQ ISZERO PUSH2 0x1AE0 JUMPI PUSH1 0x40 MLOAD PUSH32 0x8C379A000000000000000000000000000000000000000000000000000000000 DUP2 MSTORE PUSH1 0x4 ADD PUSH2 0x1AD7 SWAP1 PUSH2 0x268D JUMP JUMPDEST PUSH1 0x40 MLOAD DUP1 SWAP2 SUB SWAP1 REVERT JUMPDEST DUP1 MLOAD DUP2 PUSH1 0x20 ADD REVERT JUMPDEST PUSH4 0x150B7A02 PUSH1 0xE0 SHL PUSH28 0xFFFFFFFFFFFFFFFFFFFFFFFFFFFFFFFFFFFFFFFFFFFFFFFFFFFFFFFF NOT AND DUP2 PUSH28 0xFFFFFFFFFFFFFFFFFFFFFFFFFFFFFFFFFFFFFFFFFFFFFFFFFFFFFFFF NOT AND EQ SWAP2 POP POP PUSH2 0x1B3D JUMP JUMPDEST PUSH1 0x1 SWAP1 POP JUMPDEST SWAP5 SWAP4 POP POP POP POP JUMP JUMPDEST PUSH1 0x60 PUSH1 0x0 DUP3 EQ ISZERO PUSH2 0x1B8D JUMPI PUSH1 0x40 MLOAD DUP1 PUSH1 0x40 ADD PUSH1 0x40 MSTORE DUP1 PUSH1 0x1 DUP2 MSTORE PUSH1 0x20 ADD PUSH32 0x3000000000000000000000000000000000000000000000000000000000000000 DUP2 MSTORE POP SWAP1 POP PUSH2 0x1CED JUMP JUMPDEST PUSH1 0x0 DUP3 SWAP1 POP PUSH1 0x0 JUMPDEST PUSH1 0x0 DUP3 EQ PUSH2 0x1BBF JUMPI DUP1 DUP1 PUSH2 0x1BA8 SWAP1 PUSH2 0x2BE5 JUMP JUMPDEST SWAP2 POP POP PUSH1 0xA DUP3 PUSH2 0x1BB8 SWAP2 SWAP1 PUSH2 0x2A48 JUMP JUMPDEST SWAP2 POP PUSH2 0x1B95 JUMP JUMPDEST PUSH1 0x0 DUP2 PUSH8 0xFFFFFFFFFFFFFFFF DUP2 GT ISZERO PUSH2 0x1C01 JUMPI PUSH32 0x4E487B7100000000000000000000000000000000000000000000000000000000 PUSH1 0x0 MSTORE PUSH1 0x41 PUSH1 0x4 MSTORE PUSH1 0x24 PUSH1 0x0 REVERT JUMPDEST PUSH1 0x40 MLOAD SWAP1 DUP1 DUP3 MSTORE DUP1 PUSH1 0x1F ADD PUSH1 0x1F NOT AND PUSH1 0x20 ADD DUP3 ADD PUSH1 0x40 MSTORE DUP1 ISZERO PUSH2 0x1C33 JUMPI DUP2 PUSH1 0x20 ADD PUSH1 0x1 DUP3 MUL DUP1 CALLDATASIZE DUP4 CALLDATACOPY DUP1 DUP3 ADD SWAP2 POP POP SWAP1 POP JUMPDEST POP SWAP1 POP JUMPDEST PUSH1 0x0 DUP6 EQ PUSH2 0x1CE6 JUMPI PUSH1 0x1 DUP3 PUSH2 0x1C4C SWAP2 SWAP1 PUSH2 0x2A79 JUMP JUMPDEST SWAP2 POP PUSH1 0xA DUP6 PUSH2 0x1C5B SWAP2 SWAP1 PUSH2 0x2C2E JUMP JUMPDEST PUSH1 0x30 PUSH2 0x1C67 SWAP2 SWAP1 PUSH2 0x29F2 JUMP JUMPDEST PUSH1 0xF8 SHL DUP2 DUP4 DUP2 MLOAD DUP2 LT PUSH2 0x1CA3 JUMPI PUSH32 0x4E487B7100000000000000000000000000000000000000000000000000000000 PUSH1 0x0 MSTORE PUSH1 0x32 PUSH1 0x4 MSTORE PUSH1 0x24 PUSH1 0x0 REVERT JUMPDEST PUSH1 0x20 ADD ADD SWAP1 PUSH31 0xFFFFFFFFFFFFFFFFFFFFFFFFFFFFFFFFFFFFFFFFFFFFFFFFFFFFFFFFFFFFFF NOT AND SWAP1 DUP2 PUSH1 0x0 BYTE SWAP1 MSTORE8 POP PUSH1 0xA DUP6 PUSH2 0x1CDF SWAP2 SWAP1 PUSH2 0x2A48 JUMP JUMPDEST SWAP5 POP PUSH2 0x1C37 JUMP JUMPDEST DUP1 SWAP4 POP POP POP POP JUMPDEST SWAP2 SWAP1 POP JUMP JUMPDEST PUSH1 0x0 DUP1 DUP3 PUSH20 0xFFFFFFFFFFFFFFFFFFFFFFFFFFFFFFFFFFFFFFFF AND EXTCODESIZE GT SWAP1 POP SWAP2 SWAP1 POP JUMP JUMPDEST PUSH1 0x0 PUSH1 0x1 SWAP1 SLOAD SWAP1 PUSH2 0x100 EXP SWAP1 DIV PUSH1 0xFF AND PUSH2 0x1D64 JUMPI PUSH1 0x40 MLOAD PUSH32 0x8C379A000000000000000000000000000000000000000000000000000000000 DUP2 MSTORE PUSH1 0x4 ADD PUSH2 0x1D5B SWAP1 PUSH2 0x28ED JUMP JUMPDEST PUSH1 0x40 MLOAD DUP1 SWAP2 SUB SWAP1 REVERT JUMPDEST DUP2 PUSH1 0x65 SWAP1 DUP1 MLOAD SWAP1 PUSH1 0x20 ADD SWAP1 PUSH2 0x1D7A SWAP3 SWAP2 SWAP1 PUSH2 0x1D96 JUMP JUMPDEST POP DUP1 PUSH1 0x66 SWAP1 DUP1 MLOAD SWAP1 PUSH1 0x20 ADD SWAP1 PUSH2 0x1D91 SWAP3 SWAP2 SWAP1 PUSH2 0x1D96 JUMP JUMPDEST POP POP POP JUMP JUMPDEST DUP3 DUP1 SLOAD PUSH2 0x1DA2 SWAP1 PUSH2 0x2B82 JUMP JUMPDEST SWAP1 PUSH1 0x0 MSTORE PUSH1 0x20 PUSH1 0x0 KECCAK256 SWAP1 PUSH1 0x1F ADD PUSH1 0x20 SWAP1 DIV DUP2 ADD SWAP3 DUP3 PUSH2 0x1DC4 JUMPI PUSH1 0x0 DUP6 SSTORE PUSH2 0x1E0B JUMP JUMPDEST DUP3 PUSH1 0x1F LT PUSH2 0x1DDD JUMPI DUP1 MLOAD PUSH1 0xFF NOT AND DUP4 DUP1 ADD OR DUP6 SSTORE PUSH2 0x1E0B JUMP JUMPDEST DUP3 DUP1 ADD PUSH1 0x1 ADD DUP6 SSTORE DUP3 ISZERO PUSH2 0x1E0B JUMPI SWAP2 DUP3 ADD JUMPDEST DUP3 DUP2 GT ISZERO PUSH2 0x1E0A JUMPI DUP3 MLOAD DUP3 SSTORE SWAP2 PUSH1 0x20 ADD SWAP2 SWAP1 PUSH1 0x1 ADD SWAP1 PUSH2 0x1DEF JUMP JUMPDEST JUMPDEST POP SWAP1 POP PUSH2 0x1E18 SWAP2 SWAP1 PUSH2 0x1E1C JUMP JUMPDEST POP SWAP1 JUMP JUMPDEST JUMPDEST DUP1 DUP3 GT ISZERO PUSH2 0x1E35 JUMPI PUSH1 0x0 DUP2 PUSH1 0x0 SWAP1 SSTORE POP PUSH1 0x1 ADD PUSH2 0x1E1D JUMP JUMPDEST POP SWAP1 JUMP JUMPDEST PUSH1 0x0 PUSH2 0x1E4C PUSH2 0x1E47 DUP5 PUSH2 0x294D JUMP JUMPDEST PUSH2 0x2928 JUMP JUMPDEST SWAP1 POP DUP3 DUP2 MSTORE PUSH1 0x20 DUP2 ADD DUP5 DUP5 DUP5 ADD GT ISZERO PUSH2 0x1E64 JUMPI PUSH1 0x0 DUP1 REVERT JUMPDEST PUSH2 0x1E6F DUP5 DUP3 DUP6 PUSH2 0x2B40 JUMP JUMPDEST POP SWAP4 SWAP3 POP POP POP JUMP JUMPDEST PUSH1 0x0 PUSH2 0x1E8A PUSH2 0x1E85 DUP5 PUSH2 0x297E JUMP JUMPDEST PUSH2 0x2928 JUMP JUMPDEST SWAP1 POP DUP3 DUP2 MSTORE PUSH1 0x20 DUP2 ADD DUP5 DUP5 DUP5 ADD GT ISZERO PUSH2 0x1EA2 JUMPI PUSH1 0x0 DUP1 REVERT JUMPDEST PUSH2 0x1EAD DUP5 DUP3 DUP6 PUSH2 0x2B40 JUMP JUMPDEST POP SWAP4 SWAP3 POP POP POP JUMP JUMPDEST PUSH1 0x0 DUP2 CALLDATALOAD SWAP1 POP PUSH2 0x1EC4 DUP2 PUSH2 0x32C0 JUMP JUMPDEST SWAP3 SWAP2 POP POP JUMP JUMPDEST PUSH1 0x0 DUP2 CALLDATALOAD SWAP1 POP PUSH2 0x1ED9 DUP2 PUSH2 0x32D7 JUMP JUMPDEST SWAP3 SWAP2 POP POP JUMP JUMPDEST PUSH1 0x0 DUP2 CALLDATALOAD SWAP1 POP PUSH2 0x1EEE DUP2 PUSH2 0x32EE JUMP JUMPDEST SWAP3 SWAP2 POP POP JUMP JUMPDEST PUSH1 0x0 DUP2 MLOAD SWAP1 POP PUSH2 0x1F03 DUP2 PUSH2 0x32EE JUMP JUMPDEST SWAP3 SWAP2 POP POP JUMP JUMPDEST PUSH1 0x0 DUP3 PUSH1 0x1F DUP4 ADD SLT PUSH2 0x1F1A JUMPI PUSH1 0x0 DUP1 REVERT JUMPDEST DUP2 CALLDATALOAD PUSH2 0x1F2A DUP5 DUP3 PUSH1 0x20 DUP7 ADD PUSH2 0x1E39 JUMP JUMPDEST SWAP2 POP POP SWAP3 SWAP2 POP POP JUMP JUMPDEST PUSH1 0x0 DUP3 PUSH1 0x1F DUP4 ADD SLT PUSH2 0x1F44 JUMPI PUSH1 0x0 DUP1 REVERT JUMPDEST DUP2 CALLDATALOAD PUSH2 0x1F54 DUP5 DUP3 PUSH1 0x20 DUP7 ADD PUSH2 0x1E77 JUMP JUMPDEST SWAP2 POP POP SWAP3 SWAP2 POP POP JUMP JUMPDEST PUSH1 0x0 DUP2 CALLDATALOAD SWAP1 POP PUSH2 0x1F6C DUP2 PUSH2 0x3305 JUMP JUMPDEST SWAP3 SWAP2 POP POP JUMP JUMPDEST PUSH1 0x0 PUSH1 0x20 DUP3 DUP5 SUB SLT ISZERO PUSH2 0x1F84 JUMPI PUSH1 0x0 DUP1 REVERT JUMPDEST PUSH1 0x0 PUSH2 0x1F92 DUP5 DUP3 DUP6 ADD PUSH2 0x1EB5 JUMP JUMPDEST SWAP2 POP POP SWAP3 SWAP2 POP POP JUMP JUMPDEST PUSH1 0x0 DUP1 PUSH1 0x40 DUP4 DUP6 SUB SLT ISZERO PUSH2 0x1FAE JUMPI PUSH1 0x0 DUP1 REVERT JUMPDEST PUSH1 0x0 PUSH2 0x1FBC DUP6 DUP3 DUP7 ADD PUSH2 0x1EB5 JUMP JUMPDEST SWAP3 POP POP PUSH1 0x20 PUSH2 0x1FCD DUP6 DUP3 DUP7 ADD PUSH2 0x1EB5 JUMP JUMPDEST SWAP2 POP POP SWAP3 POP SWAP3 SWAP1 POP JUMP JUMPDEST PUSH1 0x0 DUP1 PUSH1 0x0 DUP1 PUSH1 0x80 DUP6 DUP8 SUB SLT ISZERO PUSH2 0x1FED JUMPI PUSH1 0x0 DUP1 REVERT JUMPDEST PUSH1 0x0 PUSH2 0x1FFB DUP8 DUP3 DUP9 ADD PUSH2 0x1EB5 JUMP JUMPDEST SWAP5 POP POP PUSH1 0x20 PUSH2 0x200C DUP8 DUP3 DUP9 ADD PUSH2 0x1EB5 JUMP JUMPDEST SWAP4 POP POP PUSH1 0x40 DUP6 ADD CALLDATALOAD PUSH8 0xFFFFFFFFFFFFFFFF DUP2 GT ISZERO PUSH2 0x2029 JUMPI PUSH1 0x0 DUP1 REVERT JUMPDEST PUSH2 0x2035 DUP8 DUP3 DUP9 ADD PUSH2 0x1F33 JUMP JUMPDEST SWAP3 POP POP PUSH1 0x60 PUSH2 0x2046 DUP8 DUP3 DUP9 ADD PUSH2 0x1F5D JUMP JUMPDEST SWAP2 POP POP SWAP3 SWAP6 SWAP2 SWAP5 POP SWAP3 POP JUMP JUMPDEST PUSH1 0x0 DUP1 PUSH1 0x0 PUSH1 0x60 DUP5 DUP7 SUB SLT ISZERO PUSH2 0x2067 JUMPI PUSH1 0x0 DUP1 REVERT JUMPDEST PUSH1 0x0 PUSH2 0x2075 DUP7 DUP3 DUP8 ADD PUSH2 0x1EB5 JUMP JUMPDEST SWAP4 POP POP PUSH1 0x20 PUSH2 0x2086 DUP7 DUP3 DUP8 ADD PUSH2 0x1EB5 JUMP JUMPDEST SWAP3 POP POP PUSH1 0x40 PUSH2 0x2097 DUP7 DUP3 DUP8 ADD PUSH2 0x1F5D JUMP JUMPDEST SWAP2 POP POP SWAP3 POP SWAP3 POP SWAP3 JUMP JUMPDEST PUSH1 0x0 DUP1 PUSH1 0x0 DUP1 PUSH1 0x80 DUP6 DUP8 SUB SLT ISZERO PUSH2 0x20B7 JUMPI PUSH1 0x0 DUP1 REVERT JUMPDEST PUSH1 0x0 PUSH2 0x20C5 DUP8 DUP3 DUP9 ADD PUSH2 0x1EB5 JUMP JUMPDEST SWAP5 POP POP PUSH1 0x20 PUSH2 0x20D6 DUP8 DUP3 DUP9 ADD PUSH2 0x1EB5 JUMP JUMPDEST SWAP4 POP POP PUSH1 0x40 PUSH2 0x20E7 DUP8 DUP3 DUP9 ADD PUSH2 0x1F5D JUMP JUMPDEST SWAP3 POP POP PUSH1 0x60 DUP6 ADD CALLDATALOAD PUSH8 0xFFFFFFFFFFFFFFFF DUP2 GT ISZERO PUSH2 0x2104 JUMPI PUSH1 0x0 DUP1 REVERT JUMPDEST PUSH2 0x2110 DUP8 DUP3 DUP9 ADD PUSH2 0x1F09 JUMP JUMPDEST SWAP2 POP POP SWAP3 SWAP6 SWAP2 SWAP5 POP SWAP3 POP JUMP JUMPDEST PUSH1 0x0 DUP1 PUSH1 0x40 DUP4 DUP6 SUB SLT ISZERO PUSH2 0x212F JUMPI PUSH1 0x0 DUP1 REVERT JUMPDEST PUSH1 0x0 PUSH2 0x213D DUP6 DUP3 DUP7 ADD PUSH2 0x1EB5 JUMP JUMPDEST SWAP3 POP POP PUSH1 0x20 PUSH2 0x214E DUP6 DUP3 DUP7 ADD PUSH2 0x1ECA JUMP JUMPDEST SWAP2 POP POP SWAP3 POP SWAP3 SWAP1 POP JUMP JUMPDEST PUSH1 0x0 DUP1 PUSH1 0x40 DUP4 DUP6 SUB SLT ISZERO PUSH2 0x216B JUMPI PUSH1 0x0 DUP1 REVERT JUMPDEST PUSH1 0x0 PUSH2 0x2179 DUP6 DUP3 DUP7 ADD PUSH2 0x1EB5 JUMP JUMPDEST SWAP3 POP POP PUSH1 0x20 PUSH2 0x218A DUP6 DUP3 DUP7 ADD PUSH2 0x1F5D JUMP JUMPDEST SWAP2 POP POP SWAP3 POP SWAP3 SWAP1 POP JUMP JUMPDEST PUSH1 0x0 PUSH1 0x20 DUP3 DUP5 SUB SLT ISZERO PUSH2 0x21A6 JUMPI PUSH1 0x0 DUP1 REVERT JUMPDEST PUSH1 0x0 PUSH2 0x21B4 DUP5 DUP3 DUP6 ADD PUSH2 0x1EDF JUMP JUMPDEST SWAP2 POP POP SWAP3 SWAP2 POP POP JUMP JUMPDEST PUSH1 0x0 PUSH1 0x20 DUP3 DUP5 SUB SLT ISZERO PUSH2 0x21CF JUMPI PUSH1 0x0 DUP1 REVERT JUMPDEST PUSH1 0x0 PUSH2 0x21DD DUP5 DUP3 DUP6 ADD PUSH2 0x1EF4 JUMP JUMPDEST SWAP2 POP POP SWAP3 SWAP2 POP POP JUMP JUMPDEST PUSH1 0x0 PUSH1 0x20 DUP3 DUP5 SUB SLT ISZERO PUSH2 0x21F8 JUMPI PUSH1 0x0 DUP1 REVERT JUMPDEST PUSH1 0x0 PUSH2 0x2206 DUP5 DUP3 DUP6 ADD PUSH2 0x1F5D JUMP JUMPDEST SWAP2 POP POP SWAP3 SWAP2 POP POP JUMP JUMPDEST PUSH2 0x2218 DUP2 PUSH2 0x2AAD JUMP JUMPDEST DUP3 MSTORE POP POP JUMP JUMPDEST PUSH2 0x2227 DUP2 PUSH2 0x2ABF JUMP JUMPDEST DUP3 MSTORE POP POP JUMP JUMPDEST PUSH1 0x0 PUSH2 0x2238 DUP3 PUSH2 0x29AF JUMP JUMPDEST PUSH2 0x2242 DUP2 DUP6 PUSH2 0x29C5 JUMP JUMPDEST SWAP4 POP PUSH2 0x2252 DUP2 DUP6 PUSH1 0x20 DUP7 ADD PUSH2 0x2B4F JUMP JUMPDEST PUSH2 0x225B DUP2 PUSH2 0x2D1B JUMP JUMPDEST DUP5 ADD SWAP2 POP POP SWAP3 SWAP2 POP POP JUMP JUMPDEST PUSH2 0x226F DUP2 PUSH2 0x2B2E JUMP JUMPDEST DUP3 MSTORE POP POP JUMP JUMPDEST PUSH1 0x0 PUSH2 0x2280 DUP3 PUSH2 0x29BA JUMP JUMPDEST PUSH2 0x228A DUP2 DUP6 PUSH2 0x29D6 JUMP JUMPDEST SWAP4 POP PUSH2 0x229A DUP2 DUP6 PUSH1 0x20 DUP7 ADD PUSH2 0x2B4F JUMP JUMPDEST PUSH2 0x22A3 DUP2 PUSH2 0x2D1B JUMP JUMPDEST DUP5 ADD SWAP2 POP POP SWAP3 SWAP2 POP POP JUMP JUMPDEST PUSH1 0x0 PUSH2 0x22B9 DUP3 PUSH2 0x29BA JUMP JUMPDEST PUSH2 0x22C3 DUP2 DUP6 PUSH2 0x29E7 JUMP JUMPDEST SWAP4 POP PUSH2 0x22D3 DUP2 DUP6 PUSH1 0x20 DUP7 ADD PUSH2 0x2B4F JUMP JUMPDEST DUP1 DUP5 ADD SWAP2 POP POP SWAP3 SWAP2 POP POP JUMP JUMPDEST PUSH1 0x0 PUSH2 0x22EC PUSH1 0x32 DUP4 PUSH2 0x29D6 JUMP JUMPDEST SWAP2 POP PUSH2 0x22F7 DUP3 PUSH2 0x2D2C JUMP JUMPDEST PUSH1 0x40 DUP3 ADD SWAP1 POP SWAP2 SWAP1 POP JUMP JUMPDEST PUSH1 0x0 PUSH2 0x230F PUSH1 0x25 DUP4 PUSH2 0x29D6 JUMP JUMPDEST SWAP2 POP PUSH2 0x231A DUP3 PUSH2 0x2D7B JUMP JUMPDEST PUSH1 0x40 DUP3 ADD SWAP1 POP SWAP2 SWAP1 POP JUMP JUMPDEST PUSH1 0x0 PUSH2 0x2332 PUSH1 0x1C DUP4 PUSH2 0x29D6 JUMP JUMPDEST SWAP2 POP PUSH2 0x233D DUP3 PUSH2 0x2DCA JUMP JUMPDEST PUSH1 0x20 DUP3 ADD SWAP1 POP SWAP2 SWAP1 POP JUMP JUMPDEST PUSH1 0x0 PUSH2 0x2355 PUSH1 0x17 DUP4 PUSH2 0x29D6 JUMP JUMPDEST SWAP2 POP PUSH2 0x2360 DUP3 PUSH2 0x2DF3 JUMP JUMPDEST PUSH1 0x20 DUP3 ADD SWAP1 POP SWAP2 SWAP1 POP JUMP JUMPDEST PUSH1 0x0 PUSH2 0x2378 PUSH1 0x24 DUP4 PUSH2 0x29D6 JUMP JUMPDEST SWAP2 POP PUSH2 0x2383 DUP3 PUSH2 0x2E1C JUMP JUMPDEST PUSH1 0x40 DUP3 ADD SWAP1 POP SWAP2 SWAP1 POP JUMP JUMPDEST PUSH1 0x0 PUSH2 0x239B PUSH1 0x19 DUP4 PUSH2 0x29D6 JUMP JUMPDEST SWAP2 POP PUSH2 0x23A6 DUP3 PUSH2 0x2E6B JUMP JUMPDEST PUSH1 0x20 DUP3 ADD SWAP1 POP SWAP2 SWAP1 POP JUMP JUMPDEST PUSH1 0x0 PUSH2 0x23BE PUSH1 0x2C DUP4 PUSH2 0x29D6 JUMP JUMPDEST SWAP2 POP PUSH2 0x23C9 DUP3 PUSH2 0x2E94 JUMP JUMPDEST PUSH1 0x40 DUP3 ADD SWAP1 POP SWAP2 SWAP1 POP JUMP JUMPDEST PUSH1 0x0 PUSH2 0x23E1 PUSH1 0x27 DUP4 PUSH2 0x29D6 JUMP JUMPDEST SWAP2 POP PUSH2 0x23EC DUP3 PUSH2 0x2EE3 JUMP JUMPDEST PUSH1 0x40 DUP3 ADD SWAP1 POP SWAP2 SWAP1 POP JUMP JUMPDEST PUSH1 0x0 PUSH2 0x2404 PUSH1 0x38 DUP4 PUSH2 0x29D6 JUMP JUMPDEST SWAP2 POP PUSH2 0x240F DUP3 PUSH2 0x2F32 JUMP JUMPDEST PUSH1 0x40 DUP3 ADD SWAP1 POP SWAP2 SWAP1 POP JUMP JUMPDEST PUSH1 0x0 PUSH2 0x2427 PUSH1 0x2A DUP4 PUSH2 0x29D6 JUMP JUMPDEST SWAP2 POP PUSH2 0x2432 DUP3 PUSH2 0x2F81 JUMP JUMPDEST PUSH1 0x40 DUP3 ADD SWAP1 POP SWAP2 SWAP1 POP JUMP JUMPDEST PUSH1 0x0 PUSH2 0x244A PUSH1 0x29 DUP4 PUSH2 0x29D6 JUMP JUMPDEST SWAP2 POP PUSH2 0x2455 DUP3 PUSH2 0x2FD0 JUMP JUMPDEST PUSH1 0x40 DUP3 ADD SWAP1 POP SWAP2 SWAP1 POP JUMP JUMPDEST PUSH1 0x0 PUSH2 0x246D PUSH1 0x2E DUP4 PUSH2 0x29D6 JUMP JUMPDEST SWAP2 POP PUSH2 0x2478 DUP3 PUSH2 0x301F JUMP JUMPDEST PUSH1 0x40 DUP3 ADD SWAP1 POP SWAP2 SWAP1 POP JUMP JUMPDEST PUSH1 0x0 PUSH2 0x2490 PUSH1 0x2E DUP4 PUSH2 0x29D6 JUMP JUMPDEST SWAP2 POP PUSH2 0x249B DUP3 PUSH2 0x306E JUMP JUMPDEST PUSH1 0x40 DUP3 ADD SWAP1 POP SWAP2 SWAP1 POP JUMP JUMPDEST PUSH1 0x0 PUSH2 0x24B3 PUSH1 0x20 DUP4 PUSH2 0x29D6 JUMP JUMPDEST SWAP2 POP PUSH2 0x24BE DUP3 PUSH2 0x30BD JUMP JUMPDEST PUSH1 0x20 DUP3 ADD SWAP1 POP SWAP2 SWAP1 POP JUMP JUMPDEST PUSH1 0x0 PUSH2 0x24D6 PUSH1 0x31 DUP4 PUSH2 0x29D6 JUMP JUMPDEST SWAP2 POP PUSH2 0x24E1 DUP3 PUSH2 0x30E6 JUMP JUMPDEST PUSH1 0x40 DUP3 ADD SWAP1 POP SWAP2 SWAP1 POP JUMP JUMPDEST PUSH1 0x0 PUSH2 0x24F9 PUSH1 0x2C DUP4 PUSH2 0x29D6 JUMP JUMPDEST SWAP2 POP PUSH2 0x2504 DUP3 PUSH2 0x3135 JUMP JUMPDEST PUSH1 0x40 DUP3 ADD SWAP1 POP SWAP2 SWAP1 POP JUMP JUMPDEST PUSH1 0x0 PUSH2 0x251C PUSH1 0x2F DUP4 PUSH2 0x29D6 JUMP JUMPDEST SWAP2 POP PUSH2 0x2527 DUP3 PUSH2 0x3184 JUMP JUMPDEST PUSH1 0x40 DUP3 ADD SWAP1 POP SWAP2 SWAP1 POP JUMP JUMPDEST PUSH1 0x0 PUSH2 0x253F PUSH1 0x21 DUP4 PUSH2 0x29D6 JUMP JUMPDEST SWAP2 POP PUSH2 0x254A DUP3 PUSH2 0x31D3 JUMP JUMPDEST PUSH1 0x40 DUP3 ADD SWAP1 POP SWAP2 SWAP1 POP JUMP JUMPDEST PUSH1 0x0 PUSH2 0x2562 PUSH1 0x31 DUP4 PUSH2 0x29D6 JUMP JUMPDEST SWAP2 POP PUSH2 0x256D DUP3 PUSH2 0x3222 JUMP JUMPDEST PUSH1 0x40 DUP3 ADD SWAP1 POP SWAP2 SWAP1 POP JUMP JUMPDEST PUSH1 0x0 PUSH2 0x2585 PUSH1 0x2B DUP4 PUSH2 0x29D6 JUMP JUMPDEST SWAP2 POP PUSH2 0x2590 DUP3 PUSH2 0x3271 JUMP JUMPDEST PUSH1 0x40 DUP3 ADD SWAP1 POP SWAP2 SWAP1 POP JUMP JUMPDEST PUSH2 0x25A4 DUP2 PUSH2 0x2B17 JUMP JUMPDEST DUP3 MSTORE POP POP JUMP JUMPDEST PUSH1 0x0 PUSH2 0x25B6 DUP3 DUP6 PUSH2 0x22AE JUMP JUMPDEST SWAP2 POP PUSH2 0x25C2 DUP3 DUP5 PUSH2 0x22AE JUMP JUMPDEST SWAP2 POP DUP2 SWAP1 POP SWAP4 SWAP3 POP POP POP JUMP JUMPDEST PUSH1 0x0 PUSH1 0x20 DUP3 ADD SWAP1 POP PUSH2 0x25E3 PUSH1 0x0 DUP4 ADD DUP5 PUSH2 0x220F JUMP JUMPDEST SWAP3 SWAP2 POP POP JUMP JUMPDEST PUSH1 0x0 PUSH1 0x80 DUP3 ADD SWAP1 POP PUSH2 0x25FE PUSH1 0x0 DUP4 ADD DUP8 PUSH2 0x220F JUMP JUMPDEST PUSH2 0x260B PUSH1 0x20 DUP4 ADD DUP7 PUSH2 0x220F JUMP JUMPDEST PUSH2 0x2618 PUSH1 0x40 DUP4 ADD DUP6 PUSH2 0x259B JUMP JUMPDEST DUP2 DUP2 SUB PUSH1 0x60 DUP4 ADD MSTORE PUSH2 0x262A DUP2 DUP5 PUSH2 0x222D JUMP JUMPDEST SWAP1 POP SWAP6 SWAP5 POP POP POP POP POP JUMP JUMPDEST PUSH1 0x0 PUSH1 0x20 DUP3 ADD SWAP1 POP PUSH2 0x264A PUSH1 0x0 DUP4 ADD DUP5 PUSH2 0x221E JUMP JUMPDEST SWAP3 SWAP2 POP POP JUMP JUMPDEST PUSH1 0x0 PUSH1 0x20 DUP3 ADD SWAP1 POP PUSH2 0x2665 PUSH1 0x0 DUP4 ADD DUP5 PUSH2 0x2266 JUMP JUMPDEST SWAP3 SWAP2 POP POP JUMP JUMPDEST PUSH1 0x0 PUSH1 0x20 DUP3 ADD SWAP1 POP DUP2 DUP2 SUB PUSH1 0x0 DUP4 ADD MSTORE PUSH2 0x2685 DUP2 DUP5 PUSH2 0x2275 JUMP JUMPDEST SWAP1 POP SWAP3 SWAP2 POP POP JUMP JUMPDEST PUSH1 0x0 PUSH1 0x20 DUP3 ADD SWAP1 POP DUP2 DUP2 SUB PUSH1 0x0 DUP4 ADD MSTORE PUSH2 0x26A6 DUP2 PUSH2 0x22DF JUMP JUMPDEST SWAP1 POP SWAP2 SWAP1 POP JUMP JUMPDEST PUSH1 0x0 PUSH1 0x20 DUP3 ADD SWAP1 POP DUP2 DUP2 SUB PUSH1 0x0 DUP4 ADD MSTORE PUSH2 0x26C6 DUP2 PUSH2 0x2302 JUMP JUMPDEST SWAP1 POP SWAP2 SWAP1 POP JUMP JUMPDEST PUSH1 0x0 PUSH1 0x20 DUP3 ADD SWAP1 POP DUP2 DUP2 SUB PUSH1 0x0 DUP4 ADD MSTORE PUSH2 0x26E6 DUP2 PUSH2 0x2325 JUMP JUMPDEST SWAP1 POP SWAP2 SWAP1 POP JUMP JUMPDEST PUSH1 0x0 PUSH1 0x20 DUP3 ADD SWAP1 POP DUP2 DUP2 SUB PUSH1 0x0 DUP4 ADD MSTORE PUSH2 0x2706 DUP2 PUSH2 0x2348 JUMP JUMPDEST SWAP1 POP SWAP2 SWAP1 POP JUMP JUMPDEST PUSH1 0x0 PUSH1 0x20 DUP3 ADD SWAP1 POP DUP2 DUP2 SUB PUSH1 0x0 DUP4 ADD MSTORE PUSH2 0x2726 DUP2 PUSH2 0x236B JUMP JUMPDEST SWAP1 POP SWAP2 SWAP1 POP JUMP JUMPDEST PUSH1 0x0 PUSH1 0x20 DUP3 ADD SWAP1 POP DUP2 DUP2 SUB PUSH1 0x0 DUP4 ADD MSTORE PUSH2 0x2746 DUP2 PUSH2 0x238E JUMP JUMPDEST SWAP1 POP SWAP2 SWAP1 POP JUMP JUMPDEST PUSH1 0x0 PUSH1 0x20 DUP3 ADD SWAP1 POP DUP2 DUP2 SUB PUSH1 0x0 DUP4 ADD MSTORE PUSH2 0x2766 DUP2 PUSH2 0x23B1 JUMP JUMPDEST SWAP1 POP SWAP2 SWAP1 POP JUMP JUMPDEST PUSH1 0x0 PUSH1 0x20 DUP3 ADD SWAP1 POP DUP2 DUP2 SUB PUSH1 0x0 DUP4 ADD MSTORE PUSH2 0x2786 DUP2 PUSH2 0x23D4 JUMP JUMPDEST SWAP1 POP SWAP2 SWAP1 POP JUMP JUMPDEST PUSH1 0x0 PUSH1 0x20 DUP3 ADD SWAP1 POP DUP2 DUP2 SUB PUSH1 0x0 DUP4 ADD MSTORE PUSH2 0x27A6 DUP2 PUSH2 0x23F7 JUMP JUMPDEST SWAP1 POP SWAP2 SWAP1 POP JUMP JUMPDEST PUSH1 0x0 PUSH1 0x20 DUP3 ADD SWAP1 POP DUP2 DUP2 SUB PUSH1 0x0 DUP4 ADD MSTORE PUSH2 0x27C6 DUP2 PUSH2 0x241A JUMP JUMPDEST SWAP1 POP SWAP2 SWAP1 POP JUMP JUMPDEST PUSH1 0x0 PUSH1 0x20 DUP3 ADD SWAP1 POP DUP2 DUP2 SUB PUSH1 0x0 DUP4 ADD MSTORE PUSH2 0x27E6 DUP2 PUSH2 0x243D JUMP JUMPDEST SWAP1 POP SWAP2 SWAP1 POP JUMP JUMPDEST PUSH1 0x0 PUSH1 0x20 DUP3 ADD SWAP1 POP DUP2 DUP2 SUB PUSH1 0x0 DUP4 ADD MSTORE PUSH2 0x2806 DUP2 PUSH2 0x2460 JUMP JUMPDEST SWAP1 POP SWAP2 SWAP1 POP JUMP JUMPDEST PUSH1 0x0 PUSH1 0x20 DUP3 ADD SWAP1 POP DUP2 DUP2 SUB PUSH1 0x0 DUP4 ADD MSTORE PUSH2 0x2826 DUP2 PUSH2 0x2483 JUMP JUMPDEST SWAP1 POP SWAP2 SWAP1 POP JUMP JUMPDEST PUSH1 0x0 PUSH1 0x20 DUP3 ADD SWAP1 POP DUP2 DUP2 SUB PUSH1 0x0 DUP4 ADD MSTORE PUSH2 0x2846 DUP2 PUSH2 0x24A6 JUMP JUMPDEST SWAP1 POP SWAP2 SWAP1 POP JUMP JUMPDEST PUSH1 0x0 PUSH1 0x20 DUP3 ADD SWAP1 POP DUP2 DUP2 SUB PUSH1 0x0 DUP4 ADD MSTORE PUSH2 0x2866 DUP2 PUSH2 0x24C9 JUMP JUMPDEST SWAP1 POP SWAP2 SWAP1 POP JUMP JUMPDEST PUSH1 0x0 PUSH1 0x20 DUP3 ADD SWAP1 POP DUP2 DUP2 SUB PUSH1 0x0 DUP4 ADD MSTORE PUSH2 0x2886 DUP2 PUSH2 0x24EC JUMP JUMPDEST SWAP1 POP SWAP2 SWAP1 POP JUMP JUMPDEST PUSH1 0x0 PUSH1 0x20 DUP3 ADD SWAP1 POP DUP2 DUP2 SUB PUSH1 0x0 DUP4 ADD MSTORE PUSH2 0x28A6 DUP2 PUSH2 0x250F JUMP JUMPDEST SWAP1 POP SWAP2 SWAP1 POP JUMP JUMPDEST PUSH1 0x0 PUSH1 0x20 DUP3 ADD SWAP1 POP DUP2 DUP2 SUB PUSH1 0x0 DUP4 ADD MSTORE PUSH2 0x28C6 DUP2 PUSH2 0x2532 JUMP JUMPDEST SWAP1 POP SWAP2 SWAP1 POP JUMP JUMPDEST PUSH1 0x0 PUSH1 0x20 DUP3 ADD SWAP1 POP DUP2 DUP2 SUB PUSH1 0x0 DUP4 ADD MSTORE PUSH2 0x28E6 DUP2 PUSH2 0x2555 JUMP JUMPDEST SWAP1 POP SWAP2 SWAP1 POP JUMP JUMPDEST PUSH1 0x0 PUSH1 0x20 DUP3 ADD SWAP1 POP DUP2 DUP2 SUB PUSH1 0x0 DUP4 ADD MSTORE PUSH2 0x2906 DUP2 PUSH2 0x2578 JUMP JUMPDEST SWAP1 POP SWAP2 SWAP1 POP JUMP JUMPDEST PUSH1 0x0 PUSH1 0x20 DUP3 ADD SWAP1 POP PUSH2 0x2922 PUSH1 0x0 DUP4 ADD DUP5 PUSH2 0x259B JUMP JUMPDEST SWAP3 SWAP2 POP POP JUMP JUMPDEST PUSH1 0x0 PUSH2 0x2932 PUSH2 0x2943 JUMP JUMPDEST SWAP1 POP PUSH2 0x293E DUP3 DUP3 PUSH2 0x2BB4 JUMP JUMPDEST SWAP2 SWAP1 POP JUMP JUMPDEST PUSH1 0x0 PUSH1 0x40 MLOAD SWAP1 POP SWAP1 JUMP JUMPDEST PUSH1 0x0 PUSH8 0xFFFFFFFFFFFFFFFF DUP3 GT ISZERO PUSH2 0x2968 JUMPI PUSH2 0x2967 PUSH2 0x2CEC JUMP JUMPDEST JUMPDEST PUSH2 0x2971 DUP3 PUSH2 0x2D1B JUMP JUMPDEST SWAP1 POP PUSH1 0x20 DUP2 ADD SWAP1 POP SWAP2 SWAP1 POP JUMP JUMPDEST PUSH1 0x0 PUSH8 0xFFFFFFFFFFFFFFFF DUP3 GT ISZERO PUSH2 0x2999 JUMPI PUSH2 0x2998 PUSH2 0x2CEC JUMP JUMPDEST JUMPDEST PUSH2 0x29A2 DUP3 PUSH2 0x2D1B JUMP JUMPDEST SWAP1 POP PUSH1 0x20 DUP2 ADD SWAP1 POP SWAP2 SWAP1 POP JUMP JUMPDEST PUSH1 0x0 DUP2 MLOAD SWAP1 POP SWAP2 SWAP1 POP JUMP JUMPDEST PUSH1 0x0 DUP2 MLOAD SWAP1 POP SWAP2 SWAP1 POP JUMP JUMPDEST PUSH1 0x0 DUP3 DUP3 MSTORE PUSH1 0x20 DUP3 ADD SWAP1 POP SWAP3 SWAP2 POP POP JUMP JUMPDEST PUSH1 0x0 DUP3 DUP3 MSTORE PUSH1 0x20 DUP3 ADD SWAP1 POP SWAP3 SWAP2 POP POP JUMP JUMPDEST PUSH1 0x0 DUP2 SWAP1 POP SWAP3 SWAP2 POP POP JUMP JUMPDEST PUSH1 0x0 PUSH2 0x29FD DUP3 PUSH2 0x2B17 JUMP JUMPDEST SWAP2 POP PUSH2 0x2A08 DUP4 PUSH2 0x2B17 JUMP JUMPDEST SWAP3 POP DUP3 PUSH32 0xFFFFFFFFFFFFFFFFFFFFFFFFFFFFFFFFFFFFFFFFFFFFFFFFFFFFFFFFFFFFFFFF SUB DUP3 GT ISZERO PUSH2 0x2A3D JUMPI PUSH2 0x2A3C PUSH2 0x2C5F JUMP JUMPDEST JUMPDEST DUP3 DUP3 ADD SWAP1 POP SWAP3 SWAP2 POP POP JUMP JUMPDEST PUSH1 0x0 PUSH2 0x2A53 DUP3 PUSH2 0x2B17 JUMP JUMPDEST SWAP2 POP PUSH2 0x2A5E DUP4 PUSH2 0x2B17 JUMP JUMPDEST SWAP3 POP DUP3 PUSH2 0x2A6E JUMPI PUSH2 0x2A6D PUSH2 0x2C8E JUMP JUMPDEST JUMPDEST DUP3 DUP3 DIV SWAP1 POP SWAP3 SWAP2 POP POP JUMP JUMPDEST PUSH1 0x0 PUSH2 0x2A84 DUP3 PUSH2 0x2B17 JUMP JUMPDEST SWAP2 POP PUSH2 0x2A8F DUP4 PUSH2 0x2B17 JUMP JUMPDEST SWAP3 POP DUP3 DUP3 LT ISZERO PUSH2 0x2AA2 JUMPI PUSH2 0x2AA1 PUSH2 0x2C5F JUMP JUMPDEST JUMPDEST DUP3 DUP3 SUB SWAP1 POP SWAP3 SWAP2 POP POP JUMP JUMPDEST PUSH1 0x0 PUSH2 0x2AB8 DUP3 PUSH2 0x2AF7 JUMP JUMPDEST SWAP1 POP SWAP2 SWAP1 POP JUMP JUMPDEST PUSH1 0x0 DUP2 ISZERO ISZERO SWAP1 POP SWAP2 SWAP1 POP JUMP JUMPDEST PUSH1 0x0 PUSH32 0xFFFFFFFF00000000000000000000000000000000000000000000000000000000 DUP3 AND SWAP1 POP SWAP2 SWAP1 POP JUMP JUMPDEST PUSH1 0x0 PUSH20 0xFFFFFFFFFFFFFFFFFFFFFFFFFFFFFFFFFFFFFFFF DUP3 AND SWAP1 POP SWAP2 SWAP1 POP JUMP JUMPDEST PUSH1 0x0 DUP2 SWAP1 POP SWAP2 SWAP1 POP JUMP JUMPDEST PUSH1 0x0 PUSH1 0xFF DUP3 AND SWAP1 POP SWAP2 SWAP1 POP JUMP JUMPDEST PUSH1 0x0 PUSH2 0x2B39 DUP3 PUSH2 0x2B21 JUMP JUMPDEST SWAP1 POP SWAP2 SWAP1 POP JUMP JUMPDEST DUP3 DUP2 DUP4 CALLDATACOPY PUSH1 0x0 DUP4 DUP4 ADD MSTORE POP POP POP JUMP JUMPDEST PUSH1 0x0 JUMPDEST DUP4 DUP2 LT ISZERO PUSH2 0x2B6D JUMPI DUP1 DUP3 ADD MLOAD DUP2 DUP5 ADD MSTORE PUSH1 0x20 DUP2 ADD SWAP1 POP PUSH2 0x2B52 JUMP JUMPDEST DUP4 DUP2 GT ISZERO PUSH2 0x2B7C JUMPI PUSH1 0x0 DUP5 DUP5 ADD MSTORE JUMPDEST POP POP POP POP JUMP JUMPDEST PUSH1 0x0 PUSH1 0x2 DUP3 DIV SWAP1 POP PUSH1 0x1 DUP3 AND DUP1 PUSH2 0x2B9A JUMPI PUSH1 0x7F DUP3 AND SWAP2 POP JUMPDEST PUSH1 0x20 DUP3 LT DUP2 EQ ISZERO PUSH2 0x2BAE JUMPI PUSH2 0x2BAD PUSH2 0x2CBD JUMP JUMPDEST JUMPDEST POP SWAP2 SWAP1 POP JUMP JUMPDEST PUSH2 0x2BBD DUP3 PUSH2 0x2D1B JUMP JUMPDEST DUP2 ADD DUP2 DUP2 LT PUSH8 0xFFFFFFFFFFFFFFFF DUP3 GT OR ISZERO PUSH2 0x2BDC JUMPI PUSH2 0x2BDB PUSH2 0x2CEC JUMP JUMPDEST JUMPDEST DUP1 PUSH1 0x40 MSTORE POP POP POP JUMP JUMPDEST PUSH1 0x0 PUSH2 0x2BF0 DUP3 PUSH2 0x2B17 JUMP JUMPDEST SWAP2 POP PUSH32 0xFFFFFFFFFFFFFFFFFFFFFFFFFFFFFFFFFFFFFFFFFFFFFFFFFFFFFFFFFFFFFFFF DUP3 EQ ISZERO PUSH2 0x2C23 JUMPI PUSH2 0x2C22 PUSH2 0x2C5F JUMP JUMPDEST JUMPDEST PUSH1 0x1 DUP3 ADD SWAP1 POP SWAP2 SWAP1 POP JUMP JUMPDEST PUSH1 0x0 PUSH2 0x2C39 DUP3 PUSH2 0x2B17 JUMP JUMPDEST SWAP2 POP PUSH2 0x2C44 DUP4 PUSH2 0x2B17 JUMP JUMPDEST SWAP3 POP DUP3 PUSH2 0x2C54 JUMPI PUSH2 0x2C53 PUSH2 0x2C8E JUMP JUMPDEST JUMPDEST DUP3 DUP3 MOD SWAP1 POP SWAP3 SWAP2 POP POP JUMP JUMPDEST PUSH32 0x4E487B7100000000000000000000000000000000000000000000000000000000 PUSH1 0x0 MSTORE PUSH1 0x11 PUSH1 0x4 MSTORE PUSH1 0x24 PUSH1 0x0 REVERT JUMPDEST PUSH32 0x4E487B7100000000000000000000000000000000000000000000000000000000 PUSH1 0x0 MSTORE PUSH1 0x12 PUSH1 0x4 MSTORE PUSH1 0x24 PUSH1 0x0 REVERT JUMPDEST PUSH32 0x4E487B7100000000000000000000000000000000000000000000000000000000 PUSH1 0x0 MSTORE PUSH1 0x22 PUSH1 0x4 MSTORE PUSH1 0x24 PUSH1 0x0 REVERT JUMPDEST PUSH32 0x4E487B7100000000000000000000000000000000000000000000000000000000 PUSH1 0x0 MSTORE PUSH1 0x41 PUSH1 0x4 MSTORE PUSH1 0x24 PUSH1 0x0 REVERT JUMPDEST PUSH1 0x0 PUSH1 0x1F NOT PUSH1 0x1F DUP4 ADD AND SWAP1 POP SWAP2 SWAP1 POP JUMP JUMPDEST PUSH32 0x4552433732313A207472616E7366657220746F206E6F6E204552433732315265 PUSH1 0x0 DUP3 ADD MSTORE PUSH32 0x63656976657220696D706C656D656E7465720000000000000000000000000000 PUSH1 0x20 DUP3 ADD MSTORE POP JUMP JUMPDEST PUSH32 0x4552433732313A207472616E736665722066726F6D20696E636F727265637420 PUSH1 0x0 DUP3 ADD MSTORE PUSH32 0x6F776E6572000000000000000000000000000000000000000000000000000000 PUSH1 0x20 DUP3 ADD MSTORE POP JUMP JUMPDEST PUSH32 0x4552433732313A20746F6B656E20616C7265616479206D696E74656400000000 PUSH1 0x0 DUP3 ADD MSTORE POP JUMP JUMPDEST PUSH32 0x526F79616C6974792073686F756C64206265206C657373000000000000000000 PUSH1 0x0 DUP3 ADD MSTORE POP JUMP JUMPDEST PUSH32 0x4552433732313A207472616E7366657220746F20746865207A65726F20616464 PUSH1 0x0 DUP3 ADD MSTORE PUSH32 0x7265737300000000000000000000000000000000000000000000000000000000 PUSH1 0x20 DUP3 ADD MSTORE POP JUMP JUMPDEST PUSH32 0x4552433732313A20617070726F766520746F2063616C6C657200000000000000 PUSH1 0x0 DUP3 ADD MSTORE POP JUMP JUMPDEST PUSH32 0x4552433732313A206F70657261746F7220717565727920666F72206E6F6E6578 PUSH1 0x0 DUP3 ADD MSTORE PUSH32 0x697374656E7420746F6B656E0000000000000000000000000000000000000000 PUSH1 0x20 DUP3 ADD MSTORE POP JUMP JUMPDEST PUSH32 0x546F6B656E20636F6E74726163743A20746F20616464726573732063616E2774 PUSH1 0x0 DUP3 ADD MSTORE PUSH32 0x2062652030783000000000000000000000000000000000000000000000000000 PUSH1 0x20 DUP3 ADD MSTORE POP JUMP JUMPDEST PUSH32 0x4552433732313A20617070726F76652063616C6C6572206973206E6F74206F77 PUSH1 0x0 DUP3 ADD MSTORE PUSH32 0x6E6572206E6F7220617070726F76656420666F7220616C6C0000000000000000 PUSH1 0x20 DUP3 ADD MSTORE POP JUMP JUMPDEST PUSH32 0x4552433732313A2062616C616E636520717565727920666F7220746865207A65 PUSH1 0x0 DUP3 ADD MSTORE PUSH32 0x726F206164647265737300000000000000000000000000000000000000000000 PUSH1 0x20 DUP3 ADD MSTORE POP JUMP JUMPDEST PUSH32 0x4552433732313A206F776E657220717565727920666F72206E6F6E6578697374 PUSH1 0x0 DUP3 ADD MSTORE PUSH32 0x656E7420746F6B656E0000000000000000000000000000000000000000000000 PUSH1 0x20 DUP3 ADD MSTORE POP JUMP JUMPDEST PUSH32 0x45524337323155524953746F726167653A2055524920736574206F66206E6F6E PUSH1 0x0 DUP3 ADD MSTORE PUSH32 0x6578697374656E7420746F6B656E000000000000000000000000000000000000 PUSH1 0x20 DUP3 ADD MSTORE POP JUMP JUMPDEST PUSH32 0x496E697469616C697A61626C653A20636F6E747261637420697320616C726561 PUSH1 0x0 DUP3 ADD MSTORE PUSH32 0x647920696E697469616C697A6564000000000000000000000000000000000000 PUSH1 0x20 DUP3 ADD MSTORE POP JUMP JUMPDEST PUSH32 0x4552433732313A206D696E7420746F20746865207A65726F2061646472657373 PUSH1 0x0 DUP3 ADD MSTORE POP JUMP JUMPDEST PUSH32 0x45524337323155524953746F726167653A2055524920717565727920666F7220 PUSH1 0x0 DUP3 ADD MSTORE PUSH32 0x6E6F6E6578697374656E7420746F6B656E000000000000000000000000000000 PUSH1 0x20 DUP3 ADD MSTORE POP JUMP JUMPDEST PUSH32 0x4552433732313A20617070726F76656420717565727920666F72206E6F6E6578 PUSH1 0x0 DUP3 ADD MSTORE PUSH32 0x697374656E7420746F6B656E0000000000000000000000000000000000000000 PUSH1 0x20 DUP3 ADD MSTORE POP JUMP JUMPDEST PUSH32 0x4552433732314D657461646174613A2055524920717565727920666F72206E6F PUSH1 0x0 DUP3 ADD MSTORE PUSH32 0x6E6578697374656E7420746F6B656E0000000000000000000000000000000000 PUSH1 0x20 DUP3 ADD MSTORE POP JUMP JUMPDEST PUSH32 0x4552433732313A20617070726F76616C20746F2063757272656E74206F776E65 PUSH1 0x0 DUP3 ADD MSTORE PUSH32 0x7200000000000000000000000000000000000000000000000000000000000000 PUSH1 0x20 DUP3 ADD MSTORE POP JUMP JUMPDEST PUSH32 0x4552433732313A207472616E736665722063616C6C6572206973206E6F74206F PUSH1 0x0 DUP3 ADD MSTORE PUSH32 0x776E6572206E6F7220617070726F766564000000000000000000000000000000 PUSH1 0x20 DUP3 ADD MSTORE POP JUMP JUMPDEST PUSH32 0x496E697469616C697A61626C653A20636F6E7472616374206973206E6F742069 PUSH1 0x0 DUP3 ADD MSTORE PUSH32 0x6E697469616C697A696E67000000000000000000000000000000000000000000 PUSH1 0x20 DUP3 ADD MSTORE POP JUMP JUMPDEST PUSH2 0x32C9 DUP2 PUSH2 0x2AAD JUMP JUMPDEST DUP2 EQ PUSH2 0x32D4 JUMPI PUSH1 0x0 DUP1 REVERT JUMPDEST POP JUMP JUMPDEST PUSH2 0x32E0 DUP2 PUSH2 0x2ABF JUMP JUMPDEST DUP2 EQ PUSH2 0x32EB JUMPI PUSH1 0x0 DUP1 REVERT JUMPDEST POP JUMP JUMPDEST PUSH2 0x32F7 DUP2 PUSH2 0x2ACB JUMP JUMPDEST DUP2 EQ PUSH2 0x3302 JUMPI PUSH1 0x0 DUP1 REVERT JUMPDEST POP JUMP JUMPDEST PUSH2 0x330E DUP2 PUSH2 0x2B17 JUMP JUMPDEST DUP2 EQ PUSH2 0x3319 JUMPI PUSH1 0x0 DUP1 REVERT JUMPDEST POP JUMP INVALID LOG2 PUSH5 0x6970667358 0x22 SLT KECCAK256 SWAP15 SMOD 0xDE PUSH16 0xB7EC9B2E3F40E2B31673C1C13AC32256 0xE4 CHAINID TIMESTAMP SWAP11 CALLVALUE SGT 0xAB 0x2C PUSH30 0x5AE32B64736F6C6343000804003300000000000000000000000000000000 "
        },
        "methodIdentifiers": {
          "approve(address,uint256)": "095ea7b3",
          "balanceOf(address)": "70a08231",
          "creator(uint256)": "510b5158",
          "getApproved(uint256)": "081812fc",
          "initialize(uint256)": "fe4b84df",
          "isApprovedForAll(address,address)": "e985e9c5",
          "maximumRoyality()": "d98a17ed",
          "mint(address,address,string,uint256)": "c640da3e",
          "name()": "06fdde03",
          "ownerOf(uint256)": "6352211e",
          "royality(uint256)": "ddb2126d",
          "safeTransferFrom(address,address,uint256)": "42842e0e",
          "safeTransferFrom(address,address,uint256,bytes)": "b88d4fde",
          "setApprovalForAll(address,bool)": "a22cb465",
          "supportsInterface(bytes4)": "01ffc9a7",
          "symbol()": "95d89b41",
          "tokenURI(uint256)": "c87b56dd",
          "transferFrom(address,address,uint256)": "23b872dd"
        }
      },
      "storageLayout": {
        "storage": [
          {
            "astId": 6,
            "contract": "contracts/ERC721Token.sol:MyNFT",
            "label": "_initialized",
            "offset": 0,
            "slot": "0",
            "type": "t_uint8"
          },
          {
            "astId": 9,
            "contract": "contracts/ERC721Token.sol:MyNFT",
            "label": "_initializing",
            "offset": 1,
            "slot": "0",
            "type": "t_bool"
          },
          {
            "astId": 1625,
            "contract": "contracts/ERC721Token.sol:MyNFT",
            "label": "__gap",
            "offset": 0,
            "slot": "1",
            "type": "t_array(t_uint256)50_storage"
          },
          {
            "astId": 1872,
            "contract": "contracts/ERC721Token.sol:MyNFT",
            "label": "__gap",
            "offset": 0,
            "slot": "51",
            "type": "t_array(t_uint256)50_storage"
          },
          {
            "astId": 170,
            "contract": "contracts/ERC721Token.sol:MyNFT",
            "label": "_name",
            "offset": 0,
            "slot": "101",
            "type": "t_string_storage"
          },
          {
            "astId": 172,
            "contract": "contracts/ERC721Token.sol:MyNFT",
            "label": "_symbol",
            "offset": 0,
            "slot": "102",
            "type": "t_string_storage"
          },
          {
            "astId": 176,
            "contract": "contracts/ERC721Token.sol:MyNFT",
            "label": "_owners",
            "offset": 0,
            "slot": "103",
            "type": "t_mapping(t_uint256,t_address)"
          },
          {
            "astId": 180,
            "contract": "contracts/ERC721Token.sol:MyNFT",
            "label": "_balances",
            "offset": 0,
            "slot": "104",
            "type": "t_mapping(t_address,t_uint256)"
          },
          {
            "astId": 184,
            "contract": "contracts/ERC721Token.sol:MyNFT",
            "label": "_tokenApprovals",
            "offset": 0,
            "slot": "105",
            "type": "t_mapping(t_uint256,t_address)"
          },
          {
            "astId": 190,
            "contract": "contracts/ERC721Token.sol:MyNFT",
            "label": "_operatorApprovals",
            "offset": 0,
            "slot": "106",
            "type": "t_mapping(t_address,t_mapping(t_address,t_bool))"
          },
          {
            "astId": 1031,
            "contract": "contracts/ERC721Token.sol:MyNFT",
            "label": "__gap",
            "offset": 0,
            "slot": "107",
            "type": "t_array(t_uint256)44_storage"
          },
          {
            "astId": 1194,
            "contract": "contracts/ERC721Token.sol:MyNFT",
            "label": "_tokenURIs",
            "offset": 0,
            "slot": "151",
            "type": "t_mapping(t_uint256,t_string_storage)"
          },
          {
            "astId": 1313,
            "contract": "contracts/ERC721Token.sol:MyNFT",
            "label": "__gap",
            "offset": 0,
            "slot": "152",
            "type": "t_array(t_uint256)49_storage"
          },
          {
            "astId": 1974,
            "contract": "contracts/ERC721Token.sol:MyNFT",
            "label": "_tokenIds",
            "offset": 0,
            "slot": "201",
            "type": "t_struct(Counter)1891_storage"
          },
          {
            "astId": 1978,
            "contract": "contracts/ERC721Token.sol:MyNFT",
            "label": "royality",
            "offset": 0,
            "slot": "202",
            "type": "t_mapping(t_uint256,t_uint256)"
          },
          {
            "astId": 1982,
            "contract": "contracts/ERC721Token.sol:MyNFT",
            "label": "creator",
            "offset": 0,
            "slot": "203",
            "type": "t_mapping(t_uint256,t_address)"
          },
          {
            "astId": 1984,
            "contract": "contracts/ERC721Token.sol:MyNFT",
            "label": "maximumRoyality",
            "offset": 0,
            "slot": "204",
            "type": "t_uint256"
          }
        ],
        "types": {
          "t_address": {
            "encoding": "inplace",
            "label": "address",
            "numberOfBytes": "20"
          },
          "t_array(t_uint256)44_storage": {
            "base": "t_uint256",
            "encoding": "inplace",
            "label": "uint256[44]",
            "numberOfBytes": "1408"
          },
          "t_array(t_uint256)49_storage": {
            "base": "t_uint256",
            "encoding": "inplace",
            "label": "uint256[49]",
            "numberOfBytes": "1568"
          },
          "t_array(t_uint256)50_storage": {
            "base": "t_uint256",
            "encoding": "inplace",
            "label": "uint256[50]",
            "numberOfBytes": "1600"
          },
          "t_bool": {
            "encoding": "inplace",
            "label": "bool",
            "numberOfBytes": "1"
          },
          "t_mapping(t_address,t_bool)": {
            "encoding": "mapping",
            "key": "t_address",
            "label": "mapping(address => bool)",
            "numberOfBytes": "32",
            "value": "t_bool"
          },
          "t_mapping(t_address,t_mapping(t_address,t_bool))": {
            "encoding": "mapping",
            "key": "t_address",
            "label": "mapping(address => mapping(address => bool))",
            "numberOfBytes": "32",
            "value": "t_mapping(t_address,t_bool)"
          },
          "t_mapping(t_address,t_uint256)": {
            "encoding": "mapping",
            "key": "t_address",
            "label": "mapping(address => uint256)",
            "numberOfBytes": "32",
            "value": "t_uint256"
          },
          "t_mapping(t_uint256,t_address)": {
            "encoding": "mapping",
            "key": "t_uint256",
            "label": "mapping(uint256 => address)",
            "numberOfBytes": "32",
            "value": "t_address"
          },
          "t_mapping(t_uint256,t_string_storage)": {
            "encoding": "mapping",
            "key": "t_uint256",
            "label": "mapping(uint256 => string)",
            "numberOfBytes": "32",
            "value": "t_string_storage"
          },
          "t_mapping(t_uint256,t_uint256)": {
            "encoding": "mapping",
            "key": "t_uint256",
            "label": "mapping(uint256 => uint256)",
            "numberOfBytes": "32",
            "value": "t_uint256"
          },
          "t_string_storage": {
            "encoding": "bytes",
            "label": "string",
            "numberOfBytes": "32"
          },
          "t_struct(Counter)1891_storage": {
            "encoding": "inplace",
            "label": "struct Counters.Counter",
            "members": [
              {
                "astId": 1890,
                "contract": "contracts/ERC721Token.sol:MyNFT",
                "label": "_value",
                "offset": 0,
                "slot": "0",
                "type": "t_uint256"
              }
            ],
            "numberOfBytes": "32"
          },
          "t_uint256": {
            "encoding": "inplace",
            "label": "uint256",
            "numberOfBytes": "32"
          },
          "t_uint8": {
            "encoding": "inplace",
            "label": "uint8",
            "numberOfBytes": "1"
          }
        }
      }
    }
  }
}