{
  "_format": "hh-sol-artifact-1",
  "contractName": "Auction",
  "sourceName": "contracts/auction.sol",
  "abi": [
    {
      "anonymous": false,
      "inputs": [
        {
          "indexed": false,
          "internalType": "uint8",
          "name": "version",
          "type": "uint8"
        }
      ],
      "name": "Initialized",
      "type": "event"
    },
    {
      "anonymous": false,
      "inputs": [
        {
          "indexed": true,
          "internalType": "address",
          "name": "previousOwner",
          "type": "address"
        },
        {
          "indexed": true,
          "internalType": "address",
          "name": "newOwner",
          "type": "address"
        }
      ],
      "name": "OwnershipTransferred",
      "type": "event"
    },
    {
      "stateMutability": "payable",
      "type": "fallback"
    },
    {
      "inputs": [],
      "name": "decimalPrecision",
      "outputs": [
        {
          "internalType": "uint256",
          "name": "",
          "type": "uint256"
        }
      ],
      "stateMutability": "view",
      "type": "function"
    },
    {
      "inputs": [
        {
          "internalType": "bytes32",
          "name": "hash",
          "type": "bytes32"
        },
        {
          "internalType": "bytes",
          "name": "_signature",
          "type": "bytes"
        }
      ],
      "name": "getSigner",
      "outputs": [
        {
          "internalType": "address",
          "name": "",
          "type": "address"
        }
      ],
      "stateMutability": "pure",
      "type": "function"
    },
    {
      "inputs": [
        {
          "internalType": "uint256",
          "name": "_platFormFeePercent",
          "type": "uint256"
        }
      ],
      "name": "initialize",
      "outputs": [],
      "stateMutability": "nonpayable",
      "type": "function"
    },
    {
      "inputs": [
        {
          "internalType": "uint256",
          "name": "",
          "type": "uint256"
        }
      ],
      "name": "isNonceProcessed",
      "outputs": [
        {
          "internalType": "bool",
          "name": "",
          "type": "bool"
        }
      ],
      "stateMutability": "view",
      "type": "function"
    },
    {
      "inputs": [
        {
          "components": [
            {
              "internalType": "address",
              "name": "seller",
              "type": "address"
            },
            {
              "internalType": "address",
              "name": "assetAddress",
              "type": "address"
            },
            {
              "internalType": "uint256",
              "name": "tokenId",
              "type": "uint256"
            },
            {
              "internalType": "uint256",
              "name": "amount",
              "type": "uint256"
            },
            {
              "internalType": "address",
              "name": "paymentAssetAddress",
              "type": "address"
            },
            {
              "internalType": "string",
              "name": "URI",
              "type": "string"
            },
            {
              "internalType": "bytes",
              "name": "seller_signature",
              "type": "bytes"
            },
            {
              "internalType": "uint256",
              "name": "royality",
              "type": "uint256"
            },
            {
              "internalType": "uint256",
              "name": "nonce",
              "type": "uint256"
            },
            {
              "internalType": "uint256",
              "name": "startTime",
              "type": "uint256"
            },
            {
              "internalType": "uint256",
              "name": "endTime",
              "type": "uint256"
            },
            {
              "internalType": "uint256",
              "name": "timeDuration",
              "type": "uint256"
            }
          ],
          "internalType": "struct Auction.SellerDetails",
          "name": "sellerDetails",
          "type": "tuple"
        },
        {
          "components": [
            {
              "internalType": "address",
              "name": "bidderAddress",
              "type": "address"
            },
            {
              "internalType": "address",
              "name": "assetAddress",
              "type": "address"
            },
            {
              "internalType": "uint256",
              "name": "tokenId",
              "type": "uint256"
            },
            {
              "internalType": "uint256",
              "name": "amount",
              "type": "uint256"
            },
            {
              "internalType": "address",
              "name": "paymentAssetAddress",
              "type": "address"
            },
            {
              "internalType": "string",
              "name": "URI",
              "type": "string"
            },
            {
              "internalType": "bytes",
              "name": "bidderSignature",
              "type": "bytes"
            },
            {
              "internalType": "uint256",
              "name": "bidTime",
              "type": "uint256"
            }
          ],
          "internalType": "struct Auction.BidderDetails",
          "name": "bidderDetails",
          "type": "tuple"
        }
      ],
      "name": "lazyAuction",
      "outputs": [],
      "stateMutability": "nonpayable",
      "type": "function"
    },
    {
      "inputs": [],
      "name": "owner",
      "outputs": [
        {
          "internalType": "address",
          "name": "",
          "type": "address"
        }
      ],
      "stateMutability": "view",
      "type": "function"
    },
    {
      "inputs": [],
      "name": "platFormFeePercent",
      "outputs": [
        {
          "internalType": "uint256",
          "name": "",
          "type": "uint256"
        }
      ],
      "stateMutability": "view",
      "type": "function"
    },
    {
      "inputs": [],
      "name": "renounceOwnership",
      "outputs": [],
      "stateMutability": "nonpayable",
      "type": "function"
    },
    {
      "inputs": [
        {
          "internalType": "uint256",
          "name": "_newPlatFormFeePercent",
          "type": "uint256"
        }
      ],
      "name": "setPlatFormFeePercent",
      "outputs": [],
      "stateMutability": "nonpayable",
      "type": "function"
    },
    {
      "inputs": [
        {
          "internalType": "address",
          "name": "newOwner",
          "type": "address"
        }
      ],
      "name": "transferOwnership",
      "outputs": [],
      "stateMutability": "nonpayable",
      "type": "function"
    },
    {
      "inputs": [
        {
          "internalType": "address",
          "name": "assetAddress",
          "type": "address"
        },
        {
          "internalType": "address",
          "name": "bidder",
          "type": "address"
        },
        {
          "internalType": "uint256",
          "name": "tokenId",
          "type": "uint256"
        },
        {
          "internalType": "uint256",
          "name": "amount",
          "type": "uint256"
        },
        {
          "internalType": "address",
          "name": "paymentAssetAddress",
          "type": "address"
        },
        {
          "internalType": "string",
          "name": "URI",
          "type": "string"
        },
        {
          "internalType": "bytes",
          "name": "_signature",
          "type": "bytes"
        }
      ],
      "name": "verifyBidderSign",
      "outputs": [
        {
          "internalType": "address",
          "name": "",
          "type": "address"
        }
      ],
      "stateMutability": "pure",
      "type": "function"
    },
    {
      "inputs": [
        {
          "internalType": "address",
          "name": "assetAddress",
          "type": "address"
        },
        {
          "internalType": "address",
          "name": "seller",
          "type": "address"
        },
        {
          "internalType": "uint256",
          "name": "tokenId",
          "type": "uint256"
        },
        {
          "internalType": "uint256",
          "name": "amount",
          "type": "uint256"
        },
        {
          "internalType": "address",
          "name": "paymentAssetAddress",
          "type": "address"
        },
        {
          "internalType": "string",
          "name": "URI",
          "type": "string"
        },
        {
          "internalType": "bytes",
          "name": "_signature",
          "type": "bytes"
        }
      ],
      "name": "verifySellerSign",
      "outputs": [
        {
          "internalType": "address",
          "name": "",
          "type": "address"
        }
      ],
      "stateMutability": "pure",
      "type": "function"
    },
    {
      "stateMutability": "payable",
      "type": "receive"
    }
  ],
  "bytecode": "0x608060405234801561001057600080fd5b5061137d806100206000396000f3fe6080604052600436106100ab5760003560e01c8063c4efa66511610064578063c4efa665146101a4578063ea10257d146101b9578063f15f2356146101b9578063f2fde38b146101d9578063f7b2ec0d146101f9578063fe4b84df14610219576100b2565b80631e5f03a1146100b45780636b3f4b3f146100d4578063715018a614610119578063815a1e4e1461012e5780638439807c146101525780638da5cb5b14610172576100b2565b366100b257005b005b3480156100c057600080fd5b506100b26100cf3660046110b9565b610239565b3480156100e057600080fd5b506101046100ef366004611129565b60656020526000908152604090205460ff1681565b60405190151581526020015b60405180910390f35b34801561012557600080fd5b506100b2610ab9565b34801561013a57600080fd5b5061014460665481565b604051908152602001610110565b34801561015e57600080fd5b506100b261016d366004611129565b606655565b34801561017e57600080fd5b506033546001600160a01b03165b6040516001600160a01b039091168152602001610110565b3480156101b057600080fd5b50610144606481565b3480156101c557600080fd5b5061018c6101d4366004610fa8565b610acd565b3480156101e557600080fd5b506100b26101f4366004610f69565b610b18565b34801561020557600080fd5b5061018c610214366004611074565b610b91565b34801561022557600080fd5b506100b2610234366004611129565b610c51565b61010082013560009081526065602052604090205460ff16156102a35760405162461bcd60e51b815260206004820152601e60248201527f41756374696f6e3a206e6f6e636520616c72656164792070726f63657373000060448201526064015b60405180910390fd5b60006103686102b56020850185610f69565b6102c56040860160208701610f69565b604086013560608701356102df60a0890160808a01610f69565b6102ec60a08a018a611264565b8080601f01602080910402602001604051908101604052809392919081815260200183838082843760009201919091525061032e9250505060c08b018b611264565b8080601f016020809104026020016040519081016040528093929190818152602001838380828437600092019190915250610acd92505050565b90506001600160a01b0381166103816020850185610f69565b6001600160a01b03161461039457600080fd5b61010083013560009081526065602052604090205460ff16156103f95760405162461bcd60e51b815260206004820152601e60248201527f41756374696f6e3a206e6f6e636520616c72656164792070726f636573730000604482015260640161029a565b600061040b6102b56020850185610f69565b90506001600160a01b0382166104246020860186610f69565b6001600160a01b03161461047a5760405162461bcd60e51b815260206004820152601f60248201527f73656c6c6572207369676e20766572696669636174696f6e206661696c656400604482015260640161029a565b600061048c6040860160208701610f69565b90506040850135156106a4576001600160a01b03811663e985e9c56104b46020880188610f69565b6040516001600160e01b031960e084901b1681526001600160a01b03909116600482015230602482015260440160206040518083038186803b1580156104f957600080fd5b505afa15801561050d573d6000803e3d6000fd5b505050506040513d601f19601f820116820180604052508101906105319190611054565b806105bf57506040805163020604bf60e21b815290860135600482015230906001600160a01b0383169063081812fc9060240160206040518083038186803b15801561057c57600080fd5b505afa158015610590573d6000803e3d6000fd5b505050506040513d601f19601f820116820180604052508101906105b49190610f8c565b6001600160a01b0316145b61060b5760405162461bcd60e51b815260206004820152601c60248201527f41756374696f6e3a2061646472657373206e6f7420617070726f766500000000604482015260640161029a565b6001600160a01b0381166323b872dd6106276020880188610f69565b6106346020880188610f69565b604080516001600160e01b031960e086901b1681526001600160a01b0393841660048201529290911660248301528801356044820152606401600060405180830381600087803b15801561068757600080fd5b505af115801561069b573d6000803e3d6000fd5b50505050610745565b6001600160a01b03811663ba7aef436106c06020870187610f69565b6106cd60a0890189611264565b8960e001356040518563ffffffff1660e01b81526004016106f194939291906111d0565b602060405180830381600087803b15801561070b57600080fd5b505af115801561071f573d6000803e3d6000fd5b505050506040513d601f19601f820116820180604052508101906107439190611141565b505b600061075760a0870160808801610f69565b905060608501356001600160a01b0382166370a0823161077a6020890189610f69565b6040516001600160e01b031960e084901b1681526001600160a01b03909116600482015260240160206040518083038186803b1580156107b957600080fd5b505afa1580156107cd573d6000803e3d6000fd5b505050506040513d601f19601f820116820180604052508101906107f19190611141565b101561083f5760405162461bcd60e51b815260206004820152601860248201527f41756374696f6e3a20496e7375666963656e742066756e640000000000000000604482015260640161029a565b604051636eb1769f60e11b81523360048201523060248201526060870135906001600160a01b0383169063dd62ed3e9060440160206040518083038186803b15801561088a57600080fd5b505afa15801561089e573d6000803e3d6000fd5b505050506040513d601f19601f820116820180604052508101906108c29190611141565b101561091c5760405162461bcd60e51b815260206004820152602360248201527f41756374696f6e3a20436865636b2074686520746f6b656e20616c6c6f77616e60448201526231b29760e91b606482015260840161029a565b6000606480606654896060013561093391906112d0565b61093d91906112b0565b61094791906112d0565b90506001600160a01b0382166323b872dd6109656020890189610f69565b6040516001600160e01b031960e084901b1681526001600160a01b03909116600482015230602482015260448101849052606401602060405180830381600087803b1580156109b357600080fd5b505af11580156109c7573d6000803e3d6000fd5b505050506040513d601f19601f820116820180604052508101906109eb9190611054565b5060006109fc8260608a01356112ef565b90506001600160a01b0383166323b872dd610a1a60208a018a610f69565b610a2760208c018c610f69565b6040516001600160e01b031960e085901b1681526001600160a01b0392831660048201529116602482015260448101849052606401602060405180830381600087803b158015610a7657600080fd5b505af1158015610a8a573d6000803e3d6000fd5b505050506040513d601f19601f82011682018060405250810190610aae9190611054565b505050505050505050565b610ac1610d68565b610acb6000610dc2565b565b6000808887858789604051602001610ae9959493929190611159565b604051602081830303815290604052805190602001209050610b0b8184610b91565b9998505050505050505050565b610b20610d68565b6001600160a01b038116610b855760405162461bcd60e51b815260206004820152602660248201527f4f776e61626c653a206e6577206f776e657220697320746865207a65726f206160448201526564647265737360d01b606482015260840161029a565b610b8e81610dc2565b50565b600080600080610ba085610e14565b6040517f19457468657265756d205369676e6564204d6573736167653a0a3332000000006020820152603c81018a90529295509093509150600190605c0160408051601f198184030181528282528051602091820120600084529083018083525260ff841690820152606081018590526080810184905260a0016020604051602081039080840390855afa158015610c3c573d6000803e3d6000fd5b5050604051601f190151979650505050505050565b600054610100900460ff1615808015610c715750600054600160ff909116105b80610c8b5750303b158015610c8b575060005460ff166001145b610cee5760405162461bcd60e51b815260206004820152602e60248201527f496e697469616c697a61626c653a20636f6e747261637420697320616c72656160448201526d191e481a5b9a5d1a585b1a5e995960921b606482015260840161029a565b6000805460ff191660011790558015610d11576000805461ff0019166101001790555b610d19610e88565b60668290558015610d64576000805461ff0019169055604051600181527f7f26b83ff96e1f2b6a682f133852f6798a09c465da95921460cefb38474024989060200160405180910390a15b5050565b6033546001600160a01b03163314610acb5760405162461bcd60e51b815260206004820181905260248201527f4f776e61626c653a2063616c6c6572206973206e6f7420746865206f776e6572604482015260640161029a565b603380546001600160a01b038381166001600160a01b0319831681179093556040519116919082907f8be0079c531659141344cd1fd0a4f28419497f9722a3daafe3b4186f6b6457e090600090a35050565b60008060008351604114610e6a5760405162461bcd60e51b815260206004820152601860248201527f696e76616c6964207369676e6174757265206c656e6774680000000000000000604482015260640161029a565b50505060208101516040820151606090920151909260009190911a90565b600054610100900460ff16610eaf5760405162461bcd60e51b815260040161029a90611219565b610acb600054610100900460ff16610ed95760405162461bcd60e51b815260040161029a90611219565b610acb33610dc2565b600082601f830112610ef2578081fd5b813567ffffffffffffffff80821115610f0d57610f0d61131c565b604051601f8301601f19908116603f01168101908282118183101715610f3557610f3561131c565b81604052838152866020858801011115610f4d578485fd5b8360208701602083013792830160200193909352509392505050565b600060208284031215610f7a578081fd5b8135610f8581611332565b9392505050565b600060208284031215610f9d578081fd5b8151610f8581611332565b600080600080600080600060e0888a031215610fc2578283fd5b8735610fcd81611332565b96506020880135610fdd81611332565b955060408801359450606088013593506080880135610ffb81611332565b925060a088013567ffffffffffffffff80821115611017578384fd5b6110238b838c01610ee2565b935060c08a0135915080821115611038578283fd5b506110458a828b01610ee2565b91505092959891949750929550565b600060208284031215611065578081fd5b81518015158114610f85578182fd5b60008060408385031215611086578182fd5b82359150602083013567ffffffffffffffff8111156110a3578182fd5b6110af85828601610ee2565b9150509250929050565b600080604083850312156110cb578182fd5b823567ffffffffffffffff808211156110e2578384fd5b9084019061018082870312156110f6578384fd5b9092506020840135908082111561110b578283fd5b508301610100818603121561111e578182fd5b809150509250929050565b60006020828403121561113a578081fd5b5035919050565b600060208284031215611152578081fd5b5051919050565b60006bffffffffffffffffffffffff19808860601b1683528660148401528551825b81811015611198576020818901810151603487840101520161117b565b818111156111a95783603483870101525b5060609590951b169190930160348101919091526048810191909152606801949350505050565b6001600160a01b0385168152606060208201819052810183905260008385608084013780608085840101526080601f19601f860116830101905082604083015295945050505050565b6020808252602b908201527f496e697469616c697a61626c653a20636f6e7472616374206973206e6f74206960408201526a6e697469616c697a696e6760a81b606082015260800190565b6000808335601e1984360301811261127a578283fd5b83018035915067ffffffffffffffff821115611294578283fd5b6020019150368190038213156112a957600080fd5b9250929050565b6000826112cb57634e487b7160e01b81526012600452602481fd5b500490565b60008160001904831182151516156112ea576112ea611306565b500290565b60008282101561130157611301611306565b500390565b634e487b7160e01b600052601160045260246000fd5b634e487b7160e01b600052604160045260246000fd5b6001600160a01b0381168114610b8e57600080fdfea2646970667358221220a816d32a5268431fe16b056ec16b74b856ee0bc1f2079fc40d346294caf17c2364736f6c63430008020033",
  "linkReferences": {},
  "deployedLinkReferences": {}
}