{
  "_format": "hh-sol-artifact-1",
  "contractName": "Auction",
  "sourceName": "contracts/auction.sol",
  "abi": [
    {
      "inputs": [
        {
          "components": [
            {
              "internalType": "address",
              "name": "seller",
              "type": "address"
            },
            {
              "internalType": "address",
              "name": "collectionAddress",
              "type": "address"
            },
            {
              "internalType": "address",
              "name": "assetAddress",
              "type": "address"
            },
            {
              "internalType": "address",
              "name": "paymentAssetAddress",
              "type": "address"
            },
            {
              "internalType": "uint256",
              "name": "tokenId",
              "type": "uint256"
            },
            {
              "internalType": "uint256",
              "name": "royality",
              "type": "uint256"
            },
            {
              "internalType": "uint256",
              "name": "amount",
              "type": "uint256"
            },
            {
              "internalType": "bytes",
              "name": "seller_signature",
              "type": "bytes"
            },
            {
              "internalType": "string",
              "name": "URI",
              "type": "string"
            },
            {
              "internalType": "uint256",
              "name": "nonce",
              "type": "uint256"
            },
            {
              "internalType": "uint256",
              "name": "startTime",
              "type": "uint256"
            },
            {
              "internalType": "uint256",
              "name": "endTime",
              "type": "uint256"
            },
            {
              "internalType": "uint256",
              "name": "timeDuration",
              "type": "uint256"
            }
          ],
          "internalType": "struct Auction.SellerDetails",
          "name": "sellerDetails",
          "type": "tuple"
        },
        {
          "components": [
            {
              "internalType": "address",
              "name": "assetAddress",
              "type": "address"
            },
            {
              "internalType": "address",
              "name": "paymentAssetAddress",
              "type": "address"
            },
            {
              "internalType": "address",
              "name": "bidderAddress",
              "type": "address"
            },
            {
              "internalType": "uint256",
              "name": "bidTime",
              "type": "uint256"
            },
            {
              "internalType": "bytes",
              "name": "bidderSignature",
              "type": "bytes"
            },
            {
              "internalType": "uint256",
              "name": "amount",
              "type": "uint256"
            },
            {
              "internalType": "uint256",
              "name": "tokenId",
              "type": "uint256"
            }
          ],
          "internalType": "struct Auction.BidderDetails",
          "name": "bidderDetails",
          "type": "tuple"
        }
      ],
      "name": "lazyAuction",
      "outputs": [],
      "stateMutability": "nonpayable",
      "type": "function"
    }
  ],
  "bytecode": "0x60806040526109c460015534801561001657600080fd5b506114be806100266000396000f3fe608060405234801561001057600080fd5b506004361061002b5760003560e01c80639e663e8414610030575b600080fd5b61004a60048036038101906100459190610ad2565b61004c565b005b6100ea8260000160208101906100629190610ba8565b83608001358460c0013585606001602081019061007f9190610ba8565b8660400160208101906100929190610ba8565b878060e001906100a29190610be4565b8080601f016020809104026020016040519081016040528093929190818152602001838380828437600081840152601f19601f82011690508083019250505050505050610825565b6101888160400160208101906101009190610ba8565b8260c001358360a0013584602001602081019061011d9190610ba8565b8560000160208101906101309190610ba8565b8680608001906101409190610be4565b8080601f016020809104026020016040519081016040528093929190818152602001838380828437600081840152601f19601f820116905080830192505050505050506108d6565b600082604001602081019061019d9190610ba8565b90508260000160208101906101b29190610ba8565b73ffffffffffffffffffffffffffffffffffffffff168173ffffffffffffffffffffffffffffffffffffffff16636352211e85608001356040518263ffffffff1660e01b81526004016102059190610c60565b602060405180830381865afa158015610222573d6000803e3d6000fd5b505050506040513d601f19601f820116820180604052508101906102469190610c90565b73ffffffffffffffffffffffffffffffffffffffff16148061026c575060008360800135115b1561047c578073ffffffffffffffffffffffffffffffffffffffff1663e985e9c58460000160208101906102a09190610ba8565b306040518363ffffffff1660e01b81526004016102be929190610ccc565b602060405180830381865afa1580156102db573d6000803e3d6000fd5b505050506040513d601f19601f820116820180604052508101906102ff9190610d2d565b80156103b357503073ffffffffffffffffffffffffffffffffffffffff168173ffffffffffffffffffffffffffffffffffffffff1663081812fc85608001356040518263ffffffff1660e01b815260040161035a9190610c60565b602060405180830381865afa158015610377573d6000803e3d6000fd5b505050506040513d601f19601f8201168201806040525081019061039b9190610c90565b73ffffffffffffffffffffffffffffffffffffffff16145b6103f2576040517f08c379a00000000000000000000000000000000000000000000000000000000081526004016103e990610db7565b60405180910390fd5b8073ffffffffffffffffffffffffffffffffffffffff166323b872dd8460000160208101906104219190610ba8565b3386608001356040518463ffffffff1660e01b815260040161044593929190610dd7565b600060405180830381600087803b15801561045f57600080fd5b505af1158015610473573d6000803e3d6000fd5b50505050610527565b8073ffffffffffffffffffffffffffffffffffffffff1663c640da3e338560000160208101906104ac9190610ba8565b868061010001906104bd9190610e0e565b8860a001356040518663ffffffff1660e01b81526004016104e2959493929190610ebe565b6020604051808303816000875af1158015610501573d6000803e3d6000fd5b505050506040513d601f19601f820116820180604052508101906105259190610f38565b505b600083606001602081019061053c9190610ba8565b90508260a001358173ffffffffffffffffffffffffffffffffffffffff166370a082318560400160208101906105729190610ba8565b6040518263ffffffff1660e01b815260040161058e9190610f65565b602060405180830381865afa1580156105ab573d6000803e3d6000fd5b505050506040513d601f19601f820116820180604052508101906105cf9190610f38565b1015610610576040517f08c379a000000000000000000000000000000000000000000000000000000000815260040161060790610fcc565b60405180910390fd5b8360c001358173ffffffffffffffffffffffffffffffffffffffff1663dd62ed3e33306040518363ffffffff1660e01b8152600401610650929190610ccc565b602060405180830381865afa15801561066d573d6000803e3d6000fd5b505050506040513d601f19601f820116820180604052508101906106919190610f38565b10156106d2576040517f08c379a00000000000000000000000000000000000000000000000000000000081526004016106c990611038565b60405180910390fd5b60006127106001548660c001356106e99190611087565b6106f39190611110565b90508173ffffffffffffffffffffffffffffffffffffffff166323b872dd3330846040518463ffffffff1660e01b815260040161073293929190610dd7565b6020604051808303816000875af1158015610751573d6000803e3d6000fd5b505050506040513d601f19601f820116820180604052508101906107759190610d2d565b506000818660c001356107889190611141565b90508273ffffffffffffffffffffffffffffffffffffffff166323b872dd338860000160208101906107ba9190610ba8565b846040518463ffffffff1660e01b81526004016107d993929190610dd7565b6020604051808303816000875af11580156107f8573d6000803e3d6000fd5b505050506040513d601f19601f8201168201806040525081019061081c9190610d2d565b50505050505050565b60008286858760405160200161083e94939291906111de565b6040516020818303038152906040528051906020012090506108608183610987565b73ffffffffffffffffffffffffffffffffffffffff168773ffffffffffffffffffffffffffffffffffffffff16146108cd576040517f08c379a00000000000000000000000000000000000000000000000000000000081526004016108c490611278565b60405180910390fd5b50505050505050565b6000828685876040516020016108ef94939291906111de565b6040516020818303038152906040528051906020012090506109118183610987565b73ffffffffffffffffffffffffffffffffffffffff168773ffffffffffffffffffffffffffffffffffffffff161461097e576040517f08c379a0000000000000000000000000000000000000000000000000000000008152600401610975906112e4565b60405180910390fd5b50505050505050565b60008060008061099685610a1c565b9250925092506001866040516020016109af9190611386565b60405160208183030381529060405280519060200120828585604051600081526020016040526040516109e594939291906113d7565b6020604051602081039080840390855afa158015610a07573d6000803e3d6000fd5b50505060206040510351935050505092915050565b60008060006041845114610a65576040517f08c379a0000000000000000000000000000000000000000000000000000000008152600401610a5c90611468565b60405180910390fd5b6020840151925060408401519150606084015160001a90509193909250565b600080fd5b600080fd5b600080fd5b60006101a08284031215610aaa57610aa9610a8e565b5b81905092915050565b600060e08284031215610ac957610ac8610a8e565b5b81905092915050565b60008060408385031215610ae957610ae8610a84565b5b600083013567ffffffffffffffff811115610b0757610b06610a89565b5b610b1385828601610a93565b925050602083013567ffffffffffffffff811115610b3457610b33610a89565b5b610b4085828601610ab3565b9150509250929050565b600073ffffffffffffffffffffffffffffffffffffffff82169050919050565b6000610b7582610b4a565b9050919050565b610b8581610b6a565b8114610b9057600080fd5b50565b600081359050610ba281610b7c565b92915050565b600060208284031215610bbe57610bbd610a84565b5b6000610bcc84828501610b93565b91505092915050565b600080fd5b600080fd5b600080fd5b60008083356001602003843603038112610c0157610c00610bd5565b5b80840192508235915067ffffffffffffffff821115610c2357610c22610bda565b5b602083019250600182023603831315610c3f57610c3e610bdf565b5b509250929050565b6000819050919050565b610c5a81610c47565b82525050565b6000602082019050610c756000830184610c51565b92915050565b600081519050610c8a81610b7c565b92915050565b600060208284031215610ca657610ca5610a84565b5b6000610cb484828501610c7b565b91505092915050565b610cc681610b6a565b82525050565b6000604082019050610ce16000830185610cbd565b610cee6020830184610cbd565b9392505050565b60008115159050919050565b610d0a81610cf5565b8114610d1557600080fd5b50565b600081519050610d2781610d01565b92915050565b600060208284031215610d4357610d42610a84565b5b6000610d5184828501610d18565b91505092915050565b600082825260208201905092915050565b7f61646472657373206e6f7420617070726f766500000000000000000000000000600082015250565b6000610da1601383610d5a565b9150610dac82610d6b565b602082019050919050565b60006020820190508181036000830152610dd081610d94565b9050919050565b6000606082019050610dec6000830186610cbd565b610df96020830185610cbd565b610e066040830184610c51565b949350505050565b60008083356001602003843603038112610e2b57610e2a610bd5565b5b80840192508235915067ffffffffffffffff821115610e4d57610e4c610bda565b5b602083019250600182023603831315610e6957610e68610bdf565b5b509250929050565b82818337600083830152505050565b6000601f19601f8301169050919050565b6000610e9d8385610d5a565b9350610eaa838584610e71565b610eb383610e80565b840190509392505050565b6000608082019050610ed36000830188610cbd565b610ee06020830187610cbd565b8181036040830152610ef3818587610e91565b9050610f026060830184610c51565b9695505050505050565b610f1581610c47565b8114610f2057600080fd5b50565b600081519050610f3281610f0c565b92915050565b600060208284031215610f4e57610f4d610a84565b5b6000610f5c84828501610f23565b91505092915050565b6000602082019050610f7a6000830184610cbd565b92915050565b7f496e7375666963656e742066756e640000000000000000000000000000000000600082015250565b6000610fb6600f83610d5a565b9150610fc182610f80565b602082019050919050565b60006020820190508181036000830152610fe581610fa9565b9050919050565b7f436865636b2074686520746f6b656e20616c6c6f77616e63652e000000000000600082015250565b6000611022601a83610d5a565b915061102d82610fec565b602082019050919050565b6000602082019050818103600083015261105181611015565b9050919050565b7f4e487b7100000000000000000000000000000000000000000000000000000000600052601160045260246000fd5b600061109282610c47565b915061109d83610c47565b9250817fffffffffffffffffffffffffffffffffffffffffffffffffffffffffffffffff04831182151516156110d6576110d5611058565b5b828202905092915050565b7f4e487b7100000000000000000000000000000000000000000000000000000000600052601260045260246000fd5b600061111b82610c47565b915061112683610c47565b925082611136576111356110e1565b5b828204905092915050565b600061114c82610c47565b915061115783610c47565b92508282101561116a57611169611058565b5b828203905092915050565b60008160601b9050919050565b600061118d82611175565b9050919050565b600061119f82611182565b9050919050565b6111b76111b282610b6a565b611194565b82525050565b6000819050919050565b6111d86111d382610c47565b6111bd565b82525050565b60006111ea82876111a6565b6014820191506111fa82866111c7565b60208201915061120a82856111a6565b60148201915061121a82846111c7565b60208201915081905095945050505050565b7f73656c6c6572207369676e20766572696669636174696f6e206661696c656400600082015250565b6000611262601f83610d5a565b915061126d8261122c565b602082019050919050565b6000602082019050818103600083015261129181611255565b9050919050565b7f626964646572207369676e20766572696669636174696f6e206661696c656400600082015250565b60006112ce601f83610d5a565b91506112d982611298565b602082019050919050565b600060208201905081810360008301526112fd816112c1565b9050919050565b600081905092915050565b7f19457468657265756d205369676e6564204d6573736167653a0a333200000000600082015250565b6000611345601c83611304565b91506113508261130f565b601c82019050919050565b6000819050919050565b6000819050919050565b61138061137b8261135b565b611365565b82525050565b600061139182611338565b915061139d828461136f565b60208201915081905092915050565b6113b58161135b565b82525050565b600060ff82169050919050565b6113d1816113bb565b82525050565b60006080820190506113ec60008301876113ac565b6113f960208301866113c8565b61140660408301856113ac565b61141360608301846113ac565b95945050505050565b7f696e76616c6964207369676e6174757265206c656e6774680000000000000000600082015250565b6000611452601883610d5a565b915061145d8261141c565b602082019050919050565b6000602082019050818103600083015261148181611445565b905091905056fea264697066735822122066e95a461a4f8c858ee8bcf92f70b9fc6da139964ffb041f1bb7bfffb44277bd64736f6c634300080c0033",
  "linkReferences": {},
  "deployedLinkReferences": {}
}