{
  "_format": "hh-sol-artifact-1",
  "contractName": "Auction",
  "sourceName": "contracts/Auction.sol",
  "abi": [
    {
      "anonymous": false,
      "inputs": [
        {
          "indexed": false,
          "internalType": "uint8",
          "name": "version",
          "type": "uint8"
        }
      ],
      "name": "Initialized",
      "type": "event"
    },
    {
      "anonymous": false,
      "inputs": [
        {
          "indexed": true,
          "internalType": "address",
          "name": "previousOwner",
          "type": "address"
        },
        {
          "indexed": true,
          "internalType": "address",
          "name": "newOwner",
          "type": "address"
        }
      ],
      "name": "OwnershipTransferred",
      "type": "event"
    },
    {
      "stateMutability": "payable",
      "type": "fallback"
    },
    {
      "inputs": [],
      "name": "decimalPrecision",
      "outputs": [
        {
          "internalType": "uint256",
          "name": "",
          "type": "uint256"
        }
      ],
      "stateMutability": "view",
      "type": "function"
    },
    {
      "inputs": [
        {
          "internalType": "bytes32",
          "name": "hash",
          "type": "bytes32"
        },
        {
          "internalType": "bytes",
          "name": "_signature",
          "type": "bytes"
        }
      ],
      "name": "getSigner",
      "outputs": [
        {
          "internalType": "address",
          "name": "",
          "type": "address"
        }
      ],
      "stateMutability": "pure",
      "type": "function"
    },
    {
      "inputs": [
        {
          "internalType": "uint256",
          "name": "_platFormFeePercent",
          "type": "uint256"
        }
      ],
      "name": "initialize",
      "outputs": [],
      "stateMutability": "nonpayable",
      "type": "function"
    },
    {
      "inputs": [
        {
          "internalType": "uint256",
          "name": "",
          "type": "uint256"
        }
      ],
      "name": "isNonceProcessed",
      "outputs": [
        {
          "internalType": "bool",
          "name": "",
          "type": "bool"
        }
      ],
      "stateMutability": "view",
      "type": "function"
    },
    {
      "inputs": [
        {
          "components": [
            {
              "internalType": "address",
              "name": "seller",
              "type": "address"
            },
            {
              "internalType": "address",
              "name": "assetAddress",
              "type": "address"
            },
            {
              "internalType": "uint256",
              "name": "tokenId",
              "type": "uint256"
            },
            {
              "internalType": "uint256",
              "name": "amount",
              "type": "uint256"
            },
            {
              "internalType": "address",
              "name": "paymentAssetAddress",
              "type": "address"
            },
            {
              "internalType": "string",
              "name": "URI",
              "type": "string"
            },
            {
              "internalType": "bytes",
              "name": "seller_signature",
              "type": "bytes"
            },
            {
              "internalType": "uint256",
              "name": "royality",
              "type": "uint256"
            },
            {
              "internalType": "uint256",
              "name": "nonce",
              "type": "uint256"
            },
            {
              "internalType": "uint256",
              "name": "startTime",
              "type": "uint256"
            },
            {
              "internalType": "uint256",
              "name": "endTime",
              "type": "uint256"
            },
            {
              "internalType": "uint256",
              "name": "timeDuration",
              "type": "uint256"
            }
          ],
          "internalType": "struct Auction.SellerDetails",
          "name": "sellerDetails",
          "type": "tuple"
        },
        {
          "components": [
            {
              "internalType": "address",
              "name": "bidderAddress",
              "type": "address"
            },
            {
              "internalType": "address",
              "name": "assetAddress",
              "type": "address"
            },
            {
              "internalType": "uint256",
              "name": "tokenId",
              "type": "uint256"
            },
            {
              "internalType": "uint256",
              "name": "amount",
              "type": "uint256"
            },
            {
              "internalType": "address",
              "name": "paymentAssetAddress",
              "type": "address"
            },
            {
              "internalType": "string",
              "name": "URI",
              "type": "string"
            },
            {
              "internalType": "bytes",
              "name": "bidderSignature",
              "type": "bytes"
            },
            {
              "internalType": "uint256",
              "name": "bidTime",
              "type": "uint256"
            }
          ],
          "internalType": "struct Auction.BidderDetails",
          "name": "bidderDetails",
          "type": "tuple"
        }
      ],
      "name": "lazyAuction",
      "outputs": [],
      "stateMutability": "nonpayable",
      "type": "function"
    },
    {
      "inputs": [],
      "name": "owner",
      "outputs": [
        {
          "internalType": "address",
          "name": "",
          "type": "address"
        }
      ],
      "stateMutability": "view",
      "type": "function"
    },
    {
      "inputs": [],
      "name": "platFormFeePercent",
      "outputs": [
        {
          "internalType": "uint256",
          "name": "",
          "type": "uint256"
        }
      ],
      "stateMutability": "view",
      "type": "function"
    },
    {
      "inputs": [],
      "name": "renounceOwnership",
      "outputs": [],
      "stateMutability": "nonpayable",
      "type": "function"
    },
    {
      "inputs": [
        {
          "internalType": "uint256",
          "name": "_newPlatFormFeePercent",
          "type": "uint256"
        }
      ],
      "name": "setPlatFormFeePercent",
      "outputs": [],
      "stateMutability": "nonpayable",
      "type": "function"
    },
    {
      "inputs": [
        {
          "internalType": "address",
          "name": "newOwner",
          "type": "address"
        }
      ],
      "name": "transferOwnership",
      "outputs": [],
      "stateMutability": "nonpayable",
      "type": "function"
    },
    {
      "inputs": [
        {
          "internalType": "address",
          "name": "assetAddress",
          "type": "address"
        },
        {
          "internalType": "address",
          "name": "bidder",
          "type": "address"
        },
        {
          "internalType": "uint256",
          "name": "tokenId",
          "type": "uint256"
        },
        {
          "internalType": "uint256",
          "name": "amount",
          "type": "uint256"
        },
        {
          "internalType": "address",
          "name": "paymentAssetAddress",
          "type": "address"
        },
        {
          "internalType": "string",
          "name": "URI",
          "type": "string"
        },
        {
          "internalType": "bytes",
          "name": "_signature",
          "type": "bytes"
        }
      ],
      "name": "verifyBidderSign",
      "outputs": [
        {
          "internalType": "address",
          "name": "",
          "type": "address"
        }
      ],
      "stateMutability": "pure",
      "type": "function"
    },
    {
      "inputs": [
        {
          "internalType": "address",
          "name": "assetAddress",
          "type": "address"
        },
        {
          "internalType": "address",
          "name": "seller",
          "type": "address"
        },
        {
          "internalType": "uint256",
          "name": "tokenId",
          "type": "uint256"
        },
        {
          "internalType": "uint256",
          "name": "amount",
          "type": "uint256"
        },
        {
          "internalType": "address",
          "name": "paymentAssetAddress",
          "type": "address"
        },
        {
          "internalType": "string",
          "name": "URI",
          "type": "string"
        },
        {
          "internalType": "bytes",
          "name": "_signature",
          "type": "bytes"
        }
      ],
      "name": "verifySellerSign",
      "outputs": [
        {
          "internalType": "address",
          "name": "",
          "type": "address"
        }
      ],
      "stateMutability": "pure",
      "type": "function"
    },
    {
      "stateMutability": "payable",
      "type": "receive"
    }
  ],
  "bytecode": "0x608060405234801561001057600080fd5b50612364806100206000396000f3fe6080604052600436106100ab5760003560e01c8063c4efa66511610064578063c4efa665146101b0578063ea10257d146101db578063f15f235614610218578063f2fde38b14610255578063f7b2ec0d1461027e578063fe4b84df146102bb576100b2565b80631e5f03a1146100b45780636b3f4b3f146100dd578063715018a61461011a578063815a1e4e146101315780638439807c1461015c5780638da5cb5b14610185576100b2565b366100b257005b005b3480156100c057600080fd5b506100db60048036038101906100d691906112cd565b6102e4565b005b3480156100e957600080fd5b5061010460048036038101906100ff919061137b565b610c7a565b60405161011191906113c3565b60405180910390f35b34801561012657600080fd5b5061012f610c9a565b005b34801561013d57600080fd5b50610146610cae565b60405161015391906113ed565b60405180910390f35b34801561016857600080fd5b50610183600480360381019061017e919061137b565b610cb4565b005b34801561019157600080fd5b5061019a610cbe565b6040516101a79190611449565b60405180910390f35b3480156101bc57600080fd5b506101c5610ce8565b6040516101d291906113ed565b60405180910390f35b3480156101e757600080fd5b5061020260048036038101906101fd9190611677565b610ced565b60405161020f9190611449565b60405180910390f35b34801561022457600080fd5b5061023f600480360381019061023a9190611677565b610d39565b60405161024c9190611449565b60405180910390f35b34801561026157600080fd5b5061027c60048036038101906102779190611751565b610d85565b005b34801561028a57600080fd5b506102a560048036038101906102a091906117b4565b610e08565b6040516102b29190611449565b60405180910390f35b3480156102c757600080fd5b506102e260048036038101906102dd919061137b565b610e9d565b005b60656000836101000135815260200190815260200160002060009054906101000a900460ff161561034a576040517f08c379a00000000000000000000000000000000000000000000000000000000081526004016103419061186d565b60405180910390fd5b600061043d8360000160208101906103629190611751565b8460200160208101906103759190611751565b856040013586606001358760800160208101906103929190611751565b888060a001906103a2919061189c565b8080601f016020809104026020016040519081016040528093929190818152602001838380828437600081840152601f19601f82011690508083019250505050505050898060c001906103f591906118ff565b8080601f016020809104026020016040519081016040528093929190818152602001838380828437600081840152601f19601f82011690508083019250505050505050610d39565b90508073ffffffffffffffffffffffffffffffffffffffff168360000160208101906104699190611751565b73ffffffffffffffffffffffffffffffffffffffff161461048957600080fd5b60656000846101000135815260200190815260200160002060009054906101000a900460ff16156104ef576040517f08c379a00000000000000000000000000000000000000000000000000000000081526004016104e69061186d565b60405180910390fd5b60006105e28360000160208101906105079190611751565b84602001602081019061051a9190611751565b856040013586606001358760800160208101906105379190611751565b888060a00190610547919061189c565b8080601f016020809104026020016040519081016040528093929190818152602001838380828437600081840152601f19601f82011690508083019250505050505050898060c0019061059a91906118ff565b8080601f016020809104026020016040519081016040528093929190818152602001838380828437600081840152601f19601f82011690508083019250505050505050610ced565b90508173ffffffffffffffffffffffffffffffffffffffff1684600001602081019061060e9190611751565b73ffffffffffffffffffffffffffffffffffffffff1614610664576040517f08c379a000000000000000000000000000000000000000000000000000000000815260040161065b906119ae565b60405180910390fd5b60008460200160208101906106799190611751565b90506000856040013511156108a4578073ffffffffffffffffffffffffffffffffffffffff1663e985e9c58660000160208101906106b79190611751565b306040518363ffffffff1660e01b81526004016106d59291906119ce565b602060405180830381865afa1580156106f2573d6000803e3d6000fd5b505050506040513d601f19601f820116820180604052508101906107169190611a23565b806107c957503073ffffffffffffffffffffffffffffffffffffffff168173ffffffffffffffffffffffffffffffffffffffff1663081812fc87604001356040518263ffffffff1660e01b815260040161077091906113ed565b602060405180830381865afa15801561078d573d6000803e3d6000fd5b505050506040513d601f19601f820116820180604052508101906107b19190611a65565b73ffffffffffffffffffffffffffffffffffffffff16145b610808576040517f08c379a00000000000000000000000000000000000000000000000000000000081526004016107ff90611ade565b60405180910390fd5b8073ffffffffffffffffffffffffffffffffffffffff166323b872dd8660000160208101906108379190611751565b86600001602081019061084a9190611751565b88604001356040518463ffffffff1660e01b815260040161086d93929190611afe565b600060405180830381600087803b15801561088757600080fd5b505af115801561089b573d6000803e3d6000fd5b5050505061094c565b8073ffffffffffffffffffffffffffffffffffffffff1663ba7aef438560000160208101906108d39190611751565b878060a001906108e3919061189c565b8960e001356040518563ffffffff1660e01b81526004016109079493929190611b62565b6020604051808303816000875af1158015610926573d6000803e3d6000fd5b505050506040513d601f19601f8201168201806040525081019061094a9190611bb7565b505b60008560800160208101906109619190611751565b905084606001358173ffffffffffffffffffffffffffffffffffffffff166370a082318760000160208101906109979190611751565b6040518263ffffffff1660e01b81526004016109b39190611449565b602060405180830381865afa1580156109d0573d6000803e3d6000fd5b505050506040513d601f19601f820116820180604052508101906109f49190611bb7565b1015610a35576040517f08c379a0000000000000000000000000000000000000000000000000000000008152600401610a2c90611c30565b60405180910390fd5b85606001358173ffffffffffffffffffffffffffffffffffffffff1663dd62ed3e33306040518363ffffffff1660e01b8152600401610a759291906119ce565b602060405180830381865afa158015610a92573d6000803e3d6000fd5b505050506040513d601f19601f82011682018060405250810190610ab69190611bb7565b1015610af7576040517f08c379a0000000000000000000000000000000000000000000000000000000008152600401610aee90611cc2565b60405180910390fd5b60006064806066548960600135610b0e9190611d11565b610b189190611d9a565b610b229190611d11565b90508173ffffffffffffffffffffffffffffffffffffffff166323b872dd876000016020810190610b539190611751565b30846040518463ffffffff1660e01b8152600401610b7393929190611afe565b6020604051808303816000875af1158015610b92573d6000803e3d6000fd5b505050506040513d601f19601f82011682018060405250810190610bb69190611a23565b506000818860600135610bc99190611dcb565b90508273ffffffffffffffffffffffffffffffffffffffff166323b872dd886000016020810190610bfa9190611751565b8a6000016020810190610c0d9190611751565b846040518463ffffffff1660e01b8152600401610c2c93929190611afe565b6020604051808303816000875af1158015610c4b573d6000803e3d6000fd5b505050506040513d601f19601f82011682018060405250810190610c6f9190611a23565b505050505050505050565b60656020528060005260406000206000915054906101000a900460ff1681565b610ca2610fe3565b610cac6000611061565b565b60665481565b8060668190555050565b6000603360009054906101000a900473ffffffffffffffffffffffffffffffffffffffff16905090565b606481565b6000808887858789604051602001610d09959493929190611ee2565b604051602081830303815290604052805190602001209050610d2b8184610e08565b915050979650505050505050565b6000808887858789604051602001610d55959493929190611ee2565b604051602081830303815290604052805190602001209050610d778184610e08565b915050979650505050505050565b610d8d610fe3565b600073ffffffffffffffffffffffffffffffffffffffff168173ffffffffffffffffffffffffffffffffffffffff1603610dfc576040517f08c379a0000000000000000000000000000000000000000000000000000000008152600401610df390611faf565b60405180910390fd5b610e0581611061565b50565b600080600080610e1785611127565b925092509250600186604051602001610e30919061203c565b6040516020818303038152906040528051906020012082858560405160008152602001604052604051610e66949392919061208d565b6020604051602081039080840390855afa158015610e88573d6000803e3d6000fd5b50505060206040510351935050505092915050565b60008060019054906101000a900460ff16159050808015610ece5750600160008054906101000a900460ff1660ff16105b80610efb5750610edd3061118f565b158015610efa5750600160008054906101000a900460ff1660ff16145b5b610f3a576040517f08c379a0000000000000000000000000000000000000000000000000000000008152600401610f3190612144565b60405180910390fd5b60016000806101000a81548160ff021916908360ff1602179055508015610f77576001600060016101000a81548160ff0219169083151502179055505b610f7f6111b2565b816066819055508015610fdf5760008060016101000a81548160ff0219169083151502179055507f7f26b83ff96e1f2b6a682f133852f6798a09c465da95921460cefb38474024986001604051610fd691906121a9565b60405180910390a15b5050565b610feb61120b565b73ffffffffffffffffffffffffffffffffffffffff16611009610cbe565b73ffffffffffffffffffffffffffffffffffffffff161461105f576040517f08c379a000000000000000000000000000000000000000000000000000000000815260040161105690612210565b60405180910390fd5b565b6000603360009054906101000a900473ffffffffffffffffffffffffffffffffffffffff16905081603360006101000a81548173ffffffffffffffffffffffffffffffffffffffff021916908373ffffffffffffffffffffffffffffffffffffffff1602179055508173ffffffffffffffffffffffffffffffffffffffff168173ffffffffffffffffffffffffffffffffffffffff167f8be0079c531659141344cd1fd0a4f28419497f9722a3daafe3b4186f6b6457e060405160405180910390a35050565b60008060006041845114611170576040517f08c379a00000000000000000000000000000000000000000000000000000000081526004016111679061227c565b60405180910390fd5b6020840151925060408401519150606084015160001a90509193909250565b6000808273ffffffffffffffffffffffffffffffffffffffff163b119050919050565b600060019054906101000a900460ff16611201576040517f08c379a00000000000000000000000000000000000000000000000000000000081526004016111f89061230e565b60405180910390fd5b611209611213565b565b600033905090565b600060019054906101000a900460ff16611262576040517f08c379a00000000000000000000000000000000000000000000000000000000081526004016112599061230e565b60405180910390fd5b61127261126d61120b565b611061565b565b6000604051905090565b600080fd5b600080fd5b600080fd5b600061018082840312156112a4576112a3611288565b5b81905092915050565b600061010082840312156112c4576112c3611288565b5b81905092915050565b600080604083850312156112e4576112e361127e565b5b600083013567ffffffffffffffff81111561130257611301611283565b5b61130e8582860161128d565b925050602083013567ffffffffffffffff81111561132f5761132e611283565b5b61133b858286016112ad565b9150509250929050565b6000819050919050565b61135881611345565b811461136357600080fd5b50565b6000813590506113758161134f565b92915050565b6000602082840312156113915761139061127e565b5b600061139f84828501611366565b91505092915050565b60008115159050919050565b6113bd816113a8565b82525050565b60006020820190506113d860008301846113b4565b92915050565b6113e781611345565b82525050565b600060208201905061140260008301846113de565b92915050565b600073ffffffffffffffffffffffffffffffffffffffff82169050919050565b600061143382611408565b9050919050565b61144381611428565b82525050565b600060208201905061145e600083018461143a565b92915050565b61146d81611428565b811461147857600080fd5b50565b60008135905061148a81611464565b92915050565b600080fd5b600080fd5b6000601f19601f8301169050919050565b7f4e487b7100000000000000000000000000000000000000000000000000000000600052604160045260246000fd5b6114e38261149a565b810181811067ffffffffffffffff82111715611502576115016114ab565b5b80604052505050565b6000611515611274565b905061152182826114da565b919050565b600067ffffffffffffffff821115611541576115406114ab565b5b61154a8261149a565b9050602081019050919050565b82818337600083830152505050565b600061157961157484611526565b61150b565b90508281526020810184848401111561159557611594611495565b5b6115a0848285611557565b509392505050565b600082601f8301126115bd576115bc611490565b5b81356115cd848260208601611566565b91505092915050565b600067ffffffffffffffff8211156115f1576115f06114ab565b5b6115fa8261149a565b9050602081019050919050565b600061161a611615846115d6565b61150b565b90508281526020810184848401111561163657611635611495565b5b611641848285611557565b509392505050565b600082601f83011261165e5761165d611490565b5b813561166e848260208601611607565b91505092915050565b600080600080600080600060e0888a0312156116965761169561127e565b5b60006116a48a828b0161147b565b97505060206116b58a828b0161147b565b96505060406116c68a828b01611366565b95505060606116d78a828b01611366565b94505060806116e88a828b0161147b565b93505060a088013567ffffffffffffffff81111561170957611708611283565b5b6117158a828b016115a8565b92505060c088013567ffffffffffffffff81111561173657611735611283565b5b6117428a828b01611649565b91505092959891949750929550565b6000602082840312156117675761176661127e565b5b60006117758482850161147b565b91505092915050565b6000819050919050565b6117918161177e565b811461179c57600080fd5b50565b6000813590506117ae81611788565b92915050565b600080604083850312156117cb576117ca61127e565b5b60006117d98582860161179f565b925050602083013567ffffffffffffffff8111156117fa576117f9611283565b5b61180685828601611649565b9150509250929050565b600082825260208201905092915050565b7f41756374696f6e3a206e6f6e636520616c72656164792070726f636573730000600082015250565b6000611857601e83611810565b915061186282611821565b602082019050919050565b600060208201905081810360008301526118868161184a565b9050919050565b600080fd5b600080fd5b600080fd5b600080833560016020038436030381126118b9576118b861188d565b5b80840192508235915067ffffffffffffffff8211156118db576118da611892565b5b6020830192506001820236038313156118f7576118f6611897565b5b509250929050565b6000808335600160200384360303811261191c5761191b61188d565b5b80840192508235915067ffffffffffffffff82111561193e5761193d611892565b5b60208301925060018202360383131561195a57611959611897565b5b509250929050565b7f73656c6c6572207369676e20766572696669636174696f6e206661696c656400600082015250565b6000611998601f83611810565b91506119a382611962565b602082019050919050565b600060208201905081810360008301526119c78161198b565b9050919050565b60006040820190506119e3600083018561143a565b6119f0602083018461143a565b9392505050565b611a00816113a8565b8114611a0b57600080fd5b50565b600081519050611a1d816119f7565b92915050565b600060208284031215611a3957611a3861127e565b5b6000611a4784828501611a0e565b91505092915050565b600081519050611a5f81611464565b92915050565b600060208284031215611a7b57611a7a61127e565b5b6000611a8984828501611a50565b91505092915050565b7f41756374696f6e3a2061646472657373206e6f7420617070726f766500000000600082015250565b6000611ac8601c83611810565b9150611ad382611a92565b602082019050919050565b60006020820190508181036000830152611af781611abb565b9050919050565b6000606082019050611b13600083018661143a565b611b20602083018561143a565b611b2d60408301846113de565b949350505050565b6000611b418385611810565b9350611b4e838584611557565b611b578361149a565b840190509392505050565b6000606082019050611b77600083018761143a565b8181036020830152611b8a818587611b35565b9050611b9960408301846113de565b95945050505050565b600081519050611bb18161134f565b92915050565b600060208284031215611bcd57611bcc61127e565b5b6000611bdb84828501611ba2565b91505092915050565b7f41756374696f6e3a20496e7375666963656e742066756e640000000000000000600082015250565b6000611c1a601883611810565b9150611c2582611be4565b602082019050919050565b60006020820190508181036000830152611c4981611c0d565b9050919050565b7f41756374696f6e3a20436865636b2074686520746f6b656e20616c6c6f77616e60008201527f63652e0000000000000000000000000000000000000000000000000000000000602082015250565b6000611cac602383611810565b9150611cb782611c50565b604082019050919050565b60006020820190508181036000830152611cdb81611c9f565b9050919050565b7f4e487b7100000000000000000000000000000000000000000000000000000000600052601160045260246000fd5b6000611d1c82611345565b9150611d2783611345565b9250817fffffffffffffffffffffffffffffffffffffffffffffffffffffffffffffffff0483118215151615611d6057611d5f611ce2565b5b828202905092915050565b7f4e487b7100000000000000000000000000000000000000000000000000000000600052601260045260246000fd5b6000611da582611345565b9150611db083611345565b925082611dc057611dbf611d6b565b5b828204905092915050565b6000611dd682611345565b9150611de183611345565b925082821015611df457611df3611ce2565b5b828203905092915050565b60008160601b9050919050565b6000611e1782611dff565b9050919050565b6000611e2982611e0c565b9050919050565b611e41611e3c82611428565b611e1e565b82525050565b6000819050919050565b611e62611e5d82611345565b611e47565b82525050565b600081519050919050565b600081905092915050565b60005b83811015611e9c578082015181840152602081019050611e81565b83811115611eab576000848401525b50505050565b6000611ebc82611e68565b611ec68185611e73565b9350611ed6818560208601611e7e565b80840191505092915050565b6000611eee8288611e30565b601482019150611efe8287611e51565b602082019150611f0e8286611eb1565b9150611f1a8285611e30565b601482019150611f2a8284611e51565b6020820191508190509695505050505050565b7f4f776e61626c653a206e6577206f776e657220697320746865207a65726f206160008201527f6464726573730000000000000000000000000000000000000000000000000000602082015250565b6000611f99602683611810565b9150611fa482611f3d565b604082019050919050565b60006020820190508181036000830152611fc881611f8c565b9050919050565b7f19457468657265756d205369676e6564204d6573736167653a0a333200000000600082015250565b6000612005601c83611e73565b915061201082611fcf565b601c82019050919050565b6000819050919050565b6120366120318261177e565b61201b565b82525050565b600061204782611ff8565b91506120538284612025565b60208201915081905092915050565b61206b8161177e565b82525050565b600060ff82169050919050565b61208781612071565b82525050565b60006080820190506120a26000830187612062565b6120af602083018661207e565b6120bc6040830185612062565b6120c96060830184612062565b95945050505050565b7f496e697469616c697a61626c653a20636f6e747261637420697320616c72656160008201527f647920696e697469616c697a6564000000000000000000000000000000000000602082015250565b600061212e602e83611810565b9150612139826120d2565b604082019050919050565b6000602082019050818103600083015261215d81612121565b9050919050565b6000819050919050565b6000819050919050565b600061219361218e61218984612164565b61216e565b612071565b9050919050565b6121a381612178565b82525050565b60006020820190506121be600083018461219a565b92915050565b7f4f776e61626c653a2063616c6c6572206973206e6f7420746865206f776e6572600082015250565b60006121fa602083611810565b9150612205826121c4565b602082019050919050565b60006020820190508181036000830152612229816121ed565b9050919050565b7f696e76616c6964207369676e6174757265206c656e6774680000000000000000600082015250565b6000612266601883611810565b915061227182612230565b602082019050919050565b6000602082019050818103600083015261229581612259565b9050919050565b7f496e697469616c697a61626c653a20636f6e7472616374206973206e6f74206960008201527f6e697469616c697a696e67000000000000000000000000000000000000000000602082015250565b60006122f8602b83611810565b91506123038261229c565b604082019050919050565b60006020820190508181036000830152612327816122eb565b905091905056fea26469706673582212203b9e0a9dd6523d07c751f284ac95b7942e8a78063913100291ca35dee72c7f1e64736f6c634300080e0033",
  "linkReferences": {},
  "deployedLinkReferences": {}
}