{
  "_format": "hh-sol-artifact-1",
  "contractName": "Auction",
  "sourceName": "contracts/Auction.sol",
  "abi": [
    {
      "anonymous": false,
      "inputs": [
        {
          "indexed": false,
          "internalType": "uint8",
          "name": "version",
          "type": "uint8"
        }
      ],
      "name": "Initialized",
      "type": "event"
    },
    {
      "anonymous": false,
      "inputs": [
        {
          "indexed": true,
          "internalType": "address",
          "name": "previousOwner",
          "type": "address"
        },
        {
          "indexed": true,
          "internalType": "address",
          "name": "newOwner",
          "type": "address"
        }
      ],
      "name": "OwnershipTransferred",
      "type": "event"
    },
    {
      "anonymous": false,
      "inputs": [
        {
          "indexed": false,
          "internalType": "uint256",
          "name": "tokenId",
          "type": "uint256"
        },
        {
          "indexed": false,
          "internalType": "address",
          "name": "assetAddress",
          "type": "address"
        },
        {
          "indexed": false,
          "internalType": "uint256",
          "name": "startTime",
          "type": "uint256"
        },
        {
          "indexed": false,
          "internalType": "uint256",
          "name": "amount",
          "type": "uint256"
        },
        {
          "indexed": false,
          "internalType": "address",
          "name": "winner",
          "type": "address"
        },
        {
          "indexed": false,
          "internalType": "address",
          "name": "seller",
          "type": "address"
        },
        {
          "indexed": false,
          "internalType": "uint256",
          "name": "endTime",
          "type": "uint256"
        }
      ],
      "name": "lazy_Auction",
      "type": "event"
    },
    {
      "stateMutability": "payable",
      "type": "fallback"
    },
    {
      "inputs": [],
      "name": "decimalPrecision",
      "outputs": [
        {
          "internalType": "uint256",
          "name": "",
          "type": "uint256"
        }
      ],
      "stateMutability": "view",
      "type": "function"
    },
    {
      "inputs": [
        {
          "internalType": "bytes32",
          "name": "hash",
          "type": "bytes32"
        },
        {
          "internalType": "bytes",
          "name": "_signature",
          "type": "bytes"
        }
      ],
      "name": "getSigner",
      "outputs": [
        {
          "internalType": "address",
          "name": "",
          "type": "address"
        }
      ],
      "stateMutability": "pure",
      "type": "function"
    },
    {
      "inputs": [],
      "name": "initialize",
      "outputs": [],
      "stateMutability": "nonpayable",
      "type": "function"
    },
    {
      "inputs": [
        {
          "internalType": "uint256",
          "name": "",
          "type": "uint256"
        }
      ],
      "name": "isNonceProcessed",
      "outputs": [
        {
          "internalType": "bool",
          "name": "",
          "type": "bool"
        }
      ],
      "stateMutability": "view",
      "type": "function"
    },
    {
      "inputs": [
        {
          "components": [
            {
              "internalType": "address",
              "name": "seller",
              "type": "address"
            },
            {
              "internalType": "address",
              "name": "assetAddress",
              "type": "address"
            },
            {
              "internalType": "uint256",
              "name": "tokenId",
              "type": "uint256"
            },
            {
              "internalType": "uint256",
              "name": "amount",
              "type": "uint256"
            },
            {
              "internalType": "address",
              "name": "paymentAssetAddress",
              "type": "address"
            },
            {
              "internalType": "string",
              "name": "URI",
              "type": "string"
            },
            {
              "internalType": "bytes",
              "name": "seller_signature",
              "type": "bytes"
            },
            {
              "internalType": "uint96",
              "name": "royality",
              "type": "uint96"
            },
            {
              "internalType": "uint256",
              "name": "nonce",
              "type": "uint256"
            },
            {
              "internalType": "uint256",
              "name": "startTime",
              "type": "uint256"
            },
            {
              "internalType": "uint256",
              "name": "endTime",
              "type": "uint256"
            }
          ],
          "internalType": "struct Auction.SellerDetails",
          "name": "sellerDetails",
          "type": "tuple"
        },
        {
          "components": [
            {
              "internalType": "address",
              "name": "winnerAddress",
              "type": "address"
            },
            {
              "internalType": "uint256",
              "name": "amount",
              "type": "uint256"
            },
            {
              "internalType": "bytes",
              "name": "winnerSignature",
              "type": "bytes"
            },
            {
              "internalType": "uint256",
              "name": "bidTime",
              "type": "uint256"
            }
          ],
          "internalType": "struct Auction.WinnerDetails",
          "name": "winnerDetails",
          "type": "tuple"
        }
      ],
      "name": "lazyAuction",
      "outputs": [],
      "stateMutability": "nonpayable",
      "type": "function"
    },
    {
      "inputs": [],
      "name": "owner",
      "outputs": [
        {
          "internalType": "address",
          "name": "",
          "type": "address"
        }
      ],
      "stateMutability": "view",
      "type": "function"
    },
    {
      "inputs": [],
      "name": "platFormFeePercent",
      "outputs": [
        {
          "internalType": "uint256",
          "name": "",
          "type": "uint256"
        }
      ],
      "stateMutability": "view",
      "type": "function"
    },
    {
      "inputs": [],
      "name": "renounceOwnership",
      "outputs": [],
      "stateMutability": "nonpayable",
      "type": "function"
    },
    {
      "inputs": [
        {
          "internalType": "uint256",
          "name": "_newPlatFormFeePercent",
          "type": "uint256"
        }
      ],
      "name": "setPlatFormFeePercent",
      "outputs": [],
      "stateMutability": "nonpayable",
      "type": "function"
    },
    {
      "inputs": [
        {
          "internalType": "address",
          "name": "newOwner",
          "type": "address"
        }
      ],
      "name": "transferOwnership",
      "outputs": [],
      "stateMutability": "nonpayable",
      "type": "function"
    },
    {
      "inputs": [
        {
          "components": [
            {
              "internalType": "address",
              "name": "seller",
              "type": "address"
            },
            {
              "internalType": "address",
              "name": "assetAddress",
              "type": "address"
            },
            {
              "internalType": "uint256",
              "name": "tokenId",
              "type": "uint256"
            },
            {
              "internalType": "uint256",
              "name": "amount",
              "type": "uint256"
            },
            {
              "internalType": "address",
              "name": "paymentAssetAddress",
              "type": "address"
            },
            {
              "internalType": "string",
              "name": "URI",
              "type": "string"
            },
            {
              "internalType": "bytes",
              "name": "seller_signature",
              "type": "bytes"
            },
            {
              "internalType": "uint96",
              "name": "royality",
              "type": "uint96"
            },
            {
              "internalType": "uint256",
              "name": "nonce",
              "type": "uint256"
            },
            {
              "internalType": "uint256",
              "name": "startTime",
              "type": "uint256"
            },
            {
              "internalType": "uint256",
              "name": "endTime",
              "type": "uint256"
            }
          ],
          "internalType": "struct Auction.SellerDetails",
          "name": "sellerDetails",
          "type": "tuple"
        }
      ],
      "name": "verifySellerSign",
      "outputs": [
        {
          "internalType": "address",
          "name": "",
          "type": "address"
        }
      ],
      "stateMutability": "pure",
      "type": "function"
    },
    {
      "inputs": [
        {
          "components": [
            {
              "internalType": "address",
              "name": "winnerAddress",
              "type": "address"
            },
            {
              "internalType": "uint256",
              "name": "amount",
              "type": "uint256"
            },
            {
              "internalType": "bytes",
              "name": "winnerSignature",
              "type": "bytes"
            },
            {
              "internalType": "uint256",
              "name": "bidTime",
              "type": "uint256"
            }
          ],
          "internalType": "struct Auction.WinnerDetails",
          "name": "winnerDetails",
          "type": "tuple"
        }
      ],
      "name": "verifyWinnerSign",
      "outputs": [
        {
          "internalType": "address",
          "name": "",
          "type": "address"
        }
      ],
      "stateMutability": "pure",
      "type": "function"
    },
    {
      "stateMutability": "payable",
      "type": "receive"
    }
  ],
  "bytecode": "0x608060405234801561001057600080fd5b50611410806100206000396000f3fe6080604052600436106100ab5760003560e01c8063815a1e4e11610064578063815a1e4e1461019b5780638439807c146101bf5780638da5cb5b146101df578063c4efa665146101fd578063f2fde38b14610212578063f7b2ec0d14610232576100b2565b8063485fd09f146100b4578063552c6020146100d45780636b3f4b3f14610111578063715018a61461015157806374877a4d146101665780638129fc1c14610186576100b2565b366100b257005b005b3480156100c057600080fd5b506100b26100cf366004611141565b610252565b3480156100e057600080fd5b506100f46100ef3660046111a2565b610a9a565b6040516001600160a01b0390911681526020015b60405180910390f35b34801561011d57600080fd5b5061014161012c3660046111d5565b60666020526000908152604090205460ff1681565b6040519015158152602001610108565b34801561015d57600080fd5b506100b2610b4b565b34801561017257600080fd5b506100f4610181366004611106565b610b5f565b34801561019257600080fd5b506100b2610bd9565b3480156101a757600080fd5b506101b160655481565b604051908152602001610108565b3480156101cb57600080fd5b506100b26101da3660046111d5565b610cf0565b3480156101eb57600080fd5b506033546001600160a01b03166100f4565b34801561020957600080fd5b506101b1606481565b34801561021e57600080fd5b506100b261022d366004611009565b610cfd565b34801561023e57600080fd5b506100f461024d366004611050565b610d73565b61010082013560009081526066602052604090205460ff16156102bc5760405162461bcd60e51b815260206004820152601e60248201527f41756374696f6e3a206e6f6e636520616c72656164792070726f63657373000060448201526064015b60405180910390fd5b60006102c783610b5f565b90506001600160a01b0381166102e06020850185611009565b6001600160a01b0316146103365760405162461bcd60e51b815260206004820152601a60248201527f73656c6c657220766572696669636174696f6e206661696c656400000000000060448201526064016102b3565b61010083013560009081526066602052604090205460ff161561039b5760405162461bcd60e51b815260206004820152601e60248201527f41756374696f6e3a206e6f6e636520616c72656164792070726f63657373000060448201526064016102b3565b60006103a683610a9a565b90506001600160a01b0381166103bf6020850185611009565b6001600160a01b0316146104265760405162461bcd60e51b815260206004820152602860248201527f41756374696f6e3a2073656c6c6572207369676e20766572696669636174696f6044820152671b8819985a5b195960c21b60648201526084016102b3565b60006104386040860160208701611009565b90506001600160a01b03811663e985e9c56104566020880188611009565b6040516001600160e01b031960e084901b1681526001600160a01b03909116600482015230602482015260440160206040518083038186803b15801561049b57600080fd5b505afa1580156104af573d6000803e3d6000fd5b505050506040513d601f19601f820116820180604052508101906104d39190611030565b61051f5760405162461bcd60e51b815260206004820152601c60248201527f41756374696f6e3a2061646472657373206e6f7420617070726f76650000000060448201526064016102b3565b6040850135806105d7576001600160a01b038216637b17b7a86105456020890189611009565b61055260a08a018a61130c565b6105636101008c0160e08d01611205565b6040518563ffffffff1660e01b8152600401610582949392919061126f565b602060405180830381600087803b15801561059c57600080fd5b505af11580156105b0573d6000803e3d6000fd5b505050506040513d601f19601f820116820180604052508101906105d491906111ed565b90505b6001600160a01b0382166323b872dd6105f36020890189611009565b6106006020890189611009565b6040516001600160e01b031960e085901b1681526001600160a01b0392831660048201529116602482015260448101849052606401600060405180830381600087803b15801561064f57600080fd5b505af1158015610663573d6000803e3d6000fd5b506000925061067b91505060a0880160808901611009565b9050602086018035906001600160a01b038316906370a082319061069f908a611009565b6040516001600160e01b031960e084901b1681526001600160a01b03909116600482015260240160206040518083038186803b1580156106de57600080fd5b505afa1580156106f2573d6000803e3d6000fd5b505050506040513d601f19601f8201168201806040525081019061071691906111ed565b10156107645760405162461bcd60e51b815260206004820152601860248201527f41756374696f6e3a20496e7375666963656e742066756e64000000000000000060448201526064016102b3565b604051636eb1769f60e11b81523360048201523060248201526060880135906001600160a01b0383169063dd62ed3e9060440160206040518083038186803b1580156107af57600080fd5b505afa1580156107c3573d6000803e3d6000fd5b505050506040513d601f19601f820116820180604052508101906107e791906111ed565b10156108415760405162461bcd60e51b815260206004820152602360248201527f41756374696f6e3a20436865636b2074686520746f6b656e20616c6c6f77616e60448201526231b29760e91b60648201526084016102b3565b600061085e61271061085860208a013560c8610e33565b90610e3f565b90506001600160a01b0382166323b872dd61087c60208a018a611009565b6040516001600160e01b031960e084901b1681526001600160a01b03909116600482015230602482015260448101849052606401602060405180830381600087803b1580156108ca57600080fd5b505af11580156108de573d6000803e3d6000fd5b505050506040513d601f19601f820116820180604052508101906109029190611030565b506000610913602089013583610e4b565b90506001600160a01b0383166323b872dd61093160208b018b611009565b61093e60208d018d611009565b6040516001600160e01b031960e085901b1681526001600160a01b0392831660048201529116602482015260448101849052606401602060405180830381600087803b15801561098d57600080fd5b505af11580156109a1573d6000803e3d6000fd5b505050506040513d601f19601f820116820180604052508101906109c59190611030565b50610100890135600090815260666020908152604091829020805460ff191660011790557f4e67c2704ec2173fb91323a1006869aa42271a7ced14d459515377c3bdd9d044918b01803591610a1c91908d01611009565b6101208c013560608d0135610a3460208e018e611009565b8e6000016020810190610a479190611009565b604080519687526001600160a01b0395861660208801528601939093526060850191909152821660808401521660a08201526101408b013560c082015260e00160405180910390a1505050505050505050565b600080610aaa6020840184611009565b6040516bffffffffffffffffffffffff19606092831b166020828101919091528501356034820152908401356054820152607401604051602081830303815290604052805190602001209050610b4481848060400190610b0a919061130c565b8080601f016020809104026020016040519081016040528093929190818152602001838380828437600092019190915250610d7392505050565b9392505050565b610b53610e57565b610b5d6000610eb1565b565b600080610b726040840160208501611009565b6040840135610b8460a086018661130c565b610b9460a0880160808901611009565b8760600135604051602001610bae9695949392919061122c565b60408051601f1981840301815291905280516020909101209050610b4481610b0a60c086018661130c565b600054610100900460ff1615808015610bf95750600054600160ff909116105b80610c135750303b158015610c13575060005460ff166001145b610c765760405162461bcd60e51b815260206004820152602e60248201527f496e697469616c697a61626c653a20636f6e747261637420697320616c72656160448201526d191e481a5b9a5d1a585b1a5e995960921b60648201526084016102b3565b6000805460ff191660011790558015610c99576000805461ff0019166101001790555b610ca1610f03565b6103e86065558015610ced576000805461ff0019169055604051600181527f7f26b83ff96e1f2b6a682f133852f6798a09c465da95921460cefb38474024989060200160405180910390a15b50565b610cf8610e57565b606555565b610d05610e57565b6001600160a01b038116610d6a5760405162461bcd60e51b815260206004820152602660248201527f4f776e61626c653a206e6577206f776e657220697320746865207a65726f206160448201526564647265737360d01b60648201526084016102b3565b610ced81610eb1565b600080600080610d8285610f32565b6040517f19457468657265756d205369676e6564204d6573736167653a0a3332000000006020820152603c81018a90529295509093509150600190605c0160408051601f198184030181528282528051602091820120600084529083018083525260ff841690820152606081018590526080810184905260a0016020604051602081039080840390855afa158015610e1e573d6000803e3d6000fd5b5050604051601f190151979650505050505050565b6000610b448284611378565b6000610b448284611358565b6000610b448284611397565b6033546001600160a01b03163314610b5d5760405162461bcd60e51b815260206004820181905260248201527f4f776e61626c653a2063616c6c6572206973206e6f7420746865206f776e657260448201526064016102b3565b603380546001600160a01b038381166001600160a01b0319831681179093556040519116919082907f8be0079c531659141344cd1fd0a4f28419497f9722a3daafe3b4186f6b6457e090600090a35050565b600054610100900460ff16610f2a5760405162461bcd60e51b81526004016102b3906112c1565b610b5d610fb0565b60008060008351604114610f925760405162461bcd60e51b815260206004820152602160248201527f41756374696f6e3a20696e76616c6964207369676e6174757265206c656e67746044820152600d60fb1b60648201526084016102b3565b50505060208101516040820151606090920151909260009190911a90565b600054610100900460ff16610fd75760405162461bcd60e51b81526004016102b3906112c1565b610b5d33610eb1565b60006101608284031215610ff2578081fd5b50919050565b600060808284031215610ff2578081fd5b60006020828403121561101a578081fd5b81356001600160a01b0381168114610b44578182fd5b600060208284031215611041578081fd5b81518015158114610b44578182fd5b60008060408385031215611062578081fd5b82359150602083013567ffffffffffffffff80821115611080578283fd5b818501915085601f830112611093578283fd5b8135818111156110a5576110a56113c4565b604051601f8201601f19908116603f011681019083821181831017156110cd576110cd6113c4565b816040528281528860208487010111156110e5578586fd5b82602086016020830137856020848301015280955050505050509250929050565b600060208284031215611117578081fd5b813567ffffffffffffffff81111561112d578182fd5b61113984828501610fe0565b949350505050565b60008060408385031215611153578182fd5b823567ffffffffffffffff8082111561116a578384fd5b61117686838701610fe0565b9350602085013591508082111561118b578283fd5b5061119885828601610ff8565b9150509250929050565b6000602082840312156111b3578081fd5b813567ffffffffffffffff8111156111c9578182fd5b61113984828501610ff8565b6000602082840312156111e6578081fd5b5035919050565b6000602082840312156111fe578081fd5b5051919050565b600060208284031215611216578081fd5b81356001600160601b0381168114610b44578182fd5b60006001600160601b0319808960601b1683528760148401528587603485013760609490941b909316930160348101939093526048830152506068019392505050565b6001600160a01b0385168152606060208201819052810183905260008385608084013780608085840101526080601f19601f86011683010190506001600160601b038316604083015295945050505050565b6020808252602b908201527f496e697469616c697a61626c653a20636f6e7472616374206973206e6f74206960408201526a6e697469616c697a696e6760a81b606082015260800190565b6000808335601e19843603018112611322578283fd5b83018035915067ffffffffffffffff82111561133c578283fd5b60200191503681900382131561135157600080fd5b9250929050565b60008261137357634e487b7160e01b81526012600452602481fd5b500490565b6000816000190483118215151615611392576113926113ae565b500290565b6000828210156113a9576113a96113ae565b500390565b634e487b7160e01b600052601160045260246000fd5b634e487b7160e01b600052604160045260246000fdfea264697066735822122039ea6637dbbb798d6c028a1fca10dc9b160b772f518f3c91c60cf747d352fc9464736f6c63430008020033",
  "linkReferences": {},
  "deployedLinkReferences": {}
}