{
  "_format": "hh-sol-artifact-1",
  "contractName": "MarketplaceAuction",
  "sourceName": "contracts/auction.sol",
  "abi": [
    {
      "inputs": [
        {
          "internalType": "address",
          "name": "nftAddress",
          "type": "address"
        },
        {
          "internalType": "uint256",
          "name": "tokenID",
          "type": "uint256"
        },
        {
          "components": [
            {
              "internalType": "address",
              "name": "assetAddress",
              "type": "address"
            },
            {
              "internalType": "address",
              "name": "collectionAddress",
              "type": "address"
            },
            {
              "internalType": "address",
              "name": "seller",
              "type": "address"
            },
            {
              "internalType": "string",
              "name": "URI",
              "type": "string"
            },
            {
              "internalType": "uint256",
              "name": "Nonce",
              "type": "uint256"
            },
            {
              "internalType": "uint256",
              "name": "highestBid",
              "type": "uint256"
            },
            {
              "internalType": "uint256",
              "name": "timeDuration",
              "type": "uint256"
            },
            {
              "internalType": "bytes32",
              "name": "seller_Signature",
              "type": "bytes32"
            },
            {
              "internalType": "uint256",
              "name": "royality",
              "type": "uint256"
            },
            {
              "internalType": "uint256",
              "name": "amount",
              "type": "uint256"
            }
          ],
          "internalType": "struct MarketplaceAuction.SellerDetails",
          "name": "_sellerDetails",
          "type": "tuple"
        },
        {
          "components": [
            {
              "internalType": "address",
              "name": "nftAddress",
              "type": "address"
            },
            {
              "internalType": "uint256",
              "name": "amount",
              "type": "uint256"
            },
            {
              "internalType": "uint256",
              "name": "startingTime",
              "type": "uint256"
            },
            {
              "internalType": "uint256",
              "name": "endTime",
              "type": "uint256"
            },
            {
              "internalType": "uint256",
              "name": "startingAmount",
              "type": "uint256"
            },
            {
              "internalType": "uint256",
              "name": "reserveAmount",
              "type": "uint256"
            },
            {
              "internalType": "uint256",
              "name": "decliningAmount",
              "type": "uint256"
            }
          ],
          "internalType": "struct MarketplaceAuction.BuyerDetails",
          "name": "_buyerDetails",
          "type": "tuple"
        }
      ],
      "name": "LazyAuction",
      "outputs": [],
      "stateMutability": "nonpayable",
      "type": "function"
    },
    {
      "inputs": [
        {
          "internalType": "bytes",
          "name": "sig",
          "type": "bytes"
        }
      ],
      "name": "splitSignature",
      "outputs": [
        {
          "internalType": "bytes32",
          "name": "r",
          "type": "bytes32"
        },
        {
          "internalType": "bytes32",
          "name": "s",
          "type": "bytes32"
        },
        {
          "internalType": "uint8",
          "name": "v",
          "type": "uint8"
        }
      ],
      "stateMutability": "pure",
      "type": "function"
    }
  ],
  "bytecode": "0x608060405234801561001057600080fd5b50610515806100206000396000f3fe608060405234801561001057600080fd5b50600436106100365760003560e01c806392fd2b811461003b578063a7bb580314610057575b600080fd5b610055600480360381019061005091906101e3565b610089565b005b610071600480360381019061006c91906103ad565b61008f565b6040516100809392919061042b565b60405180910390f35b50505050565b600080600060418451146100d8576040517f08c379a00000000000000000000000000000000000000000000000000000000081526004016100cf906104bf565b60405180910390fd5b6020840151925060408401519150606084015160001a90509193909250565b6000604051905090565b600080fd5b600080fd5b600073ffffffffffffffffffffffffffffffffffffffff82169050919050565b60006101368261010b565b9050919050565b6101468161012b565b811461015157600080fd5b50565b6000813590506101638161013d565b92915050565b6000819050919050565b61017c81610169565b811461018757600080fd5b50565b60008135905061019981610173565b92915050565b600080fd5b600061014082840312156101bb576101ba61019f565b5b81905092915050565b600060e082840312156101da576101d961019f565b5b81905092915050565b60008060008061014085870312156101fe576101fd610101565b5b600061020c87828801610154565b945050602061021d8782880161018a565b935050604085013567ffffffffffffffff81111561023e5761023d610106565b5b61024a878288016101a4565b925050606061025b878288016101c4565b91505092959194509250565b600080fd5b600080fd5b6000601f19601f8301169050919050565b7f4e487b7100000000000000000000000000000000000000000000000000000000600052604160045260246000fd5b6102ba82610271565b810181811067ffffffffffffffff821117156102d9576102d8610282565b5b80604052505050565b60006102ec6100f7565b90506102f882826102b1565b919050565b600067ffffffffffffffff82111561031857610317610282565b5b61032182610271565b9050602081019050919050565b82818337600083830152505050565b600061035061034b846102fd565b6102e2565b90508281526020810184848401111561036c5761036b61026c565b5b61037784828561032e565b509392505050565b600082601f83011261039457610393610267565b5b81356103a484826020860161033d565b91505092915050565b6000602082840312156103c3576103c2610101565b5b600082013567ffffffffffffffff8111156103e1576103e0610106565b5b6103ed8482850161037f565b91505092915050565b6000819050919050565b610409816103f6565b82525050565b600060ff82169050919050565b6104258161040f565b82525050565b60006060820190506104406000830186610400565b61044d6020830185610400565b61045a604083018461041c565b949350505050565b600082825260208201905092915050565b7f696e76616c6964207369676e6174757265206c656e6774680000000000000000600082015250565b60006104a9601883610462565b91506104b482610473565b602082019050919050565b600060208201905081810360008301526104d88161049c565b905091905056fea264697066735822122069932ce4c964ef687ecf01c7ee8b59fe5df791e28aff16d9cdc50b19440e8da964736f6c634300080c0033",
  "linkReferences": {},
  "deployedLinkReferences": {}
}