{
  "_format": "hh-sol-artifact-1",
  "contractName": "MyNFT",
  "sourceName": "contracts/mocks/ERC721.sol",
  "abi": [
    {
      "inputs": [
        {
          "internalType": "uint256",
          "name": "_maxRoyality",
          "type": "uint256"
        }
      ],
      "stateMutability": "nonpayable",
      "type": "constructor"
    },
    {
      "anonymous": false,
      "inputs": [
        {
          "indexed": true,
          "internalType": "address",
          "name": "owner",
          "type": "address"
        },
        {
          "indexed": true,
          "internalType": "address",
          "name": "approved",
          "type": "address"
        },
        {
          "indexed": true,
          "internalType": "uint256",
          "name": "tokenId",
          "type": "uint256"
        }
      ],
      "name": "Approval",
      "type": "event"
    },
    {
      "anonymous": false,
      "inputs": [
        {
          "indexed": true,
          "internalType": "address",
          "name": "owner",
          "type": "address"
        },
        {
          "indexed": true,
          "internalType": "address",
          "name": "operator",
          "type": "address"
        },
        {
          "indexed": false,
          "internalType": "bool",
          "name": "approved",
          "type": "bool"
        }
      ],
      "name": "ApprovalForAll",
      "type": "event"
    },
    {
      "anonymous": false,
      "inputs": [
        {
          "indexed": true,
          "internalType": "address",
          "name": "from",
          "type": "address"
        },
        {
          "indexed": true,
          "internalType": "address",
          "name": "to",
          "type": "address"
        },
        {
          "indexed": true,
          "internalType": "uint256",
          "name": "tokenId",
          "type": "uint256"
        }
      ],
      "name": "Transfer",
      "type": "event"
    },
    {
      "stateMutability": "payable",
      "type": "fallback"
    },
    {
      "inputs": [
        {
          "internalType": "address",
          "name": "to",
          "type": "address"
        },
        {
          "internalType": "uint256",
          "name": "tokenId",
          "type": "uint256"
        }
      ],
      "name": "approve",
      "outputs": [],
      "stateMutability": "nonpayable",
      "type": "function"
    },
    {
      "inputs": [
        {
          "internalType": "address",
          "name": "owner",
          "type": "address"
        }
      ],
      "name": "balanceOf",
      "outputs": [
        {
          "internalType": "uint256",
          "name": "",
          "type": "uint256"
        }
      ],
      "stateMutability": "view",
      "type": "function"
    },
    {
      "inputs": [
        {
          "internalType": "uint256",
          "name": "tokenId",
          "type": "uint256"
        }
      ],
      "name": "getApproved",
      "outputs": [
        {
          "internalType": "address",
          "name": "",
          "type": "address"
        }
      ],
      "stateMutability": "view",
      "type": "function"
    },
    {
      "inputs": [
        {
          "internalType": "address",
          "name": "owner",
          "type": "address"
        },
        {
          "internalType": "address",
          "name": "operator",
          "type": "address"
        }
      ],
      "name": "isApprovedForAll",
      "outputs": [
        {
          "internalType": "bool",
          "name": "",
          "type": "bool"
        }
      ],
      "stateMutability": "view",
      "type": "function"
    },
    {
      "inputs": [],
      "name": "maximumRoyality",
      "outputs": [
        {
          "internalType": "uint256",
          "name": "",
          "type": "uint256"
        }
      ],
      "stateMutability": "view",
      "type": "function"
    },
    {
      "inputs": [
        {
          "internalType": "address",
          "name": "to",
          "type": "address"
        },
        {
          "internalType": "address",
          "name": "creator",
          "type": "address"
        },
        {
          "internalType": "string",
          "name": "tokenURI",
          "type": "string"
        },
        {
          "internalType": "uint256",
          "name": "_royality",
          "type": "uint256"
        }
      ],
      "name": "mint",
      "outputs": [
        {
          "internalType": "uint256",
          "name": "",
          "type": "uint256"
        }
      ],
      "stateMutability": "nonpayable",
      "type": "function"
    },
    {
      "inputs": [],
      "name": "name",
      "outputs": [
        {
          "internalType": "string",
          "name": "",
          "type": "string"
        }
      ],
      "stateMutability": "view",
      "type": "function"
    },
    {
      "inputs": [
        {
          "internalType": "uint256",
          "name": "tokenId",
          "type": "uint256"
        }
      ],
      "name": "ownerOf",
      "outputs": [
        {
          "internalType": "address",
          "name": "",
          "type": "address"
        }
      ],
      "stateMutability": "view",
      "type": "function"
    },
    {
      "inputs": [
        {
          "internalType": "uint256",
          "name": "",
          "type": "uint256"
        }
      ],
      "name": "royality",
      "outputs": [
        {
          "internalType": "uint256",
          "name": "",
          "type": "uint256"
        }
      ],
      "stateMutability": "view",
      "type": "function"
    },
    {
      "inputs": [
        {
          "internalType": "address",
          "name": "from",
          "type": "address"
        },
        {
          "internalType": "address",
          "name": "to",
          "type": "address"
        },
        {
          "internalType": "uint256",
          "name": "tokenId",
          "type": "uint256"
        }
      ],
      "name": "safeTransferFrom",
      "outputs": [],
      "stateMutability": "nonpayable",
      "type": "function"
    },
    {
      "inputs": [
        {
          "internalType": "address",
          "name": "from",
          "type": "address"
        },
        {
          "internalType": "address",
          "name": "to",
          "type": "address"
        },
        {
          "internalType": "uint256",
          "name": "tokenId",
          "type": "uint256"
        },
        {
          "internalType": "bytes",
          "name": "_data",
          "type": "bytes"
        }
      ],
      "name": "safeTransferFrom",
      "outputs": [],
      "stateMutability": "nonpayable",
      "type": "function"
    },
    {
      "inputs": [
        {
          "internalType": "address",
          "name": "operator",
          "type": "address"
        },
        {
          "internalType": "bool",
          "name": "approved",
          "type": "bool"
        }
      ],
      "name": "setApprovalForAll",
      "outputs": [],
      "stateMutability": "nonpayable",
      "type": "function"
    },
    {
      "inputs": [
        {
          "internalType": "bytes4",
          "name": "interfaceId",
          "type": "bytes4"
        }
      ],
      "name": "supportsInterface",
      "outputs": [
        {
          "internalType": "bool",
          "name": "",
          "type": "bool"
        }
      ],
      "stateMutability": "view",
      "type": "function"
    },
    {
      "inputs": [],
      "name": "symbol",
      "outputs": [
        {
          "internalType": "string",
          "name": "",
          "type": "string"
        }
      ],
      "stateMutability": "view",
      "type": "function"
    },
    {
      "inputs": [
        {
          "internalType": "uint256",
          "name": "tokenId",
          "type": "uint256"
        }
      ],
      "name": "tokenURI",
      "outputs": [
        {
          "internalType": "string",
          "name": "",
          "type": "string"
        }
      ],
      "stateMutability": "view",
      "type": "function"
    },
    {
      "inputs": [
        {
          "internalType": "address",
          "name": "from",
          "type": "address"
        },
        {
          "internalType": "address",
          "name": "to",
          "type": "address"
        },
        {
          "internalType": "uint256",
          "name": "tokenId",
          "type": "uint256"
        }
      ],
      "name": "transferFrom",
      "outputs": [],
      "stateMutability": "nonpayable",
      "type": "function"
    }
  ],
  "bytecode": "0x60806040523480156200001157600080fd5b5060405162002fe638038062002fe6833981810160405281019062000037919062000202565b6040518060400160405280600381526020017f49616d00000000000000000000000000000000000000000000000000000000008152506040518060400160405280600381526020017f57696e00000000000000000000000000000000000000000000000000000000008152508160009080519060200190620000bb92919062000112565b508060019080519060200190620000d492919062000112565b505050620000ee6007620000fc60201b62000c861760201c565b806009819055505062000298565b6001816000016000828254019250508190555050565b828054620001209062000263565b90600052602060002090601f01602090048101928262000144576000855562000190565b82601f106200015f57805160ff191683800117855562000190565b8280016001018555821562000190579182015b828111156200018f57825182559160200191906001019062000172565b5b5090506200019f9190620001a3565b5090565b5b80821115620001be576000816000905550600101620001a4565b5090565b600080fd5b6000819050919050565b620001dc81620001c7565b8114620001e857600080fd5b50565b600081519050620001fc81620001d1565b92915050565b6000602082840312156200021b576200021a620001c2565b5b60006200022b84828501620001eb565b91505092915050565b7f4e487b7100000000000000000000000000000000000000000000000000000000600052602260045260246000fd5b600060028204905060018216806200027c57607f821691505b60208210810362000292576200029162000234565b5b50919050565b612d3e80620002a86000396000f3fe6080604052600436106100f75760003560e01c806395d89b411161008a578063c87b56dd11610059578063c87b56dd1461034e578063d98a17ed1461038b578063ddb2126d146103b6578063e985e9c5146103f3576100f8565b806395d89b4114610294578063a22cb465146102bf578063b88d4fde146102e8578063c640da3e14610311576100f8565b806323b872dd116100c657806323b872dd146101c857806342842e0e146101f15780636352211e1461021a57806370a0823114610257576100f8565b806301ffc9a7146100fa57806306fdde0314610137578063081812fc14610162578063095ea7b31461019f576100f8565b5b005b34801561010657600080fd5b50610121600480360381019061011c9190611a7b565b610430565b60405161012e9190611ac3565b60405180910390f35b34801561014357600080fd5b5061014c610512565b6040516101599190611b77565b60405180910390f35b34801561016e57600080fd5b5061018960048036038101906101849190611bcf565b6105a4565b6040516101969190611c3d565b60405180910390f35b3480156101ab57600080fd5b506101c660048036038101906101c19190611c84565b610629565b005b3480156101d457600080fd5b506101ef60048036038101906101ea9190611cc4565b610740565b005b3480156101fd57600080fd5b5061021860048036038101906102139190611cc4565b6107a0565b005b34801561022657600080fd5b50610241600480360381019061023c9190611bcf565b6107c0565b60405161024e9190611c3d565b60405180910390f35b34801561026357600080fd5b5061027e60048036038101906102799190611d17565b610871565b60405161028b9190611d53565b60405180910390f35b3480156102a057600080fd5b506102a9610928565b6040516102b69190611b77565b60405180910390f35b3480156102cb57600080fd5b506102e660048036038101906102e19190611d9a565b6109ba565b005b3480156102f457600080fd5b5061030f600480360381019061030a9190611f0f565b6109d0565b005b34801561031d57600080fd5b5061033860048036038101906103339190612033565b610a32565b6040516103459190611d53565b60405180910390f35b34801561035a57600080fd5b5061037560048036038101906103709190611bcf565b610a83565b6040516103829190611b77565b60405180910390f35b34801561039757600080fd5b506103a0610bd4565b6040516103ad9190611d53565b60405180910390f35b3480156103c257600080fd5b506103dd60048036038101906103d89190611bcf565b610bda565b6040516103ea9190611d53565b60405180910390f35b3480156103ff57600080fd5b5061041a600480360381019061041591906120b6565b610bf2565b6040516104279190611ac3565b60405180910390f35b60007f80ac58cd000000000000000000000000000000000000000000000000000000007bffffffffffffffffffffffffffffffffffffffffffffffffffffffff1916827bffffffffffffffffffffffffffffffffffffffffffffffffffffffff191614806104fb57507f5b5e139f000000000000000000000000000000000000000000000000000000007bffffffffffffffffffffffffffffffffffffffffffffffffffffffff1916827bffffffffffffffffffffffffffffffffffffffffffffffffffffffff1916145b8061050b575061050a82610c9c565b5b9050919050565b60606000805461052190612125565b80601f016020809104026020016040519081016040528092919081815260200182805461054d90612125565b801561059a5780601f1061056f5761010080835404028352916020019161059a565b820191906000526020600020905b81548152906001019060200180831161057d57829003601f168201915b5050505050905090565b60006105af82610d06565b6105ee576040517f08c379a00000000000000000000000000000000000000000000000000000000081526004016105e5906121c8565b60405180910390fd5b6004600083815260200190815260200160002060009054906101000a900473ffffffffffffffffffffffffffffffffffffffff169050919050565b6000610634826107c0565b90508073ffffffffffffffffffffffffffffffffffffffff168373ffffffffffffffffffffffffffffffffffffffff16036106a4576040517f08c379a000000000000000000000000000000000000000000000000000000000815260040161069b9061225a565b60405180910390fd5b8073ffffffffffffffffffffffffffffffffffffffff166106c3610d72565b73ffffffffffffffffffffffffffffffffffffffff1614806106f257506106f1816106ec610d72565b610bf2565b5b610731576040517f08c379a0000000000000000000000000000000000000000000000000000000008152600401610728906122ec565b60405180910390fd5b61073b8383610d7a565b505050565b61075161074b610d72565b82610e33565b610790576040517f08c379a00000000000000000000000000000000000000000000000000000000081526004016107879061237e565b60405180910390fd5b61079b838383610f11565b505050565b6107bb838383604051806020016040528060008152506109d0565b505050565b6000806002600084815260200190815260200160002060009054906101000a900473ffffffffffffffffffffffffffffffffffffffff169050600073ffffffffffffffffffffffffffffffffffffffff168173ffffffffffffffffffffffffffffffffffffffff1603610868576040517f08c379a000000000000000000000000000000000000000000000000000000000815260040161085f90612410565b60405180910390fd5b80915050919050565b60008073ffffffffffffffffffffffffffffffffffffffff168273ffffffffffffffffffffffffffffffffffffffff16036108e1576040517f08c379a00000000000000000000000000000000000000000000000000000000081526004016108d8906124a2565b60405180910390fd5b600360008373ffffffffffffffffffffffffffffffffffffffff1673ffffffffffffffffffffffffffffffffffffffff168152602001908152602001600020549050919050565b60606001805461093790612125565b80601f016020809104026020016040519081016040528092919081815260200182805461096390612125565b80156109b05780601f10610985576101008083540402835291602001916109b0565b820191906000526020600020905b81548152906001019060200180831161099357829003601f168201915b5050505050905090565b6109cc6109c5610d72565b8383611177565b5050565b6109e16109db610d72565b83610e33565b610a20576040517f08c379a0000000000000000000000000000000000000000000000000000000008152600401610a179061237e565b60405180910390fd5b610a2c848484846112e3565b50505050565b600080610a3f600761133f565b9050610a4b868261134d565b610a558185611526565b610a5f6007610c86565b82600860008381526020019081526020016000208190555080915050949350505050565b6060610a8e82610d06565b610acd576040517f08c379a0000000000000000000000000000000000000000000000000000000008152600401610ac490612534565b60405180910390fd5b6000600660008481526020019081526020016000208054610aed90612125565b80601f0160208091040260200160405190810160405280929190818152602001828054610b1990612125565b8015610b665780601f10610b3b57610100808354040283529160200191610b66565b820191906000526020600020905b815481529060010190602001808311610b4957829003601f168201915b505050505090506000610b7761159a565b90506000815103610b8c578192505050610bcf565b600082511115610bc1578082604051602001610ba9929190612590565b60405160208183030381529060405292505050610bcf565b610bca846115b1565b925050505b919050565b60095481565b60086020528060005260406000206000915090505481565b6000600560008473ffffffffffffffffffffffffffffffffffffffff1673ffffffffffffffffffffffffffffffffffffffff16815260200190815260200160002060008373ffffffffffffffffffffffffffffffffffffffff1673ffffffffffffffffffffffffffffffffffffffff16815260200190815260200160002060009054906101000a900460ff16905092915050565b6001816000016000828254019250508190555050565b60007f01ffc9a7000000000000000000000000000000000000000000000000000000007bffffffffffffffffffffffffffffffffffffffffffffffffffffffff1916827bffffffffffffffffffffffffffffffffffffffffffffffffffffffff1916149050919050565b60008073ffffffffffffffffffffffffffffffffffffffff166002600084815260200190815260200160002060009054906101000a900473ffffffffffffffffffffffffffffffffffffffff1673ffffffffffffffffffffffffffffffffffffffff1614159050919050565b600033905090565b816004600083815260200190815260200160002060006101000a81548173ffffffffffffffffffffffffffffffffffffffff021916908373ffffffffffffffffffffffffffffffffffffffff160217905550808273ffffffffffffffffffffffffffffffffffffffff16610ded836107c0565b73ffffffffffffffffffffffffffffffffffffffff167f8c5be1e5ebec7d5bd14f71427d1e84f3dd0314c0f7b2291e5b200ac8c7c3b92560405160405180910390a45050565b6000610e3e82610d06565b610e7d576040517f08c379a0000000000000000000000000000000000000000000000000000000008152600401610e7490612626565b60405180910390fd5b6000610e88836107c0565b90508073ffffffffffffffffffffffffffffffffffffffff168473ffffffffffffffffffffffffffffffffffffffff161480610eca5750610ec98185610bf2565b5b80610f0857508373ffffffffffffffffffffffffffffffffffffffff16610ef0846105a4565b73ffffffffffffffffffffffffffffffffffffffff16145b91505092915050565b8273ffffffffffffffffffffffffffffffffffffffff16610f31826107c0565b73ffffffffffffffffffffffffffffffffffffffff1614610f87576040517f08c379a0000000000000000000000000000000000000000000000000000000008152600401610f7e906126b8565b60405180910390fd5b600073ffffffffffffffffffffffffffffffffffffffff168273ffffffffffffffffffffffffffffffffffffffff1603610ff6576040517f08c379a0000000000000000000000000000000000000000000000000000000008152600401610fed9061274a565b60405180910390fd5b611001838383611658565b61100c600082610d7a565b6001600360008573ffffffffffffffffffffffffffffffffffffffff1673ffffffffffffffffffffffffffffffffffffffff168152602001908152602001600020600082825461105c9190612799565b925050819055506001600360008473ffffffffffffffffffffffffffffffffffffffff1673ffffffffffffffffffffffffffffffffffffffff16815260200190815260200160002060008282546110b391906127cd565b92505081905550816002600083815260200190815260200160002060006101000a81548173ffffffffffffffffffffffffffffffffffffffff021916908373ffffffffffffffffffffffffffffffffffffffff160217905550808273ffffffffffffffffffffffffffffffffffffffff168473ffffffffffffffffffffffffffffffffffffffff167fddf252ad1be2c89b69c2b068fc378daa952ba7f163c4a11628f55a4df523b3ef60405160405180910390a461117283838361165d565b505050565b8173ffffffffffffffffffffffffffffffffffffffff168373ffffffffffffffffffffffffffffffffffffffff16036111e5576040517f08c379a00000000000000000000000000000000000000000000000000000000081526004016111dc9061286f565b60405180910390fd5b80600560008573ffffffffffffffffffffffffffffffffffffffff1673ffffffffffffffffffffffffffffffffffffffff16815260200190815260200160002060008473ffffffffffffffffffffffffffffffffffffffff1673ffffffffffffffffffffffffffffffffffffffff16815260200190815260200160002060006101000a81548160ff0219169083151502179055508173ffffffffffffffffffffffffffffffffffffffff168373ffffffffffffffffffffffffffffffffffffffff167f17307eab39ab6107e8899845ad3d59bd9653f200f220920489ca2b5937696c31836040516112d69190611ac3565b60405180910390a3505050565b6112ee848484610f11565b6112fa84848484611662565b611339576040517f08c379a000000000000000000000000000000000000000000000000000000000815260040161133090612901565b60405180910390fd5b50505050565b600081600001549050919050565b600073ffffffffffffffffffffffffffffffffffffffff168273ffffffffffffffffffffffffffffffffffffffff16036113bc576040517f08c379a00000000000000000000000000000000000000000000000000000000081526004016113b39061296d565b60405180910390fd5b6113c581610d06565b15611405576040517f08c379a00000000000000000000000000000000000000000000000000000000081526004016113fc906129d9565b60405180910390fd5b61141160008383611658565b6001600360008473ffffffffffffffffffffffffffffffffffffffff1673ffffffffffffffffffffffffffffffffffffffff168152602001908152602001600020600082825461146191906127cd565b92505081905550816002600083815260200190815260200160002060006101000a81548173ffffffffffffffffffffffffffffffffffffffff021916908373ffffffffffffffffffffffffffffffffffffffff160217905550808273ffffffffffffffffffffffffffffffffffffffff16600073ffffffffffffffffffffffffffffffffffffffff167fddf252ad1be2c89b69c2b068fc378daa952ba7f163c4a11628f55a4df523b3ef60405160405180910390a46115226000838361165d565b5050565b61152f82610d06565b61156e576040517f08c379a000000000000000000000000000000000000000000000000000000000815260040161156590612a6b565b60405180910390fd5b8060066000848152602001908152602001600020908051906020019061159592919061196c565b505050565b606060405180602001604052806000815250905090565b60606115bc82610d06565b6115fb576040517f08c379a00000000000000000000000000000000000000000000000000000000081526004016115f290612afd565b60405180910390fd5b600061160561159a565b905060008151116116255760405180602001604052806000815250611650565b8061162f846117e9565b604051602001611640929190612590565b6040516020818303038152906040525b915050919050565b505050565b505050565b60006116838473ffffffffffffffffffffffffffffffffffffffff16611949565b156117dc578373ffffffffffffffffffffffffffffffffffffffff1663150b7a026116ac610d72565b8786866040518563ffffffff1660e01b81526004016116ce9493929190612b72565b6020604051808303816000875af192505050801561170a57506040513d601f19601f820116820180604052508101906117079190612bd3565b60015b61178c573d806000811461173a576040519150601f19603f3d011682016040523d82523d6000602084013e61173f565b606091505b506000815103611784576040517f08c379a000000000000000000000000000000000000000000000000000000000815260040161177b90612901565b60405180910390fd5b805181602001fd5b63150b7a0260e01b7bffffffffffffffffffffffffffffffffffffffffffffffffffffffff1916817bffffffffffffffffffffffffffffffffffffffffffffffffffffffff1916149150506117e1565b600190505b949350505050565b606060008203611830576040518060400160405280600181526020017f30000000000000000000000000000000000000000000000000000000000000008152509050611944565b600082905060005b6000821461186257808061184b90612c00565b915050600a8261185b9190612c77565b9150611838565b60008167ffffffffffffffff81111561187e5761187d611de4565b5b6040519080825280601f01601f1916602001820160405280156118b05781602001600182028036833780820191505090505b5090505b6000851461193d576001826118c99190612799565b9150600a856118d89190612ca8565b60306118e491906127cd565b60f81b8183815181106118fa576118f9612cd9565b5b60200101907effffffffffffffffffffffffffffffffffffffffffffffffffffffffffffff1916908160001a905350600a856119369190612c77565b94506118b4565b8093505050505b919050565b6000808273ffffffffffffffffffffffffffffffffffffffff163b119050919050565b82805461197890612125565b90600052602060002090601f01602090048101928261199a57600085556119e1565b82601f106119b357805160ff19168380011785556119e1565b828001600101855582156119e1579182015b828111156119e05782518255916020019190600101906119c5565b5b5090506119ee91906119f2565b5090565b5b80821115611a0b5760008160009055506001016119f3565b5090565b6000604051905090565b600080fd5b600080fd5b60007fffffffff0000000000000000000000000000000000000000000000000000000082169050919050565b611a5881611a23565b8114611a6357600080fd5b50565b600081359050611a7581611a4f565b92915050565b600060208284031215611a9157611a90611a19565b5b6000611a9f84828501611a66565b91505092915050565b60008115159050919050565b611abd81611aa8565b82525050565b6000602082019050611ad86000830184611ab4565b92915050565b600081519050919050565b600082825260208201905092915050565b60005b83811015611b18578082015181840152602081019050611afd565b83811115611b27576000848401525b50505050565b6000601f19601f8301169050919050565b6000611b4982611ade565b611b538185611ae9565b9350611b63818560208601611afa565b611b6c81611b2d565b840191505092915050565b60006020820190508181036000830152611b918184611b3e565b905092915050565b6000819050919050565b611bac81611b99565b8114611bb757600080fd5b50565b600081359050611bc981611ba3565b92915050565b600060208284031215611be557611be4611a19565b5b6000611bf384828501611bba565b91505092915050565b600073ffffffffffffffffffffffffffffffffffffffff82169050919050565b6000611c2782611bfc565b9050919050565b611c3781611c1c565b82525050565b6000602082019050611c526000830184611c2e565b92915050565b611c6181611c1c565b8114611c6c57600080fd5b50565b600081359050611c7e81611c58565b92915050565b60008060408385031215611c9b57611c9a611a19565b5b6000611ca985828601611c6f565b9250506020611cba85828601611bba565b9150509250929050565b600080600060608486031215611cdd57611cdc611a19565b5b6000611ceb86828701611c6f565b9350506020611cfc86828701611c6f565b9250506040611d0d86828701611bba565b9150509250925092565b600060208284031215611d2d57611d2c611a19565b5b6000611d3b84828501611c6f565b91505092915050565b611d4d81611b99565b82525050565b6000602082019050611d686000830184611d44565b92915050565b611d7781611aa8565b8114611d8257600080fd5b50565b600081359050611d9481611d6e565b92915050565b60008060408385031215611db157611db0611a19565b5b6000611dbf85828601611c6f565b9250506020611dd085828601611d85565b9150509250929050565b600080fd5b600080fd5b7f4e487b7100000000000000000000000000000000000000000000000000000000600052604160045260246000fd5b611e1c82611b2d565b810181811067ffffffffffffffff82111715611e3b57611e3a611de4565b5b80604052505050565b6000611e4e611a0f565b9050611e5a8282611e13565b919050565b600067ffffffffffffffff821115611e7a57611e79611de4565b5b611e8382611b2d565b9050602081019050919050565b82818337600083830152505050565b6000611eb2611ead84611e5f565b611e44565b905082815260208101848484011115611ece57611ecd611ddf565b5b611ed9848285611e90565b509392505050565b600082601f830112611ef657611ef5611dda565b5b8135611f06848260208601611e9f565b91505092915050565b60008060008060808587031215611f2957611f28611a19565b5b6000611f3787828801611c6f565b9450506020611f4887828801611c6f565b9350506040611f5987828801611bba565b925050606085013567ffffffffffffffff811115611f7a57611f79611a1e565b5b611f8687828801611ee1565b91505092959194509250565b600067ffffffffffffffff821115611fad57611fac611de4565b5b611fb682611b2d565b9050602081019050919050565b6000611fd6611fd184611f92565b611e44565b905082815260208101848484011115611ff257611ff1611ddf565b5b611ffd848285611e90565b509392505050565b600082601f83011261201a57612019611dda565b5b813561202a848260208601611fc3565b91505092915050565b6000806000806080858703121561204d5761204c611a19565b5b600061205b87828801611c6f565b945050602061206c87828801611c6f565b935050604085013567ffffffffffffffff81111561208d5761208c611a1e565b5b61209987828801612005565b92505060606120aa87828801611bba565b91505092959194509250565b600080604083850312156120cd576120cc611a19565b5b60006120db85828601611c6f565b92505060206120ec85828601611c6f565b9150509250929050565b7f4e487b7100000000000000000000000000000000000000000000000000000000600052602260045260246000fd5b6000600282049050600182168061213d57607f821691505b6020821081036121505761214f6120f6565b5b50919050565b7f4552433732313a20617070726f76656420717565727920666f72206e6f6e657860008201527f697374656e7420746f6b656e0000000000000000000000000000000000000000602082015250565b60006121b2602c83611ae9565b91506121bd82612156565b604082019050919050565b600060208201905081810360008301526121e1816121a5565b9050919050565b7f4552433732313a20617070726f76616c20746f2063757272656e74206f776e6560008201527f7200000000000000000000000000000000000000000000000000000000000000602082015250565b6000612244602183611ae9565b915061224f826121e8565b604082019050919050565b6000602082019050818103600083015261227381612237565b9050919050565b7f4552433732313a20617070726f76652063616c6c6572206973206e6f74206f7760008201527f6e6572206e6f7220617070726f76656420666f7220616c6c0000000000000000602082015250565b60006122d6603883611ae9565b91506122e18261227a565b604082019050919050565b60006020820190508181036000830152612305816122c9565b9050919050565b7f4552433732313a207472616e736665722063616c6c6572206973206e6f74206f60008201527f776e6572206e6f7220617070726f766564000000000000000000000000000000602082015250565b6000612368603183611ae9565b91506123738261230c565b604082019050919050565b600060208201905081810360008301526123978161235b565b9050919050565b7f4552433732313a206f776e657220717565727920666f72206e6f6e657869737460008201527f656e7420746f6b656e0000000000000000000000000000000000000000000000602082015250565b60006123fa602983611ae9565b91506124058261239e565b604082019050919050565b60006020820190508181036000830152612429816123ed565b9050919050565b7f4552433732313a2062616c616e636520717565727920666f7220746865207a6560008201527f726f206164647265737300000000000000000000000000000000000000000000602082015250565b600061248c602a83611ae9565b915061249782612430565b604082019050919050565b600060208201905081810360008301526124bb8161247f565b9050919050565b7f45524337323155524953746f726167653a2055524920717565727920666f722060008201527f6e6f6e6578697374656e7420746f6b656e000000000000000000000000000000602082015250565b600061251e603183611ae9565b9150612529826124c2565b604082019050919050565b6000602082019050818103600083015261254d81612511565b9050919050565b600081905092915050565b600061256a82611ade565b6125748185612554565b9350612584818560208601611afa565b80840191505092915050565b600061259c828561255f565b91506125a8828461255f565b91508190509392505050565b7f4552433732313a206f70657261746f7220717565727920666f72206e6f6e657860008201527f697374656e7420746f6b656e0000000000000000000000000000000000000000602082015250565b6000612610602c83611ae9565b915061261b826125b4565b604082019050919050565b6000602082019050818103600083015261263f81612603565b9050919050565b7f4552433732313a207472616e736665722066726f6d20696e636f72726563742060008201527f6f776e6572000000000000000000000000000000000000000000000000000000602082015250565b60006126a2602583611ae9565b91506126ad82612646565b604082019050919050565b600060208201905081810360008301526126d181612695565b9050919050565b7f4552433732313a207472616e7366657220746f20746865207a65726f2061646460008201527f7265737300000000000000000000000000000000000000000000000000000000602082015250565b6000612734602483611ae9565b915061273f826126d8565b604082019050919050565b6000602082019050818103600083015261276381612727565b9050919050565b7f4e487b7100000000000000000000000000000000000000000000000000000000600052601160045260246000fd5b60006127a482611b99565b91506127af83611b99565b9250828210156127c2576127c161276a565b5b828203905092915050565b60006127d882611b99565b91506127e383611b99565b9250827fffffffffffffffffffffffffffffffffffffffffffffffffffffffffffffffff038211156128185761281761276a565b5b828201905092915050565b7f4552433732313a20617070726f766520746f2063616c6c657200000000000000600082015250565b6000612859601983611ae9565b915061286482612823565b602082019050919050565b600060208201905081810360008301526128888161284c565b9050919050565b7f4552433732313a207472616e7366657220746f206e6f6e20455243373231526560008201527f63656976657220696d706c656d656e7465720000000000000000000000000000602082015250565b60006128eb603283611ae9565b91506128f68261288f565b604082019050919050565b6000602082019050818103600083015261291a816128de565b9050919050565b7f4552433732313a206d696e7420746f20746865207a65726f2061646472657373600082015250565b6000612957602083611ae9565b915061296282612921565b602082019050919050565b600060208201905081810360008301526129868161294a565b9050919050565b7f4552433732313a20746f6b656e20616c7265616479206d696e74656400000000600082015250565b60006129c3601c83611ae9565b91506129ce8261298d565b602082019050919050565b600060208201905081810360008301526129f2816129b6565b9050919050565b7f45524337323155524953746f726167653a2055524920736574206f66206e6f6e60008201527f6578697374656e7420746f6b656e000000000000000000000000000000000000602082015250565b6000612a55602e83611ae9565b9150612a60826129f9565b604082019050919050565b60006020820190508181036000830152612a8481612a48565b9050919050565b7f4552433732314d657461646174613a2055524920717565727920666f72206e6f60008201527f6e6578697374656e7420746f6b656e0000000000000000000000000000000000602082015250565b6000612ae7602f83611ae9565b9150612af282612a8b565b604082019050919050565b60006020820190508181036000830152612b1681612ada565b9050919050565b600081519050919050565b600082825260208201905092915050565b6000612b4482612b1d565b612b4e8185612b28565b9350612b5e818560208601611afa565b612b6781611b2d565b840191505092915050565b6000608082019050612b876000830187611c2e565b612b946020830186611c2e565b612ba16040830185611d44565b8181036060830152612bb38184612b39565b905095945050505050565b600081519050612bcd81611a4f565b92915050565b600060208284031215612be957612be8611a19565b5b6000612bf784828501612bbe565b91505092915050565b6000612c0b82611b99565b91507fffffffffffffffffffffffffffffffffffffffffffffffffffffffffffffffff8203612c3d57612c3c61276a565b5b600182019050919050565b7f4e487b7100000000000000000000000000000000000000000000000000000000600052601260045260246000fd5b6000612c8282611b99565b9150612c8d83611b99565b925082612c9d57612c9c612c48565b5b828204905092915050565b6000612cb382611b99565b9150612cbe83611b99565b925082612cce57612ccd612c48565b5b828206905092915050565b7f4e487b7100000000000000000000000000000000000000000000000000000000600052603260045260246000fdfea2646970667358221220a01c0ff741d53c5d05b603b3612d050ec047d8279789c79c059164ce5206265964736f6c634300080e0033",
  "linkReferences": {},
  "deployedLinkReferences": {}
}