{
  "_format": "hh-sol-artifact-1",
  "contractName": "ERC721Token",
  "sourceName": "contracts/ERC721Token.sol",
  "abi": [
    {
      "inputs": [],
      "stateMutability": "nonpayable",
      "type": "constructor"
    },
    {
      "anonymous": false,
      "inputs": [
        {
          "indexed": true,
          "internalType": "address",
          "name": "owner",
          "type": "address"
        },
        {
          "indexed": true,
          "internalType": "address",
          "name": "approved",
          "type": "address"
        },
        {
          "indexed": true,
          "internalType": "uint256",
          "name": "tokenId",
          "type": "uint256"
        }
      ],
      "name": "Approval",
      "type": "event"
    },
    {
      "anonymous": false,
      "inputs": [
        {
          "indexed": true,
          "internalType": "address",
          "name": "owner",
          "type": "address"
        },
        {
          "indexed": true,
          "internalType": "address",
          "name": "operator",
          "type": "address"
        },
        {
          "indexed": false,
          "internalType": "bool",
          "name": "approved",
          "type": "bool"
        }
      ],
      "name": "ApprovalForAll",
      "type": "event"
    },
    {
      "anonymous": false,
      "inputs": [
        {
          "indexed": true,
          "internalType": "address",
          "name": "previousOwner",
          "type": "address"
        },
        {
          "indexed": true,
          "internalType": "address",
          "name": "newOwner",
          "type": "address"
        }
      ],
      "name": "OwnershipTransferred",
      "type": "event"
    },
    {
      "anonymous": false,
      "inputs": [
        {
          "indexed": true,
          "internalType": "address",
          "name": "from",
          "type": "address"
        },
        {
          "indexed": true,
          "internalType": "address",
          "name": "to",
          "type": "address"
        },
        {
          "indexed": true,
          "internalType": "uint256",
          "name": "tokenId",
          "type": "uint256"
        }
      ],
      "name": "Transfer",
      "type": "event"
    },
    {
      "inputs": [
        {
          "internalType": "address payable",
          "name": "creator",
          "type": "address"
        },
        {
          "components": [
            {
              "internalType": "uint256",
              "name": "vNonce",
              "type": "uint256"
            },
            {
              "internalType": "uint256",
              "name": "minPrice",
              "type": "uint256"
            },
            {
              "internalType": "string",
              "name": "tokenUri",
              "type": "string"
            },
            {
              "internalType": "bytes",
              "name": "signature",
              "type": "bytes"
            },
            {
              "internalType": "uint256",
              "name": "royality",
              "type": "uint256"
            }
          ],
          "internalType": "struct ERC721Token.NFTvoucher",
          "name": "voucher",
          "type": "tuple"
        }
      ],
      "name": "Lazymint",
      "outputs": [
        {
          "internalType": "uint256",
          "name": "",
          "type": "uint256"
        }
      ],
      "stateMutability": "payable",
      "type": "function"
    },
    {
      "inputs": [
        {
          "internalType": "address",
          "name": "to",
          "type": "address"
        },
        {
          "internalType": "uint256",
          "name": "tokenId",
          "type": "uint256"
        }
      ],
      "name": "approve",
      "outputs": [],
      "stateMutability": "nonpayable",
      "type": "function"
    },
    {
      "inputs": [
        {
          "internalType": "address",
          "name": "owner",
          "type": "address"
        }
      ],
      "name": "balanceOf",
      "outputs": [
        {
          "internalType": "uint256",
          "name": "",
          "type": "uint256"
        }
      ],
      "stateMutability": "view",
      "type": "function"
    },
    {
      "inputs": [],
      "name": "brokerAddress",
      "outputs": [
        {
          "internalType": "address",
          "name": "",
          "type": "address"
        }
      ],
      "stateMutability": "view",
      "type": "function"
    },
    {
      "inputs": [],
      "name": "brokerage",
      "outputs": [
        {
          "internalType": "uint256",
          "name": "",
          "type": "uint256"
        }
      ],
      "stateMutability": "view",
      "type": "function"
    },
    {
      "inputs": [
        {
          "internalType": "uint256",
          "name": "",
          "type": "uint256"
        }
      ],
      "name": "creators",
      "outputs": [
        {
          "internalType": "address payable",
          "name": "",
          "type": "address"
        }
      ],
      "stateMutability": "view",
      "type": "function"
    },
    {
      "inputs": [
        {
          "internalType": "bytes32",
          "name": "_messageHash",
          "type": "bytes32"
        }
      ],
      "name": "ethSignedMessageHash",
      "outputs": [
        {
          "internalType": "bytes32",
          "name": "",
          "type": "bytes32"
        }
      ],
      "stateMutability": "pure",
      "type": "function"
    },
    {
      "inputs": [
        {
          "internalType": "uint256",
          "name": "tokenId",
          "type": "uint256"
        }
      ],
      "name": "getApproved",
      "outputs": [
        {
          "internalType": "address",
          "name": "",
          "type": "address"
        }
      ],
      "stateMutability": "view",
      "type": "function"
    },
    {
      "inputs": [
        {
          "internalType": "uint256",
          "name": "_nonce",
          "type": "uint256"
        },
        {
          "internalType": "uint256",
          "name": "minPrice",
          "type": "uint256"
        },
        {
          "internalType": "string",
          "name": "tokenUri",
          "type": "string"
        },
        {
          "internalType": "uint256",
          "name": "royality",
          "type": "uint256"
        }
      ],
      "name": "getMessageHash",
      "outputs": [
        {
          "internalType": "bytes32",
          "name": "",
          "type": "bytes32"
        }
      ],
      "stateMutability": "pure",
      "type": "function"
    },
    {
      "inputs": [
        {
          "internalType": "address",
          "name": "owner",
          "type": "address"
        },
        {
          "internalType": "address",
          "name": "operator",
          "type": "address"
        }
      ],
      "name": "isApprovedForAll",
      "outputs": [
        {
          "internalType": "bool",
          "name": "",
          "type": "bool"
        }
      ],
      "stateMutability": "view",
      "type": "function"
    },
    {
      "inputs": [],
      "name": "maximumRoyality",
      "outputs": [
        {
          "internalType": "uint256",
          "name": "",
          "type": "uint256"
        }
      ],
      "stateMutability": "view",
      "type": "function"
    },
    {
      "inputs": [
        {
          "internalType": "uint256",
          "name": "",
          "type": "uint256"
        }
      ],
      "name": "mintedNonce",
      "outputs": [
        {
          "internalType": "bool",
          "name": "",
          "type": "bool"
        }
      ],
      "stateMutability": "view",
      "type": "function"
    },
    {
      "inputs": [],
      "name": "name",
      "outputs": [
        {
          "internalType": "string",
          "name": "",
          "type": "string"
        }
      ],
      "stateMutability": "view",
      "type": "function"
    },
    {
      "inputs": [],
      "name": "owner",
      "outputs": [
        {
          "internalType": "address",
          "name": "",
          "type": "address"
        }
      ],
      "stateMutability": "view",
      "type": "function"
    },
    {
      "inputs": [
        {
          "internalType": "uint256",
          "name": "tokenId",
          "type": "uint256"
        }
      ],
      "name": "ownerOf",
      "outputs": [
        {
          "internalType": "address",
          "name": "",
          "type": "address"
        }
      ],
      "stateMutability": "view",
      "type": "function"
    },
    {
      "inputs": [
        {
          "internalType": "bytes32",
          "name": "_ethSignedMessageHash",
          "type": "bytes32"
        },
        {
          "internalType": "bytes",
          "name": "_signature",
          "type": "bytes"
        }
      ],
      "name": "recoverSigner",
      "outputs": [
        {
          "internalType": "address",
          "name": "",
          "type": "address"
        }
      ],
      "stateMutability": "pure",
      "type": "function"
    },
    {
      "inputs": [],
      "name": "renounceOwnership",
      "outputs": [],
      "stateMutability": "nonpayable",
      "type": "function"
    },
    {
      "inputs": [
        {
          "internalType": "uint256",
          "name": "",
          "type": "uint256"
        }
      ],
      "name": "royalities",
      "outputs": [
        {
          "internalType": "uint256",
          "name": "",
          "type": "uint256"
        }
      ],
      "stateMutability": "view",
      "type": "function"
    },
    {
      "inputs": [
        {
          "internalType": "address",
          "name": "from",
          "type": "address"
        },
        {
          "internalType": "address",
          "name": "to",
          "type": "address"
        },
        {
          "internalType": "uint256",
          "name": "tokenId",
          "type": "uint256"
        }
      ],
      "name": "safeTransferFrom",
      "outputs": [],
      "stateMutability": "nonpayable",
      "type": "function"
    },
    {
      "inputs": [
        {
          "internalType": "address",
          "name": "from",
          "type": "address"
        },
        {
          "internalType": "address",
          "name": "to",
          "type": "address"
        },
        {
          "internalType": "uint256",
          "name": "tokenId",
          "type": "uint256"
        },
        {
          "internalType": "bytes",
          "name": "_data",
          "type": "bytes"
        }
      ],
      "name": "safeTransferFrom",
      "outputs": [],
      "stateMutability": "nonpayable",
      "type": "function"
    },
    {
      "inputs": [
        {
          "internalType": "address",
          "name": "operator",
          "type": "address"
        },
        {
          "internalType": "bool",
          "name": "approved",
          "type": "bool"
        }
      ],
      "name": "setApprovalForAll",
      "outputs": [],
      "stateMutability": "nonpayable",
      "type": "function"
    },
    {
      "inputs": [
        {
          "internalType": "uint256",
          "name": "_maxroyality",
          "type": "uint256"
        }
      ],
      "name": "setMaximumRoyality",
      "outputs": [],
      "stateMutability": "nonpayable",
      "type": "function"
    },
    {
      "inputs": [
        {
          "internalType": "bytes4",
          "name": "interfaceId",
          "type": "bytes4"
        }
      ],
      "name": "supportsInterface",
      "outputs": [
        {
          "internalType": "bool",
          "name": "",
          "type": "bool"
        }
      ],
      "stateMutability": "view",
      "type": "function"
    },
    {
      "inputs": [],
      "name": "symbol",
      "outputs": [
        {
          "internalType": "string",
          "name": "",
          "type": "string"
        }
      ],
      "stateMutability": "view",
      "type": "function"
    },
    {
      "inputs": [],
      "name": "tokenCount",
      "outputs": [
        {
          "internalType": "uint256",
          "name": "",
          "type": "uint256"
        }
      ],
      "stateMutability": "view",
      "type": "function"
    },
    {
      "inputs": [
        {
          "internalType": "uint256",
          "name": "",
          "type": "uint256"
        }
      ],
      "name": "tokenToNonce",
      "outputs": [
        {
          "internalType": "uint256",
          "name": "",
          "type": "uint256"
        }
      ],
      "stateMutability": "view",
      "type": "function"
    },
    {
      "inputs": [
        {
          "internalType": "uint256",
          "name": "tokenId",
          "type": "uint256"
        }
      ],
      "name": "tokenURI",
      "outputs": [
        {
          "internalType": "string",
          "name": "",
          "type": "string"
        }
      ],
      "stateMutability": "view",
      "type": "function"
    },
    {
      "inputs": [],
      "name": "totalCount",
      "outputs": [
        {
          "internalType": "uint256",
          "name": "",
          "type": "uint256"
        }
      ],
      "stateMutability": "view",
      "type": "function"
    },
    {
      "inputs": [
        {
          "internalType": "address",
          "name": "from",
          "type": "address"
        },
        {
          "internalType": "address",
          "name": "to",
          "type": "address"
        },
        {
          "internalType": "uint256",
          "name": "tokenId",
          "type": "uint256"
        }
      ],
      "name": "transferFrom",
      "outputs": [],
      "stateMutability": "nonpayable",
      "type": "function"
    },
    {
      "inputs": [
        {
          "internalType": "address",
          "name": "newOwner",
          "type": "address"
        }
      ],
      "name": "transferOwnership",
      "outputs": [],
      "stateMutability": "nonpayable",
      "type": "function"
    }
  ],
  "bytecode": "0x60806040523480156200001157600080fd5b506040518060400160405280600481526020017f41626869000000000000000000000000000000000000000000000000000000008152506040518060400160405280600581526020017f5368616b65000000000000000000000000000000000000000000000000000000815250816000908051906020019062000096929190620001d3565b508060019080519060200190620000af929190620001d3565b505050620000d2620000c6620000ef60201b60201c565b620000f760201b60201c565b620000e96008620001bd60201b620017e91760201c565b620002e8565b600033905090565b6000600760009054906101000a900473ffffffffffffffffffffffffffffffffffffffff16905081600760006101000a81548173ffffffffffffffffffffffffffffffffffffffff021916908373ffffffffffffffffffffffffffffffffffffffff1602179055508173ffffffffffffffffffffffffffffffffffffffff168173ffffffffffffffffffffffffffffffffffffffff167f8be0079c531659141344cd1fd0a4f28419497f9722a3daafe3b4186f6b6457e060405160405180910390a35050565b6001816000016000828254019250508190555050565b828054620001e19062000283565b90600052602060002090601f01602090048101928262000205576000855562000251565b82601f106200022057805160ff191683800117855562000251565b8280016001018555821562000251579182015b828111156200025057825182559160200191906001019062000233565b5b50905062000260919062000264565b5090565b5b808211156200027f57600081600090555060010162000265565b5090565b600060028204905060018216806200029c57607f821691505b60208210811415620002b357620002b2620002b9565b5b50919050565b7f4e487b7100000000000000000000000000000000000000000000000000000000600052602260045260246000fd5b6142a080620002f86000396000f3fe6080604052600436106101cd5760003560e01c80638ef0e79f116100f7578063b5004f0111610095578063d98a17ed11610064578063d98a17ed146106ef578063e985e9c51461071a578063f2fde38b14610757578063f6f4d63214610780576101cd565b8063b5004f011461060f578063b88d4fde1461064c578063c87b56dd14610675578063cd53d08e146106b2576101cd565b80639f181b5e116100d15780639f181b5e14610541578063a027a1a71461056c578063a22cb465146105a9578063a6cc7033146105d2576101cd565b80638ef0e79f146104a957806395d89b41146104d957806397aba7f914610504576101cd565b80633fbf444e1161016f57806370a082311161013e57806370a08231146103ed578063715018a61461042a578063833e5d78146104415780638da5cb5b1461047e576101cd565b80633fbf444e1461033157806342842e0e1461035c5780635089f796146103855780636352211e146103b0576101cd565b8063095ea7b3116101ab578063095ea7b3146102775780631ba9096f146102a057806323b872dd146102dd57806334eafb1114610306576101cd565b806301ffc9a7146101d257806306fdde031461020f578063081812fc1461023a575b600080fd5b3480156101de57600080fd5b506101f960048036038101906101f49190612cb3565b6107a9565b6040516102069190613332565b60405180910390f35b34801561021b57600080fd5b5061022461088b565b60405161023191906133ad565b60405180910390f35b34801561024657600080fd5b50610261600480360381019061025c9190612d05565b61091d565b60405161026e91906132b0565b60405180910390f35b34801561028357600080fd5b5061029e60048036038101906102999190612bfa565b6109a2565b005b3480156102ac57600080fd5b506102c760048036038101906102c29190612c36565b610aba565b6040516102d4919061334d565b60405180910390f35b3480156102e957600080fd5b5061030460048036038101906102ff9190612af4565b610ae9565b005b34801561031257600080fd5b5061031b610b49565b60405161032891906136af565b60405180910390f35b34801561033d57600080fd5b50610346610b4f565b60405161035391906136af565b60405180910390f35b34801561036857600080fd5b50610383600480360381019061037e9190612af4565b610b55565b005b34801561039157600080fd5b5061039a610b75565b6040516103a791906132b0565b60405180910390f35b3480156103bc57600080fd5b506103d760048036038101906103d29190612d05565b610b9b565b6040516103e491906132b0565b60405180910390f35b3480156103f957600080fd5b50610414600480360381019061040f9190612a3b565b610c4d565b60405161042191906136af565b60405180910390f35b34801561043657600080fd5b5061043f610d05565b005b34801561044d57600080fd5b5061046860048036038101906104639190612d2e565b610d8d565b604051610475919061334d565b60405180910390f35b34801561048a57600080fd5b50610493610dc6565b6040516104a091906132b0565b60405180910390f35b6104c360048036038101906104be9190612a64565b610df0565b6040516104d091906136af565b60405180910390f35b3480156104e557600080fd5b506104ee61127d565b6040516104fb91906133ad565b60405180910390f35b34801561051057600080fd5b5061052b60048036038101906105269190612c5f565b61130f565b60405161053891906132b0565b60405180910390f35b34801561054d57600080fd5b5061055661137e565b60405161056391906136af565b60405180910390f35b34801561057857600080fd5b50610593600480360381019061058e9190612d05565b611384565b6040516105a09190613332565b60405180910390f35b3480156105b557600080fd5b506105d060048036038101906105cb9190612bbe565b6113a4565b005b3480156105de57600080fd5b506105f960048036038101906105f49190612d05565b6113ba565b60405161060691906136af565b60405180910390f35b34801561061b57600080fd5b5061063660048036038101906106319190612d05565b6113d2565b60405161064391906136af565b60405180910390f35b34801561065857600080fd5b50610673600480360381019061066e9190612b43565b6113ea565b005b34801561068157600080fd5b5061069c60048036038101906106979190612d05565b61144c565b6040516106a991906133ad565b60405180910390f35b3480156106be57600080fd5b506106d960048036038101906106d49190612d05565b61159e565b6040516106e691906132cb565b60405180910390f35b3480156106fb57600080fd5b506107046115d1565b60405161071191906136af565b60405180910390f35b34801561072657600080fd5b50610741600480360381019061073c9190612ab8565b6115d7565b60405161074e9190613332565b60405180910390f35b34801561076357600080fd5b5061077e60048036038101906107799190612a3b565b61166b565b005b34801561078c57600080fd5b506107a760048036038101906107a29190612d05565b611763565b005b60007f80ac58cd000000000000000000000000000000000000000000000000000000007bffffffffffffffffffffffffffffffffffffffffffffffffffffffff1916827bffffffffffffffffffffffffffffffffffffffffffffffffffffffff1916148061087457507f5b5e139f000000000000000000000000000000000000000000000000000000007bffffffffffffffffffffffffffffffffffffffffffffffffffffffff1916827bffffffffffffffffffffffffffffffffffffffffffffffffffffffff1916145b806108845750610883826117ff565b5b9050919050565b60606000805461089a90613a36565b80601f01602080910402602001604051908101604052809291908181526020018280546108c690613a36565b80156109135780601f106108e857610100808354040283529160200191610913565b820191906000526020600020905b8154815290600101906020018083116108f657829003601f168201915b5050505050905090565b600061092882611869565b610967576040517f08c379a000000000000000000000000000000000000000000000000000000000815260040161095e906135af565b60405180910390fd5b6004600083815260200190815260200160002060009054906101000a900473ffffffffffffffffffffffffffffffffffffffff169050919050565b60006109ad82610b9b565b90508073ffffffffffffffffffffffffffffffffffffffff168373ffffffffffffffffffffffffffffffffffffffff161415610a1e576040517f08c379a0000000000000000000000000000000000000000000000000000000008152600401610a159061360f565b60405180910390fd5b8073ffffffffffffffffffffffffffffffffffffffff16610a3d6118d5565b73ffffffffffffffffffffffffffffffffffffffff161480610a6c5750610a6b81610a666118d5565b6115d7565b5b610aab576040517f08c379a0000000000000000000000000000000000000000000000000000000008152600401610aa2906134ef565b60405180910390fd5b610ab583836118dd565b505050565b600081604051602001610acd9190613240565b6040516020818303038152906040528051906020012050919050565b610afa610af46118d5565b82611996565b610b39576040517f08c379a0000000000000000000000000000000000000000000000000000000008152600401610b309061362f565b60405180910390fd5b610b44838383611a74565b505050565b600b5481565b60105481565b610b70838383604051806020016040528060008152506113ea565b505050565b601160009054906101000a900473ffffffffffffffffffffffffffffffffffffffff1681565b6000806002600084815260200190815260200160002060009054906101000a900473ffffffffffffffffffffffffffffffffffffffff169050600073ffffffffffffffffffffffffffffffffffffffff168173ffffffffffffffffffffffffffffffffffffffff161415610c44576040517f08c379a0000000000000000000000000000000000000000000000000000000008152600401610c3b9061352f565b60405180910390fd5b80915050919050565b60008073ffffffffffffffffffffffffffffffffffffffff168273ffffffffffffffffffffffffffffffffffffffff161415610cbe576040517f08c379a0000000000000000000000000000000000000000000000000000000008152600401610cb59061350f565b60405180910390fd5b600360008373ffffffffffffffffffffffffffffffffffffffff1673ffffffffffffffffffffffffffffffffffffffff168152602001908152602001600020549050919050565b610d0d6118d5565b73ffffffffffffffffffffffffffffffffffffffff16610d2b610dc6565b73ffffffffffffffffffffffffffffffffffffffff1614610d81576040517f08c379a0000000000000000000000000000000000000000000000000000000008152600401610d78906135cf565b60405180910390fd5b610d8b6000611cdb565b565b600084848484604051602001610da69493929190613266565b604051602081830303815290604052805190602001209050949350505050565b6000600760009054906101000a900473ffffffffffffffffffffffffffffffffffffffff16905090565b6000801515600960008460000135815260200190815260200160002060009054906101000a900460ff16151514610e5c576040517f08c379a0000000000000000000000000000000000000000000000000000000008152600401610e539061368f565b60405180910390fd5b6000610ec883600001358460200135858060400190610e7b9190613721565b8080601f016020809104026020016040519081016040528093929190818152602001838380828437600081840152601f19601f820116905080830192505050505050508660800135610d8d565b90506000610ed582610aba565b90506000610f3582868060600190610eed91906136ca565b8080601f016020809104026020016040519081016040528093929190818152602001838380828437600081840152601f19601f8201169050808301925050505050505061130f565b90506001601254610f469190613842565b60128190555085600d6000601254815260200190815260200160002060006101000a81548173ffffffffffffffffffffffffffffffffffffffff021916908373ffffffffffffffffffffffffffffffffffffffff1602179055508073ffffffffffffffffffffffffffffffffffffffff168673ffffffffffffffffffffffffffffffffffffffff161461100e576040517f08c379a00000000000000000000000000000000000000000000000000000000081526004016110059061364f565b60405180910390fd5b8460200135341015611055576040517f08c379a000000000000000000000000000000000000000000000000000000000815260040161104c9061346f565b60405180910390fd5b600f548560800135111561109e576040517f08c379a00000000000000000000000000000000000000000000000000000000081526004016110959061344f565b60405180910390fd5b6110aa81601254611da1565b8460800135600c60006012548152602001908152602001600020819055506111266012548680604001906110de9190613721565b8080601f016020809104026020016040519081016040528093929190818152602001838380828437600081840152601f19601f82011690508083019250505050505050611dbf565b6111338133601254611a74565b600034905060006064806010548461114b91906138c9565b6111559190613898565b61115f9190613898565b9050601160009054906101000a900473ffffffffffffffffffffffffffffffffffffffff1673ffffffffffffffffffffffffffffffffffffffff166108fc829081150290604051600060405180830381858888f193505050501580156111c9573d6000803e3d6000fd5b5080826111d69190613923565b91508773ffffffffffffffffffffffffffffffffffffffff166108fc839081150290604051600060405180830381858888f1935050505015801561121e573d6000803e3d6000fd5b506001600960008960000135815260200190815260200160002060006101000a81548160ff0219169083151502179055508660000135600a60006012548152602001908152602001600020819055506012549550505050505092915050565b60606001805461128c90613a36565b80601f01602080910402602001604051908101604052809291908181526020018280546112b890613a36565b80156113055780601f106112da57610100808354040283529160200191611305565b820191906000526020600020905b8154815290600101906020018083116112e857829003601f168201915b5050505050905090565b60008060008061131e85611e33565b925092509250600186828585604051600081526020016040526040516113479493929190613368565b6020604051602081039080840390855afa158015611369573d6000803e3d6000fd5b50505060206040510351935050505092915050565b60125481565b60096020528060005260406000206000915054906101000a900460ff1681565b6113b66113af6118d5565b8383611e9b565b5050565b600a6020528060005260406000206000915090505481565b600c6020528060005260406000206000915090505481565b6113fb6113f56118d5565b83611996565b61143a576040517f08c379a00000000000000000000000000000000000000000000000000000000081526004016114319061362f565b60405180910390fd5b61144684848484612008565b50505050565b606061145782611869565b611496576040517f08c379a000000000000000000000000000000000000000000000000000000000815260040161148d9061358f565b60405180910390fd5b6000600e600084815260200190815260200160002080546114b690613a36565b80601f01602080910402602001604051908101604052809291908181526020018280546114e290613a36565b801561152f5780601f106115045761010080835404028352916020019161152f565b820191906000526020600020905b81548152906001019060200180831161151257829003601f168201915b505050505090506000611540612064565b9050600081511415611556578192505050611599565b60008251111561158b57808260405160200161157392919061321c565b60405160208183030381529060405292505050611599565b6115948461207b565b925050505b919050565b600d6020528060005260406000206000915054906101000a900473ffffffffffffffffffffffffffffffffffffffff1681565b600f5481565b6000600560008473ffffffffffffffffffffffffffffffffffffffff1673ffffffffffffffffffffffffffffffffffffffff16815260200190815260200160002060008373ffffffffffffffffffffffffffffffffffffffff1673ffffffffffffffffffffffffffffffffffffffff16815260200190815260200160002060009054906101000a900460ff16905092915050565b6116736118d5565b73ffffffffffffffffffffffffffffffffffffffff16611691610dc6565b73ffffffffffffffffffffffffffffffffffffffff16146116e7576040517f08c379a00000000000000000000000000000000000000000000000000000000081526004016116de906135cf565b60405180910390fd5b600073ffffffffffffffffffffffffffffffffffffffff168173ffffffffffffffffffffffffffffffffffffffff161415611757576040517f08c379a000000000000000000000000000000000000000000000000000000000815260040161174e906133ef565b60405180910390fd5b61176081611cdb565b50565b61176b6118d5565b73ffffffffffffffffffffffffffffffffffffffff16611789610dc6565b73ffffffffffffffffffffffffffffffffffffffff16146117df576040517f08c379a00000000000000000000000000000000000000000000000000000000081526004016117d6906135cf565b60405180910390fd5b80600f8190555050565b6001816000016000828254019250508190555050565b60007f01ffc9a7000000000000000000000000000000000000000000000000000000007bffffffffffffffffffffffffffffffffffffffffffffffffffffffff1916827bffffffffffffffffffffffffffffffffffffffffffffffffffffffff1916149050919050565b60008073ffffffffffffffffffffffffffffffffffffffff166002600084815260200190815260200160002060009054906101000a900473ffffffffffffffffffffffffffffffffffffffff1673ffffffffffffffffffffffffffffffffffffffff1614159050919050565b600033905090565b816004600083815260200190815260200160002060006101000a81548173ffffffffffffffffffffffffffffffffffffffff021916908373ffffffffffffffffffffffffffffffffffffffff160217905550808273ffffffffffffffffffffffffffffffffffffffff1661195083610b9b565b73ffffffffffffffffffffffffffffffffffffffff167f8c5be1e5ebec7d5bd14f71427d1e84f3dd0314c0f7b2291e5b200ac8c7c3b92560405160405180910390a45050565b60006119a182611869565b6119e0576040517f08c379a00000000000000000000000000000000000000000000000000000000081526004016119d7906134cf565b60405180910390fd5b60006119eb83610b9b565b90508073ffffffffffffffffffffffffffffffffffffffff168473ffffffffffffffffffffffffffffffffffffffff161480611a2d5750611a2c81856115d7565b5b80611a6b57508373ffffffffffffffffffffffffffffffffffffffff16611a538461091d565b73ffffffffffffffffffffffffffffffffffffffff16145b91505092915050565b8273ffffffffffffffffffffffffffffffffffffffff16611a9482610b9b565b73ffffffffffffffffffffffffffffffffffffffff1614611aea576040517f08c379a0000000000000000000000000000000000000000000000000000000008152600401611ae19061340f565b60405180910390fd5b600073ffffffffffffffffffffffffffffffffffffffff168273ffffffffffffffffffffffffffffffffffffffff161415611b5a576040517f08c379a0000000000000000000000000000000000000000000000000000000008152600401611b519061348f565b60405180910390fd5b611b658383836121cd565b611b706000826118dd565b6001600360008573ffffffffffffffffffffffffffffffffffffffff1673ffffffffffffffffffffffffffffffffffffffff1681526020019081526020016000206000828254611bc09190613923565b925050819055506001600360008473ffffffffffffffffffffffffffffffffffffffff1673ffffffffffffffffffffffffffffffffffffffff1681526020019081526020016000206000828254611c179190613842565b92505081905550816002600083815260200190815260200160002060006101000a81548173ffffffffffffffffffffffffffffffffffffffff021916908373ffffffffffffffffffffffffffffffffffffffff160217905550808273ffffffffffffffffffffffffffffffffffffffff168473ffffffffffffffffffffffffffffffffffffffff167fddf252ad1be2c89b69c2b068fc378daa952ba7f163c4a11628f55a4df523b3ef60405160405180910390a4611cd68383836121d2565b505050565b6000600760009054906101000a900473ffffffffffffffffffffffffffffffffffffffff16905081600760006101000a81548173ffffffffffffffffffffffffffffffffffffffff021916908373ffffffffffffffffffffffffffffffffffffffff1602179055508173ffffffffffffffffffffffffffffffffffffffff168173ffffffffffffffffffffffffffffffffffffffff167f8be0079c531659141344cd1fd0a4f28419497f9722a3daafe3b4186f6b6457e060405160405180910390a35050565b611dbb8282604051806020016040528060008152506121d7565b5050565b611dc882611869565b611e07576040517f08c379a0000000000000000000000000000000000000000000000000000000008152600401611dfe9061354f565b60405180910390fd5b80600e60008481526020019081526020016000209080519060200190611e2e92919061281a565b505050565b60008060006041845114611e7c576040517f08c379a0000000000000000000000000000000000000000000000000000000008152600401611e739061366f565b60405180910390fd5b6020840151925060408401519150606084015160001a90509193909250565b8173ffffffffffffffffffffffffffffffffffffffff168373ffffffffffffffffffffffffffffffffffffffff161415611f0a576040517f08c379a0000000000000000000000000000000000000000000000000000000008152600401611f01906134af565b60405180910390fd5b80600560008573ffffffffffffffffffffffffffffffffffffffff1673ffffffffffffffffffffffffffffffffffffffff16815260200190815260200160002060008473ffffffffffffffffffffffffffffffffffffffff1673ffffffffffffffffffffffffffffffffffffffff16815260200190815260200160002060006101000a81548160ff0219169083151502179055508173ffffffffffffffffffffffffffffffffffffffff168373ffffffffffffffffffffffffffffffffffffffff167f17307eab39ab6107e8899845ad3d59bd9653f200f220920489ca2b5937696c3183604051611ffb9190613332565b60405180910390a3505050565b612013848484611a74565b61201f84848484612232565b61205e576040517f08c379a0000000000000000000000000000000000000000000000000000000008152600401612055906133cf565b60405180910390fd5b50505050565b606060405180602001604052806000815250905090565b606061208682611869565b6120c5576040517f08c379a00000000000000000000000000000000000000000000000000000000081526004016120bc9061358f565b60405180910390fd5b60006006600084815260200190815260200160002080546120e590613a36565b80601f016020809104026020016040519081016040528092919081815260200182805461211190613a36565b801561215e5780601f106121335761010080835404028352916020019161215e565b820191906000526020600020905b81548152906001019060200180831161214157829003601f168201915b50505050509050600061216f612064565b90506000815114156121855781925050506121c8565b6000825111156121ba5780826040516020016121a292919061321c565b604051602081830303815290604052925050506121c8565b6121c3846123c9565b925050505b919050565b505050565b505050565b6121e18383612470565b6121ee6000848484612232565b61222d576040517f08c379a0000000000000000000000000000000000000000000000000000000008152600401612224906133cf565b60405180910390fd5b505050565b60006122538473ffffffffffffffffffffffffffffffffffffffff1661264a565b156123bc578373ffffffffffffffffffffffffffffffffffffffff1663150b7a0261227c6118d5565b8786866040518563ffffffff1660e01b815260040161229e94939291906132e6565b602060405180830381600087803b1580156122b857600080fd5b505af19250505080156122e957506040513d601f19601f820116820180604052508101906122e69190612cdc565b60015b61236c573d8060008114612319576040519150601f19603f3d011682016040523d82523d6000602084013e61231e565b606091505b50600081511415612364576040517f08c379a000000000000000000000000000000000000000000000000000000000815260040161235b906133cf565b60405180910390fd5b805181602001fd5b63150b7a0260e01b7bffffffffffffffffffffffffffffffffffffffffffffffffffffffff1916817bffffffffffffffffffffffffffffffffffffffffffffffffffffffff1916149150506123c1565b600190505b949350505050565b60606123d482611869565b612413576040517f08c379a000000000000000000000000000000000000000000000000000000000815260040161240a906135ef565b60405180910390fd5b600061241d612064565b9050600081511161243d5760405180602001604052806000815250612468565b806124478461266d565b60405160200161245892919061321c565b6040516020818303038152906040525b915050919050565b600073ffffffffffffffffffffffffffffffffffffffff168273ffffffffffffffffffffffffffffffffffffffff1614156124e0576040517f08c379a00000000000000000000000000000000000000000000000000000000081526004016124d79061356f565b60405180910390fd5b6124e981611869565b15612529576040517f08c379a00000000000000000000000000000000000000000000000000000000081526004016125209061342f565b60405180910390fd5b612535600083836121cd565b6001600360008473ffffffffffffffffffffffffffffffffffffffff1673ffffffffffffffffffffffffffffffffffffffff16815260200190815260200160002060008282546125859190613842565b92505081905550816002600083815260200190815260200160002060006101000a81548173ffffffffffffffffffffffffffffffffffffffff021916908373ffffffffffffffffffffffffffffffffffffffff160217905550808273ffffffffffffffffffffffffffffffffffffffff16600073ffffffffffffffffffffffffffffffffffffffff167fddf252ad1be2c89b69c2b068fc378daa952ba7f163c4a11628f55a4df523b3ef60405160405180910390a4612646600083836121d2565b5050565b6000808273ffffffffffffffffffffffffffffffffffffffff163b119050919050565b606060008214156126b5576040518060400160405280600181526020017f30000000000000000000000000000000000000000000000000000000000000008152509050612815565b600082905060005b600082146126e75780806126d090613a99565b915050600a826126e09190613898565b91506126bd565b60008167ffffffffffffffff811115612729577f4e487b7100000000000000000000000000000000000000000000000000000000600052604160045260246000fd5b6040519080825280601f01601f19166020018201604052801561275b5781602001600182028036833780820191505090505b5090505b6000851461280e576001826127749190613923565b9150600a856127839190613af6565b603061278f9190613842565b60f81b8183815181106127cb577f4e487b7100000000000000000000000000000000000000000000000000000000600052603260045260246000fd5b60200101907effffffffffffffffffffffffffffffffffffffffffffffffffffffffffffff1916908160001a905350600a856128079190613898565b945061275f565b8093505050505b919050565b82805461282690613a36565b90600052602060002090601f016020900481019282612848576000855561288f565b82601f1061286157805160ff191683800117855561288f565b8280016001018555821561288f579182015b8281111561288e578251825591602001919060010190612873565b5b50905061289c91906128a0565b5090565b5b808211156128b95760008160009055506001016128a1565b5090565b60006128d06128cb8461379d565b613778565b9050828152602081018484840111156128e857600080fd5b6128f38482856139f4565b509392505050565b600061290e612909846137ce565b613778565b90508281526020810184848401111561292657600080fd5b6129318482856139f4565b509392505050565b600081359050612948816141e0565b92915050565b60008135905061295d816141f7565b92915050565b6000813590506129728161420e565b92915050565b60008135905061298781614225565b92915050565b60008135905061299c8161423c565b92915050565b6000815190506129b18161423c565b92915050565b600082601f8301126129c857600080fd5b81356129d88482602086016128bd565b91505092915050565b600082601f8301126129f257600080fd5b8135612a028482602086016128fb565b91505092915050565b600060a08284031215612a1d57600080fd5b81905092915050565b600081359050612a3581614253565b92915050565b600060208284031215612a4d57600080fd5b6000612a5b84828501612939565b91505092915050565b60008060408385031215612a7757600080fd5b6000612a858582860161294e565b925050602083013567ffffffffffffffff811115612aa257600080fd5b612aae85828601612a0b565b9150509250929050565b60008060408385031215612acb57600080fd5b6000612ad985828601612939565b9250506020612aea85828601612939565b9150509250929050565b600080600060608486031215612b0957600080fd5b6000612b1786828701612939565b9350506020612b2886828701612939565b9250506040612b3986828701612a26565b9150509250925092565b60008060008060808587031215612b5957600080fd5b6000612b6787828801612939565b9450506020612b7887828801612939565b9350506040612b8987828801612a26565b925050606085013567ffffffffffffffff811115612ba657600080fd5b612bb2878288016129b7565b91505092959194509250565b60008060408385031215612bd157600080fd5b6000612bdf85828601612939565b9250506020612bf085828601612963565b9150509250929050565b60008060408385031215612c0d57600080fd5b6000612c1b85828601612939565b9250506020612c2c85828601612a26565b9150509250929050565b600060208284031215612c4857600080fd5b6000612c5684828501612978565b91505092915050565b60008060408385031215612c7257600080fd5b6000612c8085828601612978565b925050602083013567ffffffffffffffff811115612c9d57600080fd5b612ca9858286016129b7565b9150509250929050565b600060208284031215612cc557600080fd5b6000612cd38482850161298d565b91505092915050565b600060208284031215612cee57600080fd5b6000612cfc848285016129a2565b91505092915050565b600060208284031215612d1757600080fd5b6000612d2584828501612a26565b91505092915050565b60008060008060808587031215612d4457600080fd5b6000612d5287828801612a26565b9450506020612d6387828801612a26565b935050604085013567ffffffffffffffff811115612d8057600080fd5b612d8c878288016129e1565b9250506060612d9d87828801612a26565b91505092959194509250565b612db281613969565b82525050565b612dc181613957565b82525050565b612dd08161397b565b82525050565b612ddf81613987565b82525050565b612df6612df182613987565b613ae2565b82525050565b6000612e07826137ff565b612e118185613815565b9350612e21818560208601613a03565b612e2a81613be3565b840191505092915050565b6000612e408261380a565b612e4a8185613826565b9350612e5a818560208601613a03565b612e6381613be3565b840191505092915050565b6000612e798261380a565b612e838185613837565b9350612e93818560208601613a03565b80840191505092915050565b6000612eac601c83613837565b9150612eb782613bf4565b601c82019050919050565b6000612ecf603283613826565b9150612eda82613c1d565b604082019050919050565b6000612ef2602683613826565b9150612efd82613c6c565b604082019050919050565b6000612f15602583613826565b9150612f2082613cbb565b604082019050919050565b6000612f38601c83613826565b9150612f4382613d0a565b602082019050919050565b6000612f5b601483613826565b9150612f6682613d33565b602082019050919050565b6000612f7e601283613826565b9150612f8982613d5c565b602082019050919050565b6000612fa1602483613826565b9150612fac82613d85565b604082019050919050565b6000612fc4601983613826565b9150612fcf82613dd4565b602082019050919050565b6000612fe7602c83613826565b9150612ff282613dfd565b604082019050919050565b600061300a603883613826565b915061301582613e4c565b604082019050919050565b600061302d602a83613826565b915061303882613e9b565b604082019050919050565b6000613050602983613826565b915061305b82613eea565b604082019050919050565b6000613073602e83613826565b915061307e82613f39565b604082019050919050565b6000613096602083613826565b91506130a182613f88565b602082019050919050565b60006130b9603183613826565b91506130c482613fb1565b604082019050919050565b60006130dc602c83613826565b91506130e782614000565b604082019050919050565b60006130ff602083613826565b915061310a8261404f565b602082019050919050565b6000613122602f83613826565b915061312d82614078565b604082019050919050565b6000613145602183613826565b9150613150826140c7565b604082019050919050565b6000613168603183613826565b915061317382614116565b604082019050919050565b600061318b601183613826565b915061319682614165565b602082019050919050565b60006131ae601883613826565b91506131b98261418e565b602082019050919050565b60006131d1601783613826565b91506131dc826141b7565b602082019050919050565b6131f0816139dd565b82525050565b613207613202826139dd565b613aec565b82525050565b613216816139e7565b82525050565b60006132288285612e6e565b91506132348284612e6e565b91508190509392505050565b600061324b82612e9f565b91506132578284612de5565b60208201915081905092915050565b600061327282876131f6565b60208201915061328282866131f6565b6020820191506132928285612e6e565b915061329e82846131f6565b60208201915081905095945050505050565b60006020820190506132c56000830184612db8565b92915050565b60006020820190506132e06000830184612da9565b92915050565b60006080820190506132fb6000830187612db8565b6133086020830186612db8565b61331560408301856131e7565b81810360608301526133278184612dfc565b905095945050505050565b60006020820190506133476000830184612dc7565b92915050565b60006020820190506133626000830184612dd6565b92915050565b600060808201905061337d6000830187612dd6565b61338a602083018661320d565b6133976040830185612dd6565b6133a46060830184612dd6565b95945050505050565b600060208201905081810360008301526133c78184612e35565b905092915050565b600060208201905081810360008301526133e881612ec2565b9050919050565b6000602082019050818103600083015261340881612ee5565b9050919050565b6000602082019050818103600083015261342881612f08565b9050919050565b6000602082019050818103600083015261344881612f2b565b9050919050565b6000602082019050818103600083015261346881612f4e565b9050919050565b6000602082019050818103600083015261348881612f71565b9050919050565b600060208201905081810360008301526134a881612f94565b9050919050565b600060208201905081810360008301526134c881612fb7565b9050919050565b600060208201905081810360008301526134e881612fda565b9050919050565b6000602082019050818103600083015261350881612ffd565b9050919050565b6000602082019050818103600083015261352881613020565b9050919050565b6000602082019050818103600083015261354881613043565b9050919050565b6000602082019050818103600083015261356881613066565b9050919050565b6000602082019050818103600083015261358881613089565b9050919050565b600060208201905081810360008301526135a8816130ac565b9050919050565b600060208201905081810360008301526135c8816130cf565b9050919050565b600060208201905081810360008301526135e8816130f2565b9050919050565b6000602082019050818103600083015261360881613115565b9050919050565b6000602082019050818103600083015261362881613138565b9050919050565b600060208201905081810360008301526136488161315b565b9050919050565b600060208201905081810360008301526136688161317e565b9050919050565b60006020820190508181036000830152613688816131a1565b9050919050565b600060208201905081810360008301526136a8816131c4565b9050919050565b60006020820190506136c460008301846131e7565b92915050565b600080833560016020038436030381126136e357600080fd5b80840192508235915067ffffffffffffffff82111561370157600080fd5b60208301925060018202360383131561371957600080fd5b509250929050565b6000808335600160200384360303811261373a57600080fd5b80840192508235915067ffffffffffffffff82111561375857600080fd5b60208301925060018202360383131561377057600080fd5b509250929050565b6000613782613793565b905061378e8282613a68565b919050565b6000604051905090565b600067ffffffffffffffff8211156137b8576137b7613bb4565b5b6137c182613be3565b9050602081019050919050565b600067ffffffffffffffff8211156137e9576137e8613bb4565b5b6137f282613be3565b9050602081019050919050565b600081519050919050565b600081519050919050565b600082825260208201905092915050565b600082825260208201905092915050565b600081905092915050565b600061384d826139dd565b9150613858836139dd565b9250827fffffffffffffffffffffffffffffffffffffffffffffffffffffffffffffffff0382111561388d5761388c613b27565b5b828201905092915050565b60006138a3826139dd565b91506138ae836139dd565b9250826138be576138bd613b56565b5b828204905092915050565b60006138d4826139dd565b91506138df836139dd565b9250817fffffffffffffffffffffffffffffffffffffffffffffffffffffffffffffffff048311821515161561391857613917613b27565b5b828202905092915050565b600061392e826139dd565b9150613939836139dd565b92508282101561394c5761394b613b27565b5b828203905092915050565b6000613962826139bd565b9050919050565b6000613974826139bd565b9050919050565b60008115159050919050565b6000819050919050565b60007fffffffff0000000000000000000000000000000000000000000000000000000082169050919050565b600073ffffffffffffffffffffffffffffffffffffffff82169050919050565b6000819050919050565b600060ff82169050919050565b82818337600083830152505050565b60005b83811015613a21578082015181840152602081019050613a06565b83811115613a30576000848401525b50505050565b60006002820490506001821680613a4e57607f821691505b60208210811415613a6257613a61613b85565b5b50919050565b613a7182613be3565b810181811067ffffffffffffffff82111715613a9057613a8f613bb4565b5b80604052505050565b6000613aa4826139dd565b91507fffffffffffffffffffffffffffffffffffffffffffffffffffffffffffffffff821415613ad757613ad6613b27565b5b600182019050919050565b6000819050919050565b6000819050919050565b6000613b01826139dd565b9150613b0c836139dd565b925082613b1c57613b1b613b56565b5b828206905092915050565b7f4e487b7100000000000000000000000000000000000000000000000000000000600052601160045260246000fd5b7f4e487b7100000000000000000000000000000000000000000000000000000000600052601260045260246000fd5b7f4e487b7100000000000000000000000000000000000000000000000000000000600052602260045260246000fd5b7f4e487b7100000000000000000000000000000000000000000000000000000000600052604160045260246000fd5b6000601f19601f8301169050919050565b7f19457468657265756d205369676e6564204d6573736167653a0a333200000000600082015250565b7f4552433732313a207472616e7366657220746f206e6f6e20455243373231526560008201527f63656976657220696d706c656d656e7465720000000000000000000000000000602082015250565b7f4f776e61626c653a206e6577206f776e657220697320746865207a65726f206160008201527f6464726573730000000000000000000000000000000000000000000000000000602082015250565b7f4552433732313a207472616e736665722066726f6d20696e636f72726563742060008201527f6f776e6572000000000000000000000000000000000000000000000000000000602082015250565b7f4552433732313a20746f6b656e20616c7265616479206d696e74656400000000600082015250565b7f526f79616c69747920697320746f6f2068696768000000000000000000000000600082015250565b7f496e73756666696369656e742046756e64730000000000000000000000000000600082015250565b7f4552433732313a207472616e7366657220746f20746865207a65726f2061646460008201527f7265737300000000000000000000000000000000000000000000000000000000602082015250565b7f4552433732313a20617070726f766520746f2063616c6c657200000000000000600082015250565b7f4552433732313a206f70657261746f7220717565727920666f72206e6f6e657860008201527f697374656e7420746f6b656e0000000000000000000000000000000000000000602082015250565b7f4552433732313a20617070726f76652063616c6c6572206973206e6f74206f7760008201527f6e6572206e6f7220617070726f76656420666f7220616c6c0000000000000000602082015250565b7f4552433732313a2062616c616e636520717565727920666f7220746865207a6560008201527f726f206164647265737300000000000000000000000000000000000000000000602082015250565b7f4552433732313a206f776e657220717565727920666f72206e6f6e657869737460008201527f656e7420746f6b656e0000000000000000000000000000000000000000000000602082015250565b7f45524337323155524953746f726167653a2055524920736574206f66206e6f6e60008201527f6578697374656e7420746f6b656e000000000000000000000000000000000000602082015250565b7f4552433732313a206d696e7420746f20746865207a65726f2061646472657373600082015250565b7f45524337323155524953746f726167653a2055524920717565727920666f722060008201527f6e6f6e6578697374656e7420746f6b656e000000000000000000000000000000602082015250565b7f4552433732313a20617070726f76656420717565727920666f72206e6f6e657860008201527f697374656e7420746f6b656e0000000000000000000000000000000000000000602082015250565b7f4f776e61626c653a2063616c6c6572206973206e6f7420746865206f776e6572600082015250565b7f4552433732314d657461646174613a2055524920717565727920666f72206e6f60008201527f6e6578697374656e7420746f6b656e0000000000000000000000000000000000602082015250565b7f4552433732313a20617070726f76616c20746f2063757272656e74206f776e6560008201527f7200000000000000000000000000000000000000000000000000000000000000602082015250565b7f4552433732313a207472616e736665722063616c6c6572206973206e6f74206f60008201527f776e6572206e6f7220617070726f766564000000000000000000000000000000602082015250565b7f5369676e617475726520556e76616c6964000000000000000000000000000000600082015250565b7f696e76616c6964207369676e6174757265206c656e6774680000000000000000600082015250565b7f54686973206e6f6e636520616c726561647920646f6e65000000000000000000600082015250565b6141e981613957565b81146141f457600080fd5b50565b61420081613969565b811461420b57600080fd5b50565b6142178161397b565b811461422257600080fd5b50565b61422e81613987565b811461423957600080fd5b50565b61424581613991565b811461425057600080fd5b50565b61425c816139dd565b811461426757600080fd5b5056fea264697066735822122024a16a2a3ed76cb2835ef94237a3d864593f6fb6337d890bac855597437fec7c64736f6c63430008040033",
  "linkReferences": {},
  "deployedLinkReferences": {}
}