{
  "_format": "hh-sol-artifact-1",
  "contractName": "ERC721Token",
  "sourceName": "contracts/ERC721Token.sol",
  "abi": [
    {
      "inputs": [],
      "stateMutability": "nonpayable",
      "type": "constructor"
    },
    {
      "anonymous": false,
      "inputs": [
        {
          "indexed": true,
          "internalType": "address",
          "name": "owner",
          "type": "address"
        },
        {
          "indexed": true,
          "internalType": "address",
          "name": "approved",
          "type": "address"
        },
        {
          "indexed": true,
          "internalType": "uint256",
          "name": "tokenId",
          "type": "uint256"
        }
      ],
      "name": "Approval",
      "type": "event"
    },
    {
      "anonymous": false,
      "inputs": [
        {
          "indexed": true,
          "internalType": "address",
          "name": "owner",
          "type": "address"
        },
        {
          "indexed": true,
          "internalType": "address",
          "name": "operator",
          "type": "address"
        },
        {
          "indexed": false,
          "internalType": "bool",
          "name": "approved",
          "type": "bool"
        }
      ],
      "name": "ApprovalForAll",
      "type": "event"
    },
    {
      "anonymous": false,
      "inputs": [
        {
          "indexed": true,
          "internalType": "address",
          "name": "previousOwner",
          "type": "address"
        },
        {
          "indexed": true,
          "internalType": "address",
          "name": "newOwner",
          "type": "address"
        }
      ],
      "name": "OwnershipTransferred",
      "type": "event"
    },
    {
      "anonymous": false,
      "inputs": [
        {
          "indexed": true,
          "internalType": "address",
          "name": "from",
          "type": "address"
        },
        {
          "indexed": true,
          "internalType": "address",
          "name": "to",
          "type": "address"
        },
        {
          "indexed": true,
          "internalType": "uint256",
          "name": "tokenId",
          "type": "uint256"
        }
      ],
      "name": "Transfer",
      "type": "event"
    },
    {
      "inputs": [
        {
          "internalType": "address payable",
          "name": "creator",
          "type": "address"
        },
        {
          "components": [
            {
              "internalType": "uint256",
              "name": "vNonce",
              "type": "uint256"
            },
            {
              "internalType": "uint256",
              "name": "minPrice",
              "type": "uint256"
            },
            {
              "internalType": "string",
              "name": "tokenUri",
              "type": "string"
            },
            {
              "internalType": "bytes",
              "name": "signature",
              "type": "bytes"
            },
            {
              "internalType": "uint256",
              "name": "royality",
              "type": "uint256"
            }
          ],
          "internalType": "struct ERC721Token.NFTvoucher",
          "name": "voucher",
          "type": "tuple"
        }
      ],
      "name": "Lazymint",
      "outputs": [
        {
          "internalType": "uint256",
          "name": "",
          "type": "uint256"
        }
      ],
      "stateMutability": "payable",
      "type": "function"
    },
    {
      "inputs": [
        {
          "internalType": "address",
          "name": "to",
          "type": "address"
        },
        {
          "internalType": "uint256",
          "name": "tokenId",
          "type": "uint256"
        }
      ],
      "name": "approve",
      "outputs": [],
      "stateMutability": "nonpayable",
      "type": "function"
    },
    {
      "inputs": [
        {
          "internalType": "address",
          "name": "owner",
          "type": "address"
        }
      ],
      "name": "balanceOf",
      "outputs": [
        {
          "internalType": "uint256",
          "name": "",
          "type": "uint256"
        }
      ],
      "stateMutability": "view",
      "type": "function"
    },
    {
      "inputs": [],
      "name": "brokerAddress",
      "outputs": [
        {
          "internalType": "address",
          "name": "",
          "type": "address"
        }
      ],
      "stateMutability": "view",
      "type": "function"
    },
    {
      "inputs": [],
      "name": "brokerage",
      "outputs": [
        {
          "internalType": "uint256",
          "name": "",
          "type": "uint256"
        }
      ],
      "stateMutability": "view",
      "type": "function"
    },
    {
      "inputs": [
        {
          "internalType": "uint256",
          "name": "",
          "type": "uint256"
        }
      ],
      "name": "creators",
      "outputs": [
        {
          "internalType": "address payable",
          "name": "",
          "type": "address"
        }
      ],
      "stateMutability": "view",
      "type": "function"
    },
    {
      "inputs": [
        {
          "internalType": "bytes32",
          "name": "_messageHash",
          "type": "bytes32"
        }
      ],
      "name": "ethSignedMessageHash",
      "outputs": [
        {
          "internalType": "bytes32",
          "name": "",
          "type": "bytes32"
        }
      ],
      "stateMutability": "pure",
      "type": "function"
    },
    {
      "inputs": [
        {
          "internalType": "uint256",
          "name": "tokenId",
          "type": "uint256"
        }
      ],
      "name": "getApproved",
      "outputs": [
        {
          "internalType": "address",
          "name": "",
          "type": "address"
        }
      ],
      "stateMutability": "view",
      "type": "function"
    },
    {
      "inputs": [
        {
          "internalType": "uint256",
          "name": "_nonce",
          "type": "uint256"
        },
        {
          "internalType": "uint256",
          "name": "minPrice",
          "type": "uint256"
        },
        {
          "internalType": "string",
          "name": "tokenUri",
          "type": "string"
        },
        {
          "internalType": "uint256",
          "name": "royality",
          "type": "uint256"
        }
      ],
      "name": "getMessageHash",
      "outputs": [
        {
          "internalType": "bytes32",
          "name": "",
          "type": "bytes32"
        }
      ],
      "stateMutability": "pure",
      "type": "function"
    },
    {
      "inputs": [
        {
          "internalType": "address",
          "name": "owner",
          "type": "address"
        },
        {
          "internalType": "address",
          "name": "operator",
          "type": "address"
        }
      ],
      "name": "isApprovedForAll",
      "outputs": [
        {
          "internalType": "bool",
          "name": "",
          "type": "bool"
        }
      ],
      "stateMutability": "view",
      "type": "function"
    },
    {
      "inputs": [],
      "name": "maximumRoyality",
      "outputs": [
        {
          "internalType": "uint256",
          "name": "",
          "type": "uint256"
        }
      ],
      "stateMutability": "view",
      "type": "function"
    },
    {
      "inputs": [
        {
          "internalType": "address",
          "name": "to",
          "type": "address"
        },
        {
          "internalType": "string",
          "name": "tokenURI",
          "type": "string"
        }
      ],
      "name": "mint",
      "outputs": [
        {
          "internalType": "uint256",
          "name": "",
          "type": "uint256"
        }
      ],
      "stateMutability": "nonpayable",
      "type": "function"
    },
    {
      "inputs": [
        {
          "internalType": "uint256",
          "name": "",
          "type": "uint256"
        }
      ],
      "name": "mintedNonce",
      "outputs": [
        {
          "internalType": "bool",
          "name": "",
          "type": "bool"
        }
      ],
      "stateMutability": "view",
      "type": "function"
    },
    {
      "inputs": [],
      "name": "name",
      "outputs": [
        {
          "internalType": "string",
          "name": "",
          "type": "string"
        }
      ],
      "stateMutability": "view",
      "type": "function"
    },
    {
      "inputs": [],
      "name": "owner",
      "outputs": [
        {
          "internalType": "address",
          "name": "",
          "type": "address"
        }
      ],
      "stateMutability": "view",
      "type": "function"
    },
    {
      "inputs": [
        {
          "internalType": "uint256",
          "name": "tokenId",
          "type": "uint256"
        }
      ],
      "name": "ownerOf",
      "outputs": [
        {
          "internalType": "address",
          "name": "",
          "type": "address"
        }
      ],
      "stateMutability": "view",
      "type": "function"
    },
    {
      "inputs": [
        {
          "internalType": "bytes32",
          "name": "_ethSignedMessageHash",
          "type": "bytes32"
        },
        {
          "internalType": "bytes",
          "name": "_signature",
          "type": "bytes"
        }
      ],
      "name": "recoverSigner",
      "outputs": [
        {
          "internalType": "address",
          "name": "",
          "type": "address"
        }
      ],
      "stateMutability": "pure",
      "type": "function"
    },
    {
      "inputs": [],
      "name": "renounceOwnership",
      "outputs": [],
      "stateMutability": "nonpayable",
      "type": "function"
    },
    {
      "inputs": [
        {
          "internalType": "uint256",
          "name": "",
          "type": "uint256"
        }
      ],
      "name": "royalities",
      "outputs": [
        {
          "internalType": "uint256",
          "name": "",
          "type": "uint256"
        }
      ],
      "stateMutability": "view",
      "type": "function"
    },
    {
      "inputs": [
        {
          "internalType": "address",
          "name": "from",
          "type": "address"
        },
        {
          "internalType": "address",
          "name": "to",
          "type": "address"
        },
        {
          "internalType": "uint256",
          "name": "tokenId",
          "type": "uint256"
        }
      ],
      "name": "safeTransferFrom",
      "outputs": [],
      "stateMutability": "nonpayable",
      "type": "function"
    },
    {
      "inputs": [
        {
          "internalType": "address",
          "name": "from",
          "type": "address"
        },
        {
          "internalType": "address",
          "name": "to",
          "type": "address"
        },
        {
          "internalType": "uint256",
          "name": "tokenId",
          "type": "uint256"
        },
        {
          "internalType": "bytes",
          "name": "_data",
          "type": "bytes"
        }
      ],
      "name": "safeTransferFrom",
      "outputs": [],
      "stateMutability": "nonpayable",
      "type": "function"
    },
    {
      "inputs": [
        {
          "internalType": "address",
          "name": "operator",
          "type": "address"
        },
        {
          "internalType": "bool",
          "name": "approved",
          "type": "bool"
        }
      ],
      "name": "setApprovalForAll",
      "outputs": [],
      "stateMutability": "nonpayable",
      "type": "function"
    },
    {
      "inputs": [
        {
          "internalType": "uint256",
          "name": "_maxroyality",
          "type": "uint256"
        }
      ],
      "name": "setMaximumRoyality",
      "outputs": [],
      "stateMutability": "nonpayable",
      "type": "function"
    },
    {
      "inputs": [
        {
          "internalType": "bytes4",
          "name": "interfaceId",
          "type": "bytes4"
        }
      ],
      "name": "supportsInterface",
      "outputs": [
        {
          "internalType": "bool",
          "name": "",
          "type": "bool"
        }
      ],
      "stateMutability": "view",
      "type": "function"
    },
    {
      "inputs": [],
      "name": "symbol",
      "outputs": [
        {
          "internalType": "string",
          "name": "",
          "type": "string"
        }
      ],
      "stateMutability": "view",
      "type": "function"
    },
    {
      "inputs": [],
      "name": "tokenCount",
      "outputs": [
        {
          "internalType": "uint256",
          "name": "",
          "type": "uint256"
        }
      ],
      "stateMutability": "view",
      "type": "function"
    },
    {
      "inputs": [
        {
          "internalType": "uint256",
          "name": "",
          "type": "uint256"
        }
      ],
      "name": "tokenToNonce",
      "outputs": [
        {
          "internalType": "uint256",
          "name": "",
          "type": "uint256"
        }
      ],
      "stateMutability": "view",
      "type": "function"
    },
    {
      "inputs": [
        {
          "internalType": "uint256",
          "name": "tokenId",
          "type": "uint256"
        }
      ],
      "name": "tokenURI",
      "outputs": [
        {
          "internalType": "string",
          "name": "",
          "type": "string"
        }
      ],
      "stateMutability": "view",
      "type": "function"
    },
    {
      "inputs": [],
      "name": "totalCount",
      "outputs": [
        {
          "internalType": "uint256",
          "name": "",
          "type": "uint256"
        }
      ],
      "stateMutability": "view",
      "type": "function"
    },
    {
      "inputs": [
        {
          "internalType": "address",
          "name": "from",
          "type": "address"
        },
        {
          "internalType": "address",
          "name": "to",
          "type": "address"
        },
        {
          "internalType": "uint256",
          "name": "tokenId",
          "type": "uint256"
        }
      ],
      "name": "transferFrom",
      "outputs": [],
      "stateMutability": "nonpayable",
      "type": "function"
    },
    {
      "inputs": [
        {
          "internalType": "address",
          "name": "newOwner",
          "type": "address"
        }
      ],
      "name": "transferOwnership",
      "outputs": [],
      "stateMutability": "nonpayable",
      "type": "function"
    }
  ],
  "bytecode": "0x60806040523480156200001157600080fd5b506040518060400160405280600481526020017f41626869000000000000000000000000000000000000000000000000000000008152506040518060400160405280600581526020017f5368616b65000000000000000000000000000000000000000000000000000000815250816000908051906020019062000096929190620001d3565b508060019080519060200190620000af929190620001d3565b505050620000d2620000c6620000ef60201b60201c565b620000f760201b60201c565b620000e96008620001bd60201b620018681760201c565b620002e8565b600033905090565b6000600760009054906101000a900473ffffffffffffffffffffffffffffffffffffffff16905081600760006101000a81548173ffffffffffffffffffffffffffffffffffffffff021916908373ffffffffffffffffffffffffffffffffffffffff1602179055508173ffffffffffffffffffffffffffffffffffffffff168173ffffffffffffffffffffffffffffffffffffffff167f8be0079c531659141344cd1fd0a4f28419497f9722a3daafe3b4186f6b6457e060405160405180910390a35050565b6001816000016000828254019250508190555050565b828054620001e19062000283565b90600052602060002090601f01602090048101928262000205576000855562000251565b82601f106200022057805160ff191683800117855562000251565b8280016001018555821562000251579182015b828111156200025057825182559160200191906001019062000233565b5b50905062000260919062000264565b5090565b5b808211156200027f57600081600090555060010162000265565b5090565b600060028204905060018216806200029c57607f821691505b60208210811415620002b357620002b2620002b9565b5b50919050565b7f4e487b7100000000000000000000000000000000000000000000000000000000600052602260045260246000fd5b61438180620002f86000396000f3fe6080604052600436106101d85760003560e01c80638ef0e79f11610102578063b88d4fde11610095578063d98a17ed11610064578063d98a17ed14610737578063e985e9c514610762578063f2fde38b1461079f578063f6f4d632146107c8576101d8565b8063b88d4fde14610657578063c87b56dd14610680578063cd53d08e146106bd578063d0def521146106fa576101d8565b8063a027a1a7116100d1578063a027a1a714610577578063a22cb465146105b4578063a6cc7033146105dd578063b5004f011461061a576101d8565b80638ef0e79f146104b457806395d89b41146104e457806397aba7f91461050f5780639f181b5e1461054c576101d8565b80633fbf444e1161017a57806370a082311161014957806370a08231146103f8578063715018a614610435578063833e5d781461044c5780638da5cb5b14610489576101d8565b80633fbf444e1461033c57806342842e0e146103675780635089f796146103905780636352211e146103bb576101d8565b8063095ea7b3116101b6578063095ea7b3146102825780631ba9096f146102ab57806323b872dd146102e857806334eafb1114610311576101d8565b806301ffc9a7146101dd57806306fdde031461021a578063081812fc14610245575b600080fd5b3480156101e957600080fd5b5061020460048036038101906101ff9190612d94565b6107f1565b6040516102119190613413565b60405180910390f35b34801561022657600080fd5b5061022f6108d3565b60405161023c919061348e565b60405180910390f35b34801561025157600080fd5b5061026c60048036038101906102679190612de6565b610965565b6040516102799190613391565b60405180910390f35b34801561028e57600080fd5b506102a960048036038101906102a49190612cdb565b6109ea565b005b3480156102b757600080fd5b506102d260048036038101906102cd9190612d17565b610b02565b6040516102df919061342e565b60405180910390f35b3480156102f457600080fd5b5061030f600480360381019061030a9190612b81565b610b31565b005b34801561031d57600080fd5b50610326610b91565b6040516103339190613790565b60405180910390f35b34801561034857600080fd5b50610351610b97565b60405161035e9190613790565b60405180910390f35b34801561037357600080fd5b5061038e60048036038101906103899190612b81565b610b9d565b005b34801561039c57600080fd5b506103a5610bbd565b6040516103b29190613391565b60405180910390f35b3480156103c757600080fd5b506103e260048036038101906103dd9190612de6565b610be3565b6040516103ef9190613391565b60405180910390f35b34801561040457600080fd5b5061041f600480360381019061041a9190612ac8565b610c95565b60405161042c9190613790565b60405180910390f35b34801561044157600080fd5b5061044a610d4d565b005b34801561045857600080fd5b50610473600480360381019061046e9190612e0f565b610dd5565b604051610480919061342e565b60405180910390f35b34801561049557600080fd5b5061049e610e0e565b6040516104ab9190613391565b60405180910390f35b6104ce60048036038101906104c99190612af1565b610e38565b6040516104db9190613790565b60405180910390f35b3480156104f057600080fd5b506104f96112c5565b604051610506919061348e565b60405180910390f35b34801561051b57600080fd5b5061053660048036038101906105319190612d40565b611357565b6040516105439190613391565b60405180910390f35b34801561055857600080fd5b506105616113c6565b60405161056e9190613790565b60405180910390f35b34801561058357600080fd5b5061059e60048036038101906105999190612de6565b6113cc565b6040516105ab9190613413565b60405180910390f35b3480156105c057600080fd5b506105db60048036038101906105d69190612c4b565b6113ec565b005b3480156105e957600080fd5b5061060460048036038101906105ff9190612de6565b611402565b6040516106119190613790565b60405180910390f35b34801561062657600080fd5b50610641600480360381019061063c9190612de6565b61141a565b60405161064e9190613790565b60405180910390f35b34801561066357600080fd5b5061067e60048036038101906106799190612bd0565b611432565b005b34801561068c57600080fd5b506106a760048036038101906106a29190612de6565b611494565b6040516106b4919061348e565b60405180910390f35b3480156106c957600080fd5b506106e460048036038101906106df9190612de6565b6115e6565b6040516106f191906133ac565b60405180910390f35b34801561070657600080fd5b50610721600480360381019061071c9190612c87565b611619565b60405161072e9190613790565b60405180910390f35b34801561074357600080fd5b5061074c611650565b6040516107599190613790565b60405180910390f35b34801561076e57600080fd5b5061078960048036038101906107849190612b45565b611656565b6040516107969190613413565b60405180910390f35b3480156107ab57600080fd5b506107c660048036038101906107c19190612ac8565b6116ea565b005b3480156107d457600080fd5b506107ef60048036038101906107ea9190612de6565b6117e2565b005b60007f80ac58cd000000000000000000000000000000000000000000000000000000007bffffffffffffffffffffffffffffffffffffffffffffffffffffffff1916827bffffffffffffffffffffffffffffffffffffffffffffffffffffffff191614806108bc57507f5b5e139f000000000000000000000000000000000000000000000000000000007bffffffffffffffffffffffffffffffffffffffffffffffffffffffff1916827bffffffffffffffffffffffffffffffffffffffffffffffffffffffff1916145b806108cc57506108cb8261187e565b5b9050919050565b6060600080546108e290613b17565b80601f016020809104026020016040519081016040528092919081815260200182805461090e90613b17565b801561095b5780601f106109305761010080835404028352916020019161095b565b820191906000526020600020905b81548152906001019060200180831161093e57829003601f168201915b5050505050905090565b6000610970826118e8565b6109af576040517f08c379a00000000000000000000000000000000000000000000000000000000081526004016109a690613690565b60405180910390fd5b6004600083815260200190815260200160002060009054906101000a900473ffffffffffffffffffffffffffffffffffffffff169050919050565b60006109f582610be3565b90508073ffffffffffffffffffffffffffffffffffffffff168373ffffffffffffffffffffffffffffffffffffffff161415610a66576040517f08c379a0000000000000000000000000000000000000000000000000000000008152600401610a5d906136f0565b60405180910390fd5b8073ffffffffffffffffffffffffffffffffffffffff16610a85611954565b73ffffffffffffffffffffffffffffffffffffffff161480610ab45750610ab381610aae611954565b611656565b5b610af3576040517f08c379a0000000000000000000000000000000000000000000000000000000008152600401610aea906135d0565b60405180910390fd5b610afd838361195c565b505050565b600081604051602001610b159190613321565b6040516020818303038152906040528051906020012050919050565b610b42610b3c611954565b82611a15565b610b81576040517f08c379a0000000000000000000000000000000000000000000000000000000008152600401610b7890613710565b60405180910390fd5b610b8c838383611af3565b505050565b600b5481565b60105481565b610bb883838360405180602001604052806000815250611432565b505050565b601160009054906101000a900473ffffffffffffffffffffffffffffffffffffffff1681565b6000806002600084815260200190815260200160002060009054906101000a900473ffffffffffffffffffffffffffffffffffffffff169050600073ffffffffffffffffffffffffffffffffffffffff168173ffffffffffffffffffffffffffffffffffffffff161415610c8c576040517f08c379a0000000000000000000000000000000000000000000000000000000008152600401610c8390613610565b60405180910390fd5b80915050919050565b60008073ffffffffffffffffffffffffffffffffffffffff168273ffffffffffffffffffffffffffffffffffffffff161415610d06576040517f08c379a0000000000000000000000000000000000000000000000000000000008152600401610cfd906135f0565b60405180910390fd5b600360008373ffffffffffffffffffffffffffffffffffffffff1673ffffffffffffffffffffffffffffffffffffffff168152602001908152602001600020549050919050565b610d55611954565b73ffffffffffffffffffffffffffffffffffffffff16610d73610e0e565b73ffffffffffffffffffffffffffffffffffffffff1614610dc9576040517f08c379a0000000000000000000000000000000000000000000000000000000008152600401610dc0906136b0565b60405180910390fd5b610dd36000611d5a565b565b600084848484604051602001610dee9493929190613347565b604051602081830303815290604052805190602001209050949350505050565b6000600760009054906101000a900473ffffffffffffffffffffffffffffffffffffffff16905090565b6000801515600960008460000135815260200190815260200160002060009054906101000a900460ff16151514610ea4576040517f08c379a0000000000000000000000000000000000000000000000000000000008152600401610e9b90613770565b60405180910390fd5b6000610f1083600001358460200135858060400190610ec39190613802565b8080601f016020809104026020016040519081016040528093929190818152602001838380828437600081840152601f19601f820116905080830192505050505050508660800135610dd5565b90506000610f1d82610b02565b90506000610f7d82868060600190610f3591906137ab565b8080601f016020809104026020016040519081016040528093929190818152602001838380828437600081840152601f19601f82011690508083019250505050505050611357565b90506001601254610f8e9190613923565b60128190555085600d6000601254815260200190815260200160002060006101000a81548173ffffffffffffffffffffffffffffffffffffffff021916908373ffffffffffffffffffffffffffffffffffffffff1602179055508073ffffffffffffffffffffffffffffffffffffffff168673ffffffffffffffffffffffffffffffffffffffff1614611056576040517f08c379a000000000000000000000000000000000000000000000000000000000815260040161104d90613730565b60405180910390fd5b846020013534101561109d576040517f08c379a000000000000000000000000000000000000000000000000000000000815260040161109490613550565b60405180910390fd5b600f54856080013511156110e6576040517f08c379a00000000000000000000000000000000000000000000000000000000081526004016110dd90613530565b60405180910390fd5b6110f281601254611e20565b8460800135600c600060125481526020019081526020016000208190555061116e6012548680604001906111269190613802565b8080601f016020809104026020016040519081016040528093929190818152602001838380828437600081840152601f19601f82011690508083019250505050505050611e3e565b61117b8133601254611af3565b600034905060006064806010548461119391906139aa565b61119d9190613979565b6111a79190613979565b9050601160009054906101000a900473ffffffffffffffffffffffffffffffffffffffff1673ffffffffffffffffffffffffffffffffffffffff166108fc829081150290604051600060405180830381858888f19350505050158015611211573d6000803e3d6000fd5b50808261121e9190613a04565b91508773ffffffffffffffffffffffffffffffffffffffff166108fc839081150290604051600060405180830381858888f19350505050158015611266573d6000803e3d6000fd5b506001600960008960000135815260200190815260200160002060006101000a81548160ff0219169083151502179055508660000135600a60006012548152602001908152602001600020819055506012549550505050505092915050565b6060600180546112d490613b17565b80601f016020809104026020016040519081016040528092919081815260200182805461130090613b17565b801561134d5780601f106113225761010080835404028352916020019161134d565b820191906000526020600020905b81548152906001019060200180831161133057829003601f168201915b5050505050905090565b60008060008061136685611eb2565b9250925092506001868285856040516000815260200160405260405161138f9493929190613449565b6020604051602081039080840390855afa1580156113b1573d6000803e3d6000fd5b50505060206040510351935050505092915050565b60125481565b60096020528060005260406000206000915054906101000a900460ff1681565b6113fe6113f7611954565b8383611f1a565b5050565b600a6020528060005260406000206000915090505481565b600c6020528060005260406000206000915090505481565b61144361143d611954565b83611a15565b611482576040517f08c379a000000000000000000000000000000000000000000000000000000000815260040161147990613710565b60405180910390fd5b61148e84848484612087565b50505050565b606061149f826118e8565b6114de576040517f08c379a00000000000000000000000000000000000000000000000000000000081526004016114d590613670565b60405180910390fd5b6000600e600084815260200190815260200160002080546114fe90613b17565b80601f016020809104026020016040519081016040528092919081815260200182805461152a90613b17565b80156115775780601f1061154c57610100808354040283529160200191611577565b820191906000526020600020905b81548152906001019060200180831161155a57829003601f168201915b5050505050905060006115886120e3565b905060008151141561159e5781925050506115e1565b6000825111156115d35780826040516020016115bb9291906132fd565b604051602081830303815290604052925050506115e1565b6115dc846120fa565b925050505b919050565b600d6020528060005260406000206000915054906101000a900473ffffffffffffffffffffffffffffffffffffffff1681565b600080611626600861224c565b9050611632848261225a565b61163c8184611e3e565b6116466008611868565b8091505092915050565b600f5481565b6000600560008473ffffffffffffffffffffffffffffffffffffffff1673ffffffffffffffffffffffffffffffffffffffff16815260200190815260200160002060008373ffffffffffffffffffffffffffffffffffffffff1673ffffffffffffffffffffffffffffffffffffffff16815260200190815260200160002060009054906101000a900460ff16905092915050565b6116f2611954565b73ffffffffffffffffffffffffffffffffffffffff16611710610e0e565b73ffffffffffffffffffffffffffffffffffffffff1614611766576040517f08c379a000000000000000000000000000000000000000000000000000000000815260040161175d906136b0565b60405180910390fd5b600073ffffffffffffffffffffffffffffffffffffffff168173ffffffffffffffffffffffffffffffffffffffff1614156117d6576040517f08c379a00000000000000000000000000000000000000000000000000000000081526004016117cd906134d0565b60405180910390fd5b6117df81611d5a565b50565b6117ea611954565b73ffffffffffffffffffffffffffffffffffffffff16611808610e0e565b73ffffffffffffffffffffffffffffffffffffffff161461185e576040517f08c379a0000000000000000000000000000000000000000000000000000000008152600401611855906136b0565b60405180910390fd5b80600f8190555050565b6001816000016000828254019250508190555050565b60007f01ffc9a7000000000000000000000000000000000000000000000000000000007bffffffffffffffffffffffffffffffffffffffffffffffffffffffff1916827bffffffffffffffffffffffffffffffffffffffffffffffffffffffff1916149050919050565b60008073ffffffffffffffffffffffffffffffffffffffff166002600084815260200190815260200160002060009054906101000a900473ffffffffffffffffffffffffffffffffffffffff1673ffffffffffffffffffffffffffffffffffffffff1614159050919050565b600033905090565b816004600083815260200190815260200160002060006101000a81548173ffffffffffffffffffffffffffffffffffffffff021916908373ffffffffffffffffffffffffffffffffffffffff160217905550808273ffffffffffffffffffffffffffffffffffffffff166119cf83610be3565b73ffffffffffffffffffffffffffffffffffffffff167f8c5be1e5ebec7d5bd14f71427d1e84f3dd0314c0f7b2291e5b200ac8c7c3b92560405160405180910390a45050565b6000611a20826118e8565b611a5f576040517f08c379a0000000000000000000000000000000000000000000000000000000008152600401611a56906135b0565b60405180910390fd5b6000611a6a83610be3565b90508073ffffffffffffffffffffffffffffffffffffffff168473ffffffffffffffffffffffffffffffffffffffff161480611aac5750611aab8185611656565b5b80611aea57508373ffffffffffffffffffffffffffffffffffffffff16611ad284610965565b73ffffffffffffffffffffffffffffffffffffffff16145b91505092915050565b8273ffffffffffffffffffffffffffffffffffffffff16611b1382610be3565b73ffffffffffffffffffffffffffffffffffffffff1614611b69576040517f08c379a0000000000000000000000000000000000000000000000000000000008152600401611b60906134f0565b60405180910390fd5b600073ffffffffffffffffffffffffffffffffffffffff168273ffffffffffffffffffffffffffffffffffffffff161415611bd9576040517f08c379a0000000000000000000000000000000000000000000000000000000008152600401611bd090613570565b60405180910390fd5b611be4838383612434565b611bef60008261195c565b6001600360008573ffffffffffffffffffffffffffffffffffffffff1673ffffffffffffffffffffffffffffffffffffffff1681526020019081526020016000206000828254611c3f9190613a04565b925050819055506001600360008473ffffffffffffffffffffffffffffffffffffffff1673ffffffffffffffffffffffffffffffffffffffff1681526020019081526020016000206000828254611c969190613923565b92505081905550816002600083815260200190815260200160002060006101000a81548173ffffffffffffffffffffffffffffffffffffffff021916908373ffffffffffffffffffffffffffffffffffffffff160217905550808273ffffffffffffffffffffffffffffffffffffffff168473ffffffffffffffffffffffffffffffffffffffff167fddf252ad1be2c89b69c2b068fc378daa952ba7f163c4a11628f55a4df523b3ef60405160405180910390a4611d55838383612439565b505050565b6000600760009054906101000a900473ffffffffffffffffffffffffffffffffffffffff16905081600760006101000a81548173ffffffffffffffffffffffffffffffffffffffff021916908373ffffffffffffffffffffffffffffffffffffffff1602179055508173ffffffffffffffffffffffffffffffffffffffff168173ffffffffffffffffffffffffffffffffffffffff167f8be0079c531659141344cd1fd0a4f28419497f9722a3daafe3b4186f6b6457e060405160405180910390a35050565b611e3a82826040518060200160405280600081525061243e565b5050565b611e47826118e8565b611e86576040517f08c379a0000000000000000000000000000000000000000000000000000000008152600401611e7d90613630565b60405180910390fd5b80600e60008481526020019081526020016000209080519060200190611ead9291906128a7565b505050565b60008060006041845114611efb576040517f08c379a0000000000000000000000000000000000000000000000000000000008152600401611ef290613750565b60405180910390fd5b6020840151925060408401519150606084015160001a90509193909250565b8173ffffffffffffffffffffffffffffffffffffffff168373ffffffffffffffffffffffffffffffffffffffff161415611f89576040517f08c379a0000000000000000000000000000000000000000000000000000000008152600401611f8090613590565b60405180910390fd5b80600560008573ffffffffffffffffffffffffffffffffffffffff1673ffffffffffffffffffffffffffffffffffffffff16815260200190815260200160002060008473ffffffffffffffffffffffffffffffffffffffff1673ffffffffffffffffffffffffffffffffffffffff16815260200190815260200160002060006101000a81548160ff0219169083151502179055508173ffffffffffffffffffffffffffffffffffffffff168373ffffffffffffffffffffffffffffffffffffffff167f17307eab39ab6107e8899845ad3d59bd9653f200f220920489ca2b5937696c318360405161207a9190613413565b60405180910390a3505050565b612092848484611af3565b61209e84848484612499565b6120dd576040517f08c379a00000000000000000000000000000000000000000000000000000000081526004016120d4906134b0565b60405180910390fd5b50505050565b606060405180602001604052806000815250905090565b6060612105826118e8565b612144576040517f08c379a000000000000000000000000000000000000000000000000000000000815260040161213b90613670565b60405180910390fd5b600060066000848152602001908152602001600020805461216490613b17565b80601f016020809104026020016040519081016040528092919081815260200182805461219090613b17565b80156121dd5780601f106121b2576101008083540402835291602001916121dd565b820191906000526020600020905b8154815290600101906020018083116121c057829003601f168201915b5050505050905060006121ee6120e3565b9050600081511415612204578192505050612247565b6000825111156122395780826040516020016122219291906132fd565b60405160208183030381529060405292505050612247565b61224284612630565b925050505b919050565b600081600001549050919050565b600073ffffffffffffffffffffffffffffffffffffffff168273ffffffffffffffffffffffffffffffffffffffff1614156122ca576040517f08c379a00000000000000000000000000000000000000000000000000000000081526004016122c190613650565b60405180910390fd5b6122d3816118e8565b15612313576040517f08c379a000000000000000000000000000000000000000000000000000000000815260040161230a90613510565b60405180910390fd5b61231f60008383612434565b6001600360008473ffffffffffffffffffffffffffffffffffffffff1673ffffffffffffffffffffffffffffffffffffffff168152602001908152602001600020600082825461236f9190613923565b92505081905550816002600083815260200190815260200160002060006101000a81548173ffffffffffffffffffffffffffffffffffffffff021916908373ffffffffffffffffffffffffffffffffffffffff160217905550808273ffffffffffffffffffffffffffffffffffffffff16600073ffffffffffffffffffffffffffffffffffffffff167fddf252ad1be2c89b69c2b068fc378daa952ba7f163c4a11628f55a4df523b3ef60405160405180910390a461243060008383612439565b5050565b505050565b505050565b612448838361225a565b6124556000848484612499565b612494576040517f08c379a000000000000000000000000000000000000000000000000000000000815260040161248b906134b0565b60405180910390fd5b505050565b60006124ba8473ffffffffffffffffffffffffffffffffffffffff166126d7565b15612623578373ffffffffffffffffffffffffffffffffffffffff1663150b7a026124e3611954565b8786866040518563ffffffff1660e01b815260040161250594939291906133c7565b602060405180830381600087803b15801561251f57600080fd5b505af192505050801561255057506040513d601f19601f8201168201806040525081019061254d9190612dbd565b60015b6125d3573d8060008114612580576040519150601f19603f3d011682016040523d82523d6000602084013e612585565b606091505b506000815114156125cb576040517f08c379a00000000000000000000000000000000000000000000000000000000081526004016125c2906134b0565b60405180910390fd5b805181602001fd5b63150b7a0260e01b7bffffffffffffffffffffffffffffffffffffffffffffffffffffffff1916817bffffffffffffffffffffffffffffffffffffffffffffffffffffffff191614915050612628565b600190505b949350505050565b606061263b826118e8565b61267a576040517f08c379a0000000000000000000000000000000000000000000000000000000008152600401612671906136d0565b60405180910390fd5b60006126846120e3565b905060008151116126a457604051806020016040528060008152506126cf565b806126ae846126fa565b6040516020016126bf9291906132fd565b6040516020818303038152906040525b915050919050565b6000808273ffffffffffffffffffffffffffffffffffffffff163b119050919050565b60606000821415612742576040518060400160405280600181526020017f300000000000000000000000000000000000000000000000000000000000000081525090506128a2565b600082905060005b6000821461277457808061275d90613b7a565b915050600a8261276d9190613979565b915061274a565b60008167ffffffffffffffff8111156127b6577f4e487b7100000000000000000000000000000000000000000000000000000000600052604160045260246000fd5b6040519080825280601f01601f1916602001820160405280156127e85781602001600182028036833780820191505090505b5090505b6000851461289b576001826128019190613a04565b9150600a856128109190613bd7565b603061281c9190613923565b60f81b818381518110612858577f4e487b7100000000000000000000000000000000000000000000000000000000600052603260045260246000fd5b60200101907effffffffffffffffffffffffffffffffffffffffffffffffffffffffffffff1916908160001a905350600a856128949190613979565b94506127ec565b8093505050505b919050565b8280546128b390613b17565b90600052602060002090601f0160209004810192826128d5576000855561291c565b82601f106128ee57805160ff191683800117855561291c565b8280016001018555821561291c579182015b8281111561291b578251825591602001919060010190612900565b5b509050612929919061292d565b5090565b5b8082111561294657600081600090555060010161292e565b5090565b600061295d6129588461387e565b613859565b90508281526020810184848401111561297557600080fd5b612980848285613ad5565b509392505050565b600061299b612996846138af565b613859565b9050828152602081018484840111156129b357600080fd5b6129be848285613ad5565b509392505050565b6000813590506129d5816142c1565b92915050565b6000813590506129ea816142d8565b92915050565b6000813590506129ff816142ef565b92915050565b600081359050612a1481614306565b92915050565b600081359050612a298161431d565b92915050565b600081519050612a3e8161431d565b92915050565b600082601f830112612a5557600080fd5b8135612a6584826020860161294a565b91505092915050565b600082601f830112612a7f57600080fd5b8135612a8f848260208601612988565b91505092915050565b600060a08284031215612aaa57600080fd5b81905092915050565b600081359050612ac281614334565b92915050565b600060208284031215612ada57600080fd5b6000612ae8848285016129c6565b91505092915050565b60008060408385031215612b0457600080fd5b6000612b12858286016129db565b925050602083013567ffffffffffffffff811115612b2f57600080fd5b612b3b85828601612a98565b9150509250929050565b60008060408385031215612b5857600080fd5b6000612b66858286016129c6565b9250506020612b77858286016129c6565b9150509250929050565b600080600060608486031215612b9657600080fd5b6000612ba4868287016129c6565b9350506020612bb5868287016129c6565b9250506040612bc686828701612ab3565b9150509250925092565b60008060008060808587031215612be657600080fd5b6000612bf4878288016129c6565b9450506020612c05878288016129c6565b9350506040612c1687828801612ab3565b925050606085013567ffffffffffffffff811115612c3357600080fd5b612c3f87828801612a44565b91505092959194509250565b60008060408385031215612c5e57600080fd5b6000612c6c858286016129c6565b9250506020612c7d858286016129f0565b9150509250929050565b60008060408385031215612c9a57600080fd5b6000612ca8858286016129c6565b925050602083013567ffffffffffffffff811115612cc557600080fd5b612cd185828601612a6e565b9150509250929050565b60008060408385031215612cee57600080fd5b6000612cfc858286016129c6565b9250506020612d0d85828601612ab3565b9150509250929050565b600060208284031215612d2957600080fd5b6000612d3784828501612a05565b91505092915050565b60008060408385031215612d5357600080fd5b6000612d6185828601612a05565b925050602083013567ffffffffffffffff811115612d7e57600080fd5b612d8a85828601612a44565b9150509250929050565b600060208284031215612da657600080fd5b6000612db484828501612a1a565b91505092915050565b600060208284031215612dcf57600080fd5b6000612ddd84828501612a2f565b91505092915050565b600060208284031215612df857600080fd5b6000612e0684828501612ab3565b91505092915050565b60008060008060808587031215612e2557600080fd5b6000612e3387828801612ab3565b9450506020612e4487828801612ab3565b935050604085013567ffffffffffffffff811115612e6157600080fd5b612e6d87828801612a6e565b9250506060612e7e87828801612ab3565b91505092959194509250565b612e9381613a4a565b82525050565b612ea281613a38565b82525050565b612eb181613a5c565b82525050565b612ec081613a68565b82525050565b612ed7612ed282613a68565b613bc3565b82525050565b6000612ee8826138e0565b612ef281856138f6565b9350612f02818560208601613ae4565b612f0b81613cc4565b840191505092915050565b6000612f21826138eb565b612f2b8185613907565b9350612f3b818560208601613ae4565b612f4481613cc4565b840191505092915050565b6000612f5a826138eb565b612f648185613918565b9350612f74818560208601613ae4565b80840191505092915050565b6000612f8d601c83613918565b9150612f9882613cd5565b601c82019050919050565b6000612fb0603283613907565b9150612fbb82613cfe565b604082019050919050565b6000612fd3602683613907565b9150612fde82613d4d565b604082019050919050565b6000612ff6602583613907565b915061300182613d9c565b604082019050919050565b6000613019601c83613907565b915061302482613deb565b602082019050919050565b600061303c601483613907565b915061304782613e14565b602082019050919050565b600061305f601283613907565b915061306a82613e3d565b602082019050919050565b6000613082602483613907565b915061308d82613e66565b604082019050919050565b60006130a5601983613907565b91506130b082613eb5565b602082019050919050565b60006130c8602c83613907565b91506130d382613ede565b604082019050919050565b60006130eb603883613907565b91506130f682613f2d565b604082019050919050565b600061310e602a83613907565b915061311982613f7c565b604082019050919050565b6000613131602983613907565b915061313c82613fcb565b604082019050919050565b6000613154602e83613907565b915061315f8261401a565b604082019050919050565b6000613177602083613907565b915061318282614069565b602082019050919050565b600061319a603183613907565b91506131a582614092565b604082019050919050565b60006131bd602c83613907565b91506131c8826140e1565b604082019050919050565b60006131e0602083613907565b91506131eb82614130565b602082019050919050565b6000613203602f83613907565b915061320e82614159565b604082019050919050565b6000613226602183613907565b9150613231826141a8565b604082019050919050565b6000613249603183613907565b9150613254826141f7565b604082019050919050565b600061326c601183613907565b915061327782614246565b602082019050919050565b600061328f601883613907565b915061329a8261426f565b602082019050919050565b60006132b2601783613907565b91506132bd82614298565b602082019050919050565b6132d181613abe565b82525050565b6132e86132e382613abe565b613bcd565b82525050565b6132f781613ac8565b82525050565b60006133098285612f4f565b91506133158284612f4f565b91508190509392505050565b600061332c82612f80565b91506133388284612ec6565b60208201915081905092915050565b600061335382876132d7565b60208201915061336382866132d7565b6020820191506133738285612f4f565b915061337f82846132d7565b60208201915081905095945050505050565b60006020820190506133a66000830184612e99565b92915050565b60006020820190506133c16000830184612e8a565b92915050565b60006080820190506133dc6000830187612e99565b6133e96020830186612e99565b6133f660408301856132c8565b81810360608301526134088184612edd565b905095945050505050565b60006020820190506134286000830184612ea8565b92915050565b60006020820190506134436000830184612eb7565b92915050565b600060808201905061345e6000830187612eb7565b61346b60208301866132ee565b6134786040830185612eb7565b6134856060830184612eb7565b95945050505050565b600060208201905081810360008301526134a88184612f16565b905092915050565b600060208201905081810360008301526134c981612fa3565b9050919050565b600060208201905081810360008301526134e981612fc6565b9050919050565b6000602082019050818103600083015261350981612fe9565b9050919050565b600060208201905081810360008301526135298161300c565b9050919050565b600060208201905081810360008301526135498161302f565b9050919050565b6000602082019050818103600083015261356981613052565b9050919050565b6000602082019050818103600083015261358981613075565b9050919050565b600060208201905081810360008301526135a981613098565b9050919050565b600060208201905081810360008301526135c9816130bb565b9050919050565b600060208201905081810360008301526135e9816130de565b9050919050565b6000602082019050818103600083015261360981613101565b9050919050565b6000602082019050818103600083015261362981613124565b9050919050565b6000602082019050818103600083015261364981613147565b9050919050565b600060208201905081810360008301526136698161316a565b9050919050565b600060208201905081810360008301526136898161318d565b9050919050565b600060208201905081810360008301526136a9816131b0565b9050919050565b600060208201905081810360008301526136c9816131d3565b9050919050565b600060208201905081810360008301526136e9816131f6565b9050919050565b6000602082019050818103600083015261370981613219565b9050919050565b600060208201905081810360008301526137298161323c565b9050919050565b600060208201905081810360008301526137498161325f565b9050919050565b6000602082019050818103600083015261376981613282565b9050919050565b60006020820190508181036000830152613789816132a5565b9050919050565b60006020820190506137a560008301846132c8565b92915050565b600080833560016020038436030381126137c457600080fd5b80840192508235915067ffffffffffffffff8211156137e257600080fd5b6020830192506001820236038313156137fa57600080fd5b509250929050565b6000808335600160200384360303811261381b57600080fd5b80840192508235915067ffffffffffffffff82111561383957600080fd5b60208301925060018202360383131561385157600080fd5b509250929050565b6000613863613874565b905061386f8282613b49565b919050565b6000604051905090565b600067ffffffffffffffff82111561389957613898613c95565b5b6138a282613cc4565b9050602081019050919050565b600067ffffffffffffffff8211156138ca576138c9613c95565b5b6138d382613cc4565b9050602081019050919050565b600081519050919050565b600081519050919050565b600082825260208201905092915050565b600082825260208201905092915050565b600081905092915050565b600061392e82613abe565b915061393983613abe565b9250827fffffffffffffffffffffffffffffffffffffffffffffffffffffffffffffffff0382111561396e5761396d613c08565b5b828201905092915050565b600061398482613abe565b915061398f83613abe565b92508261399f5761399e613c37565b5b828204905092915050565b60006139b582613abe565b91506139c083613abe565b9250817fffffffffffffffffffffffffffffffffffffffffffffffffffffffffffffffff04831182151516156139f9576139f8613c08565b5b828202905092915050565b6000613a0f82613abe565b9150613a1a83613abe565b925082821015613a2d57613a2c613c08565b5b828203905092915050565b6000613a4382613a9e565b9050919050565b6000613a5582613a9e565b9050919050565b60008115159050919050565b6000819050919050565b60007fffffffff0000000000000000000000000000000000000000000000000000000082169050919050565b600073ffffffffffffffffffffffffffffffffffffffff82169050919050565b6000819050919050565b600060ff82169050919050565b82818337600083830152505050565b60005b83811015613b02578082015181840152602081019050613ae7565b83811115613b11576000848401525b50505050565b60006002820490506001821680613b2f57607f821691505b60208210811415613b4357613b42613c66565b5b50919050565b613b5282613cc4565b810181811067ffffffffffffffff82111715613b7157613b70613c95565b5b80604052505050565b6000613b8582613abe565b91507fffffffffffffffffffffffffffffffffffffffffffffffffffffffffffffffff821415613bb857613bb7613c08565b5b600182019050919050565b6000819050919050565b6000819050919050565b6000613be282613abe565b9150613bed83613abe565b925082613bfd57613bfc613c37565b5b828206905092915050565b7f4e487b7100000000000000000000000000000000000000000000000000000000600052601160045260246000fd5b7f4e487b7100000000000000000000000000000000000000000000000000000000600052601260045260246000fd5b7f4e487b7100000000000000000000000000000000000000000000000000000000600052602260045260246000fd5b7f4e487b7100000000000000000000000000000000000000000000000000000000600052604160045260246000fd5b6000601f19601f8301169050919050565b7f19457468657265756d205369676e6564204d6573736167653a0a333200000000600082015250565b7f4552433732313a207472616e7366657220746f206e6f6e20455243373231526560008201527f63656976657220696d706c656d656e7465720000000000000000000000000000602082015250565b7f4f776e61626c653a206e6577206f776e657220697320746865207a65726f206160008201527f6464726573730000000000000000000000000000000000000000000000000000602082015250565b7f4552433732313a207472616e736665722066726f6d20696e636f72726563742060008201527f6f776e6572000000000000000000000000000000000000000000000000000000602082015250565b7f4552433732313a20746f6b656e20616c7265616479206d696e74656400000000600082015250565b7f526f79616c69747920697320746f6f2068696768000000000000000000000000600082015250565b7f496e73756666696369656e742046756e64730000000000000000000000000000600082015250565b7f4552433732313a207472616e7366657220746f20746865207a65726f2061646460008201527f7265737300000000000000000000000000000000000000000000000000000000602082015250565b7f4552433732313a20617070726f766520746f2063616c6c657200000000000000600082015250565b7f4552433732313a206f70657261746f7220717565727920666f72206e6f6e657860008201527f697374656e7420746f6b656e0000000000000000000000000000000000000000602082015250565b7f4552433732313a20617070726f76652063616c6c6572206973206e6f74206f7760008201527f6e6572206e6f7220617070726f76656420666f7220616c6c0000000000000000602082015250565b7f4552433732313a2062616c616e636520717565727920666f7220746865207a6560008201527f726f206164647265737300000000000000000000000000000000000000000000602082015250565b7f4552433732313a206f776e657220717565727920666f72206e6f6e657869737460008201527f656e7420746f6b656e0000000000000000000000000000000000000000000000602082015250565b7f45524337323155524953746f726167653a2055524920736574206f66206e6f6e60008201527f6578697374656e7420746f6b656e000000000000000000000000000000000000602082015250565b7f4552433732313a206d696e7420746f20746865207a65726f2061646472657373600082015250565b7f45524337323155524953746f726167653a2055524920717565727920666f722060008201527f6e6f6e6578697374656e7420746f6b656e000000000000000000000000000000602082015250565b7f4552433732313a20617070726f76656420717565727920666f72206e6f6e657860008201527f697374656e7420746f6b656e0000000000000000000000000000000000000000602082015250565b7f4f776e61626c653a2063616c6c6572206973206e6f7420746865206f776e6572600082015250565b7f4552433732314d657461646174613a2055524920717565727920666f72206e6f60008201527f6e6578697374656e7420746f6b656e0000000000000000000000000000000000602082015250565b7f4552433732313a20617070726f76616c20746f2063757272656e74206f776e6560008201527f7200000000000000000000000000000000000000000000000000000000000000602082015250565b7f4552433732313a207472616e736665722063616c6c6572206973206e6f74206f60008201527f776e6572206e6f7220617070726f766564000000000000000000000000000000602082015250565b7f5369676e617475726520556e76616c6964000000000000000000000000000000600082015250565b7f696e76616c6964207369676e6174757265206c656e6774680000000000000000600082015250565b7f54686973206e6f6e636520616c726561647920646f6e65000000000000000000600082015250565b6142ca81613a38565b81146142d557600080fd5b50565b6142e181613a4a565b81146142ec57600080fd5b50565b6142f881613a5c565b811461430357600080fd5b50565b61430f81613a68565b811461431a57600080fd5b50565b61432681613a72565b811461433157600080fd5b50565b61433d81613abe565b811461434857600080fd5b5056fea2646970667358221220b0145977ad6bd63dcce2e6f045c09c306c911f99cd967fdeae6b61fd3f49a29d64736f6c63430008040033",
  "linkReferences": {},
  "deployedLinkReferences": {}
}