{
  "_format": "hh-sol-artifact-1",
  "contractName": "ERC721Token",
  "sourceName": "contracts/ERC721Token.sol",
  "abi": [
    {
      "anonymous": false,
      "inputs": [
        {
          "indexed": true,
          "internalType": "address",
          "name": "owner",
          "type": "address"
        },
        {
          "indexed": true,
          "internalType": "address",
          "name": "approved",
          "type": "address"
        },
        {
          "indexed": true,
          "internalType": "uint256",
          "name": "tokenId",
          "type": "uint256"
        }
      ],
      "name": "Approval",
      "type": "event"
    },
    {
      "anonymous": false,
      "inputs": [
        {
          "indexed": true,
          "internalType": "address",
          "name": "owner",
          "type": "address"
        },
        {
          "indexed": true,
          "internalType": "address",
          "name": "operator",
          "type": "address"
        },
        {
          "indexed": false,
          "internalType": "bool",
          "name": "approved",
          "type": "bool"
        }
      ],
      "name": "ApprovalForAll",
      "type": "event"
    },
    {
      "anonymous": false,
      "inputs": [
        {
          "indexed": false,
          "internalType": "uint8",
          "name": "version",
          "type": "uint8"
        }
      ],
      "name": "Initialized",
      "type": "event"
    },
    {
      "anonymous": false,
      "inputs": [
        {
          "indexed": true,
          "internalType": "address",
          "name": "previousOwner",
          "type": "address"
        },
        {
          "indexed": true,
          "internalType": "address",
          "name": "newOwner",
          "type": "address"
        }
      ],
      "name": "OwnershipTransferred",
      "type": "event"
    },
    {
      "anonymous": false,
      "inputs": [
        {
          "indexed": false,
          "internalType": "address",
          "name": "account",
          "type": "address"
        }
      ],
      "name": "Paused",
      "type": "event"
    },
    {
      "anonymous": false,
      "inputs": [
        {
          "indexed": true,
          "internalType": "address",
          "name": "from",
          "type": "address"
        },
        {
          "indexed": true,
          "internalType": "address",
          "name": "to",
          "type": "address"
        },
        {
          "indexed": true,
          "internalType": "uint256",
          "name": "tokenId",
          "type": "uint256"
        }
      ],
      "name": "Transfer",
      "type": "event"
    },
    {
      "anonymous": false,
      "inputs": [
        {
          "indexed": false,
          "internalType": "address",
          "name": "account",
          "type": "address"
        }
      ],
      "name": "Unpaused",
      "type": "event"
    },
    {
      "inputs": [
        {
          "internalType": "address",
          "name": "to",
          "type": "address"
        },
        {
          "internalType": "uint256",
          "name": "tokenId",
          "type": "uint256"
        }
      ],
      "name": "approve",
      "outputs": [],
      "stateMutability": "nonpayable",
      "type": "function"
    },
    {
      "inputs": [
        {
          "internalType": "address",
          "name": "owner",
          "type": "address"
        }
      ],
      "name": "balanceOf",
      "outputs": [
        {
          "internalType": "uint256",
          "name": "",
          "type": "uint256"
        }
      ],
      "stateMutability": "view",
      "type": "function"
    },
    {
      "inputs": [
        {
          "internalType": "uint256",
          "name": "tokenId",
          "type": "uint256"
        }
      ],
      "name": "burn",
      "outputs": [],
      "stateMutability": "nonpayable",
      "type": "function"
    },
    {
      "inputs": [
        {
          "internalType": "uint256",
          "name": "tokenId",
          "type": "uint256"
        }
      ],
      "name": "getApproved",
      "outputs": [
        {
          "internalType": "address",
          "name": "",
          "type": "address"
        }
      ],
      "stateMutability": "view",
      "type": "function"
    },
    {
      "inputs": [
        {
          "internalType": "uint96",
          "name": "_maxRoyality",
          "type": "uint96"
        }
      ],
      "name": "initialize",
      "outputs": [],
      "stateMutability": "nonpayable",
      "type": "function"
    },
    {
      "inputs": [
        {
          "internalType": "address",
          "name": "owner",
          "type": "address"
        },
        {
          "internalType": "address",
          "name": "operator",
          "type": "address"
        }
      ],
      "name": "isApprovedForAll",
      "outputs": [
        {
          "internalType": "bool",
          "name": "",
          "type": "bool"
        }
      ],
      "stateMutability": "view",
      "type": "function"
    },
    {
      "inputs": [],
      "name": "maximumRoyality",
      "outputs": [
        {
          "internalType": "uint96",
          "name": "",
          "type": "uint96"
        }
      ],
      "stateMutability": "view",
      "type": "function"
    },
    {
      "inputs": [
        {
          "internalType": "address",
          "name": "to",
          "type": "address"
        },
        {
          "internalType": "string",
          "name": "tokenURI",
          "type": "string"
        },
        {
          "internalType": "uint96",
          "name": "_royality",
          "type": "uint96"
        }
      ],
      "name": "mint",
      "outputs": [
        {
          "internalType": "uint256",
          "name": "",
          "type": "uint256"
        }
      ],
      "stateMutability": "nonpayable",
      "type": "function"
    },
    {
      "inputs": [],
      "name": "name",
      "outputs": [
        {
          "internalType": "string",
          "name": "",
          "type": "string"
        }
      ],
      "stateMutability": "view",
      "type": "function"
    },
    {
      "inputs": [],
      "name": "owner",
      "outputs": [
        {
          "internalType": "address",
          "name": "",
          "type": "address"
        }
      ],
      "stateMutability": "view",
      "type": "function"
    },
    {
      "inputs": [
        {
          "internalType": "uint256",
          "name": "tokenId",
          "type": "uint256"
        }
      ],
      "name": "ownerOf",
      "outputs": [
        {
          "internalType": "address",
          "name": "",
          "type": "address"
        }
      ],
      "stateMutability": "view",
      "type": "function"
    },
    {
      "inputs": [],
      "name": "paused",
      "outputs": [
        {
          "internalType": "bool",
          "name": "",
          "type": "bool"
        }
      ],
      "stateMutability": "view",
      "type": "function"
    },
    {
      "inputs": [],
      "name": "renounceOwnership",
      "outputs": [],
      "stateMutability": "nonpayable",
      "type": "function"
    },
    {
      "inputs": [
        {
          "internalType": "uint256",
          "name": "_tokenId",
          "type": "uint256"
        },
        {
          "internalType": "uint256",
          "name": "_salePrice",
          "type": "uint256"
        }
      ],
      "name": "royaltyInfo",
      "outputs": [
        {
          "internalType": "address",
          "name": "",
          "type": "address"
        },
        {
          "internalType": "uint256",
          "name": "",
          "type": "uint256"
        }
      ],
      "stateMutability": "view",
      "type": "function"
    },
    {
      "inputs": [
        {
          "internalType": "address",
          "name": "from",
          "type": "address"
        },
        {
          "internalType": "address",
          "name": "to",
          "type": "address"
        },
        {
          "internalType": "uint256",
          "name": "tokenId",
          "type": "uint256"
        }
      ],
      "name": "safeTransferFrom",
      "outputs": [],
      "stateMutability": "nonpayable",
      "type": "function"
    },
    {
      "inputs": [
        {
          "internalType": "address",
          "name": "from",
          "type": "address"
        },
        {
          "internalType": "address",
          "name": "to",
          "type": "address"
        },
        {
          "internalType": "uint256",
          "name": "tokenId",
          "type": "uint256"
        },
        {
          "internalType": "bytes",
          "name": "_data",
          "type": "bytes"
        }
      ],
      "name": "safeTransferFrom",
      "outputs": [],
      "stateMutability": "nonpayable",
      "type": "function"
    },
    {
      "inputs": [
        {
          "internalType": "address",
          "name": "operator",
          "type": "address"
        },
        {
          "internalType": "bool",
          "name": "approved",
          "type": "bool"
        }
      ],
      "name": "setApprovalForAll",
      "outputs": [],
      "stateMutability": "nonpayable",
      "type": "function"
    },
    {
      "inputs": [
        {
          "internalType": "uint96",
          "name": "_value",
          "type": "uint96"
        }
      ],
      "name": "setMaximumRoyality",
      "outputs": [],
      "stateMutability": "nonpayable",
      "type": "function"
    },
    {
      "inputs": [
        {
          "internalType": "bytes4",
          "name": "interfaceId",
          "type": "bytes4"
        }
      ],
      "name": "supportsInterface",
      "outputs": [
        {
          "internalType": "bool",
          "name": "",
          "type": "bool"
        }
      ],
      "stateMutability": "view",
      "type": "function"
    },
    {
      "inputs": [],
      "name": "symbol",
      "outputs": [
        {
          "internalType": "string",
          "name": "",
          "type": "string"
        }
      ],
      "stateMutability": "view",
      "type": "function"
    },
    {
      "inputs": [
        {
          "internalType": "uint256",
          "name": "index",
          "type": "uint256"
        }
      ],
      "name": "tokenByIndex",
      "outputs": [
        {
          "internalType": "uint256",
          "name": "",
          "type": "uint256"
        }
      ],
      "stateMutability": "view",
      "type": "function"
    },
    {
      "inputs": [
        {
          "internalType": "address",
          "name": "owner",
          "type": "address"
        },
        {
          "internalType": "uint256",
          "name": "index",
          "type": "uint256"
        }
      ],
      "name": "tokenOfOwnerByIndex",
      "outputs": [
        {
          "internalType": "uint256",
          "name": "",
          "type": "uint256"
        }
      ],
      "stateMutability": "view",
      "type": "function"
    },
    {
      "inputs": [
        {
          "internalType": "uint256",
          "name": "tokenId",
          "type": "uint256"
        }
      ],
      "name": "tokenURI",
      "outputs": [
        {
          "internalType": "string",
          "name": "",
          "type": "string"
        }
      ],
      "stateMutability": "view",
      "type": "function"
    },
    {
      "inputs": [],
      "name": "totalSupply",
      "outputs": [
        {
          "internalType": "uint256",
          "name": "",
          "type": "uint256"
        }
      ],
      "stateMutability": "view",
      "type": "function"
    },
    {
      "inputs": [
        {
          "internalType": "address",
          "name": "from",
          "type": "address"
        },
        {
          "internalType": "address",
          "name": "to",
          "type": "address"
        },
        {
          "internalType": "uint256",
          "name": "tokenId",
          "type": "uint256"
        }
      ],
      "name": "transferFrom",
      "outputs": [],
      "stateMutability": "nonpayable",
      "type": "function"
    },
    {
      "inputs": [
        {
          "internalType": "address",
          "name": "newOwner",
          "type": "address"
        }
      ],
      "name": "transferOwnership",
      "outputs": [],
      "stateMutability": "nonpayable",
      "type": "function"
    }
  ],
  "bytecode": "0x608060405234801561001057600080fd5b50614df4806100206000396000f3fe608060405234801561001057600080fd5b506004361061018e5760003560e01c806370a08231116100de578063a22cb46511610097578063d98a17ed11610071578063d98a17ed146104a8578063e985e9c5146104c6578063ec1d2ff9146104f6578063f2fde38b146105125761018e565b8063a22cb46514610440578063b88d4fde1461045c578063c87b56dd146104785761018e565b806370a082311461037e578063715018a6146103ae5780637b17b7a8146103b85780638da5cb5b146103e8578063909f1cad1461040657806395d89b41146104225761018e565b80632a55205a1161014b57806342966c681161012557806342966c68146102e45780634f6ccce7146103005780635c975abb146103305780636352211e1461034e5761018e565b80632a55205a146102675780632f745c591461029857806342842e0e146102c85761018e565b806301ffc9a71461019357806306fdde03146101c3578063081812fc146101e1578063095ea7b31461021157806318160ddd1461022d57806323b872dd1461024b575b600080fd5b6101ad60048036038101906101a8919061368b565b61052e565b6040516101ba9190613ce1565b60405180910390f35b6101cb610540565b6040516101d89190613d17565b60405180910390f35b6101fb60048036038101906101f691906136dd565b6105d2565b6040516102089190613c51565b60405180910390f35b61022b6004803603810190610226919061364f565b610657565b005b61023561076f565b60405161024291906140b9565b60405180910390f35b610265600480360381019061026091906134e2565b61077d565b005b610281600480360381019061027c9190613706565b6107dd565b60405161028f929190613cb8565b60405180910390f35b6102b260048036038101906102ad919061364f565b6109c8565b6040516102bf91906140b9565b60405180910390f35b6102e260048036038101906102dd91906134e2565b610a6e565b005b6102fe60048036038101906102f991906136dd565b610a8e565b005b61031a600480360381019061031591906136dd565b610aea565b60405161032791906140b9565b60405180910390f35b610338610b82565b6040516103459190613ce1565b60405180910390f35b610368600480360381019061036391906136dd565b610b9a565b6040516103759190613c51565b60405180910390f35b6103986004803603810190610393919061347d565b610c4c565b6040516103a591906140b9565b60405180910390f35b6103b6610d04565b005b6103d260048036038101906103cd91906135e8565b610d8c565b6040516103df91906140b9565b60405180910390f35b6103f0610ebc565b6040516103fd9190613c51565b60405180910390f35b610420600480360381019061041b9190613742565b610ee6565b005b61042a611054565b6040516104379190613d17565b60405180910390f35b61045a600480360381019061045591906135ac565b6110e6565b005b61047660048036038101906104719190613531565b6110fc565b005b610492600480360381019061048d91906136dd565b61115e565b60405161049f9190613d17565b60405180910390f35b6104b0611170565b6040516104bd91906140d4565b60405180910390f35b6104e060048036038101906104db91906134a6565b61118f565b6040516104ed9190613ce1565b60405180910390f35b610510600480360381019061050b9190613742565b611223565b005b61052c6004803603810190610527919061347d565b6112d4565b005b6000610539826113cc565b9050919050565b60606097805461054f906143bb565b80601f016020809104026020016040519081016040528092919081815260200182805461057b906143bb565b80156105c85780601f1061059d576101008083540402835291602001916105c8565b820191906000526020600020905b8154815290600101906020018083116105ab57829003601f168201915b5050505050905090565b60006105dd826113de565b61061c576040517f08c379a000000000000000000000000000000000000000000000000000000000815260040161061390613f39565b60405180910390fd5b609b600083815260200190815260200160002060009054906101000a900473ffffffffffffffffffffffffffffffffffffffff169050919050565b600061066282610b9a565b90508073ffffffffffffffffffffffffffffffffffffffff168373ffffffffffffffffffffffffffffffffffffffff1614156106d3576040517f08c379a00000000000000000000000000000000000000000000000000000000081526004016106ca90613f99565b60405180910390fd5b8073ffffffffffffffffffffffffffffffffffffffff166106f261144a565b73ffffffffffffffffffffffffffffffffffffffff16148061072157506107208161071b61144a565b61118f565b5b610760576040517f08c379a000000000000000000000000000000000000000000000000000000000815260040161075790613e59565b60405180910390fd5b61076a8383611452565b505050565b600061016180549050905090565b61078e61078861144a565b8261150b565b6107cd576040517f08c379a00000000000000000000000000000000000000000000000000000000081526004016107c490613fb9565b60405180910390fd5b6107d88383836115e9565b505050565b6000806000606660008681526020019081526020016000206040518060400160405290816000820160009054906101000a900473ffffffffffffffffffffffffffffffffffffffff1673ffffffffffffffffffffffffffffffffffffffff1673ffffffffffffffffffffffffffffffffffffffff1681526020016000820160149054906101000a90046bffffffffffffffffffffffff166bffffffffffffffffffffffff166bffffffffffffffffffffffff16815250509050600073ffffffffffffffffffffffffffffffffffffffff16816000015173ffffffffffffffffffffffffffffffffffffffff1614156109735760656040518060400160405290816000820160009054906101000a900473ffffffffffffffffffffffffffffffffffffffff1673ffffffffffffffffffffffffffffffffffffffff1673ffffffffffffffffffffffffffffffffffffffff1681526020016000820160149054906101000a90046bffffffffffffffffffffffff166bffffffffffffffffffffffff166bffffffffffffffffffffffff168152505090505b600061097d611850565b6bffffffffffffffffffffffff1682602001516bffffffffffffffffffffffff16866109a99190614240565b6109b3919061420f565b90508160000151819350935050509250929050565b60006109d383610c4c565b8210610a14576040517f08c379a0000000000000000000000000000000000000000000000000000000008152600401610a0b90613d59565b60405180910390fd5b61015f60008473ffffffffffffffffffffffffffffffffffffffff1673ffffffffffffffffffffffffffffffffffffffff168152602001908152602001600020600083815260200190815260200160002054905092915050565b610a89838383604051806020016040528060008152506110fc565b505050565b610a9f610a9961144a565b8261150b565b610ade576040517f08c379a0000000000000000000000000000000000000000000000000000000008152600401610ad590614079565b60405180910390fd5b610ae78161185a565b50565b6000610af461076f565b8210610b35576040517f08c379a0000000000000000000000000000000000000000000000000000000008152600401610b2c90613ff9565b60405180910390fd5b6101618281548110610b70577f4e487b7100000000000000000000000000000000000000000000000000000000600052603260045260246000fd5b90600052602060002001549050919050565b600061019160009054906101000a900460ff16905090565b6000806099600084815260200190815260200160002060009054906101000a900473ffffffffffffffffffffffffffffffffffffffff169050600073ffffffffffffffffffffffffffffffffffffffff168173ffffffffffffffffffffffffffffffffffffffff161415610c43576040517f08c379a0000000000000000000000000000000000000000000000000000000008152600401610c3a90613e99565b60405180910390fd5b80915050919050565b60008073ffffffffffffffffffffffffffffffffffffffff168273ffffffffffffffffffffffffffffffffffffffff161415610cbd576040517f08c379a0000000000000000000000000000000000000000000000000000000008152600401610cb490613e79565b60405180910390fd5b609a60008373ffffffffffffffffffffffffffffffffffffffff1673ffffffffffffffffffffffffffffffffffffffff168152602001908152602001600020549050919050565b610d0c61144a565b73ffffffffffffffffffffffffffffffffffffffff16610d2a610ebc565b73ffffffffffffffffffffffffffffffffffffffff1614610d80576040517f08c379a0000000000000000000000000000000000000000000000000000000008152600401610d7790613f59565b60405180910390fd5b610d8a6000611866565b565b600061022860009054906101000a90046bffffffffffffffffffffffff166bffffffffffffffffffffffff16826bffffffffffffffffffffffff161115610e08576040517f08c379a0000000000000000000000000000000000000000000000000000000008152600401610dff90614099565b60405180910390fd5b600073ffffffffffffffffffffffffffffffffffffffff168473ffffffffffffffffffffffffffffffffffffffff161415610e78576040517f08c379a0000000000000000000000000000000000000000000000000000000008152600401610e6f90614059565b60405180910390fd5b6000610e8561022761192c565b9050610e91858261193a565b610e9b8185611b14565b610ea6818685611b88565b610eb1610227611d30565b809150509392505050565b600060c960009054906101000a900473ffffffffffffffffffffffffffffffffffffffff16905090565b6000610ef26001611d46565b90508015610f16576001600060016101000a81548160ff0219169083151502179055505b610f8a6040518060400160405280600b81526020017f4d61726b6574506c6163650000000000000000000000000000000000000000008152506040518060400160405280600381526020017f4d4b500000000000000000000000000000000000000000000000000000000000815250611e36565b610f92611e93565b610f9a611ee4565b610fa2611f35565b610faa611f8e565b610fb2611fdf565b610fba612030565b610fc5610227611d30565b8161022860006101000a8154816bffffffffffffffffffffffff02191690836bffffffffffffffffffffffff16021790555080156110505760008060016101000a81548160ff0219169083151502179055507f7f26b83ff96e1f2b6a682f133852f6798a09c465da95921460cefb384740249860016040516110479190613cfc565b60405180910390a15b5050565b606060988054611063906143bb565b80601f016020809104026020016040519081016040528092919081815260200182805461108f906143bb565b80156110dc5780601f106110b1576101008083540402835291602001916110dc565b820191906000526020600020905b8154815290600101906020018083116110bf57829003601f168201915b5050505050905090565b6110f86110f161144a565b8383612089565b5050565b61110d61110761144a565b8361150b565b61114c576040517f08c379a000000000000000000000000000000000000000000000000000000000815260040161114390613fb9565b60405180910390fd5b611158848484846121f6565b50505050565b606061116982612252565b9050919050565b61022860009054906101000a90046bffffffffffffffffffffffff1681565b6000609c60008473ffffffffffffffffffffffffffffffffffffffff1673ffffffffffffffffffffffffffffffffffffffff16815260200190815260200160002060008373ffffffffffffffffffffffffffffffffffffffff1673ffffffffffffffffffffffffffffffffffffffff16815260200190815260200160002060009054906101000a900460ff16905092915050565b61122b61144a565b73ffffffffffffffffffffffffffffffffffffffff16611249610ebc565b73ffffffffffffffffffffffffffffffffffffffff161461129f576040517f08c379a000000000000000000000000000000000000000000000000000000000815260040161129690613f59565b60405180910390fd5b8061022860006101000a8154816bffffffffffffffffffffffff02191690836bffffffffffffffffffffffff16021790555050565b6112dc61144a565b73ffffffffffffffffffffffffffffffffffffffff166112fa610ebc565b73ffffffffffffffffffffffffffffffffffffffff1614611350576040517f08c379a000000000000000000000000000000000000000000000000000000000815260040161134790613f59565b60405180910390fd5b600073ffffffffffffffffffffffffffffffffffffffff168173ffffffffffffffffffffffffffffffffffffffff1614156113c0576040517f08c379a00000000000000000000000000000000000000000000000000000000081526004016113b790613d99565b60405180910390fd5b6113c981611866565b50565b60006113d7826123a4565b9050919050565b60008073ffffffffffffffffffffffffffffffffffffffff166099600084815260200190815260200160002060009054906101000a900473ffffffffffffffffffffffffffffffffffffffff1673ffffffffffffffffffffffffffffffffffffffff1614159050919050565b600033905090565b81609b600083815260200190815260200160002060006101000a81548173ffffffffffffffffffffffffffffffffffffffff021916908373ffffffffffffffffffffffffffffffffffffffff160217905550808273ffffffffffffffffffffffffffffffffffffffff166114c583610b9a565b73ffffffffffffffffffffffffffffffffffffffff167f8c5be1e5ebec7d5bd14f71427d1e84f3dd0314c0f7b2291e5b200ac8c7c3b92560405160405180910390a45050565b6000611516826113de565b611555576040517f08c379a000000000000000000000000000000000000000000000000000000000815260040161154c90613e39565b60405180910390fd5b600061156083610b9a565b90508073ffffffffffffffffffffffffffffffffffffffff168473ffffffffffffffffffffffffffffffffffffffff1614806115a257506115a1818561118f565b5b806115e057508373ffffffffffffffffffffffffffffffffffffffff166115c8846105d2565b73ffffffffffffffffffffffffffffffffffffffff16145b91505092915050565b8273ffffffffffffffffffffffffffffffffffffffff1661160982610b9a565b73ffffffffffffffffffffffffffffffffffffffff161461165f576040517f08c379a000000000000000000000000000000000000000000000000000000000815260040161165690613db9565b60405180910390fd5b600073ffffffffffffffffffffffffffffffffffffffff168273ffffffffffffffffffffffffffffffffffffffff1614156116cf576040517f08c379a00000000000000000000000000000000000000000000000000000000081526004016116c690613df9565b60405180910390fd5b6116da83838361241e565b6116e5600082611452565b6001609a60008573ffffffffffffffffffffffffffffffffffffffff1673ffffffffffffffffffffffffffffffffffffffff1681526020019081526020016000206000828254611735919061429a565b925050819055506001609a60008473ffffffffffffffffffffffffffffffffffffffff1673ffffffffffffffffffffffffffffffffffffffff168152602001908152602001600020600082825461178c91906141b9565b92505081905550816099600083815260200190815260200160002060006101000a81548173ffffffffffffffffffffffffffffffffffffffff021916908373ffffffffffffffffffffffffffffffffffffffff160217905550808273ffffffffffffffffffffffffffffffffffffffff168473ffffffffffffffffffffffffffffffffffffffff167fddf252ad1be2c89b69c2b068fc378daa952ba7f163c4a11628f55a4df523b3ef60405160405180910390a461184b83838361242e565b505050565b6000612710905090565b61186381612433565b50565b600060c960009054906101000a900473ffffffffffffffffffffffffffffffffffffffff1690508160c960006101000a81548173ffffffffffffffffffffffffffffffffffffffff021916908373ffffffffffffffffffffffffffffffffffffffff1602179055508173ffffffffffffffffffffffffffffffffffffffff168173ffffffffffffffffffffffffffffffffffffffff167f8be0079c531659141344cd1fd0a4f28419497f9722a3daafe3b4186f6b6457e060405160405180910390a35050565b600081600001549050919050565b600073ffffffffffffffffffffffffffffffffffffffff168273ffffffffffffffffffffffffffffffffffffffff1614156119aa576040517f08c379a00000000000000000000000000000000000000000000000000000000081526004016119a190613ef9565b60405180910390fd5b6119b3816113de565b156119f3576040517f08c379a00000000000000000000000000000000000000000000000000000000081526004016119ea90613dd9565b60405180910390fd5b6119ff6000838361241e565b6001609a60008473ffffffffffffffffffffffffffffffffffffffff1673ffffffffffffffffffffffffffffffffffffffff1681526020019081526020016000206000828254611a4f91906141b9565b92505081905550816099600083815260200190815260200160002060006101000a81548173ffffffffffffffffffffffffffffffffffffffff021916908373ffffffffffffffffffffffffffffffffffffffff160217905550808273ffffffffffffffffffffffffffffffffffffffff16600073ffffffffffffffffffffffffffffffffffffffff167fddf252ad1be2c89b69c2b068fc378daa952ba7f163c4a11628f55a4df523b3ef60405160405180910390a4611b106000838361242e565b5050565b611b1d826113de565b611b5c576040517f08c379a0000000000000000000000000000000000000000000000000000000008152600401611b5390613eb9565b60405180910390fd5b8060fb60008481526020019081526020016000209080519060200190611b8392919061324c565b505050565b611b90611850565b6bffffffffffffffffffffffff16816bffffffffffffffffffffffff161115611bee576040517f08c379a0000000000000000000000000000000000000000000000000000000008152600401611be590614039565b60405180910390fd5b600073ffffffffffffffffffffffffffffffffffffffff168273ffffffffffffffffffffffffffffffffffffffff161415611c5e576040517f08c379a0000000000000000000000000000000000000000000000000000000008152600401611c5590613fd9565b60405180910390fd5b60405180604001604052808373ffffffffffffffffffffffffffffffffffffffff168152602001826bffffffffffffffffffffffff168152506066600085815260200190815260200160002060008201518160000160006101000a81548173ffffffffffffffffffffffffffffffffffffffff021916908373ffffffffffffffffffffffffffffffffffffffff16021790555060208201518160000160146101000a8154816bffffffffffffffffffffffff02191690836bffffffffffffffffffffffff160217905550905050505050565b6001816000016000828254019250508190555050565b60008060019054906101000a900460ff1615611dbd5760018260ff16148015611d755750611d7330612448565b155b611db4576040517f08c379a0000000000000000000000000000000000000000000000000000000008152600401611dab90613ed9565b60405180910390fd5b60009050611e31565b8160ff1660008054906101000a900460ff1660ff1610611e12576040517f08c379a0000000000000000000000000000000000000000000000000000000008152600401611e0990613ed9565b60405180910390fd5b816000806101000a81548160ff021916908360ff160217905550600190505b919050565b600060019054906101000a900460ff16611e85576040517f08c379a0000000000000000000000000000000000000000000000000000000008152600401611e7c90614019565b60405180910390fd5b611e8f828261246b565b5050565b600060019054906101000a900460ff16611ee2576040517f08c379a0000000000000000000000000000000000000000000000000000000008152600401611ed990614019565b60405180910390fd5b565b600060019054906101000a900460ff16611f33576040517f08c379a0000000000000000000000000000000000000000000000000000000008152600401611f2a90614019565b60405180910390fd5b565b600060019054906101000a900460ff16611f84576040517f08c379a0000000000000000000000000000000000000000000000000000000008152600401611f7b90614019565b60405180910390fd5b611f8c6124ec565b565b600060019054906101000a900460ff16611fdd576040517f08c379a0000000000000000000000000000000000000000000000000000000008152600401611fd490614019565b60405180910390fd5b565b600060019054906101000a900460ff1661202e576040517f08c379a000000000000000000000000000000000000000000000000000000000815260040161202590614019565b60405180910390fd5b565b600060019054906101000a900460ff1661207f576040517f08c379a000000000000000000000000000000000000000000000000000000000815260040161207690614019565b60405180910390fd5b612087612559565b565b8173ffffffffffffffffffffffffffffffffffffffff168373ffffffffffffffffffffffffffffffffffffffff1614156120f8576040517f08c379a00000000000000000000000000000000000000000000000000000000081526004016120ef90613e19565b60405180910390fd5b80609c60008573ffffffffffffffffffffffffffffffffffffffff1673ffffffffffffffffffffffffffffffffffffffff16815260200190815260200160002060008473ffffffffffffffffffffffffffffffffffffffff1673ffffffffffffffffffffffffffffffffffffffff16815260200190815260200160002060006101000a81548160ff0219169083151502179055508173ffffffffffffffffffffffffffffffffffffffff168373ffffffffffffffffffffffffffffffffffffffff167f17307eab39ab6107e8899845ad3d59bd9653f200f220920489ca2b5937696c31836040516121e99190613ce1565b60405180910390a3505050565b6122018484846115e9565b61220d848484846125ba565b61224c576040517f08c379a000000000000000000000000000000000000000000000000000000000815260040161224390613d79565b60405180910390fd5b50505050565b606061225d826113de565b61229c576040517f08c379a000000000000000000000000000000000000000000000000000000000815260040161229390613f19565b60405180910390fd5b600060fb600084815260200190815260200160002080546122bc906143bb565b80601f01602080910402602001604051908101604052809291908181526020018280546122e8906143bb565b80156123355780601f1061230a57610100808354040283529160200191612335565b820191906000526020600020905b81548152906001019060200180831161231857829003601f168201915b505050505090506000612346612751565b905060008151141561235c57819250505061239f565b600082511115612391578082604051602001612379929190613c2d565b6040516020818303038152906040529250505061239f565b61239a84612768565b925050505b919050565b60007f780e9d63000000000000000000000000000000000000000000000000000000007bffffffffffffffffffffffffffffffffffffffffffffffffffffffff1916827bffffffffffffffffffffffffffffffffffffffffffffffffffffffff1916148061241757506124168261280f565b5b9050919050565b6124298383836128f1565b505050565b505050565b61243c81612949565b6124458161299c565b50565b6000808273ffffffffffffffffffffffffffffffffffffffff163b119050919050565b600060019054906101000a900460ff166124ba576040517f08c379a00000000000000000000000000000000000000000000000000000000081526004016124b190614019565b60405180910390fd5b81609790805190602001906124d092919061324c565b5080609890805190602001906124e792919061324c565b505050565b600060019054906101000a900460ff1661253b576040517f08c379a000000000000000000000000000000000000000000000000000000000815260040161253290614019565b60405180910390fd5b600061019160006101000a81548160ff021916908315150217905550565b600060019054906101000a900460ff166125a8576040517f08c379a000000000000000000000000000000000000000000000000000000000815260040161259f90614019565b60405180910390fd5b6125b86125b361144a565b611866565b565b60006125db8473ffffffffffffffffffffffffffffffffffffffff16612448565b15612744578373ffffffffffffffffffffffffffffffffffffffff1663150b7a0261260461144a565b8786866040518563ffffffff1660e01b81526004016126269493929190613c6c565b602060405180830381600087803b15801561264057600080fd5b505af192505050801561267157506040513d601f19601f8201168201806040525081019061266e91906136b4565b60015b6126f4573d80600081146126a1576040519150601f19603f3d011682016040523d82523d6000602084013e6126a6565b606091505b506000815114156126ec576040517f08c379a00000000000000000000000000000000000000000000000000000000081526004016126e390613d79565b60405180910390fd5b805181602001fd5b63150b7a0260e01b7bffffffffffffffffffffffffffffffffffffffffffffffffffffffff1916817bffffffffffffffffffffffffffffffffffffffffffffffffffffffff191614915050612749565b600190505b949350505050565b606060405180602001604052806000815250905090565b6060612773826113de565b6127b2576040517f08c379a00000000000000000000000000000000000000000000000000000000081526004016127a990613f79565b60405180910390fd5b60006127bc612751565b905060008151116127dc5760405180602001604052806000815250612807565b806127e6846129fb565b6040516020016127f7929190613c2d565b6040516020818303038152906040525b915050919050565b60007f80ac58cd000000000000000000000000000000000000000000000000000000007bffffffffffffffffffffffffffffffffffffffffffffffffffffffff1916827bffffffffffffffffffffffffffffffffffffffffffffffffffffffff191614806128da57507f5b5e139f000000000000000000000000000000000000000000000000000000007bffffffffffffffffffffffffffffffffffffffffffffffffffffffff1916827bffffffffffffffffffffffffffffffffffffffffffffffffffffffff1916145b806128ea57506128e982612ba8565b5b9050919050565b6128fc838383612c22565b612904610b82565b15612944576040517f08c379a000000000000000000000000000000000000000000000000000000000815260040161293b90613d39565b60405180910390fd5b505050565b61295281612d36565b600060fb60008381526020019081526020016000208054612972906143bb565b9050146129995760fb6000828152602001908152602001600020600061299891906132d2565b5b50565b60666000828152602001908152602001600020600080820160006101000a81549073ffffffffffffffffffffffffffffffffffffffff02191690556000820160146101000a8154906bffffffffffffffffffffffff0219169055505050565b60606000821415612a43576040518060400160405280600181526020017f30000000000000000000000000000000000000000000000000000000000000008152509050612ba3565b600082905060005b60008214612a75578080612a5e9061441e565b915050600a82612a6e919061420f565b9150612a4b565b60008167ffffffffffffffff811115612ab7577f4e487b7100000000000000000000000000000000000000000000000000000000600052604160045260246000fd5b6040519080825280601f01601f191660200182016040528015612ae95781602001600182028036833780820191505090505b5090505b60008514612b9c57600182612b02919061429a565b9150600a85612b119190614467565b6030612b1d91906141b9565b60f81b818381518110612b59577f4e487b7100000000000000000000000000000000000000000000000000000000600052603260045260246000fd5b60200101907effffffffffffffffffffffffffffffffffffffffffffffffffffffffffffff1916908160001a905350600a85612b95919061420f565b9450612aed565b8093505050505b919050565b60007f2a55205a000000000000000000000000000000000000000000000000000000007bffffffffffffffffffffffffffffffffffffffffffffffffffffffff1916827bffffffffffffffffffffffffffffffffffffffffffffffffffffffff19161480612c1b5750612c1a82612e53565b5b9050919050565b612c2d838383612ebd565b600073ffffffffffffffffffffffffffffffffffffffff168373ffffffffffffffffffffffffffffffffffffffff161415612c7057612c6b81612ec2565b612caf565b8173ffffffffffffffffffffffffffffffffffffffff168373ffffffffffffffffffffffffffffffffffffffff1614612cae57612cad8382612f0e565b5b5b600073ffffffffffffffffffffffffffffffffffffffff168273ffffffffffffffffffffffffffffffffffffffff161415612cf257612ced81613081565b612d31565b8273ffffffffffffffffffffffffffffffffffffffff168273ffffffffffffffffffffffffffffffffffffffff1614612d3057612d2f82826131cb565b5b5b505050565b6000612d4182610b9a565b9050612d4f8160008461241e565b612d5a600083611452565b6001609a60008373ffffffffffffffffffffffffffffffffffffffff1673ffffffffffffffffffffffffffffffffffffffff1681526020019081526020016000206000828254612daa919061429a565b925050819055506099600083815260200190815260200160002060006101000a81549073ffffffffffffffffffffffffffffffffffffffff021916905581600073ffffffffffffffffffffffffffffffffffffffff168273ffffffffffffffffffffffffffffffffffffffff167fddf252ad1be2c89b69c2b068fc378daa952ba7f163c4a11628f55a4df523b3ef60405160405180910390a4612e4f8160008461242e565b5050565b60007f01ffc9a7000000000000000000000000000000000000000000000000000000007bffffffffffffffffffffffffffffffffffffffffffffffffffffffff1916827bffffffffffffffffffffffffffffffffffffffffffffffffffffffff1916149050919050565b505050565b6101618054905061016260008381526020019081526020016000208190555061016181908060018154018082558091505060019003906000526020600020016000909190919091505550565b60006001612f1b84610c4c565b612f25919061429a565b90506000610160600084815260200190815260200160002054905081811461300e57600061015f60008673ffffffffffffffffffffffffffffffffffffffff1673ffffffffffffffffffffffffffffffffffffffff16815260200190815260200160002060008481526020019081526020016000205490508061015f60008773ffffffffffffffffffffffffffffffffffffffff1673ffffffffffffffffffffffffffffffffffffffff16815260200190815260200160002060008481526020019081526020016000208190555081610160600083815260200190815260200160002081905550505b61016060008481526020019081526020016000206000905561015f60008573ffffffffffffffffffffffffffffffffffffffff1673ffffffffffffffffffffffffffffffffffffffff16815260200190815260200160002060008381526020019081526020016000206000905550505050565b6000600161016180549050613096919061429a565b905060006101626000848152602001908152602001600020549050600061016183815481106130ee577f4e487b7100000000000000000000000000000000000000000000000000000000600052603260045260246000fd5b90600052602060002001549050806101618381548110613137577f4e487b7100000000000000000000000000000000000000000000000000000000600052603260045260246000fd5b9060005260206000200181905550816101626000838152602001908152602001600020819055506101626000858152602001908152602001600020600090556101618054806131af577f4e487b7100000000000000000000000000000000000000000000000000000000600052603160045260246000fd5b6001900381819060005260206000200160009055905550505050565b60006131d683610c4c565b90508161015f60008573ffffffffffffffffffffffffffffffffffffffff1673ffffffffffffffffffffffffffffffffffffffff16815260200190815260200160002060008381526020019081526020016000208190555080610160600084815260200190815260200160002081905550505050565b828054613258906143bb565b90600052602060002090601f01602090048101928261327a57600085556132c1565b82601f1061329357805160ff19168380011785556132c1565b828001600101855582156132c1579182015b828111156132c05782518255916020019190600101906132a5565b5b5090506132ce9190613312565b5090565b5080546132de906143bb565b6000825580601f106132f0575061330f565b601f01602090049060005260206000209081019061330e9190613312565b5b50565b5b8082111561332b576000816000905550600101613313565b5090565b600061334261333d84614114565b6140ef565b90508281526020810184848401111561335a57600080fd5b613365848285614379565b509392505050565b600061338061337b84614145565b6140ef565b90508281526020810184848401111561339857600080fd5b6133a3848285614379565b509392505050565b6000813590506133ba81614d4b565b92915050565b6000813590506133cf81614d62565b92915050565b6000813590506133e481614d79565b92915050565b6000815190506133f981614d79565b92915050565b600082601f83011261341057600080fd5b813561342084826020860161332f565b91505092915050565b600082601f83011261343a57600080fd5b813561344a84826020860161336d565b91505092915050565b60008135905061346281614d90565b92915050565b60008135905061347781614da7565b92915050565b60006020828403121561348f57600080fd5b600061349d848285016133ab565b91505092915050565b600080604083850312156134b957600080fd5b60006134c7858286016133ab565b92505060206134d8858286016133ab565b9150509250929050565b6000806000606084860312156134f757600080fd5b6000613505868287016133ab565b9350506020613516868287016133ab565b925050604061352786828701613453565b9150509250925092565b6000806000806080858703121561354757600080fd5b6000613555878288016133ab565b9450506020613566878288016133ab565b935050604061357787828801613453565b925050606085013567ffffffffffffffff81111561359457600080fd5b6135a0878288016133ff565b91505092959194509250565b600080604083850312156135bf57600080fd5b60006135cd858286016133ab565b92505060206135de858286016133c0565b9150509250929050565b6000806000606084860312156135fd57600080fd5b600061360b868287016133ab565b935050602084013567ffffffffffffffff81111561362857600080fd5b61363486828701613429565b925050604061364586828701613468565b9150509250925092565b6000806040838503121561366257600080fd5b6000613670858286016133ab565b925050602061368185828601613453565b9150509250929050565b60006020828403121561369d57600080fd5b60006136ab848285016133d5565b91505092915050565b6000602082840312156136c657600080fd5b60006136d4848285016133ea565b91505092915050565b6000602082840312156136ef57600080fd5b60006136fd84828501613453565b91505092915050565b6000806040838503121561371957600080fd5b600061372785828601613453565b925050602061373885828601613453565b9150509250929050565b60006020828403121561375457600080fd5b600061376284828501613468565b91505092915050565b613774816142ce565b82525050565b613783816142e0565b82525050565b600061379482614176565b61379e818561418c565b93506137ae818560208601614388565b6137b781614554565b840191505092915050565b6137cb81614367565b82525050565b60006137dc82614181565b6137e6818561419d565b93506137f6818560208601614388565b6137ff81614554565b840191505092915050565b600061381582614181565b61381f81856141ae565b935061382f818560208601614388565b80840191505092915050565b6000613848602b8361419d565b915061385382614565565b604082019050919050565b600061386b602b8361419d565b9150613876826145b4565b604082019050919050565b600061388e60328361419d565b915061389982614603565b604082019050919050565b60006138b160268361419d565b91506138bc82614652565b604082019050919050565b60006138d460258361419d565b91506138df826146a1565b604082019050919050565b60006138f7601c8361419d565b9150613902826146f0565b602082019050919050565b600061391a60248361419d565b915061392582614719565b604082019050919050565b600061393d60198361419d565b915061394882614768565b602082019050919050565b6000613960602c8361419d565b915061396b82614791565b604082019050919050565b600061398360388361419d565b915061398e826147e0565b604082019050919050565b60006139a6602a8361419d565b91506139b18261482f565b604082019050919050565b60006139c960298361419d565b91506139d48261487e565b604082019050919050565b60006139ec602e8361419d565b91506139f7826148cd565b604082019050919050565b6000613a0f602e8361419d565b9150613a1a8261491c565b604082019050919050565b6000613a3260208361419d565b9150613a3d8261496b565b602082019050919050565b6000613a5560318361419d565b9150613a6082614994565b604082019050919050565b6000613a78602c8361419d565b9150613a83826149e3565b604082019050919050565b6000613a9b60208361419d565b9150613aa682614a32565b602082019050919050565b6000613abe602f8361419d565b9150613ac982614a5b565b604082019050919050565b6000613ae160218361419d565b9150613aec82614aaa565b604082019050919050565b6000613b0460318361419d565b9150613b0f82614af9565b604082019050919050565b6000613b27601b8361419d565b9150613b3282614b48565b602082019050919050565b6000613b4a602c8361419d565b9150613b5582614b71565b604082019050919050565b6000613b6d602b8361419d565b9150613b7882614bc0565b604082019050919050565b6000613b90602a8361419d565b9150613b9b82614c0f565b604082019050919050565b6000613bb360248361419d565b9150613bbe82614c5e565b604082019050919050565b6000613bd660308361419d565b9150613be182614cad565b604082019050919050565b6000613bf960248361419d565b9150613c0482614cfc565b604082019050919050565b613c1881614338565b82525050565b613c278161434f565b82525050565b6000613c39828561380a565b9150613c45828461380a565b91508190509392505050565b6000602082019050613c66600083018461376b565b92915050565b6000608082019050613c81600083018761376b565b613c8e602083018661376b565b613c9b6040830185613c0f565b8181036060830152613cad8184613789565b905095945050505050565b6000604082019050613ccd600083018561376b565b613cda6020830184613c0f565b9392505050565b6000602082019050613cf6600083018461377a565b92915050565b6000602082019050613d1160008301846137c2565b92915050565b60006020820190508181036000830152613d3181846137d1565b905092915050565b60006020820190508181036000830152613d528161383b565b9050919050565b60006020820190508181036000830152613d728161385e565b9050919050565b60006020820190508181036000830152613d9281613881565b9050919050565b60006020820190508181036000830152613db2816138a4565b9050919050565b60006020820190508181036000830152613dd2816138c7565b9050919050565b60006020820190508181036000830152613df2816138ea565b9050919050565b60006020820190508181036000830152613e128161390d565b9050919050565b60006020820190508181036000830152613e3281613930565b9050919050565b60006020820190508181036000830152613e5281613953565b9050919050565b60006020820190508181036000830152613e7281613976565b9050919050565b60006020820190508181036000830152613e9281613999565b9050919050565b60006020820190508181036000830152613eb2816139bc565b9050919050565b60006020820190508181036000830152613ed2816139df565b9050919050565b60006020820190508181036000830152613ef281613a02565b9050919050565b60006020820190508181036000830152613f1281613a25565b9050919050565b60006020820190508181036000830152613f3281613a48565b9050919050565b60006020820190508181036000830152613f5281613a6b565b9050919050565b60006020820190508181036000830152613f7281613a8e565b9050919050565b60006020820190508181036000830152613f9281613ab1565b9050919050565b60006020820190508181036000830152613fb281613ad4565b9050919050565b60006020820190508181036000830152613fd281613af7565b9050919050565b60006020820190508181036000830152613ff281613b1a565b9050919050565b6000602082019050818103600083015261401281613b3d565b9050919050565b6000602082019050818103600083015261403281613b60565b9050919050565b6000602082019050818103600083015261405281613b83565b9050919050565b6000602082019050818103600083015261407281613ba6565b9050919050565b6000602082019050818103600083015261409281613bc9565b9050919050565b600060208201905081810360008301526140b281613bec565b9050919050565b60006020820190506140ce6000830184613c0f565b92915050565b60006020820190506140e96000830184613c1e565b92915050565b60006140f961410a565b905061410582826143ed565b919050565b6000604051905090565b600067ffffffffffffffff82111561412f5761412e614525565b5b61413882614554565b9050602081019050919050565b600067ffffffffffffffff8211156141605761415f614525565b5b61416982614554565b9050602081019050919050565b600081519050919050565b600081519050919050565b600082825260208201905092915050565b600082825260208201905092915050565b600081905092915050565b60006141c482614338565b91506141cf83614338565b9250827fffffffffffffffffffffffffffffffffffffffffffffffffffffffffffffffff0382111561420457614203614498565b5b828201905092915050565b600061421a82614338565b915061422583614338565b925082614235576142346144c7565b5b828204905092915050565b600061424b82614338565b915061425683614338565b9250817fffffffffffffffffffffffffffffffffffffffffffffffffffffffffffffffff048311821515161561428f5761428e614498565b5b828202905092915050565b60006142a582614338565b91506142b083614338565b9250828210156142c3576142c2614498565b5b828203905092915050565b60006142d982614318565b9050919050565b60008115159050919050565b60007fffffffff0000000000000000000000000000000000000000000000000000000082169050919050565b600073ffffffffffffffffffffffffffffffffffffffff82169050919050565b6000819050919050565b600060ff82169050919050565b60006bffffffffffffffffffffffff82169050919050565b600061437282614342565b9050919050565b82818337600083830152505050565b60005b838110156143a657808201518184015260208101905061438b565b838111156143b5576000848401525b50505050565b600060028204905060018216806143d357607f821691505b602082108114156143e7576143e66144f6565b5b50919050565b6143f682614554565b810181811067ffffffffffffffff8211171561441557614414614525565b5b80604052505050565b600061442982614338565b91507fffffffffffffffffffffffffffffffffffffffffffffffffffffffffffffffff82141561445c5761445b614498565b5b600182019050919050565b600061447282614338565b915061447d83614338565b92508261448d5761448c6144c7565b5b828206905092915050565b7f4e487b7100000000000000000000000000000000000000000000000000000000600052601160045260246000fd5b7f4e487b7100000000000000000000000000000000000000000000000000000000600052601260045260246000fd5b7f4e487b7100000000000000000000000000000000000000000000000000000000600052602260045260246000fd5b7f4e487b7100000000000000000000000000000000000000000000000000000000600052604160045260246000fd5b6000601f19601f8301169050919050565b7f4552433732315061757361626c653a20746f6b656e207472616e73666572207760008201527f68696c6520706175736564000000000000000000000000000000000000000000602082015250565b7f455243373231456e756d657261626c653a206f776e657220696e646578206f7560008201527f74206f6620626f756e6473000000000000000000000000000000000000000000602082015250565b7f4552433732313a207472616e7366657220746f206e6f6e20455243373231526560008201527f63656976657220696d706c656d656e7465720000000000000000000000000000602082015250565b7f4f776e61626c653a206e6577206f776e657220697320746865207a65726f206160008201527f6464726573730000000000000000000000000000000000000000000000000000602082015250565b7f4552433732313a207472616e736665722066726f6d20696e636f72726563742060008201527f6f776e6572000000000000000000000000000000000000000000000000000000602082015250565b7f4552433732313a20746f6b656e20616c7265616479206d696e74656400000000600082015250565b7f4552433732313a207472616e7366657220746f20746865207a65726f2061646460008201527f7265737300000000000000000000000000000000000000000000000000000000602082015250565b7f4552433732313a20617070726f766520746f2063616c6c657200000000000000600082015250565b7f4552433732313a206f70657261746f7220717565727920666f72206e6f6e657860008201527f697374656e7420746f6b656e0000000000000000000000000000000000000000602082015250565b7f4552433732313a20617070726f76652063616c6c6572206973206e6f74206f7760008201527f6e6572206e6f7220617070726f76656420666f7220616c6c0000000000000000602082015250565b7f4552433732313a2062616c616e636520717565727920666f7220746865207a6560008201527f726f206164647265737300000000000000000000000000000000000000000000602082015250565b7f4552433732313a206f776e657220717565727920666f72206e6f6e657869737460008201527f656e7420746f6b656e0000000000000000000000000000000000000000000000602082015250565b7f45524337323155524953746f726167653a2055524920736574206f66206e6f6e60008201527f6578697374656e7420746f6b656e000000000000000000000000000000000000602082015250565b7f496e697469616c697a61626c653a20636f6e747261637420697320616c72656160008201527f647920696e697469616c697a6564000000000000000000000000000000000000602082015250565b7f4552433732313a206d696e7420746f20746865207a65726f2061646472657373600082015250565b7f45524337323155524953746f726167653a2055524920717565727920666f722060008201527f6e6f6e6578697374656e7420746f6b656e000000000000000000000000000000602082015250565b7f4552433732313a20617070726f76656420717565727920666f72206e6f6e657860008201527f697374656e7420746f6b656e0000000000000000000000000000000000000000602082015250565b7f4f776e61626c653a2063616c6c6572206973206e6f7420746865206f776e6572600082015250565b7f4552433732314d657461646174613a2055524920717565727920666f72206e6f60008201527f6e6578697374656e7420746f6b656e0000000000000000000000000000000000602082015250565b7f4552433732313a20617070726f76616c20746f2063757272656e74206f776e6560008201527f7200000000000000000000000000000000000000000000000000000000000000602082015250565b7f4552433732313a207472616e736665722063616c6c6572206973206e6f74206f60008201527f776e6572206e6f7220617070726f766564000000000000000000000000000000602082015250565b7f455243323938313a20496e76616c696420706172616d65746572730000000000600082015250565b7f455243373231456e756d657261626c653a20676c6f62616c20696e646578206f60008201527f7574206f6620626f756e64730000000000000000000000000000000000000000602082015250565b7f496e697469616c697a61626c653a20636f6e7472616374206973206e6f74206960008201527f6e697469616c697a696e67000000000000000000000000000000000000000000602082015250565b7f455243323938313a20726f79616c7479206665652077696c6c2065786365656460008201527f2073616c65507269636500000000000000000000000000000000000000000000602082015250565b7f455243373231546f6b656e3a20746f20616464726573732063616e277420626560008201527f2030783000000000000000000000000000000000000000000000000000000000602082015250565b7f4552433732314275726e61626c653a2063616c6c6572206973206e6f74206f7760008201527f6e6572206e6f7220617070726f76656400000000000000000000000000000000602082015250565b7f455243373231546f6b656e3a20526f79616c6974792073686f756c642062652060008201527f6c65737300000000000000000000000000000000000000000000000000000000602082015250565b614d54816142ce565b8114614d5f57600080fd5b50565b614d6b816142e0565b8114614d7657600080fd5b50565b614d82816142ec565b8114614d8d57600080fd5b50565b614d9981614338565b8114614da457600080fd5b50565b614db08161434f565b8114614dbb57600080fd5b5056fea26469706673582212203d83adba066a5f4548cbce1cc5a7dde4e68559625ab74f7e55a95bbe8ea696d964736f6c63430008040033",
  "linkReferences": {},
  "deployedLinkReferences": {}
}