{
  "_format": "hh-sol-artifact-1",
  "contractName": "MyNFT",
  "sourceName": "contracts/ERC721Token.sol",
  "abi": [
    {
      "anonymous": false,
      "inputs": [
        {
          "indexed": true,
          "internalType": "address",
          "name": "owner",
          "type": "address"
        },
        {
          "indexed": true,
          "internalType": "address",
          "name": "approved",
          "type": "address"
        },
        {
          "indexed": true,
          "internalType": "uint256",
          "name": "tokenId",
          "type": "uint256"
        }
      ],
      "name": "Approval",
      "type": "event"
    },
    {
      "anonymous": false,
      "inputs": [
        {
          "indexed": true,
          "internalType": "address",
          "name": "owner",
          "type": "address"
        },
        {
          "indexed": true,
          "internalType": "address",
          "name": "operator",
          "type": "address"
        },
        {
          "indexed": false,
          "internalType": "bool",
          "name": "approved",
          "type": "bool"
        }
      ],
      "name": "ApprovalForAll",
      "type": "event"
    },
    {
      "anonymous": false,
      "inputs": [
        {
          "indexed": false,
          "internalType": "uint8",
          "name": "version",
          "type": "uint8"
        }
      ],
      "name": "Initialized",
      "type": "event"
    },
    {
      "anonymous": false,
      "inputs": [
        {
          "indexed": true,
          "internalType": "address",
          "name": "previousOwner",
          "type": "address"
        },
        {
          "indexed": true,
          "internalType": "address",
          "name": "newOwner",
          "type": "address"
        }
      ],
      "name": "OwnershipTransferred",
      "type": "event"
    },
    {
      "anonymous": false,
      "inputs": [
        {
          "indexed": false,
          "internalType": "address",
          "name": "account",
          "type": "address"
        }
      ],
      "name": "Paused",
      "type": "event"
    },
    {
      "anonymous": false,
      "inputs": [
        {
          "indexed": true,
          "internalType": "address",
          "name": "from",
          "type": "address"
        },
        {
          "indexed": true,
          "internalType": "address",
          "name": "to",
          "type": "address"
        },
        {
          "indexed": true,
          "internalType": "uint256",
          "name": "tokenId",
          "type": "uint256"
        }
      ],
      "name": "Transfer",
      "type": "event"
    },
    {
      "anonymous": false,
      "inputs": [
        {
          "indexed": false,
          "internalType": "address",
          "name": "account",
          "type": "address"
        }
      ],
      "name": "Unpaused",
      "type": "event"
    },
    {
      "inputs": [
        {
          "internalType": "address",
          "name": "to",
          "type": "address"
        },
        {
          "internalType": "uint256",
          "name": "tokenId",
          "type": "uint256"
        }
      ],
      "name": "approve",
      "outputs": [],
      "stateMutability": "nonpayable",
      "type": "function"
    },
    {
      "inputs": [
        {
          "internalType": "address",
          "name": "owner",
          "type": "address"
        }
      ],
      "name": "balanceOf",
      "outputs": [
        {
          "internalType": "uint256",
          "name": "",
          "type": "uint256"
        }
      ],
      "stateMutability": "view",
      "type": "function"
    },
    {
      "inputs": [
        {
          "internalType": "uint256",
          "name": "tokenId",
          "type": "uint256"
        }
      ],
      "name": "burn",
      "outputs": [],
      "stateMutability": "nonpayable",
      "type": "function"
    },
    {
      "inputs": [
        {
          "internalType": "uint256",
          "name": "tokenId",
          "type": "uint256"
        }
      ],
      "name": "getApproved",
      "outputs": [
        {
          "internalType": "address",
          "name": "",
          "type": "address"
        }
      ],
      "stateMutability": "view",
      "type": "function"
    },
    {
      "inputs": [
        {
          "internalType": "uint96",
          "name": "_maxRoyality",
          "type": "uint96"
        }
      ],
      "name": "initialize",
      "outputs": [],
      "stateMutability": "nonpayable",
      "type": "function"
    },
    {
      "inputs": [
        {
          "internalType": "address",
          "name": "owner",
          "type": "address"
        },
        {
          "internalType": "address",
          "name": "operator",
          "type": "address"
        }
      ],
      "name": "isApprovedForAll",
      "outputs": [
        {
          "internalType": "bool",
          "name": "",
          "type": "bool"
        }
      ],
      "stateMutability": "view",
      "type": "function"
    },
    {
      "inputs": [],
      "name": "maximumRoyality",
      "outputs": [
        {
          "internalType": "uint96",
          "name": "",
          "type": "uint96"
        }
      ],
      "stateMutability": "view",
      "type": "function"
    },
    {
      "inputs": [
        {
          "internalType": "address",
          "name": "to",
          "type": "address"
        },
        {
          "internalType": "string",
          "name": "tokenURI",
          "type": "string"
        },
        {
          "internalType": "uint96",
          "name": "_royality",
          "type": "uint96"
        }
      ],
      "name": "mint",
      "outputs": [
        {
          "internalType": "uint256",
          "name": "",
          "type": "uint256"
        }
      ],
      "stateMutability": "nonpayable",
      "type": "function"
    },
    {
      "inputs": [],
      "name": "name",
      "outputs": [
        {
          "internalType": "string",
          "name": "",
          "type": "string"
        }
      ],
      "stateMutability": "view",
      "type": "function"
    },
    {
      "inputs": [],
      "name": "owner",
      "outputs": [
        {
          "internalType": "address",
          "name": "",
          "type": "address"
        }
      ],
      "stateMutability": "view",
      "type": "function"
    },
    {
      "inputs": [
        {
          "internalType": "uint256",
          "name": "tokenId",
          "type": "uint256"
        }
      ],
      "name": "ownerOf",
      "outputs": [
        {
          "internalType": "address",
          "name": "",
          "type": "address"
        }
      ],
      "stateMutability": "view",
      "type": "function"
    },
    {
      "inputs": [],
      "name": "paused",
      "outputs": [
        {
          "internalType": "bool",
          "name": "",
          "type": "bool"
        }
      ],
      "stateMutability": "view",
      "type": "function"
    },
    {
      "inputs": [],
      "name": "renounceOwnership",
      "outputs": [],
      "stateMutability": "nonpayable",
      "type": "function"
    },
    {
      "inputs": [
        {
          "internalType": "uint256",
          "name": "_tokenId",
          "type": "uint256"
        },
        {
          "internalType": "uint256",
          "name": "_salePrice",
          "type": "uint256"
        }
      ],
      "name": "royaltyInfo",
      "outputs": [
        {
          "internalType": "address",
          "name": "",
          "type": "address"
        },
        {
          "internalType": "uint256",
          "name": "",
          "type": "uint256"
        }
      ],
      "stateMutability": "view",
      "type": "function"
    },
    {
      "inputs": [
        {
          "internalType": "address",
          "name": "from",
          "type": "address"
        },
        {
          "internalType": "address",
          "name": "to",
          "type": "address"
        },
        {
          "internalType": "uint256",
          "name": "tokenId",
          "type": "uint256"
        }
      ],
      "name": "safeTransferFrom",
      "outputs": [],
      "stateMutability": "nonpayable",
      "type": "function"
    },
    {
      "inputs": [
        {
          "internalType": "address",
          "name": "from",
          "type": "address"
        },
        {
          "internalType": "address",
          "name": "to",
          "type": "address"
        },
        {
          "internalType": "uint256",
          "name": "tokenId",
          "type": "uint256"
        },
        {
          "internalType": "bytes",
          "name": "_data",
          "type": "bytes"
        }
      ],
      "name": "safeTransferFrom",
      "outputs": [],
      "stateMutability": "nonpayable",
      "type": "function"
    },
    {
      "inputs": [
        {
          "internalType": "address",
          "name": "operator",
          "type": "address"
        },
        {
          "internalType": "bool",
          "name": "approved",
          "type": "bool"
        }
      ],
      "name": "setApprovalForAll",
      "outputs": [],
      "stateMutability": "nonpayable",
      "type": "function"
    },
    {
      "inputs": [
        {
          "internalType": "uint96",
          "name": "_value",
          "type": "uint96"
        }
      ],
      "name": "setMaximumRoyality",
      "outputs": [],
      "stateMutability": "nonpayable",
      "type": "function"
    },
    {
      "inputs": [
        {
          "internalType": "bytes4",
          "name": "interfaceId",
          "type": "bytes4"
        }
      ],
      "name": "supportsInterface",
      "outputs": [
        {
          "internalType": "bool",
          "name": "",
          "type": "bool"
        }
      ],
      "stateMutability": "view",
      "type": "function"
    },
    {
      "inputs": [],
      "name": "symbol",
      "outputs": [
        {
          "internalType": "string",
          "name": "",
          "type": "string"
        }
      ],
      "stateMutability": "view",
      "type": "function"
    },
    {
      "inputs": [
        {
          "internalType": "uint256",
          "name": "index",
          "type": "uint256"
        }
      ],
      "name": "tokenByIndex",
      "outputs": [
        {
          "internalType": "uint256",
          "name": "",
          "type": "uint256"
        }
      ],
      "stateMutability": "view",
      "type": "function"
    },
    {
      "inputs": [
        {
          "internalType": "address",
          "name": "owner",
          "type": "address"
        },
        {
          "internalType": "uint256",
          "name": "index",
          "type": "uint256"
        }
      ],
      "name": "tokenOfOwnerByIndex",
      "outputs": [
        {
          "internalType": "uint256",
          "name": "",
          "type": "uint256"
        }
      ],
      "stateMutability": "view",
      "type": "function"
    },
    {
      "inputs": [
        {
          "internalType": "uint256",
          "name": "tokenId",
          "type": "uint256"
        }
      ],
      "name": "tokenURI",
      "outputs": [
        {
          "internalType": "string",
          "name": "",
          "type": "string"
        }
      ],
      "stateMutability": "view",
      "type": "function"
    },
    {
      "inputs": [],
      "name": "totalSupply",
      "outputs": [
        {
          "internalType": "uint256",
          "name": "",
          "type": "uint256"
        }
      ],
      "stateMutability": "view",
      "type": "function"
    },
    {
      "inputs": [
        {
          "internalType": "address",
          "name": "from",
          "type": "address"
        },
        {
          "internalType": "address",
          "name": "to",
          "type": "address"
        },
        {
          "internalType": "uint256",
          "name": "tokenId",
          "type": "uint256"
        }
      ],
      "name": "transferFrom",
      "outputs": [],
      "stateMutability": "nonpayable",
      "type": "function"
    },
    {
      "inputs": [
        {
          "internalType": "address",
          "name": "newOwner",
          "type": "address"
        }
      ],
      "name": "transferOwnership",
      "outputs": [],
      "stateMutability": "nonpayable",
      "type": "function"
    }
  ],
  "bytecode": "0x608060405234801561001057600080fd5b506145de806100206000396000f3fe608060405234801561001057600080fd5b506004361061018e5760003560e01c806370a08231116100de578063a22cb46511610097578063d98a17ed11610071578063d98a17ed146104a8578063e985e9c5146104c6578063ec1d2ff9146104f6578063f2fde38b146105125761018e565b8063a22cb46514610440578063b88d4fde1461045c578063c87b56dd146104785761018e565b806370a082311461037e578063715018a6146103ae5780637b17b7a8146103b85780638da5cb5b146103e8578063909f1cad1461040657806395d89b41146104225761018e565b80632a55205a1161014b57806342966c681161012557806342966c68146102e45780634f6ccce7146103005780635c975abb146103305780636352211e1461034e5761018e565b80632a55205a146102675780632f745c591461029857806342842e0e146102c85761018e565b806301ffc9a71461019357806306fdde03146101c3578063081812fc146101e1578063095ea7b31461021157806318160ddd1461022d57806323b872dd1461024b575b600080fd5b6101ad60048036038101906101a89190612f53565b61052e565b6040516101ba9190613586565b60405180910390f35b6101cb610540565b6040516101d891906135bc565b60405180910390f35b6101fb60048036038101906101f69190612fa5565b6105d2565b60405161020891906134f6565b60405180910390f35b61022b60048036038101906102269190612f17565b610657565b005b61023561076f565b604051610242919061393e565b60405180910390f35b61026560048036038101906102609190612daa565b61077d565b005b610281600480360381019061027c9190612fce565b6107dd565b60405161028f92919061355d565b60405180910390f35b6102b260048036038101906102ad9190612f17565b6109c8565b6040516102bf919061393e565b60405180910390f35b6102e260048036038101906102dd9190612daa565b610a6e565b005b6102fe60048036038101906102f99190612fa5565b610a8e565b005b61031a60048036038101906103159190612fa5565b610aea565b604051610327919061393e565b60405180910390f35b610338610b82565b6040516103459190613586565b60405180910390f35b61036860048036038101906103639190612fa5565b610b9a565b60405161037591906134f6565b60405180910390f35b61039860048036038101906103939190612d45565b610c4c565b6040516103a5919061393e565b60405180910390f35b6103b6610d04565b005b6103d260048036038101906103cd9190612eb0565b610d8c565b6040516103df919061393e565b60405180910390f35b6103f0610ebc565b6040516103fd91906134f6565b60405180910390f35b610420600480360381019061041b919061300a565b610ee6565b005b61042a61102c565b60405161043791906135bc565b60405180910390f35b61045a60048036038101906104559190612e74565b6110be565b005b61047660048036038101906104719190612df9565b6110d4565b005b610492600480360381019061048d9190612fa5565b611136565b60405161049f91906135bc565b60405180910390f35b6104b0611148565b6040516104bd9190613959565b60405180910390f35b6104e060048036038101906104db9190612d6e565b611167565b6040516104ed9190613586565b60405180910390f35b610510600480360381019061050b919061300a565b6111fb565b005b61052c60048036038101906105279190612d45565b6112ac565b005b6000610539826113a4565b9050919050565b60606097805461054f90613c40565b80601f016020809104026020016040519081016040528092919081815260200182805461057b90613c40565b80156105c85780601f1061059d576101008083540402835291602001916105c8565b820191906000526020600020905b8154815290600101906020018083116105ab57829003601f168201915b5050505050905090565b60006105dd826113b6565b61061c576040517f08c379a0000000000000000000000000000000000000000000000000000000008152600401610613906137fe565b60405180910390fd5b609b600083815260200190815260200160002060009054906101000a900473ffffffffffffffffffffffffffffffffffffffff169050919050565b600061066282610b9a565b90508073ffffffffffffffffffffffffffffffffffffffff168373ffffffffffffffffffffffffffffffffffffffff1614156106d3576040517f08c379a00000000000000000000000000000000000000000000000000000000081526004016106ca9061385e565b60405180910390fd5b8073ffffffffffffffffffffffffffffffffffffffff166106f2611422565b73ffffffffffffffffffffffffffffffffffffffff16148061072157506107208161071b611422565b611167565b5b610760576040517f08c379a00000000000000000000000000000000000000000000000000000000081526004016107579061371e565b60405180910390fd5b61076a838361142a565b505050565b600061016180549050905090565b61078e610788611422565b826114e3565b6107cd576040517f08c379a00000000000000000000000000000000000000000000000000000000081526004016107c49061387e565b60405180910390fd5b6107d88383836115c1565b505050565b6000806000606660008681526020019081526020016000206040518060400160405290816000820160009054906101000a900473ffffffffffffffffffffffffffffffffffffffff1673ffffffffffffffffffffffffffffffffffffffff1673ffffffffffffffffffffffffffffffffffffffff1681526020016000820160149054906101000a90046bffffffffffffffffffffffff166bffffffffffffffffffffffff166bffffffffffffffffffffffff16815250509050600073ffffffffffffffffffffffffffffffffffffffff16816000015173ffffffffffffffffffffffffffffffffffffffff1614156109735760656040518060400160405290816000820160009054906101000a900473ffffffffffffffffffffffffffffffffffffffff1673ffffffffffffffffffffffffffffffffffffffff1673ffffffffffffffffffffffffffffffffffffffff1681526020016000820160149054906101000a90046bffffffffffffffffffffffff166bffffffffffffffffffffffff166bffffffffffffffffffffffff168152505090505b600061097d611828565b6bffffffffffffffffffffffff1682602001516bffffffffffffffffffffffff16866109a99190613ac5565b6109b39190613a94565b90508160000151819350935050509250929050565b60006109d383610c4c565b8210610a14576040517f08c379a0000000000000000000000000000000000000000000000000000000008152600401610a0b906135de565b60405180910390fd5b61015f60008473ffffffffffffffffffffffffffffffffffffffff1673ffffffffffffffffffffffffffffffffffffffff168152602001908152602001600020600083815260200190815260200160002054905092915050565b610a89838383604051806020016040528060008152506110d4565b505050565b610a9f610a99611422565b826114e3565b610ade576040517f08c379a0000000000000000000000000000000000000000000000000000000008152600401610ad59061391e565b60405180910390fd5b610ae781611832565b50565b6000610af461076f565b8210610b35576040517f08c379a0000000000000000000000000000000000000000000000000000000008152600401610b2c906138be565b60405180910390fd5b6101618281548110610b70577f4e487b7100000000000000000000000000000000000000000000000000000000600052603260045260246000fd5b90600052602060002001549050919050565b600061019160009054906101000a900460ff16905090565b6000806099600084815260200190815260200160002060009054906101000a900473ffffffffffffffffffffffffffffffffffffffff169050600073ffffffffffffffffffffffffffffffffffffffff168173ffffffffffffffffffffffffffffffffffffffff161415610c43576040517f08c379a0000000000000000000000000000000000000000000000000000000008152600401610c3a9061375e565b60405180910390fd5b80915050919050565b60008073ffffffffffffffffffffffffffffffffffffffff168273ffffffffffffffffffffffffffffffffffffffff161415610cbd576040517f08c379a0000000000000000000000000000000000000000000000000000000008152600401610cb49061373e565b60405180910390fd5b609a60008373ffffffffffffffffffffffffffffffffffffffff1673ffffffffffffffffffffffffffffffffffffffff168152602001908152602001600020549050919050565b610d0c611422565b73ffffffffffffffffffffffffffffffffffffffff16610d2a610ebc565b73ffffffffffffffffffffffffffffffffffffffff1614610d80576040517f08c379a0000000000000000000000000000000000000000000000000000000008152600401610d779061381e565b60405180910390fd5b610d8a600061183e565b565b600061022860009054906101000a90046bffffffffffffffffffffffff166bffffffffffffffffffffffff16826bffffffffffffffffffffffff161115610e08576040517f08c379a0000000000000000000000000000000000000000000000000000000008152600401610dff9061361e565b60405180910390fd5b600073ffffffffffffffffffffffffffffffffffffffff168473ffffffffffffffffffffffffffffffffffffffff161415610e78576040517f08c379a0000000000000000000000000000000000000000000000000000000008152600401610e6f906136fe565b60405180910390fd5b6000610e85610227611904565b9050610e918582611912565b610e9b8185611aec565b610ea6818685611b60565b610eb1610227611d08565b809150509392505050565b600060c960009054906101000a900473ffffffffffffffffffffffffffffffffffffffff16905090565b6000610ef26001611d1e565b90508015610f16576001600060016101000a81548160ff0219169083151502179055505b610f8a6040518060400160405280600b81526020017f4d61726b6574506c6163650000000000000000000000000000000000000000008152506040518060400160405280600381526020017f4d4b500000000000000000000000000000000000000000000000000000000000815250611e0e565b610f92611e6b565b610f9d610227611d08565b8161022860006101000a8154816bffffffffffffffffffffffff02191690836bffffffffffffffffffffffff16021790555080156110285760008060016101000a81548160ff0219169083151502179055507f7f26b83ff96e1f2b6a682f133852f6798a09c465da95921460cefb3847402498600160405161101f91906135a1565b60405180910390a15b5050565b60606098805461103b90613c40565b80601f016020809104026020016040519081016040528092919081815260200182805461106790613c40565b80156110b45780601f10611089576101008083540402835291602001916110b4565b820191906000526020600020905b81548152906001019060200180831161109757829003601f168201915b5050505050905090565b6110d06110c9611422565b8383611ec4565b5050565b6110e56110df611422565b836114e3565b611124576040517f08c379a000000000000000000000000000000000000000000000000000000000815260040161111b9061387e565b60405180910390fd5b61113084848484612031565b50505050565b60606111418261208d565b9050919050565b61022860009054906101000a90046bffffffffffffffffffffffff1681565b6000609c60008473ffffffffffffffffffffffffffffffffffffffff1673ffffffffffffffffffffffffffffffffffffffff16815260200190815260200160002060008373ffffffffffffffffffffffffffffffffffffffff1673ffffffffffffffffffffffffffffffffffffffff16815260200190815260200160002060009054906101000a900460ff16905092915050565b611203611422565b73ffffffffffffffffffffffffffffffffffffffff16611221610ebc565b73ffffffffffffffffffffffffffffffffffffffff1614611277576040517f08c379a000000000000000000000000000000000000000000000000000000000815260040161126e9061381e565b60405180910390fd5b8061022860006101000a8154816bffffffffffffffffffffffff02191690836bffffffffffffffffffffffff16021790555050565b6112b4611422565b73ffffffffffffffffffffffffffffffffffffffff166112d2610ebc565b73ffffffffffffffffffffffffffffffffffffffff1614611328576040517f08c379a000000000000000000000000000000000000000000000000000000000815260040161131f9061381e565b60405180910390fd5b600073ffffffffffffffffffffffffffffffffffffffff168173ffffffffffffffffffffffffffffffffffffffff161415611398576040517f08c379a000000000000000000000000000000000000000000000000000000000815260040161138f9061363e565b60405180910390fd5b6113a18161183e565b50565b60006113af826121df565b9050919050565b60008073ffffffffffffffffffffffffffffffffffffffff166099600084815260200190815260200160002060009054906101000a900473ffffffffffffffffffffffffffffffffffffffff1673ffffffffffffffffffffffffffffffffffffffff1614159050919050565b600033905090565b81609b600083815260200190815260200160002060006101000a81548173ffffffffffffffffffffffffffffffffffffffff021916908373ffffffffffffffffffffffffffffffffffffffff160217905550808273ffffffffffffffffffffffffffffffffffffffff1661149d83610b9a565b73ffffffffffffffffffffffffffffffffffffffff167f8c5be1e5ebec7d5bd14f71427d1e84f3dd0314c0f7b2291e5b200ac8c7c3b92560405160405180910390a45050565b60006114ee826113b6565b61152d576040517f08c379a0000000000000000000000000000000000000000000000000000000008152600401611524906136de565b60405180910390fd5b600061153883610b9a565b90508073ffffffffffffffffffffffffffffffffffffffff168473ffffffffffffffffffffffffffffffffffffffff16148061157a57506115798185611167565b5b806115b857508373ffffffffffffffffffffffffffffffffffffffff166115a0846105d2565b73ffffffffffffffffffffffffffffffffffffffff16145b91505092915050565b8273ffffffffffffffffffffffffffffffffffffffff166115e182610b9a565b73ffffffffffffffffffffffffffffffffffffffff1614611637576040517f08c379a000000000000000000000000000000000000000000000000000000000815260040161162e9061365e565b60405180910390fd5b600073ffffffffffffffffffffffffffffffffffffffff168273ffffffffffffffffffffffffffffffffffffffff1614156116a7576040517f08c379a000000000000000000000000000000000000000000000000000000000815260040161169e9061369e565b60405180910390fd5b6116b2838383612259565b6116bd60008261142a565b6001609a60008573ffffffffffffffffffffffffffffffffffffffff1673ffffffffffffffffffffffffffffffffffffffff168152602001908152602001600020600082825461170d9190613b1f565b925050819055506001609a60008473ffffffffffffffffffffffffffffffffffffffff1673ffffffffffffffffffffffffffffffffffffffff16815260200190815260200160002060008282546117649190613a3e565b92505081905550816099600083815260200190815260200160002060006101000a81548173ffffffffffffffffffffffffffffffffffffffff021916908373ffffffffffffffffffffffffffffffffffffffff160217905550808273ffffffffffffffffffffffffffffffffffffffff168473ffffffffffffffffffffffffffffffffffffffff167fddf252ad1be2c89b69c2b068fc378daa952ba7f163c4a11628f55a4df523b3ef60405160405180910390a461182383838361225e565b505050565b6000612710905090565b61183b81612263565b50565b600060c960009054906101000a900473ffffffffffffffffffffffffffffffffffffffff1690508160c960006101000a81548173ffffffffffffffffffffffffffffffffffffffff021916908373ffffffffffffffffffffffffffffffffffffffff1602179055508173ffffffffffffffffffffffffffffffffffffffff168173ffffffffffffffffffffffffffffffffffffffff167f8be0079c531659141344cd1fd0a4f28419497f9722a3daafe3b4186f6b6457e060405160405180910390a35050565b600081600001549050919050565b600073ffffffffffffffffffffffffffffffffffffffff168273ffffffffffffffffffffffffffffffffffffffff161415611982576040517f08c379a0000000000000000000000000000000000000000000000000000000008152600401611979906137be565b60405180910390fd5b61198b816113b6565b156119cb576040517f08c379a00000000000000000000000000000000000000000000000000000000081526004016119c29061367e565b60405180910390fd5b6119d760008383612259565b6001609a60008473ffffffffffffffffffffffffffffffffffffffff1673ffffffffffffffffffffffffffffffffffffffff1681526020019081526020016000206000828254611a279190613a3e565b92505081905550816099600083815260200190815260200160002060006101000a81548173ffffffffffffffffffffffffffffffffffffffff021916908373ffffffffffffffffffffffffffffffffffffffff160217905550808273ffffffffffffffffffffffffffffffffffffffff16600073ffffffffffffffffffffffffffffffffffffffff167fddf252ad1be2c89b69c2b068fc378daa952ba7f163c4a11628f55a4df523b3ef60405160405180910390a4611ae86000838361225e565b5050565b611af5826113b6565b611b34576040517f08c379a0000000000000000000000000000000000000000000000000000000008152600401611b2b9061377e565b60405180910390fd5b8060fb60008481526020019081526020016000209080519060200190611b5b929190612b14565b505050565b611b68611828565b6bffffffffffffffffffffffff16816bffffffffffffffffffffffff161115611bc6576040517f08c379a0000000000000000000000000000000000000000000000000000000008152600401611bbd906138fe565b60405180910390fd5b600073ffffffffffffffffffffffffffffffffffffffff168273ffffffffffffffffffffffffffffffffffffffff161415611c36576040517f08c379a0000000000000000000000000000000000000000000000000000000008152600401611c2d9061389e565b60405180910390fd5b60405180604001604052808373ffffffffffffffffffffffffffffffffffffffff168152602001826bffffffffffffffffffffffff168152506066600085815260200190815260200160002060008201518160000160006101000a81548173ffffffffffffffffffffffffffffffffffffffff021916908373ffffffffffffffffffffffffffffffffffffffff16021790555060208201518160000160146101000a8154816bffffffffffffffffffffffff02191690836bffffffffffffffffffffffff160217905550905050505050565b6001816000016000828254019250508190555050565b60008060019054906101000a900460ff1615611d955760018260ff16148015611d4d5750611d4b30612278565b155b611d8c576040517f08c379a0000000000000000000000000000000000000000000000000000000008152600401611d839061379e565b60405180910390fd5b60009050611e09565b8160ff1660008054906101000a900460ff1660ff1610611dea576040517f08c379a0000000000000000000000000000000000000000000000000000000008152600401611de19061379e565b60405180910390fd5b816000806101000a81548160ff021916908360ff160217905550600190505b919050565b600060019054906101000a900460ff16611e5d576040517f08c379a0000000000000000000000000000000000000000000000000000000008152600401611e54906138de565b60405180910390fd5b611e67828261229b565b5050565b600060019054906101000a900460ff16611eba576040517f08c379a0000000000000000000000000000000000000000000000000000000008152600401611eb1906138de565b60405180910390fd5b611ec261231c565b565b8173ffffffffffffffffffffffffffffffffffffffff168373ffffffffffffffffffffffffffffffffffffffff161415611f33576040517f08c379a0000000000000000000000000000000000000000000000000000000008152600401611f2a906136be565b60405180910390fd5b80609c60008573ffffffffffffffffffffffffffffffffffffffff1673ffffffffffffffffffffffffffffffffffffffff16815260200190815260200160002060008473ffffffffffffffffffffffffffffffffffffffff1673ffffffffffffffffffffffffffffffffffffffff16815260200190815260200160002060006101000a81548160ff0219169083151502179055508173ffffffffffffffffffffffffffffffffffffffff168373ffffffffffffffffffffffffffffffffffffffff167f17307eab39ab6107e8899845ad3d59bd9653f200f220920489ca2b5937696c31836040516120249190613586565b60405180910390a3505050565b61203c8484846115c1565b6120488484848461237d565b612087576040517f08c379a000000000000000000000000000000000000000000000000000000000815260040161207e906135fe565b60405180910390fd5b50505050565b6060612098826113b6565b6120d7576040517f08c379a00000000000000000000000000000000000000000000000000000000081526004016120ce906137de565b60405180910390fd5b600060fb600084815260200190815260200160002080546120f790613c40565b80601f016020809104026020016040519081016040528092919081815260200182805461212390613c40565b80156121705780601f1061214557610100808354040283529160200191612170565b820191906000526020600020905b81548152906001019060200180831161215357829003601f168201915b505050505090506000612181612514565b90506000815114156121975781925050506121da565b6000825111156121cc5780826040516020016121b49291906134d2565b604051602081830303815290604052925050506121da565b6121d58461252b565b925050505b919050565b60007f780e9d63000000000000000000000000000000000000000000000000000000007bffffffffffffffffffffffffffffffffffffffffffffffffffffffff1916827bffffffffffffffffffffffffffffffffffffffffffffffffffffffff191614806122525750612251826125d2565b5b9050919050565b505050565b505050565b61226c816126b4565b61227581612707565b50565b6000808273ffffffffffffffffffffffffffffffffffffffff163b119050919050565b600060019054906101000a900460ff166122ea576040517f08c379a00000000000000000000000000000000000000000000000000000000081526004016122e1906138de565b60405180910390fd5b8160979080519060200190612300929190612b14565b508060989080519060200190612317929190612b14565b505050565b600060019054906101000a900460ff1661236b576040517f08c379a0000000000000000000000000000000000000000000000000000000008152600401612362906138de565b60405180910390fd5b61237b612376611422565b61183e565b565b600061239e8473ffffffffffffffffffffffffffffffffffffffff16612278565b15612507578373ffffffffffffffffffffffffffffffffffffffff1663150b7a026123c7611422565b8786866040518563ffffffff1660e01b81526004016123e99493929190613511565b602060405180830381600087803b15801561240357600080fd5b505af192505050801561243457506040513d601f19601f820116820180604052508101906124319190612f7c565b60015b6124b7573d8060008114612464576040519150601f19603f3d011682016040523d82523d6000602084013e612469565b606091505b506000815114156124af576040517f08c379a00000000000000000000000000000000000000000000000000000000081526004016124a6906135fe565b60405180910390fd5b805181602001fd5b63150b7a0260e01b7bffffffffffffffffffffffffffffffffffffffffffffffffffffffff1916817bffffffffffffffffffffffffffffffffffffffffffffffffffffffff19161491505061250c565b600190505b949350505050565b606060405180602001604052806000815250905090565b6060612536826113b6565b612575576040517f08c379a000000000000000000000000000000000000000000000000000000000815260040161256c9061383e565b60405180910390fd5b600061257f612514565b9050600081511161259f57604051806020016040528060008152506125ca565b806125a984612766565b6040516020016125ba9291906134d2565b6040516020818303038152906040525b915050919050565b60007f80ac58cd000000000000000000000000000000000000000000000000000000007bffffffffffffffffffffffffffffffffffffffffffffffffffffffff1916827bffffffffffffffffffffffffffffffffffffffffffffffffffffffff1916148061269d57507f5b5e139f000000000000000000000000000000000000000000000000000000007bffffffffffffffffffffffffffffffffffffffffffffffffffffffff1916827bffffffffffffffffffffffffffffffffffffffffffffffffffffffff1916145b806126ad57506126ac82612913565b5b9050919050565b6126bd8161298d565b600060fb600083815260200190815260200160002080546126dd90613c40565b9050146127045760fb600082815260200190815260200160002060006127039190612b9a565b5b50565b60666000828152602001908152602001600020600080820160006101000a81549073ffffffffffffffffffffffffffffffffffffffff02191690556000820160146101000a8154906bffffffffffffffffffffffff0219169055505050565b606060008214156127ae576040518060400160405280600181526020017f3000000000000000000000000000000000000000000000000000000000000000815250905061290e565b600082905060005b600082146127e05780806127c990613ca3565b915050600a826127d99190613a94565b91506127b6565b60008167ffffffffffffffff811115612822577f4e487b7100000000000000000000000000000000000000000000000000000000600052604160045260246000fd5b6040519080825280601f01601f1916602001820160405280156128545781602001600182028036833780820191505090505b5090505b600085146129075760018261286d9190613b1f565b9150600a8561287c9190613cec565b60306128889190613a3e565b60f81b8183815181106128c4577f4e487b7100000000000000000000000000000000000000000000000000000000600052603260045260246000fd5b60200101907effffffffffffffffffffffffffffffffffffffffffffffffffffffffffffff1916908160001a905350600a856129009190613a94565b9450612858565b8093505050505b919050565b60007f2a55205a000000000000000000000000000000000000000000000000000000007bffffffffffffffffffffffffffffffffffffffffffffffffffffffff1916827bffffffffffffffffffffffffffffffffffffffffffffffffffffffff19161480612986575061298582612aaa565b5b9050919050565b600061299882610b9a565b90506129a681600084612259565b6129b160008361142a565b6001609a60008373ffffffffffffffffffffffffffffffffffffffff1673ffffffffffffffffffffffffffffffffffffffff1681526020019081526020016000206000828254612a019190613b1f565b925050819055506099600083815260200190815260200160002060006101000a81549073ffffffffffffffffffffffffffffffffffffffff021916905581600073ffffffffffffffffffffffffffffffffffffffff168273ffffffffffffffffffffffffffffffffffffffff167fddf252ad1be2c89b69c2b068fc378daa952ba7f163c4a11628f55a4df523b3ef60405160405180910390a4612aa68160008461225e565b5050565b60007f01ffc9a7000000000000000000000000000000000000000000000000000000007bffffffffffffffffffffffffffffffffffffffffffffffffffffffff1916827bffffffffffffffffffffffffffffffffffffffffffffffffffffffff1916149050919050565b828054612b2090613c40565b90600052602060002090601f016020900481019282612b425760008555612b89565b82601f10612b5b57805160ff1916838001178555612b89565b82800160010185558215612b89579182015b82811115612b88578251825591602001919060010190612b6d565b5b509050612b969190612bda565b5090565b508054612ba690613c40565b6000825580601f10612bb85750612bd7565b601f016020900490600052602060002090810190612bd69190612bda565b5b50565b5b80821115612bf3576000816000905550600101612bdb565b5090565b6000612c0a612c0584613999565b613974565b905082815260208101848484011115612c2257600080fd5b612c2d848285613bfe565b509392505050565b6000612c48612c43846139ca565b613974565b905082815260208101848484011115612c6057600080fd5b612c6b848285613bfe565b509392505050565b600081359050612c8281614535565b92915050565b600081359050612c978161454c565b92915050565b600081359050612cac81614563565b92915050565b600081519050612cc181614563565b92915050565b600082601f830112612cd857600080fd5b8135612ce8848260208601612bf7565b91505092915050565b600082601f830112612d0257600080fd5b8135612d12848260208601612c35565b91505092915050565b600081359050612d2a8161457a565b92915050565b600081359050612d3f81614591565b92915050565b600060208284031215612d5757600080fd5b6000612d6584828501612c73565b91505092915050565b60008060408385031215612d8157600080fd5b6000612d8f85828601612c73565b9250506020612da085828601612c73565b9150509250929050565b600080600060608486031215612dbf57600080fd5b6000612dcd86828701612c73565b9350506020612dde86828701612c73565b9250506040612def86828701612d1b565b9150509250925092565b60008060008060808587031215612e0f57600080fd5b6000612e1d87828801612c73565b9450506020612e2e87828801612c73565b9350506040612e3f87828801612d1b565b925050606085013567ffffffffffffffff811115612e5c57600080fd5b612e6887828801612cc7565b91505092959194509250565b60008060408385031215612e8757600080fd5b6000612e9585828601612c73565b9250506020612ea685828601612c88565b9150509250929050565b600080600060608486031215612ec557600080fd5b6000612ed386828701612c73565b935050602084013567ffffffffffffffff811115612ef057600080fd5b612efc86828701612cf1565b9250506040612f0d86828701612d30565b9150509250925092565b60008060408385031215612f2a57600080fd5b6000612f3885828601612c73565b9250506020612f4985828601612d1b565b9150509250929050565b600060208284031215612f6557600080fd5b6000612f7384828501612c9d565b91505092915050565b600060208284031215612f8e57600080fd5b6000612f9c84828501612cb2565b91505092915050565b600060208284031215612fb757600080fd5b6000612fc584828501612d1b565b91505092915050565b60008060408385031215612fe157600080fd5b6000612fef85828601612d1b565b925050602061300085828601612d1b565b9150509250929050565b60006020828403121561301c57600080fd5b600061302a84828501612d30565b91505092915050565b61303c81613b53565b82525050565b61304b81613b65565b82525050565b600061305c826139fb565b6130668185613a11565b9350613076818560208601613c0d565b61307f81613dd9565b840191505092915050565b61309381613bec565b82525050565b60006130a482613a06565b6130ae8185613a22565b93506130be818560208601613c0d565b6130c781613dd9565b840191505092915050565b60006130dd82613a06565b6130e78185613a33565b93506130f7818560208601613c0d565b80840191505092915050565b6000613110602b83613a22565b915061311b82613dea565b604082019050919050565b6000613133603283613a22565b915061313e82613e39565b604082019050919050565b6000613156601e83613a22565b915061316182613e88565b602082019050919050565b6000613179602683613a22565b915061318482613eb1565b604082019050919050565b600061319c602583613a22565b91506131a782613f00565b604082019050919050565b60006131bf601c83613a22565b91506131ca82613f4f565b602082019050919050565b60006131e2602483613a22565b91506131ed82613f78565b604082019050919050565b6000613205601983613a22565b915061321082613fc7565b602082019050919050565b6000613228602c83613a22565b915061323382613ff0565b604082019050919050565b600061324b601e83613a22565b91506132568261403f565b602082019050919050565b600061326e603883613a22565b915061327982614068565b604082019050919050565b6000613291602a83613a22565b915061329c826140b7565b604082019050919050565b60006132b4602983613a22565b91506132bf82614106565b604082019050919050565b60006132d7602e83613a22565b91506132e282614155565b604082019050919050565b60006132fa602e83613a22565b9150613305826141a4565b604082019050919050565b600061331d602083613a22565b9150613328826141f3565b602082019050919050565b6000613340603183613a22565b915061334b8261421c565b604082019050919050565b6000613363602c83613a22565b915061336e8261426b565b604082019050919050565b6000613386602083613a22565b9150613391826142ba565b602082019050919050565b60006133a9602f83613a22565b91506133b4826142e3565b604082019050919050565b60006133cc602183613a22565b91506133d782614332565b604082019050919050565b60006133ef603183613a22565b91506133fa82614381565b604082019050919050565b6000613412601b83613a22565b915061341d826143d0565b602082019050919050565b6000613435602c83613a22565b9150613440826143f9565b604082019050919050565b6000613458602b83613a22565b915061346382614448565b604082019050919050565b600061347b602a83613a22565b915061348682614497565b604082019050919050565b600061349e603083613a22565b91506134a9826144e6565b604082019050919050565b6134bd81613bbd565b82525050565b6134cc81613bd4565b82525050565b60006134de82856130d2565b91506134ea82846130d2565b91508190509392505050565b600060208201905061350b6000830184613033565b92915050565b60006080820190506135266000830187613033565b6135336020830186613033565b61354060408301856134b4565b81810360608301526135528184613051565b905095945050505050565b60006040820190506135726000830185613033565b61357f60208301846134b4565b9392505050565b600060208201905061359b6000830184613042565b92915050565b60006020820190506135b6600083018461308a565b92915050565b600060208201905081810360008301526135d68184613099565b905092915050565b600060208201905081810360008301526135f781613103565b9050919050565b6000602082019050818103600083015261361781613126565b9050919050565b6000602082019050818103600083015261363781613149565b9050919050565b600060208201905081810360008301526136578161316c565b9050919050565b600060208201905081810360008301526136778161318f565b9050919050565b60006020820190508181036000830152613697816131b2565b9050919050565b600060208201905081810360008301526136b7816131d5565b9050919050565b600060208201905081810360008301526136d7816131f8565b9050919050565b600060208201905081810360008301526136f78161321b565b9050919050565b600060208201905081810360008301526137178161323e565b9050919050565b6000602082019050818103600083015261373781613261565b9050919050565b6000602082019050818103600083015261375781613284565b9050919050565b60006020820190508181036000830152613777816132a7565b9050919050565b60006020820190508181036000830152613797816132ca565b9050919050565b600060208201905081810360008301526137b7816132ed565b9050919050565b600060208201905081810360008301526137d781613310565b9050919050565b600060208201905081810360008301526137f781613333565b9050919050565b6000602082019050818103600083015261381781613356565b9050919050565b6000602082019050818103600083015261383781613379565b9050919050565b600060208201905081810360008301526138578161339c565b9050919050565b60006020820190508181036000830152613877816133bf565b9050919050565b60006020820190508181036000830152613897816133e2565b9050919050565b600060208201905081810360008301526138b781613405565b9050919050565b600060208201905081810360008301526138d781613428565b9050919050565b600060208201905081810360008301526138f78161344b565b9050919050565b600060208201905081810360008301526139178161346e565b9050919050565b6000602082019050818103600083015261393781613491565b9050919050565b600060208201905061395360008301846134b4565b92915050565b600060208201905061396e60008301846134c3565b92915050565b600061397e61398f565b905061398a8282613c72565b919050565b6000604051905090565b600067ffffffffffffffff8211156139b4576139b3613daa565b5b6139bd82613dd9565b9050602081019050919050565b600067ffffffffffffffff8211156139e5576139e4613daa565b5b6139ee82613dd9565b9050602081019050919050565b600081519050919050565b600081519050919050565b600082825260208201905092915050565b600082825260208201905092915050565b600081905092915050565b6000613a4982613bbd565b9150613a5483613bbd565b9250827fffffffffffffffffffffffffffffffffffffffffffffffffffffffffffffffff03821115613a8957613a88613d1d565b5b828201905092915050565b6000613a9f82613bbd565b9150613aaa83613bbd565b925082613aba57613ab9613d4c565b5b828204905092915050565b6000613ad082613bbd565b9150613adb83613bbd565b9250817fffffffffffffffffffffffffffffffffffffffffffffffffffffffffffffffff0483118215151615613b1457613b13613d1d565b5b828202905092915050565b6000613b2a82613bbd565b9150613b3583613bbd565b925082821015613b4857613b47613d1d565b5b828203905092915050565b6000613b5e82613b9d565b9050919050565b60008115159050919050565b60007fffffffff0000000000000000000000000000000000000000000000000000000082169050919050565b600073ffffffffffffffffffffffffffffffffffffffff82169050919050565b6000819050919050565b600060ff82169050919050565b60006bffffffffffffffffffffffff82169050919050565b6000613bf782613bc7565b9050919050565b82818337600083830152505050565b60005b83811015613c2b578082015181840152602081019050613c10565b83811115613c3a576000848401525b50505050565b60006002820490506001821680613c5857607f821691505b60208210811415613c6c57613c6b613d7b565b5b50919050565b613c7b82613dd9565b810181811067ffffffffffffffff82111715613c9a57613c99613daa565b5b80604052505050565b6000613cae82613bbd565b91507fffffffffffffffffffffffffffffffffffffffffffffffffffffffffffffffff821415613ce157613ce0613d1d565b5b600182019050919050565b6000613cf782613bbd565b9150613d0283613bbd565b925082613d1257613d11613d4c565b5b828206905092915050565b7f4e487b7100000000000000000000000000000000000000000000000000000000600052601160045260246000fd5b7f4e487b7100000000000000000000000000000000000000000000000000000000600052601260045260246000fd5b7f4e487b7100000000000000000000000000000000000000000000000000000000600052602260045260246000fd5b7f4e487b7100000000000000000000000000000000000000000000000000000000600052604160045260246000fd5b6000601f19601f8301169050919050565b7f455243373231456e756d657261626c653a206f776e657220696e646578206f7560008201527f74206f6620626f756e6473000000000000000000000000000000000000000000602082015250565b7f4552433732313a207472616e7366657220746f206e6f6e20455243373231526560008201527f63656976657220696d706c656d656e7465720000000000000000000000000000602082015250565b7f4d794e46543a20526f79616c6974792073686f756c64206265206c6573730000600082015250565b7f4f776e61626c653a206e6577206f776e657220697320746865207a65726f206160008201527f6464726573730000000000000000000000000000000000000000000000000000602082015250565b7f4552433732313a207472616e736665722066726f6d20696e636f72726563742060008201527f6f776e6572000000000000000000000000000000000000000000000000000000602082015250565b7f4552433732313a20746f6b656e20616c7265616479206d696e74656400000000600082015250565b7f4552433732313a207472616e7366657220746f20746865207a65726f2061646460008201527f7265737300000000000000000000000000000000000000000000000000000000602082015250565b7f4552433732313a20617070726f766520746f2063616c6c657200000000000000600082015250565b7f4552433732313a206f70657261746f7220717565727920666f72206e6f6e657860008201527f697374656e7420746f6b656e0000000000000000000000000000000000000000602082015250565b7f4d794e46543a20746f20616464726573732063616e2774206265203078300000600082015250565b7f4552433732313a20617070726f76652063616c6c6572206973206e6f74206f7760008201527f6e6572206e6f7220617070726f76656420666f7220616c6c0000000000000000602082015250565b7f4552433732313a2062616c616e636520717565727920666f7220746865207a6560008201527f726f206164647265737300000000000000000000000000000000000000000000602082015250565b7f4552433732313a206f776e657220717565727920666f72206e6f6e657869737460008201527f656e7420746f6b656e0000000000000000000000000000000000000000000000602082015250565b7f45524337323155524953746f726167653a2055524920736574206f66206e6f6e60008201527f6578697374656e7420746f6b656e000000000000000000000000000000000000602082015250565b7f496e697469616c697a61626c653a20636f6e747261637420697320616c72656160008201527f647920696e697469616c697a6564000000000000000000000000000000000000602082015250565b7f4552433732313a206d696e7420746f20746865207a65726f2061646472657373600082015250565b7f45524337323155524953746f726167653a2055524920717565727920666f722060008201527f6e6f6e6578697374656e7420746f6b656e000000000000000000000000000000602082015250565b7f4552433732313a20617070726f76656420717565727920666f72206e6f6e657860008201527f697374656e7420746f6b656e0000000000000000000000000000000000000000602082015250565b7f4f776e61626c653a2063616c6c6572206973206e6f7420746865206f776e6572600082015250565b7f4552433732314d657461646174613a2055524920717565727920666f72206e6f60008201527f6e6578697374656e7420746f6b656e0000000000000000000000000000000000602082015250565b7f4552433732313a20617070726f76616c20746f2063757272656e74206f776e6560008201527f7200000000000000000000000000000000000000000000000000000000000000602082015250565b7f4552433732313a207472616e736665722063616c6c6572206973206e6f74206f60008201527f776e6572206e6f7220617070726f766564000000000000000000000000000000602082015250565b7f455243323938313a20496e76616c696420706172616d65746572730000000000600082015250565b7f455243373231456e756d657261626c653a20676c6f62616c20696e646578206f60008201527f7574206f6620626f756e64730000000000000000000000000000000000000000602082015250565b7f496e697469616c697a61626c653a20636f6e7472616374206973206e6f74206960008201527f6e697469616c697a696e67000000000000000000000000000000000000000000602082015250565b7f455243323938313a20726f79616c7479206665652077696c6c2065786365656460008201527f2073616c65507269636500000000000000000000000000000000000000000000602082015250565b7f4552433732314275726e61626c653a2063616c6c6572206973206e6f74206f7760008201527f6e6572206e6f7220617070726f76656400000000000000000000000000000000602082015250565b61453e81613b53565b811461454957600080fd5b50565b61455581613b65565b811461456057600080fd5b50565b61456c81613b71565b811461457757600080fd5b50565b61458381613bbd565b811461458e57600080fd5b50565b61459a81613bd4565b81146145a557600080fd5b5056fea264697066735822122025bf67a358057abe7089e91e7bed237bacef0222b95bdd32625a12ed0efc332664736f6c63430008040033",
  "linkReferences": {},
  "deployedLinkReferences": {}
}