{
  "_format": "hh-sol-artifact-1",
  "contractName": "MyNFT",
  "sourceName": "contracts/ERC721Token.sol",
  "abi": [
    {
      "anonymous": false,
      "inputs": [
        {
          "indexed": true,
          "internalType": "address",
          "name": "owner",
          "type": "address"
        },
        {
          "indexed": true,
          "internalType": "address",
          "name": "approved",
          "type": "address"
        },
        {
          "indexed": true,
          "internalType": "uint256",
          "name": "tokenId",
          "type": "uint256"
        }
      ],
      "name": "Approval",
      "type": "event"
    },
    {
      "anonymous": false,
      "inputs": [
        {
          "indexed": true,
          "internalType": "address",
          "name": "owner",
          "type": "address"
        },
        {
          "indexed": true,
          "internalType": "address",
          "name": "operator",
          "type": "address"
        },
        {
          "indexed": false,
          "internalType": "bool",
          "name": "approved",
          "type": "bool"
        }
      ],
      "name": "ApprovalForAll",
      "type": "event"
    },
    {
      "anonymous": false,
      "inputs": [
        {
          "indexed": false,
          "internalType": "uint8",
          "name": "version",
          "type": "uint8"
        }
      ],
      "name": "Initialized",
      "type": "event"
    },
    {
      "anonymous": false,
      "inputs": [
        {
          "indexed": true,
          "internalType": "address",
          "name": "from",
          "type": "address"
        },
        {
          "indexed": true,
          "internalType": "address",
          "name": "to",
          "type": "address"
        },
        {
          "indexed": true,
          "internalType": "uint256",
          "name": "tokenId",
          "type": "uint256"
        }
      ],
      "name": "Transfer",
      "type": "event"
    },
    {
      "inputs": [
        {
          "internalType": "address",
          "name": "to",
          "type": "address"
        },
        {
          "internalType": "uint256",
          "name": "tokenId",
          "type": "uint256"
        }
      ],
      "name": "approve",
      "outputs": [],
      "stateMutability": "nonpayable",
      "type": "function"
    },
    {
      "inputs": [
        {
          "internalType": "address",
          "name": "owner",
          "type": "address"
        }
      ],
      "name": "balanceOf",
      "outputs": [
        {
          "internalType": "uint256",
          "name": "",
          "type": "uint256"
        }
      ],
      "stateMutability": "view",
      "type": "function"
    },
    {
      "inputs": [
        {
          "internalType": "uint256",
          "name": "",
          "type": "uint256"
        }
      ],
      "name": "creator",
      "outputs": [
        {
          "internalType": "address",
          "name": "",
          "type": "address"
        }
      ],
      "stateMutability": "view",
      "type": "function"
    },
    {
      "inputs": [
        {
          "internalType": "uint256",
          "name": "tokenId",
          "type": "uint256"
        }
      ],
      "name": "getApproved",
      "outputs": [
        {
          "internalType": "address",
          "name": "",
          "type": "address"
        }
      ],
      "stateMutability": "view",
      "type": "function"
    },
    {
      "inputs": [
        {
          "internalType": "uint256",
          "name": "_maxRoyality",
          "type": "uint256"
        }
      ],
      "name": "initialize",
      "outputs": [],
      "stateMutability": "nonpayable",
      "type": "function"
    },
    {
      "inputs": [
        {
          "internalType": "address",
          "name": "owner",
          "type": "address"
        },
        {
          "internalType": "address",
          "name": "operator",
          "type": "address"
        }
      ],
      "name": "isApprovedForAll",
      "outputs": [
        {
          "internalType": "bool",
          "name": "",
          "type": "bool"
        }
      ],
      "stateMutability": "view",
      "type": "function"
    },
    {
      "inputs": [],
      "name": "maximumRoyality",
      "outputs": [
        {
          "internalType": "uint256",
          "name": "",
          "type": "uint256"
        }
      ],
      "stateMutability": "view",
      "type": "function"
    },
    {
      "inputs": [
        {
          "internalType": "address",
          "name": "to",
          "type": "address"
        },
        {
          "internalType": "address",
          "name": "_creator",
          "type": "address"
        },
        {
          "internalType": "string",
          "name": "tokenURI",
          "type": "string"
        },
        {
          "internalType": "uint256",
          "name": "_royality",
          "type": "uint256"
        }
      ],
      "name": "mint",
      "outputs": [
        {
          "internalType": "uint256",
          "name": "",
          "type": "uint256"
        }
      ],
      "stateMutability": "nonpayable",
      "type": "function"
    },
    {
      "inputs": [],
      "name": "name",
      "outputs": [
        {
          "internalType": "string",
          "name": "",
          "type": "string"
        }
      ],
      "stateMutability": "view",
      "type": "function"
    },
    {
      "inputs": [
        {
          "internalType": "uint256",
          "name": "tokenId",
          "type": "uint256"
        }
      ],
      "name": "ownerOf",
      "outputs": [
        {
          "internalType": "address",
          "name": "",
          "type": "address"
        }
      ],
      "stateMutability": "view",
      "type": "function"
    },
    {
      "inputs": [
        {
          "internalType": "uint256",
          "name": "",
          "type": "uint256"
        }
      ],
      "name": "royality",
      "outputs": [
        {
          "internalType": "uint256",
          "name": "",
          "type": "uint256"
        }
      ],
      "stateMutability": "view",
      "type": "function"
    },
    {
      "inputs": [
        {
          "internalType": "address",
          "name": "from",
          "type": "address"
        },
        {
          "internalType": "address",
          "name": "to",
          "type": "address"
        },
        {
          "internalType": "uint256",
          "name": "tokenId",
          "type": "uint256"
        }
      ],
      "name": "safeTransferFrom",
      "outputs": [],
      "stateMutability": "nonpayable",
      "type": "function"
    },
    {
      "inputs": [
        {
          "internalType": "address",
          "name": "from",
          "type": "address"
        },
        {
          "internalType": "address",
          "name": "to",
          "type": "address"
        },
        {
          "internalType": "uint256",
          "name": "tokenId",
          "type": "uint256"
        },
        {
          "internalType": "bytes",
          "name": "_data",
          "type": "bytes"
        }
      ],
      "name": "safeTransferFrom",
      "outputs": [],
      "stateMutability": "nonpayable",
      "type": "function"
    },
    {
      "inputs": [
        {
          "internalType": "address",
          "name": "operator",
          "type": "address"
        },
        {
          "internalType": "bool",
          "name": "approved",
          "type": "bool"
        }
      ],
      "name": "setApprovalForAll",
      "outputs": [],
      "stateMutability": "nonpayable",
      "type": "function"
    },
    {
      "inputs": [
        {
          "internalType": "bytes4",
          "name": "interfaceId",
          "type": "bytes4"
        }
      ],
      "name": "supportsInterface",
      "outputs": [
        {
          "internalType": "bool",
          "name": "",
          "type": "bool"
        }
      ],
      "stateMutability": "view",
      "type": "function"
    },
    {
      "inputs": [],
      "name": "symbol",
      "outputs": [
        {
          "internalType": "string",
          "name": "",
          "type": "string"
        }
      ],
      "stateMutability": "view",
      "type": "function"
    },
    {
      "inputs": [
        {
          "internalType": "uint256",
          "name": "tokenId",
          "type": "uint256"
        }
      ],
      "name": "tokenURI",
      "outputs": [
        {
          "internalType": "string",
          "name": "",
          "type": "string"
        }
      ],
      "stateMutability": "view",
      "type": "function"
    },
    {
      "inputs": [
        {
          "internalType": "address",
          "name": "from",
          "type": "address"
        },
        {
          "internalType": "address",
          "name": "to",
          "type": "address"
        },
        {
          "internalType": "uint256",
          "name": "tokenId",
          "type": "uint256"
        }
      ],
      "name": "transferFrom",
      "outputs": [],
      "stateMutability": "nonpayable",
      "type": "function"
    }
  ],
  "bytecode": "0x608060405234801561001057600080fd5b50613352806100206000396000f3fe608060405234801561001057600080fd5b50600436106101165760003560e01c806395d89b41116100a2578063c87b56dd11610071578063c87b56dd14610303578063d98a17ed14610333578063ddb2126d14610351578063e985e9c514610381578063fe4b84df146103b157610116565b806395d89b411461027d578063a22cb4651461029b578063b88d4fde146102b7578063c640da3e146102d357610116565b806323b872dd116100e957806323b872dd146101b557806342842e0e146101d1578063510b5158146101ed5780636352211e1461021d57806370a082311461024d57610116565b806301ffc9a71461011b57806306fdde031461014b578063081812fc14610169578063095ea7b314610199575b600080fd5b61013560048036038101906101309190612194565b6103cd565b6040516101429190612635565b60405180910390f35b6101536104af565b604051610160919061266b565b60405180910390f35b610183600480360381019061017e91906121e6565b610541565b60405161019091906125ce565b60405180910390f35b6101b360048036038101906101ae9190612158565b6105c6565b005b6101cf60048036038101906101ca9190612052565b6106de565b005b6101eb60048036038101906101e69190612052565b61073e565b005b610207600480360381019061020291906121e6565b61075e565b60405161021491906125ce565b60405180910390f35b610237600480360381019061023291906121e6565b610791565b60405161024491906125ce565b60405180910390f35b61026760048036038101906102629190611f72565b610843565b604051610274919061290d565b60405180910390f35b6102856108fb565b604051610292919061266b565b60405180910390f35b6102b560048036038101906102b0919061211c565b61098d565b005b6102d160048036038101906102cc91906120a1565b6109a3565b005b6102ed60048036038101906102e89190611fd7565b610a05565b6040516102fa919061290d565b60405180910390f35b61031d600480360381019061031891906121e6565b610b16565b60405161032a919061266b565b60405180910390f35b61033b610c68565b604051610348919061290d565b60405180910390f35b61036b600480360381019061036691906121e6565b610c6e565b604051610378919061290d565b60405180910390f35b61039b60048036038101906103969190611f9b565b610c86565b6040516103a89190612635565b60405180910390f35b6103cb60048036038101906103c691906121e6565b610d1a565b005b60007f80ac58cd000000000000000000000000000000000000000000000000000000007bffffffffffffffffffffffffffffffffffffffffffffffffffffffff1916827bffffffffffffffffffffffffffffffffffffffffffffffffffffffff1916148061049857507f5b5e139f000000000000000000000000000000000000000000000000000000007bffffffffffffffffffffffffffffffffffffffffffffffffffffffff1916827bffffffffffffffffffffffffffffffffffffffffffffffffffffffff1916145b806104a857506104a782610e2c565b5b9050919050565b6060606580546104be90612b82565b80601f01602080910402602001604051908101604052809291908181526020018280546104ea90612b82565b80156105375780601f1061050c57610100808354040283529160200191610537565b820191906000526020600020905b81548152906001019060200180831161051a57829003601f168201915b5050505050905090565b600061054c82610e96565b61058b576040517f08c379a00000000000000000000000000000000000000000000000000000000081526004016105829061286d565b60405180910390fd5b6069600083815260200190815260200160002060009054906101000a900473ffffffffffffffffffffffffffffffffffffffff169050919050565b60006105d182610791565b90508073ffffffffffffffffffffffffffffffffffffffff168373ffffffffffffffffffffffffffffffffffffffff161415610642576040517f08c379a0000000000000000000000000000000000000000000000000000000008152600401610639906128ad565b60405180910390fd5b8073ffffffffffffffffffffffffffffffffffffffff16610661610f02565b73ffffffffffffffffffffffffffffffffffffffff161480610690575061068f8161068a610f02565b610c86565b5b6106cf576040517f08c379a00000000000000000000000000000000000000000000000000000000081526004016106c69061278d565b60405180910390fd5b6106d98383610f0a565b505050565b6106ef6106e9610f02565b82610fc3565b61072e576040517f08c379a0000000000000000000000000000000000000000000000000000000008152600401610725906128cd565b60405180910390fd5b6107398383836110a1565b505050565b610759838383604051806020016040528060008152506109a3565b505050565b60cb6020528060005260406000206000915054906101000a900473ffffffffffffffffffffffffffffffffffffffff1681565b6000806067600084815260200190815260200160002060009054906101000a900473ffffffffffffffffffffffffffffffffffffffff169050600073ffffffffffffffffffffffffffffffffffffffff168173ffffffffffffffffffffffffffffffffffffffff16141561083a576040517f08c379a0000000000000000000000000000000000000000000000000000000008152600401610831906127cd565b60405180910390fd5b80915050919050565b60008073ffffffffffffffffffffffffffffffffffffffff168273ffffffffffffffffffffffffffffffffffffffff1614156108b4576040517f08c379a00000000000000000000000000000000000000000000000000000000081526004016108ab906127ad565b60405180910390fd5b606860008373ffffffffffffffffffffffffffffffffffffffff1673ffffffffffffffffffffffffffffffffffffffff168152602001908152602001600020549050919050565b60606066805461090a90612b82565b80601f016020809104026020016040519081016040528092919081815260200182805461093690612b82565b80156109835780601f1061095857610100808354040283529160200191610983565b820191906000526020600020905b81548152906001019060200180831161096657829003601f168201915b5050505050905090565b61099f610998610f02565b8383611308565b5050565b6109b46109ae610f02565b83610fc3565b6109f3576040517f08c379a00000000000000000000000000000000000000000000000000000000081526004016109ea906128cd565b60405180910390fd5b6109ff84848484611475565b50505050565b600060cc54821115610a4c576040517f08c379a0000000000000000000000000000000000000000000000000000000008152600401610a43906126ed565b60405180910390fd5b600073ffffffffffffffffffffffffffffffffffffffff168573ffffffffffffffffffffffffffffffffffffffff161415610abc576040517f08c379a0000000000000000000000000000000000000000000000000000000008152600401610ab39061276d565b60405180910390fd5b6000610ac860c96114d1565b9050610ad486826114df565b610ade81856116b9565b610ae8858261172d565b610af260c9611783565b8260ca60008381526020019081526020016000208190555080915050949350505050565b6060610b2182610e96565b610b60576040517f08c379a0000000000000000000000000000000000000000000000000000000008152600401610b579061284d565b60405180910390fd5b6000609760008481526020019081526020016000208054610b8090612b82565b80601f0160208091040260200160405190810160405280929190818152602001828054610bac90612b82565b8015610bf95780601f10610bce57610100808354040283529160200191610bf9565b820191906000526020600020905b815481529060010190602001808311610bdc57829003601f168201915b505050505090506000610c0a611799565b9050600081511415610c20578192505050610c63565b600082511115610c55578082604051602001610c3d9291906125aa565b60405160208183030381529060405292505050610c63565b610c5e846117b0565b925050505b919050565b60cc5481565b60ca6020528060005260406000206000915090505481565b6000606a60008473ffffffffffffffffffffffffffffffffffffffff1673ffffffffffffffffffffffffffffffffffffffff16815260200190815260200160002060008373ffffffffffffffffffffffffffffffffffffffff1673ffffffffffffffffffffffffffffffffffffffff16815260200190815260200160002060009054906101000a900460ff16905092915050565b6000610d266001611857565b90508015610d4a576001600060016101000a81548160ff0219169083151502179055505b610dbe6040518060400160405280600481526020017f41626869000000000000000000000000000000000000000000000000000000008152506040518060400160405280600581526020017f5368616b65000000000000000000000000000000000000000000000000000000815250611947565b610dc860c9611783565b8160cc819055508015610e285760008060016101000a81548160ff0219169083151502179055507f7f26b83ff96e1f2b6a682f133852f6798a09c465da95921460cefb38474024986001604051610e1f9190612650565b60405180910390a15b5050565b60007f01ffc9a7000000000000000000000000000000000000000000000000000000007bffffffffffffffffffffffffffffffffffffffffffffffffffffffff1916827bffffffffffffffffffffffffffffffffffffffffffffffffffffffff1916149050919050565b60008073ffffffffffffffffffffffffffffffffffffffff166067600084815260200190815260200160002060009054906101000a900473ffffffffffffffffffffffffffffffffffffffff1673ffffffffffffffffffffffffffffffffffffffff1614159050919050565b600033905090565b816069600083815260200190815260200160002060006101000a81548173ffffffffffffffffffffffffffffffffffffffff021916908373ffffffffffffffffffffffffffffffffffffffff160217905550808273ffffffffffffffffffffffffffffffffffffffff16610f7d83610791565b73ffffffffffffffffffffffffffffffffffffffff167f8c5be1e5ebec7d5bd14f71427d1e84f3dd0314c0f7b2291e5b200ac8c7c3b92560405160405180910390a45050565b6000610fce82610e96565b61100d576040517f08c379a00000000000000000000000000000000000000000000000000000000081526004016110049061274d565b60405180910390fd5b600061101883610791565b90508073ffffffffffffffffffffffffffffffffffffffff168473ffffffffffffffffffffffffffffffffffffffff16148061105a57506110598185610c86565b5b8061109857508373ffffffffffffffffffffffffffffffffffffffff1661108084610541565b73ffffffffffffffffffffffffffffffffffffffff16145b91505092915050565b8273ffffffffffffffffffffffffffffffffffffffff166110c182610791565b73ffffffffffffffffffffffffffffffffffffffff1614611117576040517f08c379a000000000000000000000000000000000000000000000000000000000815260040161110e906126ad565b60405180910390fd5b600073ffffffffffffffffffffffffffffffffffffffff168273ffffffffffffffffffffffffffffffffffffffff161415611187576040517f08c379a000000000000000000000000000000000000000000000000000000000815260040161117e9061270d565b60405180910390fd5b6111928383836119a4565b61119d600082610f0a565b6001606860008573ffffffffffffffffffffffffffffffffffffffff1673ffffffffffffffffffffffffffffffffffffffff16815260200190815260200160002060008282546111ed9190612a79565b925050819055506001606860008473ffffffffffffffffffffffffffffffffffffffff1673ffffffffffffffffffffffffffffffffffffffff168152602001908152602001600020600082825461124491906129f2565b92505081905550816067600083815260200190815260200160002060006101000a81548173ffffffffffffffffffffffffffffffffffffffff021916908373ffffffffffffffffffffffffffffffffffffffff160217905550808273ffffffffffffffffffffffffffffffffffffffff168473ffffffffffffffffffffffffffffffffffffffff167fddf252ad1be2c89b69c2b068fc378daa952ba7f163c4a11628f55a4df523b3ef60405160405180910390a46113038383836119a9565b505050565b8173ffffffffffffffffffffffffffffffffffffffff168373ffffffffffffffffffffffffffffffffffffffff161415611377576040517f08c379a000000000000000000000000000000000000000000000000000000000815260040161136e9061272d565b60405180910390fd5b80606a60008573ffffffffffffffffffffffffffffffffffffffff1673ffffffffffffffffffffffffffffffffffffffff16815260200190815260200160002060008473ffffffffffffffffffffffffffffffffffffffff1673ffffffffffffffffffffffffffffffffffffffff16815260200190815260200160002060006101000a81548160ff0219169083151502179055508173ffffffffffffffffffffffffffffffffffffffff168373ffffffffffffffffffffffffffffffffffffffff167f17307eab39ab6107e8899845ad3d59bd9653f200f220920489ca2b5937696c31836040516114689190612635565b60405180910390a3505050565b6114808484846110a1565b61148c848484846119ae565b6114cb576040517f08c379a00000000000000000000000000000000000000000000000000000000081526004016114c29061268d565b60405180910390fd5b50505050565b600081600001549050919050565b600073ffffffffffffffffffffffffffffffffffffffff168273ffffffffffffffffffffffffffffffffffffffff16141561154f576040517f08c379a00000000000000000000000000000000000000000000000000000000081526004016115469061282d565b60405180910390fd5b61155881610e96565b15611598576040517f08c379a000000000000000000000000000000000000000000000000000000000815260040161158f906126cd565b60405180910390fd5b6115a4600083836119a4565b6001606860008473ffffffffffffffffffffffffffffffffffffffff1673ffffffffffffffffffffffffffffffffffffffff16815260200190815260200160002060008282546115f491906129f2565b92505081905550816067600083815260200190815260200160002060006101000a81548173ffffffffffffffffffffffffffffffffffffffff021916908373ffffffffffffffffffffffffffffffffffffffff160217905550808273ffffffffffffffffffffffffffffffffffffffff16600073ffffffffffffffffffffffffffffffffffffffff167fddf252ad1be2c89b69c2b068fc378daa952ba7f163c4a11628f55a4df523b3ef60405160405180910390a46116b5600083836119a9565b5050565b6116c282610e96565b611701576040517f08c379a00000000000000000000000000000000000000000000000000000000081526004016116f8906127ed565b60405180910390fd5b80609760008481526020019081526020016000209080519060200190611728929190611d96565b505050565b8160cb600083815260200190815260200160002060006101000a81548173ffffffffffffffffffffffffffffffffffffffff021916908373ffffffffffffffffffffffffffffffffffffffff1602179055505050565b6001816000016000828254019250508190555050565b606060405180602001604052806000815250905090565b60606117bb82610e96565b6117fa576040517f08c379a00000000000000000000000000000000000000000000000000000000081526004016117f19061288d565b60405180910390fd5b6000611804611799565b90506000815111611824576040518060200160405280600081525061184f565b8061182e84611b45565b60405160200161183f9291906125aa565b6040516020818303038152906040525b915050919050565b60008060019054906101000a900460ff16156118ce5760018260ff16148015611886575061188430611cf2565b155b6118c5576040517f08c379a00000000000000000000000000000000000000000000000000000000081526004016118bc9061280d565b60405180910390fd5b60009050611942565b8160ff1660008054906101000a900460ff1660ff1610611923576040517f08c379a000000000000000000000000000000000000000000000000000000000815260040161191a9061280d565b60405180910390fd5b816000806101000a81548160ff021916908360ff160217905550600190505b919050565b600060019054906101000a900460ff16611996576040517f08c379a000000000000000000000000000000000000000000000000000000000815260040161198d906128ed565b60405180910390fd5b6119a08282611d15565b5050565b505050565b505050565b60006119cf8473ffffffffffffffffffffffffffffffffffffffff16611cf2565b15611b38578373ffffffffffffffffffffffffffffffffffffffff1663150b7a026119f8610f02565b8786866040518563ffffffff1660e01b8152600401611a1a94939291906125e9565b602060405180830381600087803b158015611a3457600080fd5b505af1925050508015611a6557506040513d601f19601f82011682018060405250810190611a6291906121bd565b60015b611ae8573d8060008114611a95576040519150601f19603f3d011682016040523d82523d6000602084013e611a9a565b606091505b50600081511415611ae0576040517f08c379a0000000000000000000000000000000000000000000000000000000008152600401611ad79061268d565b60405180910390fd5b805181602001fd5b63150b7a0260e01b7bffffffffffffffffffffffffffffffffffffffffffffffffffffffff1916817bffffffffffffffffffffffffffffffffffffffffffffffffffffffff191614915050611b3d565b600190505b949350505050565b60606000821415611b8d576040518060400160405280600181526020017f30000000000000000000000000000000000000000000000000000000000000008152509050611ced565b600082905060005b60008214611bbf578080611ba890612be5565b915050600a82611bb89190612a48565b9150611b95565b60008167ffffffffffffffff811115611c01577f4e487b7100000000000000000000000000000000000000000000000000000000600052604160045260246000fd5b6040519080825280601f01601f191660200182016040528015611c335781602001600182028036833780820191505090505b5090505b60008514611ce657600182611c4c9190612a79565b9150600a85611c5b9190612c2e565b6030611c6791906129f2565b60f81b818381518110611ca3577f4e487b7100000000000000000000000000000000000000000000000000000000600052603260045260246000fd5b60200101907effffffffffffffffffffffffffffffffffffffffffffffffffffffffffffff1916908160001a905350600a85611cdf9190612a48565b9450611c37565b8093505050505b919050565b6000808273ffffffffffffffffffffffffffffffffffffffff163b119050919050565b600060019054906101000a900460ff16611d64576040517f08c379a0000000000000000000000000000000000000000000000000000000008152600401611d5b906128ed565b60405180910390fd5b8160659080519060200190611d7a929190611d96565b508060669080519060200190611d91929190611d96565b505050565b828054611da290612b82565b90600052602060002090601f016020900481019282611dc45760008555611e0b565b82601f10611ddd57805160ff1916838001178555611e0b565b82800160010185558215611e0b579182015b82811115611e0a578251825591602001919060010190611def565b5b509050611e189190611e1c565b5090565b5b80821115611e35576000816000905550600101611e1d565b5090565b6000611e4c611e478461294d565b612928565b905082815260208101848484011115611e6457600080fd5b611e6f848285612b40565b509392505050565b6000611e8a611e858461297e565b612928565b905082815260208101848484011115611ea257600080fd5b611ead848285612b40565b509392505050565b600081359050611ec4816132c0565b92915050565b600081359050611ed9816132d7565b92915050565b600081359050611eee816132ee565b92915050565b600081519050611f03816132ee565b92915050565b600082601f830112611f1a57600080fd5b8135611f2a848260208601611e39565b91505092915050565b600082601f830112611f4457600080fd5b8135611f54848260208601611e77565b91505092915050565b600081359050611f6c81613305565b92915050565b600060208284031215611f8457600080fd5b6000611f9284828501611eb5565b91505092915050565b60008060408385031215611fae57600080fd5b6000611fbc85828601611eb5565b9250506020611fcd85828601611eb5565b9150509250929050565b60008060008060808587031215611fed57600080fd5b6000611ffb87828801611eb5565b945050602061200c87828801611eb5565b935050604085013567ffffffffffffffff81111561202957600080fd5b61203587828801611f33565b925050606061204687828801611f5d565b91505092959194509250565b60008060006060848603121561206757600080fd5b600061207586828701611eb5565b935050602061208686828701611eb5565b925050604061209786828701611f5d565b9150509250925092565b600080600080608085870312156120b757600080fd5b60006120c587828801611eb5565b94505060206120d687828801611eb5565b93505060406120e787828801611f5d565b925050606085013567ffffffffffffffff81111561210457600080fd5b61211087828801611f09565b91505092959194509250565b6000806040838503121561212f57600080fd5b600061213d85828601611eb5565b925050602061214e85828601611eca565b9150509250929050565b6000806040838503121561216b57600080fd5b600061217985828601611eb5565b925050602061218a85828601611f5d565b9150509250929050565b6000602082840312156121a657600080fd5b60006121b484828501611edf565b91505092915050565b6000602082840312156121cf57600080fd5b60006121dd84828501611ef4565b91505092915050565b6000602082840312156121f857600080fd5b600061220684828501611f5d565b91505092915050565b61221881612aad565b82525050565b61222781612abf565b82525050565b6000612238826129af565b61224281856129c5565b9350612252818560208601612b4f565b61225b81612d1b565b840191505092915050565b61226f81612b2e565b82525050565b6000612280826129ba565b61228a81856129d6565b935061229a818560208601612b4f565b6122a381612d1b565b840191505092915050565b60006122b9826129ba565b6122c381856129e7565b93506122d3818560208601612b4f565b80840191505092915050565b60006122ec6032836129d6565b91506122f782612d2c565b604082019050919050565b600061230f6025836129d6565b915061231a82612d7b565b604082019050919050565b6000612332601c836129d6565b915061233d82612dca565b602082019050919050565b60006123556017836129d6565b915061236082612df3565b602082019050919050565b60006123786024836129d6565b915061238382612e1c565b604082019050919050565b600061239b6019836129d6565b91506123a682612e6b565b602082019050919050565b60006123be602c836129d6565b91506123c982612e94565b604082019050919050565b60006123e16027836129d6565b91506123ec82612ee3565b604082019050919050565b60006124046038836129d6565b915061240f82612f32565b604082019050919050565b6000612427602a836129d6565b915061243282612f81565b604082019050919050565b600061244a6029836129d6565b915061245582612fd0565b604082019050919050565b600061246d602e836129d6565b91506124788261301f565b604082019050919050565b6000612490602e836129d6565b915061249b8261306e565b604082019050919050565b60006124b36020836129d6565b91506124be826130bd565b602082019050919050565b60006124d66031836129d6565b91506124e1826130e6565b604082019050919050565b60006124f9602c836129d6565b915061250482613135565b604082019050919050565b600061251c602f836129d6565b915061252782613184565b604082019050919050565b600061253f6021836129d6565b915061254a826131d3565b604082019050919050565b60006125626031836129d6565b915061256d82613222565b604082019050919050565b6000612585602b836129d6565b915061259082613271565b604082019050919050565b6125a481612b17565b82525050565b60006125b682856122ae565b91506125c282846122ae565b91508190509392505050565b60006020820190506125e3600083018461220f565b92915050565b60006080820190506125fe600083018761220f565b61260b602083018661220f565b612618604083018561259b565b818103606083015261262a818461222d565b905095945050505050565b600060208201905061264a600083018461221e565b92915050565b60006020820190506126656000830184612266565b92915050565b600060208201905081810360008301526126858184612275565b905092915050565b600060208201905081810360008301526126a6816122df565b9050919050565b600060208201905081810360008301526126c681612302565b9050919050565b600060208201905081810360008301526126e681612325565b9050919050565b6000602082019050818103600083015261270681612348565b9050919050565b600060208201905081810360008301526127268161236b565b9050919050565b600060208201905081810360008301526127468161238e565b9050919050565b60006020820190508181036000830152612766816123b1565b9050919050565b60006020820190508181036000830152612786816123d4565b9050919050565b600060208201905081810360008301526127a6816123f7565b9050919050565b600060208201905081810360008301526127c68161241a565b9050919050565b600060208201905081810360008301526127e68161243d565b9050919050565b6000602082019050818103600083015261280681612460565b9050919050565b6000602082019050818103600083015261282681612483565b9050919050565b60006020820190508181036000830152612846816124a6565b9050919050565b60006020820190508181036000830152612866816124c9565b9050919050565b60006020820190508181036000830152612886816124ec565b9050919050565b600060208201905081810360008301526128a68161250f565b9050919050565b600060208201905081810360008301526128c681612532565b9050919050565b600060208201905081810360008301526128e681612555565b9050919050565b6000602082019050818103600083015261290681612578565b9050919050565b6000602082019050612922600083018461259b565b92915050565b6000612932612943565b905061293e8282612bb4565b919050565b6000604051905090565b600067ffffffffffffffff82111561296857612967612cec565b5b61297182612d1b565b9050602081019050919050565b600067ffffffffffffffff82111561299957612998612cec565b5b6129a282612d1b565b9050602081019050919050565b600081519050919050565b600081519050919050565b600082825260208201905092915050565b600082825260208201905092915050565b600081905092915050565b60006129fd82612b17565b9150612a0883612b17565b9250827fffffffffffffffffffffffffffffffffffffffffffffffffffffffffffffffff03821115612a3d57612a3c612c5f565b5b828201905092915050565b6000612a5382612b17565b9150612a5e83612b17565b925082612a6e57612a6d612c8e565b5b828204905092915050565b6000612a8482612b17565b9150612a8f83612b17565b925082821015612aa257612aa1612c5f565b5b828203905092915050565b6000612ab882612af7565b9050919050565b60008115159050919050565b60007fffffffff0000000000000000000000000000000000000000000000000000000082169050919050565b600073ffffffffffffffffffffffffffffffffffffffff82169050919050565b6000819050919050565b600060ff82169050919050565b6000612b3982612b21565b9050919050565b82818337600083830152505050565b60005b83811015612b6d578082015181840152602081019050612b52565b83811115612b7c576000848401525b50505050565b60006002820490506001821680612b9a57607f821691505b60208210811415612bae57612bad612cbd565b5b50919050565b612bbd82612d1b565b810181811067ffffffffffffffff82111715612bdc57612bdb612cec565b5b80604052505050565b6000612bf082612b17565b91507fffffffffffffffffffffffffffffffffffffffffffffffffffffffffffffffff821415612c2357612c22612c5f565b5b600182019050919050565b6000612c3982612b17565b9150612c4483612b17565b925082612c5457612c53612c8e565b5b828206905092915050565b7f4e487b7100000000000000000000000000000000000000000000000000000000600052601160045260246000fd5b7f4e487b7100000000000000000000000000000000000000000000000000000000600052601260045260246000fd5b7f4e487b7100000000000000000000000000000000000000000000000000000000600052602260045260246000fd5b7f4e487b7100000000000000000000000000000000000000000000000000000000600052604160045260246000fd5b6000601f19601f8301169050919050565b7f4552433732313a207472616e7366657220746f206e6f6e20455243373231526560008201527f63656976657220696d706c656d656e7465720000000000000000000000000000602082015250565b7f4552433732313a207472616e736665722066726f6d20696e636f72726563742060008201527f6f776e6572000000000000000000000000000000000000000000000000000000602082015250565b7f4552433732313a20746f6b656e20616c7265616479206d696e74656400000000600082015250565b7f526f79616c6974792073686f756c64206265206c657373000000000000000000600082015250565b7f4552433732313a207472616e7366657220746f20746865207a65726f2061646460008201527f7265737300000000000000000000000000000000000000000000000000000000602082015250565b7f4552433732313a20617070726f766520746f2063616c6c657200000000000000600082015250565b7f4552433732313a206f70657261746f7220717565727920666f72206e6f6e657860008201527f697374656e7420746f6b656e0000000000000000000000000000000000000000602082015250565b7f546f6b656e20636f6e74726163743a20746f20616464726573732063616e277460008201527f2062652030783000000000000000000000000000000000000000000000000000602082015250565b7f4552433732313a20617070726f76652063616c6c6572206973206e6f74206f7760008201527f6e6572206e6f7220617070726f76656420666f7220616c6c0000000000000000602082015250565b7f4552433732313a2062616c616e636520717565727920666f7220746865207a6560008201527f726f206164647265737300000000000000000000000000000000000000000000602082015250565b7f4552433732313a206f776e657220717565727920666f72206e6f6e657869737460008201527f656e7420746f6b656e0000000000000000000000000000000000000000000000602082015250565b7f45524337323155524953746f726167653a2055524920736574206f66206e6f6e60008201527f6578697374656e7420746f6b656e000000000000000000000000000000000000602082015250565b7f496e697469616c697a61626c653a20636f6e747261637420697320616c72656160008201527f647920696e697469616c697a6564000000000000000000000000000000000000602082015250565b7f4552433732313a206d696e7420746f20746865207a65726f2061646472657373600082015250565b7f45524337323155524953746f726167653a2055524920717565727920666f722060008201527f6e6f6e6578697374656e7420746f6b656e000000000000000000000000000000602082015250565b7f4552433732313a20617070726f76656420717565727920666f72206e6f6e657860008201527f697374656e7420746f6b656e0000000000000000000000000000000000000000602082015250565b7f4552433732314d657461646174613a2055524920717565727920666f72206e6f60008201527f6e6578697374656e7420746f6b656e0000000000000000000000000000000000602082015250565b7f4552433732313a20617070726f76616c20746f2063757272656e74206f776e6560008201527f7200000000000000000000000000000000000000000000000000000000000000602082015250565b7f4552433732313a207472616e736665722063616c6c6572206973206e6f74206f60008201527f776e6572206e6f7220617070726f766564000000000000000000000000000000602082015250565b7f496e697469616c697a61626c653a20636f6e7472616374206973206e6f74206960008201527f6e697469616c697a696e67000000000000000000000000000000000000000000602082015250565b6132c981612aad565b81146132d457600080fd5b50565b6132e081612abf565b81146132eb57600080fd5b50565b6132f781612acb565b811461330257600080fd5b50565b61330e81612b17565b811461331957600080fd5b5056fea26469706673582212209e07de6fb7ec9b2e3f40e2b31673c1c13ac32256e446429a3413ab2c7d5ae32b64736f6c63430008040033",
  "linkReferences": {},
  "deployedLinkReferences": {}
}