{
  "_format": "hh-sol-artifact-1",
  "contractName": "MyNFT",
  "sourceName": "contracts/ERC721Token.sol",
  "abi": [
    {
      "inputs": [
        {
          "internalType": "uint256",
          "name": "_maxRoyality",
          "type": "uint256"
        }
      ],
      "stateMutability": "nonpayable",
      "type": "constructor"
    },
    {
      "anonymous": false,
      "inputs": [
        {
          "indexed": true,
          "internalType": "address",
          "name": "owner",
          "type": "address"
        },
        {
          "indexed": true,
          "internalType": "address",
          "name": "approved",
          "type": "address"
        },
        {
          "indexed": true,
          "internalType": "uint256",
          "name": "tokenId",
          "type": "uint256"
        }
      ],
      "name": "Approval",
      "type": "event"
    },
    {
      "anonymous": false,
      "inputs": [
        {
          "indexed": true,
          "internalType": "address",
          "name": "owner",
          "type": "address"
        },
        {
          "indexed": true,
          "internalType": "address",
          "name": "operator",
          "type": "address"
        },
        {
          "indexed": false,
          "internalType": "bool",
          "name": "approved",
          "type": "bool"
        }
      ],
      "name": "ApprovalForAll",
      "type": "event"
    },
    {
      "anonymous": false,
      "inputs": [
        {
          "indexed": true,
          "internalType": "address",
          "name": "from",
          "type": "address"
        },
        {
          "indexed": true,
          "internalType": "address",
          "name": "to",
          "type": "address"
        },
        {
          "indexed": true,
          "internalType": "uint256",
          "name": "tokenId",
          "type": "uint256"
        }
      ],
      "name": "Transfer",
      "type": "event"
    },
    {
      "inputs": [
        {
          "internalType": "address",
          "name": "to",
          "type": "address"
        },
        {
          "internalType": "uint256",
          "name": "tokenId",
          "type": "uint256"
        }
      ],
      "name": "approve",
      "outputs": [],
      "stateMutability": "nonpayable",
      "type": "function"
    },
    {
      "inputs": [
        {
          "internalType": "address",
          "name": "owner",
          "type": "address"
        }
      ],
      "name": "balanceOf",
      "outputs": [
        {
          "internalType": "uint256",
          "name": "",
          "type": "uint256"
        }
      ],
      "stateMutability": "view",
      "type": "function"
    },
    {
      "inputs": [
        {
          "internalType": "uint256",
          "name": "tokenId",
          "type": "uint256"
        }
      ],
      "name": "getApproved",
      "outputs": [
        {
          "internalType": "address",
          "name": "",
          "type": "address"
        }
      ],
      "stateMutability": "view",
      "type": "function"
    },
    {
      "inputs": [
        {
          "internalType": "address",
          "name": "owner",
          "type": "address"
        },
        {
          "internalType": "address",
          "name": "operator",
          "type": "address"
        }
      ],
      "name": "isApprovedForAll",
      "outputs": [
        {
          "internalType": "bool",
          "name": "",
          "type": "bool"
        }
      ],
      "stateMutability": "view",
      "type": "function"
    },
    {
      "inputs": [],
      "name": "maximumRoyality",
      "outputs": [
        {
          "internalType": "uint256",
          "name": "",
          "type": "uint256"
        }
      ],
      "stateMutability": "view",
      "type": "function"
    },
    {
      "inputs": [
        {
          "internalType": "address",
          "name": "to",
          "type": "address"
        },
        {
          "internalType": "string",
          "name": "tokenURI",
          "type": "string"
        },
        {
          "internalType": "uint256",
          "name": "_royality",
          "type": "uint256"
        }
      ],
      "name": "mint",
      "outputs": [
        {
          "internalType": "uint256",
          "name": "",
          "type": "uint256"
        }
      ],
      "stateMutability": "nonpayable",
      "type": "function"
    },
    {
      "inputs": [],
      "name": "name",
      "outputs": [
        {
          "internalType": "string",
          "name": "",
          "type": "string"
        }
      ],
      "stateMutability": "view",
      "type": "function"
    },
    {
      "inputs": [
        {
          "internalType": "uint256",
          "name": "tokenId",
          "type": "uint256"
        }
      ],
      "name": "ownerOf",
      "outputs": [
        {
          "internalType": "address",
          "name": "",
          "type": "address"
        }
      ],
      "stateMutability": "view",
      "type": "function"
    },
    {
      "inputs": [
        {
          "internalType": "uint256",
          "name": "",
          "type": "uint256"
        }
      ],
      "name": "royality",
      "outputs": [
        {
          "internalType": "uint256",
          "name": "",
          "type": "uint256"
        }
      ],
      "stateMutability": "view",
      "type": "function"
    },
    {
      "inputs": [
        {
          "internalType": "address",
          "name": "from",
          "type": "address"
        },
        {
          "internalType": "address",
          "name": "to",
          "type": "address"
        },
        {
          "internalType": "uint256",
          "name": "tokenId",
          "type": "uint256"
        }
      ],
      "name": "safeTransferFrom",
      "outputs": [],
      "stateMutability": "nonpayable",
      "type": "function"
    },
    {
      "inputs": [
        {
          "internalType": "address",
          "name": "from",
          "type": "address"
        },
        {
          "internalType": "address",
          "name": "to",
          "type": "address"
        },
        {
          "internalType": "uint256",
          "name": "tokenId",
          "type": "uint256"
        },
        {
          "internalType": "bytes",
          "name": "_data",
          "type": "bytes"
        }
      ],
      "name": "safeTransferFrom",
      "outputs": [],
      "stateMutability": "nonpayable",
      "type": "function"
    },
    {
      "inputs": [
        {
          "internalType": "address",
          "name": "operator",
          "type": "address"
        },
        {
          "internalType": "bool",
          "name": "approved",
          "type": "bool"
        }
      ],
      "name": "setApprovalForAll",
      "outputs": [],
      "stateMutability": "nonpayable",
      "type": "function"
    },
    {
      "inputs": [
        {
          "internalType": "bytes4",
          "name": "interfaceId",
          "type": "bytes4"
        }
      ],
      "name": "supportsInterface",
      "outputs": [
        {
          "internalType": "bool",
          "name": "",
          "type": "bool"
        }
      ],
      "stateMutability": "view",
      "type": "function"
    },
    {
      "inputs": [],
      "name": "symbol",
      "outputs": [
        {
          "internalType": "string",
          "name": "",
          "type": "string"
        }
      ],
      "stateMutability": "view",
      "type": "function"
    },
    {
      "inputs": [
        {
          "internalType": "uint256",
          "name": "tokenId",
          "type": "uint256"
        }
      ],
      "name": "tokenURI",
      "outputs": [
        {
          "internalType": "string",
          "name": "",
          "type": "string"
        }
      ],
      "stateMutability": "view",
      "type": "function"
    },
    {
      "inputs": [
        {
          "internalType": "address",
          "name": "from",
          "type": "address"
        },
        {
          "internalType": "address",
          "name": "to",
          "type": "address"
        },
        {
          "internalType": "uint256",
          "name": "tokenId",
          "type": "uint256"
        }
      ],
      "name": "transferFrom",
      "outputs": [],
      "stateMutability": "nonpayable",
      "type": "function"
    }
  ],
  "bytecode": "0x60806040523480156200001157600080fd5b5060405162002ee538038062002ee58339818101604052810190620000379190620001d9565b6040518060400160405280600481526020017f41626869000000000000000000000000000000000000000000000000000000008152506040518060400160405280600581526020017f5368616b650000000000000000000000000000000000000000000000000000008152508160009080519060200190620000bb92919062000112565b508060019080519060200190620000d492919062000112565b505050620000ee6007620000fc60201b62000bc41760201c565b80600981905550506200028e565b6001816000016000828254019250508190555050565b82805462000120906200020f565b90600052602060002090601f01602090048101928262000144576000855562000190565b82601f106200015f57805160ff191683800117855562000190565b8280016001018555821562000190579182015b828111156200018f57825182559160200191906001019062000172565b5b5090506200019f9190620001a3565b5090565b5b80821115620001be576000816000905550600101620001a4565b5090565b600081519050620001d38162000274565b92915050565b600060208284031215620001ec57600080fd5b6000620001fc84828501620001c2565b91505092915050565b6000819050919050565b600060028204905060018216806200022857607f821691505b602082108114156200023f576200023e62000245565b5b50919050565b7f4e487b7100000000000000000000000000000000000000000000000000000000600052602260045260246000fd5b6200027f8162000205565b81146200028b57600080fd5b50565b612c47806200029e6000396000f3fe608060405234801561001057600080fd5b50600436106101005760003560e01c806395d89b4111610097578063c87b56dd11610066578063c87b56dd146102bd578063d98a17ed146102ed578063ddb2126d1461030b578063e985e9c51461033b57610100565b806395d89b4114610237578063a22cb46514610255578063b88d4fde14610271578063ba7aef431461028d57610100565b806323b872dd116100d357806323b872dd1461019f57806342842e0e146101bb5780636352211e146101d757806370a082311461020757610100565b806301ffc9a71461010557806306fdde0314610135578063081812fc14610153578063095ea7b314610183575b600080fd5b61011f600480360381019061011a9190611cf4565b61036b565b60405161012c91906120fa565b60405180910390f35b61013d61044d565b60405161014a9190612115565b60405180910390f35b61016d60048036038101906101689190611d46565b6104df565b60405161017a9190612093565b60405180910390f35b61019d60048036038101906101989190611cb8565b610564565b005b6101b960048036038101906101b49190611b4b565b61067c565b005b6101d560048036038101906101d09190611b4b565b6106dc565b005b6101f160048036038101906101ec9190611d46565b6106fc565b6040516101fe9190612093565b60405180910390f35b610221600480360381019061021c9190611ae6565b6107ae565b60405161022e9190612337565b60405180910390f35b61023f610866565b60405161024c9190612115565b60405180910390f35b61026f600480360381019061026a9190611c15565b6108f8565b005b61028b60048036038101906102869190611b9a565b61090e565b005b6102a760048036038101906102a29190611c51565b610970565b6040516102b49190612337565b60405180910390f35b6102d760048036038101906102d29190611d46565b6109c0565b6040516102e49190612115565b60405180910390f35b6102f5610b12565b6040516103029190612337565b60405180910390f35b61032560048036038101906103209190611d46565b610b18565b6040516103329190612337565b60405180910390f35b61035560048036038101906103509190611b0f565b610b30565b60405161036291906120fa565b60405180910390f35b60007f80ac58cd000000000000000000000000000000000000000000000000000000007bffffffffffffffffffffffffffffffffffffffffffffffffffffffff1916827bffffffffffffffffffffffffffffffffffffffffffffffffffffffff1916148061043657507f5b5e139f000000000000000000000000000000000000000000000000000000007bffffffffffffffffffffffffffffffffffffffffffffffffffffffff1916827bffffffffffffffffffffffffffffffffffffffffffffffffffffffff1916145b80610446575061044582610bda565b5b9050919050565b60606000805461045c9061258d565b80601f01602080910402602001604051908101604052809291908181526020018280546104889061258d565b80156104d55780601f106104aa576101008083540402835291602001916104d5565b820191906000526020600020905b8154815290600101906020018083116104b857829003601f168201915b5050505050905090565b60006104ea82610c44565b610529576040517f08c379a0000000000000000000000000000000000000000000000000000000008152600401610520906122b7565b60405180910390fd5b6004600083815260200190815260200160002060009054906101000a900473ffffffffffffffffffffffffffffffffffffffff169050919050565b600061056f826106fc565b90508073ffffffffffffffffffffffffffffffffffffffff168373ffffffffffffffffffffffffffffffffffffffff1614156105e0576040517f08c379a00000000000000000000000000000000000000000000000000000000081526004016105d7906122f7565b60405180910390fd5b8073ffffffffffffffffffffffffffffffffffffffff166105ff610cb0565b73ffffffffffffffffffffffffffffffffffffffff16148061062e575061062d81610628610cb0565b610b30565b5b61066d576040517f08c379a0000000000000000000000000000000000000000000000000000000008152600401610664906121f7565b60405180910390fd5b6106778383610cb8565b505050565b61068d610687610cb0565b82610d71565b6106cc576040517f08c379a00000000000000000000000000000000000000000000000000000000081526004016106c390612317565b60405180910390fd5b6106d7838383610e4f565b505050565b6106f78383836040518060200160405280600081525061090e565b505050565b6000806002600084815260200190815260200160002060009054906101000a900473ffffffffffffffffffffffffffffffffffffffff169050600073ffffffffffffffffffffffffffffffffffffffff168173ffffffffffffffffffffffffffffffffffffffff1614156107a5576040517f08c379a000000000000000000000000000000000000000000000000000000000815260040161079c90612237565b60405180910390fd5b80915050919050565b60008073ffffffffffffffffffffffffffffffffffffffff168273ffffffffffffffffffffffffffffffffffffffff16141561081f576040517f08c379a000000000000000000000000000000000000000000000000000000000815260040161081690612217565b60405180910390fd5b600360008373ffffffffffffffffffffffffffffffffffffffff1673ffffffffffffffffffffffffffffffffffffffff168152602001908152602001600020549050919050565b6060600180546108759061258d565b80601f01602080910402602001604051908101604052809291908181526020018280546108a19061258d565b80156108ee5780601f106108c3576101008083540402835291602001916108ee565b820191906000526020600020905b8154815290600101906020018083116108d157829003601f168201915b5050505050905090565b61090a610903610cb0565b83836110b6565b5050565b61091f610919610cb0565b83610d71565b61095e576040517f08c379a000000000000000000000000000000000000000000000000000000000815260040161095590612317565b60405180910390fd5b61096a84848484611223565b50505050565b60008061097d600761127f565b9050610989858261128d565b6109938185611467565b61099d6007610bc4565b826008600083815260200190815260200160002081905550809150509392505050565b60606109cb82610c44565b610a0a576040517f08c379a0000000000000000000000000000000000000000000000000000000008152600401610a0190612297565b60405180910390fd5b6000600660008481526020019081526020016000208054610a2a9061258d565b80601f0160208091040260200160405190810160405280929190818152602001828054610a569061258d565b8015610aa35780601f10610a7857610100808354040283529160200191610aa3565b820191906000526020600020905b815481529060010190602001808311610a8657829003601f168201915b505050505090506000610ab46114db565b9050600081511415610aca578192505050610b0d565b600082511115610aff578082604051602001610ae792919061206f565b60405160208183030381529060405292505050610b0d565b610b08846114f2565b925050505b919050565b60095481565b60086020528060005260406000206000915090505481565b6000600560008473ffffffffffffffffffffffffffffffffffffffff1673ffffffffffffffffffffffffffffffffffffffff16815260200190815260200160002060008373ffffffffffffffffffffffffffffffffffffffff1673ffffffffffffffffffffffffffffffffffffffff16815260200190815260200160002060009054906101000a900460ff16905092915050565b6001816000016000828254019250508190555050565b60007f01ffc9a7000000000000000000000000000000000000000000000000000000007bffffffffffffffffffffffffffffffffffffffffffffffffffffffff1916827bffffffffffffffffffffffffffffffffffffffffffffffffffffffff1916149050919050565b60008073ffffffffffffffffffffffffffffffffffffffff166002600084815260200190815260200160002060009054906101000a900473ffffffffffffffffffffffffffffffffffffffff1673ffffffffffffffffffffffffffffffffffffffff1614159050919050565b600033905090565b816004600083815260200190815260200160002060006101000a81548173ffffffffffffffffffffffffffffffffffffffff021916908373ffffffffffffffffffffffffffffffffffffffff160217905550808273ffffffffffffffffffffffffffffffffffffffff16610d2b836106fc565b73ffffffffffffffffffffffffffffffffffffffff167f8c5be1e5ebec7d5bd14f71427d1e84f3dd0314c0f7b2291e5b200ac8c7c3b92560405160405180910390a45050565b6000610d7c82610c44565b610dbb576040517f08c379a0000000000000000000000000000000000000000000000000000000008152600401610db2906121d7565b60405180910390fd5b6000610dc6836106fc565b90508073ffffffffffffffffffffffffffffffffffffffff168473ffffffffffffffffffffffffffffffffffffffff161480610e085750610e078185610b30565b5b80610e4657508373ffffffffffffffffffffffffffffffffffffffff16610e2e846104df565b73ffffffffffffffffffffffffffffffffffffffff16145b91505092915050565b8273ffffffffffffffffffffffffffffffffffffffff16610e6f826106fc565b73ffffffffffffffffffffffffffffffffffffffff1614610ec5576040517f08c379a0000000000000000000000000000000000000000000000000000000008152600401610ebc90612157565b60405180910390fd5b600073ffffffffffffffffffffffffffffffffffffffff168273ffffffffffffffffffffffffffffffffffffffff161415610f35576040517f08c379a0000000000000000000000000000000000000000000000000000000008152600401610f2c90612197565b60405180910390fd5b610f40838383611599565b610f4b600082610cb8565b6001600360008573ffffffffffffffffffffffffffffffffffffffff1673ffffffffffffffffffffffffffffffffffffffff1681526020019081526020016000206000828254610f9b91906124a3565b925050819055506001600360008473ffffffffffffffffffffffffffffffffffffffff1673ffffffffffffffffffffffffffffffffffffffff1681526020019081526020016000206000828254610ff2919061241c565b92505081905550816002600083815260200190815260200160002060006101000a81548173ffffffffffffffffffffffffffffffffffffffff021916908373ffffffffffffffffffffffffffffffffffffffff160217905550808273ffffffffffffffffffffffffffffffffffffffff168473ffffffffffffffffffffffffffffffffffffffff167fddf252ad1be2c89b69c2b068fc378daa952ba7f163c4a11628f55a4df523b3ef60405160405180910390a46110b183838361159e565b505050565b8173ffffffffffffffffffffffffffffffffffffffff168373ffffffffffffffffffffffffffffffffffffffff161415611125576040517f08c379a000000000000000000000000000000000000000000000000000000000815260040161111c906121b7565b60405180910390fd5b80600560008573ffffffffffffffffffffffffffffffffffffffff1673ffffffffffffffffffffffffffffffffffffffff16815260200190815260200160002060008473ffffffffffffffffffffffffffffffffffffffff1673ffffffffffffffffffffffffffffffffffffffff16815260200190815260200160002060006101000a81548160ff0219169083151502179055508173ffffffffffffffffffffffffffffffffffffffff168373ffffffffffffffffffffffffffffffffffffffff167f17307eab39ab6107e8899845ad3d59bd9653f200f220920489ca2b5937696c318360405161121691906120fa565b60405180910390a3505050565b61122e848484610e4f565b61123a848484846115a3565b611279576040517f08c379a000000000000000000000000000000000000000000000000000000000815260040161127090612137565b60405180910390fd5b50505050565b600081600001549050919050565b600073ffffffffffffffffffffffffffffffffffffffff168273ffffffffffffffffffffffffffffffffffffffff1614156112fd576040517f08c379a00000000000000000000000000000000000000000000000000000000081526004016112f490612277565b60405180910390fd5b61130681610c44565b15611346576040517f08c379a000000000000000000000000000000000000000000000000000000000815260040161133d90612177565b60405180910390fd5b61135260008383611599565b6001600360008473ffffffffffffffffffffffffffffffffffffffff1673ffffffffffffffffffffffffffffffffffffffff16815260200190815260200160002060008282546113a2919061241c565b92505081905550816002600083815260200190815260200160002060006101000a81548173ffffffffffffffffffffffffffffffffffffffff021916908373ffffffffffffffffffffffffffffffffffffffff160217905550808273ffffffffffffffffffffffffffffffffffffffff16600073ffffffffffffffffffffffffffffffffffffffff167fddf252ad1be2c89b69c2b068fc378daa952ba7f163c4a11628f55a4df523b3ef60405160405180910390a46114636000838361159e565b5050565b61147082610c44565b6114af576040517f08c379a00000000000000000000000000000000000000000000000000000000081526004016114a690612257565b60405180910390fd5b806006600084815260200190815260200160002090805190602001906114d692919061190a565b505050565b606060405180602001604052806000815250905090565b60606114fd82610c44565b61153c576040517f08c379a0000000000000000000000000000000000000000000000000000000008152600401611533906122d7565b60405180910390fd5b60006115466114db565b905060008151116115665760405180602001604052806000815250611591565b806115708461173a565b60405160200161158192919061206f565b6040516020818303038152906040525b915050919050565b505050565b505050565b60006115c48473ffffffffffffffffffffffffffffffffffffffff166118e7565b1561172d578373ffffffffffffffffffffffffffffffffffffffff1663150b7a026115ed610cb0565b8786866040518563ffffffff1660e01b815260040161160f94939291906120ae565b602060405180830381600087803b15801561162957600080fd5b505af192505050801561165a57506040513d601f19601f820116820180604052508101906116579190611d1d565b60015b6116dd573d806000811461168a576040519150601f19603f3d011682016040523d82523d6000602084013e61168f565b606091505b506000815114156116d5576040517f08c379a00000000000000000000000000000000000000000000000000000000081526004016116cc90612137565b60405180910390fd5b805181602001fd5b63150b7a0260e01b7bffffffffffffffffffffffffffffffffffffffffffffffffffffffff1916817bffffffffffffffffffffffffffffffffffffffffffffffffffffffff191614915050611732565b600190505b949350505050565b60606000821415611782576040518060400160405280600181526020017f300000000000000000000000000000000000000000000000000000000000000081525090506118e2565b600082905060005b600082146117b457808061179d906125f0565b915050600a826117ad9190612472565b915061178a565b60008167ffffffffffffffff8111156117f6577f4e487b7100000000000000000000000000000000000000000000000000000000600052604160045260246000fd5b6040519080825280601f01601f1916602001820160405280156118285781602001600182028036833780820191505090505b5090505b600085146118db5760018261184191906124a3565b9150600a856118509190612639565b603061185c919061241c565b60f81b818381518110611898577f4e487b7100000000000000000000000000000000000000000000000000000000600052603260045260246000fd5b60200101907effffffffffffffffffffffffffffffffffffffffffffffffffffffffffffff1916908160001a905350600a856118d49190612472565b945061182c565b8093505050505b919050565b6000808273ffffffffffffffffffffffffffffffffffffffff163b119050919050565b8280546119169061258d565b90600052602060002090601f016020900481019282611938576000855561197f565b82601f1061195157805160ff191683800117855561197f565b8280016001018555821561197f579182015b8281111561197e578251825591602001919060010190611963565b5b50905061198c9190611990565b5090565b5b808211156119a9576000816000905550600101611991565b5090565b60006119c06119bb84612377565b612352565b9050828152602081018484840111156119d857600080fd5b6119e384828561254b565b509392505050565b60006119fe6119f9846123a8565b612352565b905082815260208101848484011115611a1657600080fd5b611a2184828561254b565b509392505050565b600081359050611a3881612bb5565b92915050565b600081359050611a4d81612bcc565b92915050565b600081359050611a6281612be3565b92915050565b600081519050611a7781612be3565b92915050565b600082601f830112611a8e57600080fd5b8135611a9e8482602086016119ad565b91505092915050565b600082601f830112611ab857600080fd5b8135611ac88482602086016119eb565b91505092915050565b600081359050611ae081612bfa565b92915050565b600060208284031215611af857600080fd5b6000611b0684828501611a29565b91505092915050565b60008060408385031215611b2257600080fd5b6000611b3085828601611a29565b9250506020611b4185828601611a29565b9150509250929050565b600080600060608486031215611b6057600080fd5b6000611b6e86828701611a29565b9350506020611b7f86828701611a29565b9250506040611b9086828701611ad1565b9150509250925092565b60008060008060808587031215611bb057600080fd5b6000611bbe87828801611a29565b9450506020611bcf87828801611a29565b9350506040611be087828801611ad1565b925050606085013567ffffffffffffffff811115611bfd57600080fd5b611c0987828801611a7d565b91505092959194509250565b60008060408385031215611c2857600080fd5b6000611c3685828601611a29565b9250506020611c4785828601611a3e565b9150509250929050565b600080600060608486031215611c6657600080fd5b6000611c7486828701611a29565b935050602084013567ffffffffffffffff811115611c9157600080fd5b611c9d86828701611aa7565b9250506040611cae86828701611ad1565b9150509250925092565b60008060408385031215611ccb57600080fd5b6000611cd985828601611a29565b9250506020611cea85828601611ad1565b9150509250929050565b600060208284031215611d0657600080fd5b6000611d1484828501611a53565b91505092915050565b600060208284031215611d2f57600080fd5b6000611d3d84828501611a68565b91505092915050565b600060208284031215611d5857600080fd5b6000611d6684828501611ad1565b91505092915050565b611d78816124d7565b82525050565b611d87816124e9565b82525050565b6000611d98826123d9565b611da281856123ef565b9350611db281856020860161255a565b611dbb81612726565b840191505092915050565b6000611dd1826123e4565b611ddb8185612400565b9350611deb81856020860161255a565b611df481612726565b840191505092915050565b6000611e0a826123e4565b611e148185612411565b9350611e2481856020860161255a565b80840191505092915050565b6000611e3d603283612400565b9150611e4882612737565b604082019050919050565b6000611e60602583612400565b9150611e6b82612786565b604082019050919050565b6000611e83601c83612400565b9150611e8e826127d5565b602082019050919050565b6000611ea6602483612400565b9150611eb1826127fe565b604082019050919050565b6000611ec9601983612400565b9150611ed48261284d565b602082019050919050565b6000611eec602c83612400565b9150611ef782612876565b604082019050919050565b6000611f0f603883612400565b9150611f1a826128c5565b604082019050919050565b6000611f32602a83612400565b9150611f3d82612914565b604082019050919050565b6000611f55602983612400565b9150611f6082612963565b604082019050919050565b6000611f78602e83612400565b9150611f83826129b2565b604082019050919050565b6000611f9b602083612400565b9150611fa682612a01565b602082019050919050565b6000611fbe603183612400565b9150611fc982612a2a565b604082019050919050565b6000611fe1602c83612400565b9150611fec82612a79565b604082019050919050565b6000612004602f83612400565b915061200f82612ac8565b604082019050919050565b6000612027602183612400565b915061203282612b17565b604082019050919050565b600061204a603183612400565b915061205582612b66565b604082019050919050565b61206981612541565b82525050565b600061207b8285611dff565b91506120878284611dff565b91508190509392505050565b60006020820190506120a86000830184611d6f565b92915050565b60006080820190506120c36000830187611d6f565b6120d06020830186611d6f565b6120dd6040830185612060565b81810360608301526120ef8184611d8d565b905095945050505050565b600060208201905061210f6000830184611d7e565b92915050565b6000602082019050818103600083015261212f8184611dc6565b905092915050565b6000602082019050818103600083015261215081611e30565b9050919050565b6000602082019050818103600083015261217081611e53565b9050919050565b6000602082019050818103600083015261219081611e76565b9050919050565b600060208201905081810360008301526121b081611e99565b9050919050565b600060208201905081810360008301526121d081611ebc565b9050919050565b600060208201905081810360008301526121f081611edf565b9050919050565b6000602082019050818103600083015261221081611f02565b9050919050565b6000602082019050818103600083015261223081611f25565b9050919050565b6000602082019050818103600083015261225081611f48565b9050919050565b6000602082019050818103600083015261227081611f6b565b9050919050565b6000602082019050818103600083015261229081611f8e565b9050919050565b600060208201905081810360008301526122b081611fb1565b9050919050565b600060208201905081810360008301526122d081611fd4565b9050919050565b600060208201905081810360008301526122f081611ff7565b9050919050565b600060208201905081810360008301526123108161201a565b9050919050565b600060208201905081810360008301526123308161203d565b9050919050565b600060208201905061234c6000830184612060565b92915050565b600061235c61236d565b905061236882826125bf565b919050565b6000604051905090565b600067ffffffffffffffff821115612392576123916126f7565b5b61239b82612726565b9050602081019050919050565b600067ffffffffffffffff8211156123c3576123c26126f7565b5b6123cc82612726565b9050602081019050919050565b600081519050919050565b600081519050919050565b600082825260208201905092915050565b600082825260208201905092915050565b600081905092915050565b600061242782612541565b915061243283612541565b9250827fffffffffffffffffffffffffffffffffffffffffffffffffffffffffffffffff038211156124675761246661266a565b5b828201905092915050565b600061247d82612541565b915061248883612541565b92508261249857612497612699565b5b828204905092915050565b60006124ae82612541565b91506124b983612541565b9250828210156124cc576124cb61266a565b5b828203905092915050565b60006124e282612521565b9050919050565b60008115159050919050565b60007fffffffff0000000000000000000000000000000000000000000000000000000082169050919050565b600073ffffffffffffffffffffffffffffffffffffffff82169050919050565b6000819050919050565b82818337600083830152505050565b60005b8381101561257857808201518184015260208101905061255d565b83811115612587576000848401525b50505050565b600060028204905060018216806125a557607f821691505b602082108114156125b9576125b86126c8565b5b50919050565b6125c882612726565b810181811067ffffffffffffffff821117156125e7576125e66126f7565b5b80604052505050565b60006125fb82612541565b91507fffffffffffffffffffffffffffffffffffffffffffffffffffffffffffffffff82141561262e5761262d61266a565b5b600182019050919050565b600061264482612541565b915061264f83612541565b92508261265f5761265e612699565b5b828206905092915050565b7f4e487b7100000000000000000000000000000000000000000000000000000000600052601160045260246000fd5b7f4e487b7100000000000000000000000000000000000000000000000000000000600052601260045260246000fd5b7f4e487b7100000000000000000000000000000000000000000000000000000000600052602260045260246000fd5b7f4e487b7100000000000000000000000000000000000000000000000000000000600052604160045260246000fd5b6000601f19601f8301169050919050565b7f4552433732313a207472616e7366657220746f206e6f6e20455243373231526560008201527f63656976657220696d706c656d656e7465720000000000000000000000000000602082015250565b7f4552433732313a207472616e736665722066726f6d20696e636f72726563742060008201527f6f776e6572000000000000000000000000000000000000000000000000000000602082015250565b7f4552433732313a20746f6b656e20616c7265616479206d696e74656400000000600082015250565b7f4552433732313a207472616e7366657220746f20746865207a65726f2061646460008201527f7265737300000000000000000000000000000000000000000000000000000000602082015250565b7f4552433732313a20617070726f766520746f2063616c6c657200000000000000600082015250565b7f4552433732313a206f70657261746f7220717565727920666f72206e6f6e657860008201527f697374656e7420746f6b656e0000000000000000000000000000000000000000602082015250565b7f4552433732313a20617070726f76652063616c6c6572206973206e6f74206f7760008201527f6e6572206e6f7220617070726f76656420666f7220616c6c0000000000000000602082015250565b7f4552433732313a2062616c616e636520717565727920666f7220746865207a6560008201527f726f206164647265737300000000000000000000000000000000000000000000602082015250565b7f4552433732313a206f776e657220717565727920666f72206e6f6e657869737460008201527f656e7420746f6b656e0000000000000000000000000000000000000000000000602082015250565b7f45524337323155524953746f726167653a2055524920736574206f66206e6f6e60008201527f6578697374656e7420746f6b656e000000000000000000000000000000000000602082015250565b7f4552433732313a206d696e7420746f20746865207a65726f2061646472657373600082015250565b7f45524337323155524953746f726167653a2055524920717565727920666f722060008201527f6e6f6e6578697374656e7420746f6b656e000000000000000000000000000000602082015250565b7f4552433732313a20617070726f76656420717565727920666f72206e6f6e657860008201527f697374656e7420746f6b656e0000000000000000000000000000000000000000602082015250565b7f4552433732314d657461646174613a2055524920717565727920666f72206e6f60008201527f6e6578697374656e7420746f6b656e0000000000000000000000000000000000602082015250565b7f4552433732313a20617070726f76616c20746f2063757272656e74206f776e6560008201527f7200000000000000000000000000000000000000000000000000000000000000602082015250565b7f4552433732313a207472616e736665722063616c6c6572206973206e6f74206f60008201527f776e6572206e6f7220617070726f766564000000000000000000000000000000602082015250565b612bbe816124d7565b8114612bc957600080fd5b50565b612bd5816124e9565b8114612be057600080fd5b50565b612bec816124f5565b8114612bf757600080fd5b50565b612c0381612541565b8114612c0e57600080fd5b5056fea2646970667358221220b24cf559c4399e299195b74e49f1e1fe92db1c6832f7afd2e06fe4035038e59c64736f6c63430008040033",
  "linkReferences": {},
  "deployedLinkReferences": {}
}